:100000000C949E000C94C6000C94C6000C94E9124B
:100010000C94E9120C94E9120C94C6000C94C600DE
:100020000C94C6000C94C6000C94C6000C94C60038
:100030000C94C6000C94C6000C94C6000C94C60028
:100040000C949F120C94C6000C946D120C944712E1
:100050000C94C6000C94C6000C94C6000C94C60008
:100060000C94C6000C94C600523A2041434B0A003F
:100070000A00543A2000453A204352430A000A003D
:10008000453A204D7367546F6F4C6F6E670A003AA4
:1000900000523A2000543A2046575665720A0054DE
:1000A0003A2048575665722C5479700A00433A201A
:1000B000577269746520454550524F4D0A00433AC6
:1000C000205265616420454550524F4D0A00200082
:1000D000533A200000000000240027002A000000FE
:1000E00000080002010000030407000000000000F7
:1000F00000000A00423A20324120000000000023A4
:10010000002600290000000000250028002B000424
:1001100004040404040404020202020202030303AE
:1001200003030301020408102040800102040810A8
:1001300020010204081020005B138C1611241FBE3E
:10014000CFEFD8E0DEBFCDBF11E0A0E0B1E0EAE143
:10015000F8E302C005900D92A039B107D9F722E06B
:10016000A0E9B1E001C01D92AC3EB207E1F710E09A
:10017000CDE9D0E004C02197FE010E941219CC39CC
:10018000D107C9F70E94D7130C94001C0C940000EF
:10019000FB012081318198E0A901220F331F87FDE7
:1001A000216057FF04C0F2E02F27F0E13F27880FBE
:1001B000915091F7FB01318320830895AF92BF9254
:1001C000CF92DF92EF92FF920F931F93CF93DF9323
:1001D0006C017B018B01040F151FEB015E01AE1852
:1001E000BF08C017D10759F06991D601ED91FC9174
:1001F0000190F081E02DC6010995892B79F7C501A1
:10020000DF91CF911F910F91FF90EF90DF90CF90F2
:10021000BF90AF900895FC01538D448D252F30E0A1
:10022000842F90E0821B930B541710F0CF96089503
:1002300001970895FC01918D828D981761F0A28D30
:10024000AE0FBF2FB11D5D968C91928D9F5F9F73F6
:10025000928F90E008958FEF9FEF0895FC01918DAC
:10026000828D981731F0828DE80FF11D858D90E019
:1002700008958FEF9FEF0895FC01918D228D892FB6
:1002800090E0805C9F4F821B91098F73992708959E
:100290008CE292E00E943C0121E0892B09F420E0ED
:1002A000822F089580E090E0892B29F00E94480178
:1002B00081110C9400000895FC01A48DA80FB92FA2
:1002C000B11DA35ABF4F2C91848D90E001968F737E
:1002D0009927848FA689B7892C93A089B1898C919D
:1002E000837080648C93938D848D981306C00288EC
:1002F000F389E02D80818F7D80830895EF92FF92B6
:100300000F931F93CF93DF93EC0181E0888F9B8D38
:100310008C8D98131AC0E889F989808185FF15C0F2
:100320009FB7F894EE89FF896083E889F989808115
:100330008370806480839FBF81E090E0DF91CF91E4
:100340001F910F91FF90EF900895F62E0B8D10E006
:100350000F5F1F4F0F731127E02E8C8D8E110CC075
:100360000FB607FCFACFE889F989808185FFF5CFC0
:10037000CE010E945C01F1CFEB8DEC0FFD2FF11D42
:10038000E35AFF4FF0829FB7F8940B8FEA89FB89FD
:1003900080818062CFCFCF93DF93EC01888D88235B
:1003A000B9F0AA89BB89E889F9898C9185FD03C0D8
:1003B000808186FD0DC00FB607FCF7CF8C9185FFBD
:1003C000F2CF808185FFEDCFCE010E945C01E9CFA5
:1003D000DF91CF910895833081F028F4813099F036
:1003E0008230A9F008958730A9F08830C9F08430B0
:1003F000B1F4809180008F7D03C0809180008F7761
:1004000080938000089584B58F7784BD089584B566
:100410008F7DFBCF8091B0008F778093B0000895DF
:100420008091B0008F7DF9CFCF93DF93282F30E0FC
:10043000F901E252FF4F8491F901ED5DFE4FD49135
:10044000F901E15FFE4FC491CC23A1F081110E941C
:10045000EB01EC2FF0E0EE0FFF1FE550FF4FA591F1
:10046000B491EC91ED2381E090E009F480E0DF911C
:10047000CF91089580E090E0FACF1F93CF93DF9360
:10048000282F30E0F901E252FF4F8491F901ED5D30
:10049000FE4FD491F901E15FFE4FC491CC23A9F046
:1004A000162F81110E94EB01EC2FF0E0EE0FFF1FE1
:1004B000EB5FFE4FA591B4918FB7F894EC911111B9
:1004C00008C0D095DE23DC938FBFDF91CF911F91C1
:1004D0000895DE2BF8CFCF93DF9390E0FC01ED5D24
:1004E000FE4F2491815F9E4FFC0184918823C9F0C7
:1004F00090E0880F991FFC01EC52FF4FA591B49139
:10050000FC01EB5FFE4FC591D49161110DC09FB707
:10051000F8948C91209582238C93888128232883BA
:100520009FBFDF91CF910895623051F49FB7F89447
:100530003C91822F809583238C93E8812E2BEFCFE3
:100540008FB7F894EC912E2B2C938FBFEACF8E307F
:1005500008F08E502091000190E4299F9001112411
:100560008770822B80937C0080917A0080648093D6
:100570007A0080917A0086FDFCCF8091780090917E
:10058000790008952FB7F8946091F0017091F1010E
:100590008091F2019091F3012FBF08950895DC013D
:1005A00012963C9112976317A0F4262F30E0220F89
:1005B000331F13968D919C91280F391FF90180816B
:1005C0009181DC01ED91FC910280F381E02DBA0173
:1005D0000994FA01108281E008958F929F92AF9260
:1005E000BF92CF92DF92EF92FF920F931F93CF9320
:1005F000DF93EC01D62EB42E922EE881F98104848B
:10060000F585E02D83E0882EAA24A394C12CEE2446
:10061000EA94FE2C8701CE010995182F8D819E81C9
:10062000009769F011110BC0DC01ED91FC91019074
:10063000F081E02D092D2B2D4D2DBE010995812F27
:10064000DF91CF911F910F91FF90EF90DF90CF90AE
:10065000BF90AF909F908F900895AF92CF92EF92FE
:100660000F93FC0187819085009771F0AC2CCE2C04
:10067000E02E022F9A01AB01BF01DC01ED91FC914C
:100680000190F081E02D09950F91EF90CF90AF9000
:10069000089508952091F6013091F7012817390740
:1006A00071F49091F4018091F501981741F0E09177
:1006B000F401F0E0E756FE4F808190E008958FEF5F
:1006C0009FEF0895EF92FF921F93CF93DF93EC017A
:1006D0002C8D3D8D2115310561F481E090E09B83E7
:1006E0008A8390E080E0DF91CF911F91FF90EF909F
:1006F0000895E989FA898889482F40951FB7A8E0AD
:10070000B0E050E890E0762F752309F09F5F569592
:100710001197C9F7F894508154235083D901119748
:10072000F1F758E0E62EF12C60FF1EC06081682BC7
:100730006083D9011197F1F7B7017595679551500D
:1007400089F790FF14C09081982B9083D90111975D
:10075000F1F79081892B80831FBF8C8D9D8D019730
:10076000F1F781E090E0BFCF60816423E1CF908119
:100770009423EBCF2091F6013091F7012817390728
:1007800071F48091F5012091F40190E0805C9F4F1D
:10079000821B910960E470E00E94EA18089590E0DD
:1007A00080E008952091F6013091F701281739076C
:1007B000B9F49091F4018091F501981789F0E091D6
:1007C000F401F0E0E756FE4F80812091F40130E023
:1007D0002F5F3F4F2F7333272093F40190E008954C
:1007E0008FEF9FEF089590E080E00895CF92DF9221
:1007F000EF92FF920F931F93CF93DF93EC010E9430
:10080000C2022D85C98CDA8CEB8CFC8CEC81FD81CD
:100810000B89243069F519896C197D098E099F09A6
:100820000130B1F42381348150E040E00E94B918D6
:10083000121B153658F4188B1A8ADF91CF911F912D
:100840000F91FF90EF90DF90CF900895188AF4CF2A
:100850002581368150E040E00E94B918120F15360C
:1008600020F4188B84E68A8BE8CF84E6888BFACF55
:100870001A896C197D098E099F09218130E050E0A9
:1008800040E00E94B918013029F4121B1A8B15366A
:1008900098F6D3CF120F1A8B153620F7CECF4F9282
:1008A0005F926F927F929F92AF92BF92CF92DF92B0
:1008B000EF92FF920F931F93CF93DF931F92CDB7C9
:1008C000DEB76C015B01942E0E94C2022B013C0139
:1008D000D60154962C915497211116C05D968D9196
:1008E0009D910D90BC91A02DB301A201481B590B05
:1008F0006A0B7B0BF6018789908DB0E0A0E048176A
:1009000059076A077B0778F0D6011C961C911C9743
:10091000123009F487C008F05AC0112309F4F4C05A
:10092000113009F46DC0D6011A968D919C911B97D8
:100930000097E1F116964D915D916D917C9119971B
:1009400093018201041B150B260B370BB901A8017B
:10095000B0E0A0E0481759076A077B0738F1D601D5
:1009600016964D925D926D927C921997ED91FC9145
:100970000280F381E02D67E971E0C6010995D50198
:10098000ED91FC910084F185E02DE12CF12C8701A3
:1009900027E931E042E0692DC5010995813009F070
:1009A00052C18AEF90E0F601938782870F90DF9122
:1009B000CF911F910F91FF90EF90DF90CF90BF905C
:1009C000AF909F907F906F905F904F9008951430FC
:1009D00009F450C008F408C1153009F0A4CF60E054
:1009E00013968C910E943D02F601458E568E678EBD
:1009F00070A2158782E08487148A80E293E00FC09A
:100A000060E0F60182810E943D02D6011D961C9392
:100A1000F601458E568E678E70A280E29EE4908F1E
:100A2000878B81CF1E969C911E9750968C915097E4
:100A30008917E0F453961C92D60153966C91539704
:100A400012968C910E943D0282E0F601858783E038
:100A50008487148AD601458E568E678E70A288ECE4
:100A600090E058969C938E9357975DCF81E0F60166
:100A7000838BE2CF61E0F60183810E943D02D601C3
:100A800059964D925D926D927C925C97F601458EDF
:100A9000568E678E70A28089818B15871486338964
:100AA000268590E00480F581E02D3130F1F4821B41
:100AB000910963817481869FA001879F500D969F45
:100AC000500D112458965C934E935797222311F0A2
:100AD000243639F4F6018789908D88519C4F908F88
:100AE000878BD60154961C921ECF422F50E08A016C
:100AF000081B190B65817681069FA001079F500D89
:100B0000169F500D1124DECFF601222309F454C0A4
:100B1000148AC6010E94F603D60150968C91509714
:100B20001E968C93F60182859385892BE1F40480CF
:100B3000F581E02D808180FF16C0D60156968C91FC
:100B4000811111C0F6014682578260867186D501F7
:100B50001F96ED91FC918081B4E68B9FC00111241A
:100B6000F6019387828760E0D60113968C910E94EC
:100B70003D02F601158681E08487458E568E678E8C
:100B800070A288EC90E0908F878B8689882309F487
:100B9000CACE8785880F8983D501ED91FC910280AB
:100BA000F381E02D9E012F5F3F4F41E0692DC5018C
:100BB0000995F601168AB7CE8685808B9389913088
:100BC00079F4128AF60195899111ACCF882319F036
:100BD000843609F0A7CF81E0D60155968C93A2CF39
:100BE00094E652969C93EECF61E013968C910E940E
:100BF0003D02F601418E528E638E748ED601458E73
:100C0000568E678E70A283E0858784E0848783890F
:100C10000480F581E02D52962C915297813029F471
:100C20008181829FC00111241CCF84E690E0821B49
:100C300091094181489F9001499F300D1124F6018F
:100C4000308F278B70CED6011B961C921E921A975E
:100C5000ADCE0F931F93CF93DF93EC018B018C8567
:100C6000811119C0CE010E94F60388899D859230BA
:100C700018F49C859230B0F028899E852917A0F041
:100C800090E2880FF8018083918382E0DF91CF9119
:100C90001F910F9108958E89882311F08F85E6CFDB
:100CA0008E85E4CF90E0EDCF90E1EBCFCF93DF9353
:100CB000EC01F90180818F3FE9F48D85833009F4DF
:100CC0001C8691E09C8B823068F48B89813069F4BA
:100CD00094E69E8792E09C879D89911103C08130A4
:100CE00031F4188ADF91CF9108951E86F3CF84E600
:100CF000888BF8CF893C21F41C8681E08C8BF2CF65
:100D000086958536D0F48E878D89811105C08E85B4
:100D1000811115C084E6888B8D858350823028F53B
:100D2000CE010E94F6038B898130A1F49E858889CB
:100D30008917B0F485E08C87E0CF84E6E4CF843671
:100D400011F4188AE9CF94E6988B8F871E8681E08C
:100D50008E8BE2CF811104C09E858889981750F34D
:100D60008D85843009F0BECFE6CF9E85888998179F
:100D700009F4B8CF82E0DFCFDC011496ED91FC914D
:100D800085819681019621F488EC90E09683858395
:100D900083819481019621F488EC90E0948383838D
:100DA00081818F3F11F484E181830895CF92DF9296
:100DB000EF92FF921F93CF93DF93EC01EB81FC81C5
:100DC000808180FF0AC01B861A86DF91CF911F9118
:100DD000FF90EF90DF90CF9008950E94C202CD80E7
:100DE000DE80EF80F8849B01AC012C193D094E098F
:100DF0005F0969017A01298530E0A8EEB3E00E941D
:100E0000DB18C616D706E806F906F8F282E08987ED
:100E10008A810E94A702E091960111E01E0F1093B3
:100E20009601F0E0EE0FFF1FE057FE4F91838083A5
:100E30000E94C2026D837E838F839887133028F2CD
:100E40001092960120919401309195016091920148
:100E50007091930190E080E0620F731F811D911DDE
:100E60002091900130919101620F731F811D911D9E
:100E700023E030E040E050E00E94B9183B872A8729
:100E8000EB81FC8181818987A0CFFC012385FB0157
:100E90002083FC018285FB01818382E00895DC01CF
:100EA0001396ED91FC91818181508E3F10F08EE17F
:100EB000818308950F931F93CF93DF930091F901DE
:100EC0001091FA010115110581F0EC01FE01649108
:100ED000662359F0D801ED91FC910190F081E02D4D
:100EE000C80109952196892B89F7DF91CF911F9130
:100EF0000F910895809105028F3F19F482E380934A
:100F0000050208959F92AF92BF92CF92DF92EF9227
:100F1000FF920F931F93CF93DF938C015B017A01B4
:100F2000922ED0E0C0E06A0181E0C81AD108CE1547
:100F3000DF0579F0C6018C1B9D0B911001C0CE011D
:100F40008A0D9B1D0E947118F80181938F012196D3
:100F5000EECFDF91CF911F910F91FF90EF90DF9037
:100F6000CF90BF90AF909F900895CF93DF93EC0107
:100F70004E8550E020E061E070E08F8598890E9406
:100F80008207EF85F88981819281238134813183C1
:100F9000EF85F8892283EF85F8899383EF85F889B7
:100FA000848380912B02816080932B02DF91CF910B
:100FB00008952F923F924F925F926F927F928F92FD
:100FC0009F92AF92BF92CF92DF92EF92FF920F93D8
:100FD0001F93CF93DF9300D000D000D01F92CDB7E6
:100FE000DEB76C013B0119012A0110E039ECB32E88
:100FF000D60112968C91181708F09AC0B9E01B9F81
:1010000040011124F60163817481680D791D21E08E
:1010100044E050E0CE0101960E94820789819A81C6
:10102000AB81BC818F3FFFEF9F07AF07BF0709F47C
:1010300071C082159305A405B50509F06BC0D601F2
:1010400013966D917C916C5F7F4F680D791D20E048
:1010500041E050E0CE0105960E9482078D81801309
:1010600059C0F601638174816B5F7F4F680D791DF4
:1010700020E041E050E0CE0105960E948207FD800D
:10108000FE1048C0D60113966D917C916A5F7F4F28
:10109000680D791D20E041E050E0CE0106960E94E7
:1010A0008207F601638174818E81AA2049F190E064
:1010B00023E0959587952A95E1F787708E83685F81
:1010C0007F4F680D791D20E041E050E0CE0107968A
:1010D0000E9482078E81823021F1B8F48823E1F0EA
:1010E0008130E9F0D301ED91FC910280F381E02D94
:1010F0009E01295F3F4F41E06F2DC30109950AC052
:1011000087708E83695F7F4FDCCF843079F058F031
:10111000853041F71F5F6CCFF8ECFF83E3CFBF82D0
:10112000E1CF1F82DFCF2FEF2F83DCCF0000DACF9C
:1011300027960FB6F894DEBF0FBECDBFDF91CF91DB
:101140001F910F91FF90EF90DF90CF90BF90AF90E5
:101150009F908F907F906F905F904F903F902F90D7
:101160000895FB0101900020E9F73197AF01461B7C
:10117000570BDC01ED91FC910280F381E02D099485
:101180008F929F92AF92BF92EF92FF920F931F9315
:10119000CF93DF93CDB7DEB7A1970FB6F894DEBF3C
:1011A0000FBECDBF7C01FA01CB0119A2223008F499
:1011B0002AE08E010F5D1F4F822E912CB12CA12CA5
:1011C000BF01A50194010E94B918F901CA016A3052
:1011D0000CF5605DD8016E938D01232B242B252BFC
:1011E00079F790E080E0109721F0BD01C7010E94DF
:1011F000B108A1960FB6F894DEBF0FBECDBFDF9148
:10120000CF911F910F91FF90EF90BF90AF909F9063
:101210008F900895695CDECFCF93C82F8091F9013C
:101220009091FA010097D9F04C2F50E024E05595A9
:1012300047952A95E1F7052E000C660B770B20E108
:101240000E94C008CF704C2F50E070E060E020E1B9
:101250008091F9019091FA01CF910C94C008CF913F
:1012600008956F927F929F92AF92CF92DF92EF920A
:10127000FF921F93CF93DF93EC017C0187E6E80E8A
:10128000F11CAA24AA943E01A3E66A0E711C35E063
:10129000932ECC24CA94DC2C8C899D89DC01ED91A1
:1012A000FC910084F185E02D0995892B09F4BEC0DD
:1012B0000E94C202F70160837183828393838C89C9
:1012C0009D89DC01ED91FC910284F385E02D099567
:1012D000182F81E990E01D3F11F08FE890E00E9407
:1012E0005A07812F0E940C098F891C3F29F481FD28
:1012F0001FC082608F8BD0CF1D3FD1F48D7F816066
:101300008F8B1092DD011092DC01F30110821182AB
:10131000128213821D8E1E8E1F8E18A2D092DB01A8
:10132000C092DA016AED71E08DEF0E94C800B4CF7F
:1013300080FFB2CF81FF03C010688D7F8F8B6AED75
:1013400071E0812F0E94C8008091DC01843088F414
:101350004D8D5E8D6F8D78A1762F652F542F44278C
:10136000412B4D8F5E8F6F8F78A38F5F8093DC0151
:1013700093CF843029F49092DC011093D9018CCF63
:101380002091D90123FF12C0893080F4D3014D91FF
:101390005D916D917C91762F652F542F4427412BC1
:1013A000F3014083518362837383DFCF8F3F71F0FA
:1013B000A092DC0119A3113408F46ECF8F898E7FBF
:1013C0008F8B80E890E00E945A0766CF8091DD0104
:1013D000FE01E80FF11D12A391E0980F9093DD013B
:1013E00039A1931359CF4091DA015091DB01452B7C
:1013F000D1F49F899E7F9F8BFE01EE59FF4F208382
:10140000815089A381E08C8F8EE790E0DF91CF91AE
:101410001F91FF90EF90DF90CF90AF909F907F90C3
:101420006F900C945A0786E790E0CDCFDF91CF9173
:101430001F91FF90EF90DF90CF90AF909F907F90A3
:101440006F900895EF92FF920F931F93CF938C01AB
:10145000C62F7A018091F9019091FA01009721F04D
:1014600065E871E00E94B1088C2F0E940C09E1141C
:10147000F10421F0B7018C2F0E94C80084E08C0F8A
:10148000833068F4D80154968D919C91DC01ED91E4
:10149000FC910190F081E02D6CEF0995CF77F80178
:1014A00084899589DC01ED91FC910190F081E02D1A
:1014B0006C2FCF911F910F91FF90EF9009948F9215
:1014C0009F92AF92BF92CF92DF92EF92FF920F93D3
:1014D0001F93CF93DF9300D0CDB7DEB78C018FEF92
:1014E0009FEF9A838983780123E7E20EF11CF701CD
:1014F00080819181A281B3818F3F9F4FAF4FBF4FBA
:1015000099F0F801E958FF4FD801AE59BF4F8C91BF
:1015100090E095958795837020E2829FC001112409
:1015200090819F79892B808382E790E00E945A07FF
:101530008DEF0E940C0961E0D80156968C910E94B3
:101540003D02F80184899589DC01ED91FC910190BF
:10155000F081E02D6DEF0995BE016F5F7F4F8DEF3C
:101560000E94C800F70180809180A280B38054E07F
:10157000F52E6B2D772788279927AE014F5F5F4F98
:10158000C8010E94220ABA2CA92C982C8824FA940B
:10159000F110EFCFAE014F5F5F4F7801F7E7EF0E2D
:1015A000F11CD7016C91C8010E94220AF7018081C9
:1015B00083FF1AC0D80158968D909D90AD90BC9035
:1015C0005B9724E0F22E6B2D772788279927AE01B1
:1015D0004F5F5F4FC8010E94220ABA2CA92C982C99
:1015E0008824FA94F110EFCF6801B8E7CB0ED11C34
:1015F000F60160816E5FAE014F5F5F4FC8010E94D0
:10160000220AF12CD6018C91F81670F4F801EF0D36
:10161000F11DE758FF4FAE014F5F5F4F6081C8017A
:101620000E94220AF394EECFBE016F5F7F4F80E0ED
:101630000E94C800BE016F5F7F4F80E00E94C8001B
:101640006A8150E040E0C8010E94220A50E040E078
:101650006981C8010E94220AF80184899589DC0108
:10166000ED91FC910680F781E02D099560E0F8018D
:1016700086890E943D02D80157968C9157978860C1
:1016800057968C9380E790E00E945A070F900F9036
:10169000DF91CF911F910F91FF90EF90DF90CF904E
:1016A000BF90AF909F908F900895AF92BF92CF92CE
:1016B000DF92EF92FF920F931F93CF93DF938C01F2
:1016C000C62FD42F790180ED90E00E945A078C2F0D
:1016D0000E940C098EEC90E00E945A0767015701A6
:1016E000AD0EB11CAC14BD0431F0D6018D916D016D
:1016F0000E940C09F7CF8091F9019091FA010097AF
:1017000021F067E871E00E94B108F8018281C817F2
:10171000F8F46C2F70E0660F771F83819481680F57
:10172000791FDB018D919C91DC01ED91FC91019081
:10173000F081E02D97014D2FB801DF91CF911F91DE
:101740000F91FF90EF90DF90CF90BF90AF900994F2
:10175000DF91CF911F910F91FF90EF90DF90CF908D
:10176000BF90AF9008951F93CF93DF93EC01162F96
:101770000E947118181739F0612FCE01DF91CF91B7
:101780001F910C947918DF91CF911F910895EF92DA
:10179000FF920F931F93CF93DF93CDB7DEB764977C
:1017A0000FB6F894DEBF0FBECDBF8B01FC01608D7C
:1017B000718D828D938D20E836E948E950E00E94D2
:1017C000B9189F938F937F936F9389E891E09F93CC
:1017D0008F93CE0101967C019F938F930E942819CD
:1017E00088E4F801808382E4818387E58283D801DD
:1017F000139687E0F70101900D928A95E1F70FB6F5
:10180000F894DEBF0FBECDBF64960FB6F894DEBF6E
:101810000FBECDBFDF91CF911F910F91FF90EF9041
:101820000895BF92CF92DF92EF92FF920F931F9392
:10183000CF93DF93EC01062FB42E6623B9F10E94FB
:10184000C202FE01E959FF4FC080D180E280F380DF
:10185000AB01BC014C195D096E097F097E012BE6C5
:10186000E20EF11CF70180819181B0E0A0E08417C5
:101870009507A607B70758F081E0DF91CF911F9138
:101880000F91FF90EF90DF90CF90BF9008950E944E
:10189000191824E630E040E050E00E9487186E52AC
:1018A0007F4F8F4F9F4FF7017183608381E0FE016F
:1018B000E359FF4F8083369680819181A281B38165
:1018C0008F3F9F4FAF4FBF4F09F44AC0FE01E95809
:1018D000FF4F80818370813009F442C010E0B1165F
:1018E00009F445C0CE010E945F0A0E94C2026B014A
:1018F0007C010E94C2026C197D098E099F09683C17
:10190000710581059105E0F4CE010E9431098C8DAD
:10191000882379F34D8D5E8D6F8D78A1888D998D9B
:10192000AA8DBB8D481759076A077B0711F71C8ED4
:10193000CE010E94BC0D8F8983FDDBCF80E09DCF5F
:10194000011102C01F5FCBCF0E94C2026C197D093A
:101950008E099F09663971058105910598F78CCF2D
:10196000CE010E945F0A8F89877F8F8BE7CF82E04D
:1019700084CFCF93DF93EC01FC01ED58FF4F8FEF45
:101980009FEFDC0180839183A283B383349688EF39
:101990008083319680E18083319681E48083319623
:1019A000108231968D8580833196898980838A89DA
:1019B0009B893196908331968083BE0161587F4F19
:1019C000CE010E94C70B80912B0282FD07C043E02D
:1019D00061E0CE01DF91CF910C94110C81E0DF9199
:1019E000CF910895CF93DF9350912B0252FD27C0E2
:1019F000EC01FC01ED58FF4F8FEF9FEFDC0180837E
:101A00009183A283B383349688EF8083319683E0F9
:101A1000840F808331968BE4808331966083319686
:101A2000108250E0B901CE0184589F4F0E941819CE
:101A300043E061E0CE01DF91CF910C94110C81E085
:101A4000DF91CF9108958F92AF92CF92EF92FF9254
:101A50000F931F93CF93DF93CDB7DEB7342F482D6D
:101A600050912B0252FD2CC0FC01ED58FF4FE0823B
:101A7000F1820283138358EF3496508354E03196F9
:101A800050835BE431965083319660833196C082F7
:101A9000211114C022E0FC01E458FF4F330F330F33
:101AA000320F30836A2DDF91CF911F910F91FF90FC
:101AB000EF90CF90AF908F900C94110C23E0EBCF70
:101AC00081E0DF91CF911F910F91FF90EF90CF9028
:101AD000AF908F900895CF92DF92EF92FF920F9385
:101AE0001F93CF93DF9350912B0252FD3BC0FC011B
:101AF000ED58FF4FE082F18202831383EF28E02A42
:101B0000E12A69F4EC01AF85B8891196CD90DD909A
:101B1000ED90FC901497C082D182E282F382EC01B6
:101B2000FC01E958FF4F88EF8083319682E0840FF3
:101B30008083319689E680833196608350E0B901D5
:101B4000CE0185589F4F0E94181943E061E0CE01F5
:101B5000DF91CF911F910F91FF90EF90DF90CF9089
:101B60000C94110C81E0DF91CF911F910F91FF90A8
:101B7000EF90DF90CF9008950F931F93CF93DF9353
:101B8000EC01FC01E259FF4F81E080838F898E01D7
:101B90000E591F4F83FF28C0F801808190E025E097
:101BA000959587952A95E1F7282F23707596808162
:101BB00090E0959587958370281316C0749740819F
:101BC000518162817381709680819181A281B381FC
:101BD000481759076A077B0739F488E690E00E94A6
:101BE0005A078F89877F8F8BF801808183708130BE
:101BF00029F189A1811128C08D8D9E8DAF8DB8A14D
:101C00008F3F9F4FAF4FBF4FF9F0FE01ED58FF4F91
:101C1000DE01AD59BF4F8D919D910D90BC91A02DCE
:101C200080839183A283B383349689E18083319644
:101C3000108243E060E0CE010E94110C80E0DF9151
:101C4000CF911F910F91089581E0F9CFCF92DF924C
:101C5000EF92FF920F931F93CF93DF93EC0180914C
:101C60002B0280FF23C0E881F9810680F781E02DF7
:101C7000CE01099510E08A81181798F4812F90E021
:101C8000880F991FEB81FC81E80FF91F80819181FA
:101C9000DC01ED91FC910680F781E02D09951F5F35
:101CA000EACF80912B028E7F80932B02CE010E947F
:101CB00031098C8D882371F11C8E8D8D9E8DAF8D99
:101CC000B8A1488D598D6A8D7B8D84179507A6071D
:101CD000B70729F08F3F9F4FAF4FBF4FD9F4CE01C9
:101CE0000E94BC0D8823B1F021E08D8D9E8DAF8DBB
:101CF000B8A18F3F9F4FAF4FBF4F09F020E0E88161
:101D0000F9810288F389E02D49A1BE016E5D7F4F04
:101D1000CE01099580912B0281FD13C00E94C20261
:101D2000683E73408105910560F0CE010E94B90CB8
:101D300091E0811190E080912B0290FB81F98093DA
:101D40002B024091EA01842F90E0880F991FEB81CC
:101D5000FC81E80FF91F80819181DC01ED91FC91FC
:101D60000480F581E02DBE0109958091EA018F5F25
:101D70008093EA019A81891710F01092EA0189850F
:101D8000882309F44AC00E94C2026B017C01898544
:101D90009CEE980F923040F40E94A70221E08A3F07
:101DA00091053CF020E005C00E94140221E0892B3F
:101DB000C9F78091F801823009F4DAC008F089C0CF
:101DC000882309F4A0C0813009F4ABC08A85882338
:101DD00021F14091DE015091DF016091E0017091AD
:101DE000E10197018601041B150B260B370BB90186
:101DF000A80145365105610571057CF09091F80107
:101E0000953008F0F9C0923008F0FFC0992309F42A
:101E100004C161E0913009F401C10E94C202009145
:101E2000E6011091E7012091E8013091E901601B82
:101E3000710B820B930B6D3371058105910508F4CD
:101E40003FC08B858823F9F09C8589130CC0DE0187
:101E5000A259BF4F9C91992331F091E0FE01E359C3
:101E6000FF4F90831C929091F801992319F09A8565
:101E7000891749F08E0103591F4FD8016C910E94B8
:101E80003D02F80110828C85882381F09B8589179B
:101E900069F09091F801992319F09A85891731F02A
:101EA000C259DF4F68810E943D0218820E94C2021F
:101EB0006093E6017093E7018093E8019093E90154
:101EC000DF91CF911F910F91FF90EF90DF90CF9016
:101ED0000895843009F470C008F44EC0853009F0CC
:101EE00075CF211173CF10E000E06FEFC8010E94A1
:101EF000B30B0F5F1F4F0C3F63E01607B1F7CE0126
:101F00000E94B50732C0222319F081E08093F801C6
:101F1000C092E201D092E301E092E401F092E50187
:101F200055CF8091E2019091E301A091E401B0913D
:101F3000E501B701A601481B590B6A0B7B0BDB01BE
:101F4000CA01222351F089389341A105B1050CF44F
:101F50003DCF82E08093F80139CF85369105A10508
:101F6000B1051CF0CE010E94B90C1092F8012ECFE1
:101F700083E0222359F22ACF8091E2019091E3017C
:101F8000A091E401B091E501B701A601481B590BEE
:101F90006A0B7B0BDB01CA0184369105A105B105F3
:101FA0000CF414CF222311F084E0B0CF813197429A
:101FB000A105B105D4F60ACF8091E2019091E30129
:101FC000A091E401B091E501B701A601481B590BAE
:101FD0006A0B7B0BDB01CA0184369105A105B105B3
:101FE0000CF4F4CE222309F2893B9B40A105B105F4
:101FF0000CF4ECCE85E0AECF953009F00ECF4F3E1D
:102000005240610571050CF408CF0E94140261E092
:10201000892B09F060E08A8501C060E00E943D02E2
:10202000C092DE01D092DF01E092E001F092E10186
:10203000F4CECF92DF92EF92FF920F931F93CF9344
:10204000DF93EC010CEF13E060E070E0CB01CC24F7
:10205000D62EE72EF82EC8010E9471189601282B63
:10206000C701B9010F5F1F4F011534E0130779F75E
:102070006F3F4FEF74078407940721F46FEF7FEFF2
:102080008FEF92E4688F798F8A8F9B8F611571052E
:102090008105910511F00E9468180E941918C55910
:1020A000DF4F24E630E040E050E00E9487186E5297
:1020B0007F4F8F4F9F4F79836883DF91CF911F911F
:1020C0000F91FF90EF90DF90CF9008954F925F9225
:1020D0006F927F928F929F92AF92BF92CF92DF9238
:1020E000EF92FF920F931F93CF93DF93222309F177
:1020F000DB018C918A3599F08A37B9F0DF91CF9165
:102100001F910F91FF90EF90DF90CF90BF90AF9015
:102110009F908F907F906F905F904F9008958091E7
:102120002B028B7F80932B02E9CF80912B0284605E
:10213000F9CF20912B0222FDE1CF142F5B01EC019E
:10214000FC01ED59FF4F408151816281738170968E
:1021500040835183628373834C01B7E78B0E911CDC
:1021600088E7F4018083D5018C91833509F470C12F
:1021700008F094C0833409F4FCC070F4803409F48E
:10218000D7C0813409F4EFC089E1D4018C93FE01FA
:10219000E858FF4F10826DC08B3409F4F4C08235CB
:1021A00009F40BC1853481F7F50163809481892F8F
:1021B000869586958695492E512C9770FE01E85894
:1021C000FF4F9111DAC08C5F8083408150E070E056
:1021D00060E08E0107581F4FC8010E94211985E653
:1021E000D8018C93F5018181FE01E658FF4F808371
:1021F000D50112968C9112973196808313968C910B
:1022000031968083712CD12CC12C10E000E0812C00
:10221000912C54018394F12CE12CE614F70414F56D
:10222000C7018C0D9D1D0E9471188F3F09F4A7C036
:10223000F80123E0F595E7952A95E1F7EC0FFD1FEE
:10224000E358FF4FC80187709927A501940104C086
:10225000220F331F441F551F8A95D2F7C9012081D1
:10226000822B80830F5F1F4FC60CD71C4016510670
:1022700094F643E060E0CE01DF91CF911F910F9182
:10228000FF90EF90DF90CF90BF90AF909F908F9096
:102290007F906F905F904F900C94110C833709F4EE
:1022A000C8C098F5883609F4AAC08E3609F4B6C0BD
:1022B000873509F069CF13968C9190E00496181732
:1022C000190609F061CF8DEA90E00E945A07F501E6
:1022D000C180D280DC24CD24DC24760104E0011707
:1022E00008F052CFFCEFEF16F3E0FF064CF4F701D5
:1022F000EC19FD09EA0DFB1D6481C7010E94B30BB7
:102300000F5F2FEFE21AF20AEACF883709F491C083
:102310008B3CC9F1863709F037CF85E990E00E9400
:102320005A078A899B89FE01E758FF4F908371C045
:10233000F5018181813699F4163089F4F2E0AF0E0F
:10234000B11C0CEF13E0D5016D915D01C8010E9435
:10235000B30B0F5F1F4F0115B4E01B07A1F7CE01B0
:102360000E94191011CF89E6FE01E758FF4F8083C4
:1023700080CFCE010E94B50707CF8B5F25CF3FEFFF
:10238000E31AF30A4ACFD50113968C91B82FB17096
:10239000CB2EE82EF12CF594E794F594E794E881A0
:1023A000F9810088F189E02DD50112960C911297E0
:1023B00011962C91CE010995E7CE143009F0E4CEA8
:1023C0008EEB90E00E945A07F501E180F280FE2436
:1023D000EF24FE24D12CD50113968C91D81628F524
:1023E0000D2D10E0C8018E0D9F1D0E9471180C0F5D
:1023F0001D1FF801E758FF4F8083D394ECCF8FE97E
:1024000090E00E945A078D85FE01E758FF4F8083B8
:1024100089893196808382E03297A9CFBE016758BF
:102420007F4FCE010E94C70B8AE0FE01E858FF4FA4
:102430009ECF95012E5F3F4F4EEF410FE881F9810E
:102440000280F381E02DD50111966C91CE010995A2
:10245000F501618189E6F82E8E0107581F4FD801DA
:10246000FC92FE01E658FF4F6083E881F981048009
:10247000F581E02DAE0145585F4FCE010995FE0173
:10248000E858FF4F8E5F8083F801F082F2CE1F92F2
:102490000F920FB60F9211242F933F934F935F9398
:1024A0006F937F938F939F93AF93BF93EF93FF931C
:1024B0008CE292E00E945C01FF91EF91BF91AF919D
:1024C0009F918F917F916F915F914F913F912F914C
:1024D0000F900FBE0F901F9018951F920F920FB67E
:1024E0000F9211242F938F939F93EF93FF93E0917B
:1024F0003C02F0913D028081E0914202F091430262
:1025000082FD1BC09081809145028F5F8F73209167
:102510004602821741F0E0914502F0E0E45DFD4F94
:10252000958F80934502FF91EF919F918F912F910D
:102530000F900FBE0F901F9018958081F4CF1F92BF
:102540000F920FB60F9211242F933F938F939F9367
:10255000AF93BF938091F0019091F101A091F201AE
:10256000B091F3013091EF0123E0230F2D3758F59F
:102570000196A11DB11D2093EF018093F00190936E
:10258000F101A093F201B093F3018091EB019091DE
:10259000EC01A091ED01B091EE010196A11DB11DDC
:1025A0008093EB019093EC01A093ED01B093EE01C9
:1025B000BF91AF919F918F913F912F910F900FBE3F
:1025C0000F901F90189526E8230F0296A11DB11DAC
:1025D000D2CF1F920F920FB60F9211242F933F93D9
:1025E0004F935F936F937F938F939F93AF93BF931B
:1025F000EF93FF93E091F601F091F701309709F422
:1026000045C0A685B7852C918585282309F03EC055
:10261000A389B4899C918589809589238C93868927
:1026200097890197F1F7608D718DA685B7855585DE
:1026300038E0CB010197F1F7822F90E095958795CF
:10264000282F4C91452309F02068315091F7809153
:10265000F50190E001968F7399273091F4013817B6
:1026600031F1A091F501B0E0A756BE4F2C938093B5
:10267000F501828D938DDC011197F1F70197F1F748
:10268000A389B4898C919589892B8C93FF91EF91C3
:10269000BF91AF919F918F917F916F915F914F917A
:1026A0003F912F910F900FBE0F901F901895868D20
:1026B0008160868FDECFCF93DF93ECE2F2E013826E
:1026C000128288EE93E0A0E0B0E084839583A68335
:1026D000B78325E631E03183208325EC30E0358770
:1026E000248724EC30E03787268720EC30E0318BDC
:1026F000208B21EC30E0338B228B22EC30E0358BC9
:10270000248B26EC30E0378B268B118E128E138EA5
:10271000148EC9ECD2E01B821A828C839D83AE8317
:10272000BF8387E791E0998388831F8A1E8A198E69
:10273000188E1B8E1A8E1D8E1C8EE7EEF2E08081A5
:102740008E7F808361E082E00E943D0261E082E052
:102750000E946B02E5E2F1E0E491E88BE1E1F1E057
:10276000E491F0E0EE0FFF1FEB5FFE4F8591949137
:102770009A8B898B60E084E00E946B0261E084E0C8
:102780000E943D0284E08C87E7E2F1E0E491ED876E
:10279000E3E1F1E0E491F0E0EE0FFF1FE550FF4FC1
:1027A000859194919F878E87DF91CF910895CF93E4
:1027B000DF93CDB7DEB72A970FB6F894DEBF0FBE12
:1027C000CDBF789484B5826084BD84B5816084BDBA
:1027D00085B5826085BD85B5816085BD80916E00BF
:1027E000816080936E0010928100809181008260F0
:1027F000809381008091810081608093810080912D
:1028000080008160809380008091B100846080931B
:10281000B1008091B00081608093B00080917A0017
:10282000846080937A0080917A00826080937A003D
:1028300080917A00816080937A0080917A0080682C
:1028400080937A001092C10083E080930001E091B0
:102850003C02F0913D0282E08083E0913802F091E9
:1028600039021082E0913A02F0913B0280E18083CC
:1028700010924402E0914002F091410286E0808390
:10288000E0913E02F0913F02808180618083E0917F
:102890003E02F0913F02808188608083E0913E0299
:1028A000F0913F02808180688083E0913E02F09148
:1028B0003F0280818F7D80831092E4021092E302B8
:1028C0001092E2021092E1021092E0021092DF02F6
:1028D0008DEC90E09093E6028093E5029091D50212
:1028E000963108F047C025E530E03093E0022093B0
:1028F000DF022BEC30E03093E2022093E10220E98A
:1029000030E03093E4022093E3022091680084E0F9
:10291000983048F031E09E3008F430E081E001C0AA
:10292000880F3A95EAF7822B809368002DE630E015
:10293000983050F02BE630E09E3030F02CE630E05E
:10294000963110F030E020E03093DD022093DC027D
:10295000292F30E0983008F0D2C181E001C0880F03
:102960009A95EAF78093DE028091E5029091E60263
:102970000197F1F78091E3029091E402892B49F1EC
:10298000E091F601F091F70182E0E93CF80709F1E6
:10299000309739F0A389B4899C91858980958923E2
:1029A0008C938091E7028E7F8093E7021092F5016D
:1029B0001092F40189EC92E09093F7018093F60174
:1029C000E091DC02F091DD0280819091DE02892BA2
:1029D000808380910B0190910C01A0910D01B09129
:1029E0000E018D839E83AF83B88780910F019091F4
:1029F0001001A0911101B091120189839A83AB83D8
:102A0000BC83DE0111965D016E01B5E0CB0ED11CD9
:102A10008BEF682E81E0782EF12CE12C97E1892E46
:102A200091E0992E81E290E00E94A8168C01F501B8
:102A300081915F01D6019D916D01F80191828082A3
:102A4000928383839701255F3D4F358324831386CB
:102A50001286168217821086118661E00E946B0230
:102A600060E0F80183810E943D0261E0D801129686
:102A70008C910E946B0260E0F80182810E943D020D
:102A800055245394D8011C965C921C971D965C9219
:102A90001D9754961C92549755961C925597509694
:102AA0001C92509752961C92529753965C92539751
:102AB00056961C9256971E961C92F3010193119301
:102AC0003F01F7E0EF0EF11C8CE1E816F10409F08C
:102AD000A9CF8CE090E00E94A8168C0183E291E0DF
:102AE000D80111969C938E9385E112968C93129740
:102AF00087E292E014969C938E931397F8011582C7
:102B000016821782108684E081871386128685E1FB
:102B10000E94A702109304020093030285E090E054
:102B20000E94A8167C018FE291E0D70111969C9338
:102B30008E9380E212968C93129788E490E014961C
:102B40009C938E93139789EB90E00E94A8168C01BA
:102B500085E391E0F80191838083E159FF4F80E0A4
:102B600098E39183808332961182108284E2D801A7
:102B70001E968C931E9785E092E050969C938E93C0
:102B80001F9785E012968C9312978BEF91E0149625
:102B90009C938E93139716961C921E9215971896D7
:102BA000FC92EE92179751965C92519782E390E0D7
:102BB00053969C938E93529789EC92E055969C93F2
:102BC0008E93549783E056968C9361E00E946B023B
:102BD00060E0F80186890E943D02D8015C961C9253
:102BE000F801E959FF4F1082118212821382349644
:102BF00082ED90E091838083F8011286138614861B
:102C000082E88587C8010E9419108CE292E09093B7
:102C1000FA018093F901D80119961C921092F801DB
:102C2000C8010E94B50780912B028D7F8B7F809316
:102C30002B028DE491E0F8019183808310932A02A6
:102C40000093290288E0818762E00E946B028DE098
:102C5000D8011A968C9361E00E946B0284EF90E099
:102C60000E945A076E01B9E0CB0ED11C8091E80298
:102C70009091E902009711F48CEE92E0C81AD90AFB
:102C80000091F9011091FA0101151105E9F00D2CDF
:102C9000000CEE08FF082AE0B701A601F7FE11C0FC
:102CA000D801ED91FC910190F081E02D6DE2C80119
:102CB000099544275527BA014C195D096E097F090A
:102CC0002AE0C8010E94C00882EF90E00E945A07E3
:102CD00000E010E08091290290912A02DC01ED9140
:102CE000FC910190F081E02D09950115110591F3FA
:102CF0000E944801882371F30E940000EBCF9E30B0
:102D000040F42850310981E001C0880F2A95EAF784
:102D100029CE2E503109F7CF87E791E09093CA0270
:102D20008093C9028091F6019091F701895C9240ED
:102D300071F4E091DC02F091DD0290818091DE027D
:102D40008095892380831092F7011092F6010895EF
:102D50000F931F93CF93DF938230910510F482E09D
:102D600090E0E091EA02F091EB0230E020E0B0E088
:102D7000A0E0309799F42115310509F44AC0281BC9
:102D8000390B24303105D8F58A819B816115710595
:102D900089F1FB0193838283FE0111C0408151813F
:102DA0000281138148175907E0F04817590799F431
:102DB000109761F012960C93129713961C9332960B
:102DC000CF01DF91CF911F910F9108950093EA02F7
:102DD0001093EB02F4CF2115310551F04217530740
:102DE00038F0A901DB019A01BD01DF01F801C1CF73
:102DF000EF01F9CF9093EB028093EA02CDCFFE0171
:102E0000E20FF31F81939193225031093983288374
:102E1000D7CF2091E8023091E902232B41F4209191
:102E20000301309104013093E9022093E8022091DC
:102E30000101309102012115310541F42DB73EB752
:102E40004091050150910601241B350BE091E802E9
:102E5000F091E902E217F307A0F42E1B3F0B2817AD
:102E6000390778F0AC014E5F5F4F2417350748F003
:102E70004E0F5F1F5093E9024093E80281939193B4
:102E80009FCFF0E0E0E09CCFCF93DF930097E9F095
:102E9000FC01329713821282A091EA02B091EB02F8
:102EA000ED0130E020E01097A1F420813181820F04
:102EB000931F2091E8023091E9022817390709F0A1
:102EC00061C0F093E902E093E802DF91CF910895A9
:102ED000EA01CE17DF07E8F54A815B819E014115C3
:102EE0005105B1F7E901FB83EA8349915991C40F78
:102EF000D51FEC17FD0761F4808191810296840F44
:102F0000951FE90199838883828193819B838A83BA
:102F1000F0E0E0E012968D919C9113970097B9F53F
:102F20002D913C911197CD010296820F931F209114
:102F3000E8023091E9022817390739F6309751F540
:102F40001092EB021092EA02B093E902A093E80219
:102F5000BCCFD383C28340815181840F951FC81792
:102F6000D90761F44E5F5F4F88819981480F591FDF
:102F7000518340838A819B8193838283211531050C
:102F800009F0B0CFF093EB02E093EA029ECFFD018F
:102F9000DC01C0CF13821282D7CF8F929F92AF9263
:102FA000BF92CF92DF92EF92FF92CF93DF93EC012B
:102FB000688179818A819B816115710581059105FF
:102FC00021F464E279ED8BE597E02DE133EF41E008
:102FD00050E00E94871849015A019B01AC01A7EA01
:102FE000B1E40E94A6186B017C01ACEEB4EFA50120
:102FF00094010E94B418C60ED71EE81EF91EF7FEF3
:1030000006C081E0C81AD108E10880E8F80AC88241
:10301000D982EA82FB82C701B6019F77DF91CF9107
:10302000FF90EF90DF90CF90BF90AF909F908F90E8
:1030300008958F929F92AF92BF92CF92DF92EF92BC
:10304000FF926091070170910801809109019091B0
:103050000A01611571058105910521F464E279ED9C
:103060008BE597E02DE133EF41E050E00E948718B7
:1030700049015A019B01AC01A7EAB1E40E94A618DC
:103080006B017C01ACEEB4EFA50194010E94B41871
:10309000C60ED71EE81EF91EF7FE06C081E0C81A4C
:1030A000D108E10880E8F80AC0920701D09208012F
:1030B000E0920901F0920A01C701B6019F77FF90E3
:1030C000EF90DF90CF90BF90AF909F908F9008953A
:1030D00060930701709308018093090190930A019E
:1030E0000895F999FECF92BD81BDF89A992780B5D0
:1030F0000895262FF999FECF1FBA92BD81BD20BD3C
:103100000FB6F894FA9AF99A0FBE01960895052E13
:1031100097FB1EF400940E949E1857FD07D00E9452
:10312000B91807FC03D04EF40C949E1850954095A6
:10313000309521953F4F4F4F5F4F08959095809563
:10314000709561957F4F8F4F9F4F08950E94DB18B8
:10315000A59F900DB49F900DA49F800D911D1124EB
:103160000895B7FF0C94A6180E94A618821B930B13
:103170000895A1E21A2EAA1BBB1BFD010DC0AA1FB8
:10318000BB1FEE1FFF1FA217B307E407F50720F0D0
:10319000A21BB30BE40BF50B661F771F881F991F4B
:1031A0001A9469F760957095809590959B01AC0194
:1031B000BD01CF010895A29FB001B39FC001A39F9D
:1031C000700D811D1124911DB29F700D811D112460
:1031D000911D089597FB072E16F4009407D077FDF4
:1031E00009D00E94FE1807FC05D03EF49095819509
:1031F0009F4F0895709561957F4F0895AA1BBB1B43
:1032000051E107C0AA1FBB1FA617B70710F0A61BE6
:10321000B70B881F991F5A95A9F780959095BC0107
:10322000CD010895EE0FFF1F0590F491E02D099454
:10323000FB01DC0102C001900D9241505040D8F7D3
:103240000895DC0101C06D9341505040E0F70895AE
:10325000AEE0B0E0EEE2F9E10C94D71B0D891E89D7
:1032600086E08C831A8309838FEF9FE79E838D838B
:10327000AE01475E5F4F6F89788DCE0101960E9447
:103280004B192F813885020F131FF80110822E96DB
:10329000E4E00C94F31BABE0B0E0E1E5F9E10C9461
:1032A000C91B7C013B018A01FC01178216828381C4
:1032B00081FFC8C1CE0101965C01F7019381F30142
:1032C00093FD859193FF81913F01882309F453C1B8
:1032D000853239F493FD859193FF81913F018532C9
:1032E00029F4B70190E00E943B1BE7CF912C212CE1
:1032F000312CFFE1F31538F08B3211F190F480326C
:1033000009F1833229F137FC3CC020ED280F2A3027
:1033100050F536FE20C08AE0989E200D1124922E92
:1033200006C08D3291F0803371F7689430F8F30164
:1033300093FD859193FF81913F018111DACF21C0E7
:10334000689431F8689432F8F2CF689433F8EFCF8C
:10335000689434F8ECCFEAE02E9E200D1124222E42
:10336000689435F8E4CF8E3229F436FC04C16894B1
:1033700036F8DDCF8C3619F4689437F8D8CF883614
:10338000B1F2982F9F7D95549330E0F08336A1F1F0
:103390008337C1F1833509F063C02801F2E04F0E95
:1033A000511CF801C080D180692D70E036FC02C04C
:1033B0006FEF7FEFC6010E94251B4C01689437F820
:1033C00082010AC00C5F1F4FFFE3F98388248394B6
:1033D000912C6501E89437F833FE2DC0522C8114EE
:1033E000910471F5552009F468CFB70180E290E0AF
:1033F0000E943B1B5A94F6CFF801808189830E5FAF
:103400001F4FE4CF2801F2E04F0E511CF801C0809D
:10341000D180692D70E036FC02C06FEF7FEFC601EE
:103420000E94301B4C018201D5CFB70180E290E0B1
:103430000E943B1B2A942814190409F0B0F7CECF40
:10344000F60137FC859137FE81916F01B70190E05D
:103450000E943B1B51105A94F1E08F1A9108BFCF84
:10346000843619F0893609F077C0F80137FE6BC051
:1034700060817181828193810C5F1F4FF32DFF76F4
:103480003F2E97FF09C090958095709561957F4F6D
:103490008F4F9F4F689437F82AE030E0A5010E94D3
:1034A0006B1BC82ECA188C2C432C36FE0CC0E8941B
:1034B00040F8C91440F434FE05C032FC03C0F32DBB
:1034C000FE7E4F2E892C44FE95C0FE01EC0DF11DB1
:1034D0008081803309F087C0242D297E422E842DDF
:1034E0008870582E43FC95C040FE8FC09C2C8214DF
:1034F00018F42C0C922C981844FE91C0B70180E36C
:1035000090E00E943B1B42FE09C088E790E041FE2C
:1035100002C088E590E0B7010E943B1BC91408F483
:103520008AC0CA94D12C9FEFC91AD90ACA0CDB1CD5
:10353000F60182916F01B70190E00E943B1BAC1431
:10354000BD04B1F74FCF60817181072E000C880B4D
:10355000990B0E5F1F4F92CFD32CE894D4F82AE03A
:1035600030E0853739F1232D297FD22E8F3601F1B6
:1035700048F48835A9F0F701868197812B96E2E11E
:103580000C94E51B803749F08837A9F7D4FE02C0B8
:103590006894D2F820E130E00DC06894D4F8F6CFFA
:1035A00034FE03C0822F8660D82E20E132E002C0B4
:1035B00028E030E0F801D7FE0FC060817181828180
:1035C00093810C5F1F4FA5010E946B1BC82ECA1868
:1035D0003D2CE89437F867CF6081718190E080E0FE
:1035E0000E5F1F4FF0CF42FC02C0839478CF8394CC
:1035F000839475CF842D867809F471CFF6CFB70107
:1036000080E290E00E943B1B83948214C0F3512C13
:1036100073CF522C5818821408F46ECFF8CF842D33
:10362000867809F47BCF8BE241FE80E247FC8DE295
:10363000B70190E071CFB70180E390E00E943B1B9F
:103640009A946CCF8FEF9FEF99CFFC01059061505A
:1036500070400110D8F7809590958E0F9F1F0895A8
:10366000FC016150704001900110D8F78095909551
:103670008E0F9F1F08950F931F93CF93DF93182FE3
:10368000092FEB018B8181FD09C01FEF0FEF812F07
:10369000902FDF91CF911F910F91089582FF14C059
:1036A0002E813F818C819D81281739073CF4E88168
:1036B000F981CF0101969983888310838E819F8140
:1036C00001969F838E83E3CFE885F985812F099545
:1036D000892BA1F3DACFFA01AA27283051F1203142
:1036E00081F1E8946F936E7F6E5F7F4F8F4F9F4F96
:1036F000AF4FB1E03ED0B4E03CD0670F781F891FD8
:103700009A1FA11D680F791F8A1F911DA11D6A0FA5
:10371000711D811D911DA11D20D009F468943F9158
:103720002AE0269F11243019305D3193DEF6CF0157
:103730000895462F4770405D4193B3E00FD0C9F71D
:10374000F6CF462F4F70405D4A3318F0495D31FD8A
:103750004052419302D0A9F7EACFB4E0A6959795DD
:10376000879577956795BA95C9F7009761057105B3
:1037700008959B01AC010A2E0694579547953795FD
:103780002795BA95C9F7620F731F841F951FA01D57
:1037900008952F923F924F925F926F927F928F92F5
:1037A0009F92AF92BF92CF92DF92EF92FF920F93D0
:1037B0001F93CF93DF93CDB7DEB7CA1BDB0B0FB6DA
:1037C000F894DEBF0FBECDBF09942A883988488897
:1037D0005F846E847D848C849B84AA84B984C8842D
:1037E000DF80EE80FD800C811B81AA81B981CE0F24
:1037F000D11D0FB6F894DEBF0FBECDBFED01089509
:1038000010E0CDE9D0E004C0FE010E94121921961B
:0A381000CE39D107C9F7F894FFCFB5
:10381A00010000EC02800001000000060F111305F0
:10382A000E101200000000560629064F04BC0600BE
:10383A0000000049034507D6064F0700000000D9DB
:10384A000700000000260E550BCF02CE026B0DEDCD
:10385A0002230DF20C2D03661000000000260E55FF
:10386A000BCF027A076B0DED02230DF20C2D0366C6
:10387A0010000000007E01DE000B01CB013C011AA2
:10388A00012E01000000006203DE00F303CE02BA3B
:10389A0003D2034A033A000A002530376C75000048
:107800000C94343C0C94513C0C94513C0C94513CE1
:107810000C94513C0C94513C0C94513C0C94513CB4
:107820000C94513C0C94513C0C94513C0C94513CA4
:107830000C94513C0C94513C0C94513C0C94513C94
:107840000C94513C0C94513C0C94513C0C94513C84
:107850000C94513C0C94513C0C94513C0C94513C74
:107860000C94513C0C94513C11241FBECFEFD8E036
:10787000DEBFCDBF11E0A0E0B1E0ECE9FFE702C060
:1078800005900D92A230B107D9F712E0A2E0B1E065
:1078900001C01D92AD30B107E1F70E942D3D0C945F
:1078A000CC3F0C94003C982F959595959595959582
:1078B000905D8F708A307CF0282F295A8091C0000B
:1078C00085FFFCCF9093C6008091C00085FFFCCF60
:1078D0002093C6000895282F205DF0CF982F809127
:1078E000C00085FFFCCF9093C6000895EF92FF92F1
:1078F0000F931F93EE24FF2487018091C00087FD22
:1079000017C00894E11CF11C011D111D81E4E8164B
:1079100082E4F8068FE0080780E0180770F3E09132
:107920000401F091050109958091C00087FFE9CF1E
:107930008091C6001F910F91FF90EF9008950E94D3
:10794000763C982F8091C00085FFFCCF9093C600B5
:1079500091362CF490330CF09053892F089597555D
:10796000892F08951F930E949F3C182F0E949F3CCF
:107970001295107F810F1F9108951F93182F882350
:1079800021F00E94763C1150E1F71F9108951F935A
:10799000182F0E94763C803249F0809103018F5F5E
:1079A000809303018530C1F01F9108958091C0003C
:1079B00085FFFCCF84E18093C6008091C00085FFE5
:1079C000FCCF1093C6008091C00085FFFCCF80E102
:1079D0008093C6001F910895E0910401F091050184
:1079E00009951F9108950E94763C803241F0809164
:1079F00003018F5F80930301853081F008958091AA
:107A0000C00085FFFCCF84E18093C6008091C00058
:107A100085FFFCCF80E18093C6000895E0910401CA
:107A2000F09105010995089540E951E08823A1F0FE
:107A30002D9A28EE33E0FA013197F1F721503040CA
:107A4000D1F72D9828EE33E0FA013197F1F7215064
:107A50003040D1F7815061F708953F924F925F9285
:107A60006F927F928F929F92AF92BF92CF92DF924E
:107A7000EF92FF920F931F93CF93DF93000080E16B
:107A80008093C4001092C50088E18093C10086E015
:107A90008093C2005098589A259A81E00E94143D24
:107AA00024E1F22E9EE1E92E85E9D82E0FE0C02ECA
:107AB00010E1B12EAA24A394B1E49B2EA6E58A2E50
:107AC000F2E57F2EE0E26E2E79E4572E63E5462E36
:107AD00050E5352E0E94763C8033B1F18133B9F107
:107AE000803409F46FC0813409F476C0823409F41B
:107AF00085C0853409F488C0803531F1823521F1A3
:107B0000813511F1853509F485C0863509F48DC0BC
:107B1000843609F496C0843709F403C1853709F423
:107B200072C1863709F466C0809103018F5F80932C
:107B30000301853079F6E0910401F0910501099582
:107B40000E94763C803351F60E94F33CC3CF0E94E2
:107B5000763C803249F78091C00085FFFCCFF092DF
:107B6000C6008091C00085FFFCCF9092C600809136
:107B7000C00085FFFCCF8092C6008091C00085FFC9
:107B8000FCCF7092C6008091C00085FFFCCF609250
:107B9000C6008091C00085FFFCCF5092C600809146
:107BA000C00085FFFCCF4092C6008091C00085FFD9
:107BB000FCCF3092C6008091C00085FFFCCFB09210
:107BC000C60088CF0E94763C863808F4BDCF0E945C
:107BD000763C0E94F33C7ECF0E94763C803809F4CC
:107BE0009CC0813809F40BC1823809F43CC1883942
:107BF00009F48FC080E00E94C73C6CCF84E10E94F2
:107C0000BD3C0E94F33C66CF85E00E94BD3C0E94D3
:107C1000F33C60CF0E94763C809306010E94763C44
:107C2000809307010E94F33C55CF0E94763C80333D
:107C300009F41DC183E00E94BD3C80E00E94C73C66
:107C400049CF0E94763C809309020E94763C809343
:107C5000080280910C028E7F80930C020E94763C79
:107C6000853409F415C18091080290910902892B8D
:107C700089F000E010E00E94763CF801E85FFE4FDA
:107C800080830F5F1F4F80910802909109020817AF
:107C9000190788F30E94763C803209F045CF809125
:107CA0000C0280FF01C16091060170910701660F0F
:107CB000771F7093070160930601A0910802B091AD
:107CC00009021097C9F0E8E0F1E09B01AD014E0F09
:107CD0005F1FF999FECF32BD21BD819180BDFA9A17
:107CE000F99A2F5F3F4FE417F50799F76A0F7B1F4B
:107CF00070930701609306018091C00085FFFCCF5F
:107D0000F092C6008091C00085FFFCCFB092C60003
:107D1000E1CE83E00E94C73CDDCE82E00E94C73CFA
:107D2000D9CE0E94763C809309020E94763C8093D3
:107D300008028091060190910701880F991F909386
:107D40000701809306010E94763C853409F4A6C0A1
:107D500080910C028E7F80930C020E94763C8032D0
:107D600009F0B8CE8091C00085FFFCCFF092C6002C
:107D7000609108027091090261157105B9F140E046
:107D800050E080910C02A82FA170B82FB27011C0E2
:107D9000BB2309F45CC0E0910601F0910701319624
:107DA000F0930701E09306014F5F5F4F46175707B7
:107DB000E8F4AA2369F3F999FECF209106013091E6
:107DC000070132BD21BDF89A90B58091C00085FFB2
:107DD000FCCF9093C6002F5F3F4F30930701209355
:107DE00006014F5F5F4F4617570718F38091C00099
:107DF00085FDE5CE8091C00085FFF8CFE0CE81E023
:107E00000E94C73C67CE0E94763C803209F08CCE3F
:107E10008091C00085FFFCCFF092C6008091C00029
:107E200085FFFCCFE092C6008091C00085FFFCCFAB
:107E3000D092C6008091C00085FFFCCFC092C600E2
:107E40008091C00085FFFCCFB092C60043CEE09188
:107E50000601F091070194918091C00085FFFCCF4D
:107E60009093C6009CCF80E10E94C73C33CE0E9415
:107E7000763C0E94763C182F0E94763C112309F430
:107E800083C0113009F484C08FE00E94C73C22CE29
:107E900080910C02816080930C02E5CE80910C02EF
:107EA000816080930C0259CF809107018823880F4D
:107EB000880B8A2180930B02809106019091070123
:107EC000880F991F90930701809306018091080203
:107ED00080FF09C080910802909109020196909359
:107EE000090280930802F894F999FECF1127E091D6
:107EF0000601F0910701C8E0D1E08091080290915D
:107F00000902103091F40091570001700130D9F34B
:107F100003E000935700E89500915700017001308D
:107F2000D9F301E100935700E89509901990009169
:107F3000570001700130D9F301E000935700E89534
:107F40001395103498F011270091570001700130FB
:107F5000D9F305E000935700E895009157000170B0
:107F60000130D9F301E100935700E895329602976A
:107F700009F0C7CF103011F00296E5CF112480919F
:107F8000C00085FFB9CEBCCE8EE10E94C73CA2CD19
:0C7F900085E90E94C73C9ECDF894FFCF0D
:027F9C00800063
:040000030000780081
:00000001FF
