:100000000C9463000C948B000C948B000C94C6121F
:100010000C94C6120C94C6120C948B000C948B009A
:100020000C948B000C948B000C948B000C948B0024
:100030000C948B000C948B000C948B000C948B0014
:100040000C9424120C948B000C9494120C946E1249
:100050000C948B000C948B000C948B000C948B00F4
:100060000C948B000C948B000000000024002700EF
:100070002A0000000008000201000003040700003D
:1000800000000000000000000000230026002900FE
:1000900000000000250028002B00040404040404D0
:1000A0000404020202020202030303030303010227
:1000B00004081020408001020408102001020408F6
:1000C00010203813DE1511241FBECFEFD8E0DEBF9D
:1000D000CDBF11E0A0E0B1E0ECE1F1E302C005909A
:1000E0000D92AE38B107D9F722E0AEE8B1E001C019
:1000F0001D92A93EB207E1F710E0C2E6D0E004C0CD
:100100002197FE010E946B18C136D107C9F70E94E2
:10011000B4130C9481180C940000FB0120813181F0
:1001200098E0A901220F331F87FD216057FF04C00B
:10013000F2E02F27F0E13F27880F915091F7FB0164
:10014000318320830895833081F028F4813099F041
:100150008230A9F008958730A9F08830C9F0843042
:10016000B1F4809180008F7D03C0809180008F77F3
:1001700080938000089584B58F7784BD089584B5F9
:100180008F7DFBCF8091B0008F778093B000089572
:100190008091B0008F7DF9CFCF93DF93282F30E08F
:1001A000F901EE58FF4F8491F901E255FF4FD491C8
:1001B000F901E656FF4FC491CC23A1F081110E94B2
:1001C000A300EC2FF0E0EE0FFF1FEA57FF4FA591C1
:1001D000B491EC91ED2381E090E009F480E0DF91AF
:1001E000CF91089580E090E0FACF1F93CF93DF93F3
:1001F000282F30E0F901EE58FF4F8491F901E255C4
:10020000FF4FD491F901E656FF4FC491CC23A9F0DA
:10021000162F81110E94A300EC2FF0E0EE0FFF1FBC
:10022000E057FF4FA591B4918FB7F894EC9111115D
:1002300008C0D095DE23DC938FBFDF91CF911F9153
:100240000895DE2BF8CFCF93DF9390E0FC01E255C9
:10025000FF4F249186569F4FFC0184918823C9F05B
:1002600090E0880F991FFC01E859FF4FA591B491C8
:10027000FC01E057FF4FC591D49161110DC09FB7AC
:10028000F8948C91209582238C938881282328834D
:100290009FBFDF91CF910895623051F49FB7F894DA
:1002A0003C91822F809583238C93E8812E2BEFCF76
:1002B0008FB7F894EC912E2B2C938FBFEACF8E3012
:1002C00008F08E502091000190E4299F90011124A4
:1002D0008770822B80937C0080917A008064809369
:1002E0007A0080917A0086FDFCCF80917800909111
:1002F000790008952FB7F894609125027091260235
:1003000080912702909128022FBF0895AF92BF924B
:10031000CF92DF92EF92FF920F931F93CF93DF93D1
:100320006C017B018B01040F151FEB015E01AE1800
:10033000BF08C017D10759F06991D601ED91FC9122
:100340000190F081E02DC6010995892B79F7C5014F
:10035000DF91CF911F910F91FF90EF90DF90CF90A1
:10036000BF90AF900895FC01538D448D252F30E050
:10037000842F90E0821B930B541710F0CF960895B2
:1003800001970895FC01918D828D981761F0A28DDF
:10039000AE0FBF2FB11D5D968C91928D9F5F9F73A5
:1003A000928F90E008958FEF9FEF0895FC01918D5B
:1003B000828D981731F0828DE80FF11D858D90E0C8
:1003C00008958FEF9FEF0895FC01918D228D892F65
:1003D00090E0805C9F4F821B91098F73992708954D
:1003E00089E292E00E94E40121E0892B09F420E0F7
:1003F000822F089580E090E0892B29F00E94F0017F
:1004000081110C9400000895FC01A48DA80FB92F50
:10041000B11DA35ABF4F2C91848D90E001968F732C
:100420009927848FA689B7892C93A089B1898C914B
:10043000837080648C93938D848D981306C002889A
:10044000F389E02D80818F7D80830895EF92FF9264
:100450000F931F93CF93DF93EC0181E0888F9B8DE7
:100460008C8D98131AC0E889F989808185FF15C0A1
:100470009FB7F894EE89FF896083E889F9898081C4
:100480008370806480839FBF81E090E0DF91CF9193
:100490001F910F91FF90EF900895F62E0B8D10E0B5
:1004A0000F5F1F4F0F731127E02E8C8D8E110CC024
:1004B0000FB607FCFACFE889F989808185FFF5CF6F
:1004C000CE010E940402F1CFEB8DEC0FFD2FF11D48
:1004D000E35AFF4FF0829FB7F8940B8FEA89FB89AC
:1004E00080818062CFCFCF93DF93EC01888D88230A
:1004F000B9F0AA89BB89E889F9898C9185FD03C087
:10050000808186FD0DC00FB607FCF7CF8C9185FF6B
:10051000F2CF808185FFEDCFCE010E940402E9CFAA
:10052000DF91CF9108950895DC0115963C911597C0
:100530006317A0F4262F30E0220F331F16968D91FB
:100540009C91280F391FF90180819181DC01ED9187
:10055000FC910280F381E02DBA010994FA01108226
:1005600081E00895CF93DF93DC0115968C91159768
:100570006817B0F470E0660F771F16968D919C9106
:100580001797680F791FEB0188819981EC01E88149
:10059000F9810190F081E02DBD01DF91CF910994A7
:1005A000DF91CF910895DC011296ED91FC9161816C
:1005B00072818381948108958F929F92AF92BF92AE
:1005C000CF92DF92EF92FF920F931F93CF93DF931F
:1005D000EC01D62EB42E922EE881F9810484F585A3
:1005E000E02D83E0882EAA24A394C12CEE24EA9463
:1005F000FE2C8701CE010995182F888599850097D3
:1006000069F011110BC0DC01ED91FC910190F081BA
:10061000E02D092D2B2D4D2DBE010995812FDF9148
:10062000CF911F910F91FF90EF90DF90CF90BF90EF
:10063000AF909F908F900895AF92CF92EF920F93CB
:10064000FC018581081708F5802F90E0880F991F1D
:10065000A681B781A80FB91F0D90BC91A02D12964D
:100660008C91811112C082859385009771F0AC2C1A
:10067000CE2CE02E022F9A01AB01BF01DC01ED91DF
:10068000FC910190F081E02D09950F91EF90CF90B2
:10069000AF90089508959F92AF92BF92CF92DF924C
:1006A000EF92FF920F931F93CF93DF93EC017C01A6
:1006B00087E6E80EF11CAA24AA948E010D591F4F5B
:1006C00035E0932ECC24CA94DC2C8C899D89DC01E6
:1006D000ED91FC910084F185E02D0995892B09F4B9
:1006E000A0C00E947A01F7016083718382839383A3
:1006F0008C899D89DC01ED91FC910284F385E02DCC
:100700000995B82E9F898C3F29F491FD1EC09260F7
:100710009F8BDBCF8D3FC9F49D7F91609F8B1092A3
:10072000D9011092D801F80110821182128213822D
:100730001D8E1E8E1F8E18A2D092D701C092D60198
:1007400066ED71E00E948D00C0CF90FFBECF91FF9B
:1007500005C0B82E6894B7F89D7F9F8B66ED71E059
:100760008B2D0E948D008091D801843088F44D8DAE
:100770005E8D6F8D78A1762F652F542F44274B29DE
:100780004D8F5E8F6F8F78A38F5F8093D8019DCF41
:10079000843029F49092D801B092D50196CF20915F
:1007A000D50123FF12C0893080F4D8014D915D91AD
:1007B0006D917C91762F652F542F44274B29F8019A
:1007C0004083518362837383DFCF8F3F59F0A092C0
:1007D000D801B9A2F0E4FB1508F077CF8F898E7F9E
:1007E0008F8B73CF8091D901FE01E80FF11DB2A26A
:1007F00091E0980F9093D90139A1931366CF40915E
:10080000D6015091D701452B09F05FCF9F899E7F7C
:100810009F8BFE01EE59FF4F2083815089A381E019
:100820008C8FDF91CF911F910F91FF90EF90DF9010
:10083000CF90BF90AF909F9008950F931F93CF9349
:100840008C01C62F4115510521F0BA018C2F0E9451
:100850008D0084E08C0F833068F4D80154968D911C
:100860009C91DC01ED91FC910190F081E02D6CEF09
:100870000995CF77F80184899589DC01ED91FC9188
:100880000190F081E02D6C2FCF911F910F91099471
:100890008F929F92AF92BF92CF92DF92EF92FF9290
:1008A0000F931F93CF93DF9300D0CDB7DEB78C01AA
:1008B0008FEF9FEF9A838983780123E7E20EF11C83
:1008C000F70180819181A281B3818F3F9F4FAF4F0C
:1008D000BF4F99F0F801E958FF4FD801AE59BF4F0B
:1008E0008C9190E095958795837020E2829FC0015E
:1008F000112490819F79892B808361E0D8015696DD
:100900008C910E94F500F80184899589DC01ED91B4
:10091000FC910190F081E02D6DEF0995BE016F5FB4
:100920007F4F8DEF0E948D00F70180809180A28023
:10093000B38054E0F52E6B2D772788279927AE01D9
:100940004F5F5F4FC8010E941D04BA2CA92C982C40
:100950008824FA94F110EFCFAE014F5F5F4F78011A
:10096000F7E7EF0EF11CD7016C91C8010E941D043E
:10097000F701808183FF1AC0D80158968D909D9011
:10098000AD90BC905B9724E0F22E6B2D77278827E3
:100990009927AE014F5F5F4FC8010E941D04BA2C1A
:1009A000A92C982C8824FA94F110EFCF6801B8E7AD
:1009B000CB0ED11CF60160816E5FAE014F5F5F4FC1
:1009C000C8010E941D04F12CD6018C91F81670F418
:1009D000F801EF0DF11DE758FF4FAE014F5F5F4F7C
:1009E0006081C8010E941D04F394EECFBE016F5FC9
:1009F0007F4F80E00E948D00BE016F5F7F4F80E0DF
:100A00000E948D006A8150E040E0C8010E941D04F0
:100A100050E040E06981C8010E941D04F80184890A
:100A20009589DC01ED91FC910680F781E02D099517
:100A300060E0F80186890E94F500D80157968C91F4
:100A40005797886057968C930F900F90DF91CF91B6
:100A50001F910F91FF90EF90DF90CF90BF90AF90DC
:100A60009F908F9008952091E8013091E901281717
:100A7000390771F49091E6018091E701981741F0F0
:100A8000E091E601F0E0EB56FE4F808190E00895A2
:100A90008FEF9FEF0895EF92FF921F93CF93DF9315
:100AA000EC012C8D3D8D2115310561F481E090E044
:100AB0009B838A8390E080E0DF91CF911F91FF902C
:100AC000EF900895E989FA898889482F40951FB7E2
:100AD000A8E0B0E050E890E0762F752309F09F5F22
:100AE00056951197C9F7F894508154235083D90132
:100AF0001197F1F758E0E62EF12C60FF1EC06081DF
:100B0000682B6083D9011197F1F7B7017595679547
:100B1000515089F790FF14C09081982B9083D90190
:100B20001197F1F79081892B80831FBF8C8D9D8D4C
:100B30000197F1F781E090E0BFCF60816423E1CFBE
:100B400090819423EBCF2091E8013091E90128179F
:100B5000390771F48091E7012091E60190E0805C13
:100B60009F4F821B910960E470E00E943C18089539
:100B700090E080E008952091E8013091E901281784
:100B80003907B9F49091E6018091E701981789F04F
:100B9000E091E601F0E0EB56FE4F80812091E60106
:100BA00030E02F5F3F4F2F7333272093E60190E013
:100BB00008958FEF9FEF089590E080E008958F9261
:100BC0009F92AF92BF92CF92DF92EF92FF920F93DC
:100BD0001F93CF93DF93EC010E947A016B017C019C
:100BE0008E85EB85FC858B8C9C8CAD8CBE8C0D89A9
:100BF000843009F047C01A89408146952AE0429F17
:100C0000C0011124092E000CAA0BBB0B880D991DE5
:100C1000AA1DBB1DA7019601281B390B4A0B5B0BB4
:100C2000CA01B90101111EC023813481369527956F
:100C300050E040E00E940B18120F193C80F4198B11
:100C400084E68B8BDF91CF911F910F91FF90EF90F6
:100C5000DF90CF90BF90AF909F908F90089588ECD9
:100C6000898BEECF258136813695279550E040E07F
:100C70000E940B18121B193C18F4198B1B8AE2CF27
:100C8000198AFCCF1B89C701B601681979098A093D
:100C90009B09218130E050E040E00E940B180111D7
:100CA00005C0210F2B8B253658F6CCCF121B1B8B82
:100CB000153620F7C7CF4F925F926F927F929F9227
:100CC000AF92BF92CF92DF92EF92FF920F931F935A
:100CD000CF93DF9300D000D000D01F92CDB7DEB706
:100CE0006C015B01942E0E947A012B013C01D6011C
:100CF00056962C915697211116C05F968D919D9115
:100D00000D90BC91A02DB301A201481B590B6A0B99
:100D10007B0BF601818D928DB0E0A0E0481759075A
:100D20006A077B0778F0D6011D961C911D9712303B
:100D300009F49AC008F064C0112309F409C1113004
:100D400009F479C0D60117968D919C91892B09F4ED
:100D500041C00E947A01F60143805480658076800C
:100D6000AB01BC0144195509660977098781908553
:100D7000B0E0A0E0481759076A077B0758F10E94C6
:100D80007A01D60113966D937D938D939C9316975C
:100D9000ED91FC910280F381E02DBE016F5F7F4FEA
:100DA000C6010995D501ED91FC910084F185E02DF6
:100DB000E12CF12C87019E012F5F3F4F482F692DB9
:100DC000C5010995813009F07FC18AEF90E0F601F5
:100DD0009087878327960FB6F894DEBF0FBECDBFEE
:100DE000DF91CF911F910F91FF90EF90DF90CF9007
:100DF000BF90AF909F907F906F905F904F900895BD
:100E0000143009F44EC008F42EC1153009F09ACF01
:100E100060E01A968C910E94F500F601478E50A270
:100E200061A272A2168782E08587168A80E293E02B
:100E3000928F818F87CF60E0F60182850E94F50056
:100E400060E0D60119968C910E94F500F601168794
:100E5000D601478E50A261A272A280E29EE45A9609
:100E60009C938E9359976ECF61E0F60197858189A7
:100E7000891708F460E0D60155966C93559719963A
:100E80008C910E94F50082E0F601868783E08587D9
:100E9000168AD601478E50A261A272A284E690E023
:100EA000DECF61E0F60182850E94F500D6015B96F7
:100EB0004D925D926D927C925E97F601478E50A2A4
:100EC00061A272A2A189A28B1687158685894785A2
:100ED0006A2F70E00384F485E02D811133C0842FE4
:100EE00090E0DC01A61BB70B238134810E945018CF
:100EF0009695879577956795D6015A967C936E93CC
:100F0000599720812695F601818D928DFAE02F9FC9
:100F1000800D911D11245A969C938E935997549647
:100F20002C9154972F5F54962C93442311F0483CF6
:100F300029F488519C4FF601928F818FD6015696E5
:100F40001C9200CFDB01A41BB10925813681CECFD5
:100F5000F601222309F46FC0168AC6010E94DF053C
:100F6000D60151968C9151971F968C93F6018189E9
:100F7000882311F0883C19F4D60154961C92F6018E
:100F8000808D81111FC087819085892BD9F40384BE
:100F9000F485E02D808180FF15C00E947A01D60182
:100FA00013966D937D938D939C931697D50112960E
:100FB000ED91FC918081B4E68B9FC0011124F60174
:100FC0009087878360E0D6011A968C910E94F50085
:100FD000F601168681E08587478E50A261A272A233
:100FE00084E690E0928F818F808D882391F08089B4
:100FF0008983D501ED91FC910280F381E02D9E0162
:101000002F5F3F4F41E0692DC5010995F601108E14
:10101000148AD6011B96ED91FC911C9782815496FF
:101020009C915497981708F48DCE882309F48ACEA2
:1010300057961C9287CE8785818B9589992379F065
:10104000138AF6019789911191CF882319F0883C72
:1010500009F08CCF81E0D60157968C9387CF94E628
:1010600053969C93EECF61E0F60182850E94F500D5
:10107000D6015B964D925D926D927C925E97F601E1
:10108000478E50A261A272A283E0868784E08587A2
:1010900085890384F485E02D53962C9153978823FA
:1010A00029F08181829FC0011124D9CE84E690E08D
:1010B000821B91094181489F9001499F300D112465
:1010C000F601328F218F3ECED60118961C921E92C9
:1010D000179780CE0F931F93CF93DF93EC018B0173
:1010E0008D85811118C0CE010E94DF0599898E85FA
:1010F000823018F48D858230A8F029898F852817D1
:1011000098F080E2F8019083818382E0DF91CF91B3
:101110001F910F910895888D882311F09889E7CF4A
:101120009F85E5CF80E0EECF80E1ECCFCF93DF93DA
:10113000EC01D901433061F411968C9111979BA178
:10114000981305C012969C91129791111BC08BA306
:101150008C918F3FE1F48E85833009F41D8691E0F8
:101160009E8B823078F48D8998EC811101C090E0DB
:101170009F8792E09D879F89911104C0882329F061
:1011800080E0898BDF91CF91089588ECFACF893C7C
:1011900021F41D8681E08E8BF5CF893CD0F48F87BA
:1011A0008F89811105C08F85811115C088EC898BCD
:1011B0008E858350823048F5CE010E94DF052D894F
:1011C0009F85898921111AC09817D0F485E08D87F1
:1011D000E1CF88ECE4CF883C11F4198AE9CF90E0A4
:1011E000853608F498EC998B888B853628F088EC46
:1011F0008F8781E0888FDCCF80E0FACF891730F3CA
:101200008E85843009F0BECFE2CF9F8589899817FB
:1012100009F4B8CF82E0DBCFDC011B96ED91FC91A5
:1012200085819681019621F484EF91E096838583F0
:1012300083819481019621F484EF91E094838383E8
:1012400081818F3F11F485E081838081982F9E7F7B
:101250009E3F11F48170808308957F928F929F92B8
:10126000AF92BF92CF92DF92EF92FF920F931F93B4
:10127000CF93DF93EC01EA85FB858481811112C055
:101280001B8A1A8A1D8A1C8ADF91CF911F910F91A8
:10129000FF90EF90DF90CF90BF90AF909F908F9096
:1012A0007F900895742E6B010E947A014B015C01BE
:1012B0008C859D85AE85BF8585017401E81AF90A84
:1012C0000A0B1B0B28893989A8EEB3E00E942D1860
:1012D0006E157F058007910758F58C869D86AE8632
:1012E000BF8683E090E0998B888B89850E945F019F
:1012F000BC01990F880B990B0091910110919201FB
:101300002091930130919401600F711F821F931FF0
:101310006093910170939201809393019093940153
:10132000209190012F5F233008F06AC02093900134
:10133000EA85FB8523812223A9F08E899F89A88DC8
:10134000B98D85017401E81AF90A0A0B1B0B30E00C
:10135000A0E1B7E20E942D186E157F058007910766
:1013600008F092CF218132812115310599F08E89C3
:101370009F89A88DB98D85017401E81AF90A0A0BB5
:101380001B0BA8EEB3E00E942D18E616F70608071F
:10139000190798F42081222309F476CF8A899B8942
:1013A0004C895D898417950709F446C0841B950B09
:1013B0002817190611F008F067CFE881F98102803B
:1013C000F381E02D6EE871E0CE010995D601ED9133
:1013D000FC910084F185E02DE12CF12C87012EE8B1
:1013E00031E042E0672DC6010995813021F08A89FC
:1013F0009B899D8B8C8B8E8A9F8AA88EB98E44CFB9
:101400001092900123E030E040E050E00E940B1881
:101410003B8B2A8B109291011092920110929301B2
:1014200010929401EA85FB8584812AE0829FC001A5
:101430001124998B888B7CCF90E080E0B9CFFC01A0
:101440002389FB012083FC018289FB01818382E0E7
:101450000895DC011A96ED91FC9184818F3F11F47F
:101460008EE1848380818F3F11F484E680838181C3
:101470009281019621F488E592E0928381838381B1
:101480008F3F11F483E0838308958091F6018F3FAD
:1014900019F482E38093F60108959F92AF92BF9270
:1014A000CF92DF92EF92FF920F931F93CF93DF9330
:1014B0008C015B017A01922ED0E0C0E06A0181E0EC
:1014C000C81AD108CE15DF0579F0C6018C1B9D0B1B
:1014D000911001C0CE018A0D9B1D0E94C317F80117
:1014E00081938F012196EECFDF91CF911F910F91C4
:1014F000FF90EF90DF90CF90BF90AF909F900895B6
:10150000CF93DF93EC014C8150E020E061E070E08C
:101510008A819B810E944D0AEA81FB8181819281AF
:10152000238134813183EA81FB812283EA81FB813B
:101530009383EA81FB8184838091EA0181608093B7
:10154000EA01DF91CF9108953F924F925F926F929F
:101550007F928F929F92AF92BF92CF92DF92EF9243
:10156000FF920F931F93CF93DF93CDB7DEB72997E9
:101570000FB6F894DEBF0FBECDBFFC014B012901B1
:101580003A01CE821F8282819381A481B581841524
:101590009505A605B70529F48681801302C081E070
:1015A0008F834282538264827582068338E4C32E1D
:1015B000D12CFF24FA9448ECB42E59EC352E21E0BE
:1015C00044E050E0B601CE0101960E944D0A8981A7
:1015D0009A81AB81BC818F3F2FEF9207A207B207A0
:1015E00009F466C084159505A605B70509F060C025
:1015F00020E041E050E0B6016C5F7F4FCE010896DD
:101600000E944D0A8885801353C020E041E050E0DD
:10161000B6016B5F7F4FCE0108960E944D0A188578
:101620001E1146C020E041E050E0B6016A5F7F4FE6
:10163000CE0109960E944D0A8985AA2059F190E0B1
:1016400023E0959587952A95E1F78770898720E0B3
:1016500041E050E0B601685F7F4FCE0105960E94E1
:101660004D0A8985823009F448C0E8F4882309F4DA
:1016700040C0813009F43FC0D401ED91FC9102805B
:10168000F381E02D9E012B5F3F4F43E0612FC401AA
:1016900009950EC08770898720E041E050E0B601CF
:1016A000695F7F4FDACF843061F148F1853021F7EF
:1016B000B9E0CB0ED11C28E6C21621E0D20609F013
:1016C0007ECF29960FB6F894DEBF0FBECDBFDF9157
:1016D000CF911F910F91FF90EF90DF90CF90BF902F
:1016E000AF909F908F907F906F905F904F903F90C2
:1016F0000895BD82C1CF3D82BFCF1D82BDCFFD8287
:10170000BBCF0000B9CF1F93CF93DF93EC01162F0F
:101710000E94C317181739F0612FCE01DF91CF91C6
:101720001F910C94CB17DF91CF911F910895BF9219
:10173000CF92DF92EF92FF920F931F93CF93DF939D
:10174000EC01062FB42E6623C1F10E947A01FE013E
:10175000E959FF4FC080D180E280F380AB01BC012A
:101760004C195D096E097F097E012BE6E20EF11C22
:10177000F70180819181B0E0A0E084179507A6076A
:10178000B70760F081E090E0DF91CF911F910F915A
:10179000FF90EF90DF90CF90BF9008950E946B175D
:1017A00024E630E040E050E00E94D9176E527F4FAF
:1017B0008F4F9F4FF7017183608381E0FE01E359F2
:1017C000FF4F8083369680819181A281B3818F3FC4
:1017D0009F4FAF4FBF4F09F44BC0FE01E958FF4F79
:1017E00080818370813009F443C010E0B11609F4A0
:1017F00046C0CE010E9448040E947A016B017C0120
:101800000E947A016C197D098E099F09683C710557
:1018100081059105E8F4CE010E944B038C8D88234D
:1018200079F34D8D5E8D6F8D78A1888D998DAA8D00
:10183000BB8D481759076A077B0711F71C8ECE012D
:101840000E94820C8F8983FDDBCF90E080E09CCFEB
:10185000011102C01F5FCACF0E947A016C197D0975
:101860008E099F09663971058105910598F78ACF20
:10187000CE010E9448048F89877F8F8BE6CF82E05C
:1018800090E082CF8F92AF92CF92EF92FF920F9320
:101890001F93CF93DF93CDB7DEB7342F4091EA018A
:1018A00043FD2EC0FC01ED58FF4FE082F182028320
:1018B000138348EF3496408344E0319640834BE4F1
:1018C00031964083319660833196C082211116C0D3
:1018D00022E0482D6A2DFC01E458FF4F330F330FEF
:1018E000320F30830E94970BDF91CF911F910F91A0
:1018F000FF90EF90CF90AF908F90089523E0E9CFC5
:1019000081E0F2CFCF92DF92EF92FF92FC01DC01F7
:10191000A259BF4F81E08C9347891C973C9143FFAC
:1019200024C0832F90E025E0959587952A95E1F7CF
:10193000282F237055968C9190E09595879583700C
:10194000281313C05497CD90DD90ED90FC90139721
:1019500050968D919D910D90BC91A02DC816D906E1
:10196000EA06FB0611F4477F478B3370313019F1DB
:1019700081A1811126C0858D968DA78DB0A18F3F45
:101980009F4FAF4FBF4FE9F0CF01ED58FF4FDC0144
:10199000AD59BF4F4D915D916D917C9140835183C5
:1019A00062837383349629E120833196108243E069
:1019B00060E00E94970B80E0FF90EF90DF90CF9067
:1019C000089581E0F9CF8F929F92AF92BF92CF920C
:1019D000DF92EF92FF920F931F93CF93DF93EC016F
:1019E0008091EA0180FF23C0E881F9810680F781B8
:1019F000E02DCE01099510E08D81181798F4812F04
:101A000090E0880F991FEE81FF81E80FF91F808118
:101A10009181DC01ED91FC910680F781E02D099523
:101A20001F5FEACF8091EA018E7F8093EA01F12C5B
:101A30008E010E5D1F4F8D81F81608F048C0A895E5
:101A4000CE010E944B038C8D882361F11C8E8D8DFD
:101A50009E8DAF8DB8A1488D598D6A8D7B8D841771
:101A60009507A607B70729F08F3F9F4FAF4FBF4F8E
:101A7000C9F4CE010E94820C8823A1F021E08D8D53
:101A80009E8DAF8DB8A18F3F9F4FAF4FBF4F09F0D5
:101A900020E0E881F9810288F389E02D49A1B801AD
:101AA000CE0109958F2D90E0880F991FEE81FF815F
:101AB000E80FF91F80819181DC01ED91FC91048098
:101AC000F581E02D4F2DBE010995F394B4CFD09050
:101AD000EA01D1FC62C00E947A01683E7340810530
:101AE000910508F45AC08FEF9FEFDC01FE01ED581D
:101AF000FF4F80839183A283B38388EF34968083E2
:101B000080E13196808381E4319680833196108222
:101B10008889319680838989319680838A899B89D7
:101B20003196908331968083688D798D8A8D9B8DD7
:101B300028E43196208322E4319620837E01E1E877
:101B4000EE0EF11C27E5D7012C938E0108571F4F8D
:101B50002AE0822E912CA12CB12C0E151F0561F0CC
:101B600001501109A50194010E940B18605DF80154
:101B70006183B901CA01F1CF81E0D3FC05C043E024
:101B800061E0CE010E94970B91E0811190E080917D
:101B9000EA0190FB81F98093EA018C85882309F49E
:101BA0004AC00E947A016B017C018C859CEE980FE3
:101BB000923040F40E945F0121E08A3F91053CF0A1
:101BC00020E005C00E94CC0021E0892BC9F780915C
:101BD000EB01823009F4EBC008F094C0882309F4CB
:101BE000AFC0813009F4BAC08D85882321F14091BE
:101BF000DA015091DB016091DC017091DD01970108
:101C00008601041B150B260B370BB901A8014536BD
:101C100051056105710578F09091EB01953008F060
:101C20000AC1923008F010C1992309F415C161E08E
:101C3000913009F412C18E85811104C08F858823EB
:101C400009F453C00E947A010091E2011091E3016E
:101C50002091E4013091E501601B710B820B930B25
:101C60006D3371058105910508F43FC08E85882389
:101C7000F9F09F8589130CC0DE01A259BF4F9C91DA
:101C8000992331F091E0FE01E359FF4F90831C92BC
:101C90009091EB01992319F09D85891749F08E01E8
:101CA00003591F4FD8016C910E94F500F801108272
:101CB0008F85882381F09E85891769F09091EB01CB
:101CC000992319F09D85891731F0C259DF4F68813A
:101CD0000E94F50018820E947A016093E2017093DD
:101CE000E3018093E4019093E501DF91CF911F918F
:101CF0000F91FF90EF90DF90CF90BF90AF909F90AB
:101D00008F900895843009F476C008F454C085306B
:101D100009F06ACF211168CF10E000E06FEFC80131
:101D20000E94830B0F5F1F4F0C3F63E01607B1F754
:101D3000E881F9810488F589E02DCE01099534C048
:101D4000222319F081E08093EB01C092DE01D09252
:101D5000DF01E092E001F092E10146CF8091DE01E7
:101D60009091DF01A091E001B091E101B701A601DE
:101D7000481B590B6A0B7B0BDB01CA01222351F074
:101D800089389341A105B10508F42ECF82E08093F4
:101D9000EB012ACF85369105A105B10528F0809188
:101DA000EA018D7F8093EA011092EB011DCF83E061
:101DB000222349F219CF8091DE019091DF01A09199
:101DC000E001B091E101B701A601481B590B6A0B74
:101DD0007B0BDB01CA0184369105A105B10508F42E
:101DE00003CF222311F084E0AECF81319742A105C9
:101DF000B105D0F6F9CE8091DE019091DF01A0917E
:101E0000E001B091E101B701A601481B590B6A0B33
:101E10007B0BDB01CA0184369105A105B10508F4ED
:101E2000E3CE222309F2893B9B40A105B10508F4CA
:101E3000DBCE85E0ACCF953009F0FDCE4F3E524071
:101E40006105710508F4F7CE0E94CC0061E0892B92
:101E500009F060E08D8501C060E00E94F500C0924D
:101E6000DA01D092DB01E092DC01F092DD01E3CEF9
:101E7000CF92DF92EF92FF920F931F93CF93DF9356
:101E8000EC010CEF13E060E070E0CB01CC24D62E27
:101E9000E72EF82EC8010E94C3179601282BC70110
:101EA000B9010F5F1F4F011534E0130779F76F3F3A
:101EB0004FEF74078407940721F46FEF7FEF8FEFE4
:101EC00092E4688F798F8A8F9B8F611571058105E8
:101ED000910511F00E94BA170E946B17C559DF4F88
:101EE00024E630E040E050E00E94D9176E527F4F68
:101EF0008F4F9F4F798368838091EA018D7F809314
:101F0000EA01DF91CF911F910F91FF90EF90DF9049
:101F1000CF900895CF93DF935091EA0153FD28C0ED
:101F2000EC01FC01ED58FF4F8FEF9FEFDC01808348
:101F30009183A283B383349688EF8083319683E0C4
:101F4000840F808331968BE4808331966083319651
:101F5000108250E0B901CE0184589F4F0E94711841
:101F600043E061E0CE010E94970BDF91CF9108958D
:101F700081E0FBCFAF92BF92CF92DF92EF92FF92C0
:101F80000F931F93CF93DF93EC01C62ED42E5901EC
:101F9000C801B7012091EA0123FD37C06115710521
:101FA0008105910539F4E881F9810688F789E02DEA
:101FB000CE010995FE01ED58FF4F60837183828346
:101FC0009383349688EF8083319682E08D0D8083F1
:101FD000319689E680833196C0824D2D50E0B5015F
:101FE000CE0185589F4F0E94711843E061E0CE01F9
:101FF0000E94970BDF91CF911F910F91FF90EF906F
:10200000DF90CF90BF90AF90089581E0F3CF4F92D3
:102010005F926F927F928F929F92AF92BF92CF9278
:10202000DF92EF92FF920F931F93CF93DF932223C0
:1020300009F1DB018C918A3599F08A37B9F0DF918B
:10204000CF911F910F91FF90EF90DF90CF90BF90B5
:10205000AF909F908F907F906F905F904F9008957A
:102060008091EA01877F8093EA01E9CF8091EA01BC
:102070008860F9CF2091EA0123FDE1CF142F5B01A5
:10208000EC01FC01ED59FF4F408151816281738168
:10209000709640835183628373834C01B7E78B0E44
:1020A000911C88E7F4018083D5018C91873509F470
:1020B00029C108F054C0853409F486C070F5813414
:1020C00009F474C0833409F477C0803409F066C021
:1020D000F50181818136E9F41630D9F482818111CC
:1020E00007C08381811104C08481882309F456C00C
:1020F000F2E0AF0EB11C0CEF13E0D5016D915D0164
:10210000C8010E94830B0F5F1F4F0115B4E01B072E
:10211000A1F7CE010E94380F41C0823509F4D3C027
:10212000833509F472C18B34C9F5D50113968C91AE
:10213000B82FB170CB2EE82EF12CF594E794F594DE
:10214000E794E881F9810088F189E02DD5011296A4
:102150000C91129711962C91CE0109951FC08337CF
:1021600009F444C198F48C3609F4F3C08E3609F4AE
:1021700006C1883699F48889FE01E758FF4F8083AD
:1021800089893196808382E0329714C0883709F4B8
:102190002DC18B3C51F2863709F421C189E1D4016C
:1021A0008C93FE01E858FF4F108272C089E6FE0151
:1021B000E758FF4F80836CC0E881F9810488F58976
:1021C000E02DCE010995EACFF50163809481892F36
:1021D000869586958695492E512C9770FE01E85874
:1021E000FF4F91116AC08C5F8083408150E070E0A6
:1021F00060E08E0107581F4FC8010E947A1885E6DB
:10220000D8018C93F5018181FE01E658FF4F808350
:10221000D50112968C9112973196808313968C91EA
:1022200031968083712CD12CC12C10E000E0812CE0
:10223000912C54018394F12CE12CE614F7040CF555
:10224000C7018C0D9D1D0E94C3178F3FC1F1F8017E
:10225000A3E0F595E795AA95E1F7EC0FFD1FE3588C
:10226000FF4FC80187709927A501940104C0220F70
:10227000331F441F551F8A95D2F7C9012081822B35
:1022800080830F5F1F4FC60CD71C401651069CF66B
:1022900043E060E0CE01DF91CF911F910F91FF905D
:1022A000EF90DF90CF90BF90AF909F908F907F90F6
:1022B0006F905F904F900C94970B8B5F95CF3FEF93
:1022C000E31AF30ABACF143009F068CFF501E180C0
:1022D000F280FE24EF24FE24D12CD50113968C919C
:1022E000D81608F078C00D2D10E0C8018E0D9F1D86
:1022F0000E94C3170C0F1D1FF801E758FF4F808382
:10230000D394EBCF13968C91139790E00496181703
:10231000190609F043CF1196CD90DC90DC24CD2432
:10232000DC24760104E0011708F038CFBCEFEB168F
:10233000B3E0FB0648F4F701EC19FD09EA0DFB1DBB
:102340006481C7010E94830B0F5FEFEFEE1AFE0A54
:10235000EACF12968C919D81891708F01FCF90E0EB
:10236000880F991F2E813F81820F931FDC01ED9111
:10237000FC91D50113968C91817082830FCF688D6B
:10238000798D8A8D9B8D28E4FE01E758FF4F2083CD
:1023900022E4319620837E01BBE7EB0EF11C27E59A
:1023A000F70120838E010E571F4F2AE0822E912CB9
:1023B000A12CB12C0E151F0569F001501109A501C2
:1023C00094010E940B18605DD80111966C93B901BD
:1023D000CA01F0CF8AE0FE01E858FF4FEBCE8A89B0
:1023E0009B89FE01E758FF4F9083CBCE95012E5F6E
:1023F0003F4F4EEF410FE881F9810280F381E02DDC
:10240000D50111966C91CE010995F501618189E69E
:10241000F82E8E0107581F4FD801FC92FE01E65896
:10242000FF4F6083E881F9810480F581E02DAE01E2
:1024300045585F4FCE010995FE01E858FF4F8E5F6A
:102440008083F801F08224CF1F920F920FB60F9273
:1024500011242F933F938F939F93AF93BF938091BA
:10246000250290912602A0912702B0912802309176
:10247000240223E0230F2D3758F50196A11DB11D2D
:10248000209324028093250290932602A093270292
:10249000B09328028091200290912102A091220203
:1024A000B09123020196A11DB11D8093200290934B
:1024B0002102A0932202B0932302BF91AF919F917A
:1024C0008F913F912F910F900FBE0F901F901895F5
:1024D00026E8230F0296A11DB11DD2CF1F920F92A5
:1024E0000FB60F9211242F933F934F935F936F93E7
:1024F0007F938F939F93AF93BF93EF93FF9389E263
:1025000092E00E940402FF91EF91BF91AF919F91E1
:102510008F917F916F915F914F913F912F910F908C
:102520000FBE0F901F9018951F920F920FB60F922B
:1025300011242F938F939F93EF93FF93E091390290
:10254000F0913A028081E0913F02F091400282FDD9
:102550001BC09081809142028F5F8F732091430254
:10256000821741F0E0914202F0E0E75DFD4F958F68
:1025700080934202FF91EF919F918F912F910F9045
:102580000FBE0F901F9018958081F4CF1F920F926D
:102590000FB60F9211242F933F934F935F936F9336
:1025A0007F938F939F93AF93BF93EF93FF93E091AC
:1025B000E801F091E901309709F445C0A685B78597
:1025C0002C918585282309F03EC0A389B4899C916C
:1025D0008589809589238C93868997890197F1F75E
:1025E000608D718DA685B785558538E0CB01019743
:1025F000F1F7822F90E095958795282F4C914523F0
:1026000009F02068315091F78091E70190E0019640
:102610008F7399273091E601381731F1A091E701C6
:10262000B0E0AB56BE4F2C938093E701828D938D23
:10263000DC011197F1F70197F1F7A389B4898C9127
:102640009589892B8C93FF91EF91BF91AF919F91C9
:102650008F917F916F915F914F913F912F910F904B
:102660000FBE0F901F901895868D8160868FDECFEC
:10267000CF93DF93E9E2F2E01382128288EE93E0D7
:10268000A0E0B0E084839583A683B7832DE631E094
:102690003183208325EC30E03587248724EC30E03B
:1026A0003787268720EC30E0318B208B21EC30E01F
:1026B000338B228B22EC30E0358B248B26EC30E000
:1026C000378B268B118E128E138E148EC6ECD2E0B1
:1026D0001B821A828C839D83AE83BF838FE791E038
:1026E000998388831F8A1E8A198E188E1B8E1A8ED4
:1026F0001D8E1C8EE4EEF2E080818E7F808361E08F
:1027000082E00E94F50061E082E00E942301E0EB9C
:10271000F0E0E491E88BECE9F0E0E491F0E0EE0F1A
:10272000FF1FE057FF4F859194919A8B898B60E052
:1027300084E00E94230161E084E00E94F50084E0CF
:102740008C87E2EBF0E0E491ED87EEE9F0E0E491D4
:10275000F0E0EE0FFF1FEA57FF4F859194919F879E
:102760008E87DF91CF910895789484B5826084BD7F
:1027700084B5816084BD85B5826085BD85B5816085
:1027800085BD80916E00816080936E001092810003
:1027900080918100826080938100809181008160BE
:1027A000809381008091800081608093800080917F
:1027B000B10084608093B1008091B000816080930B
:1027C000B00080917A00846080937A0080917A00D2
:1027D000826080937A0080917A00816080937A0091
:1027E00080917A00806880937A001092C10083E023
:1027F00080930001E0913902F0913A0282E08083F7
:10280000E0913502F09136021082E0913702F091AA
:10281000380280E1808310924102E0913D02F09104
:102820003E0286E08083E0913B02F0913C02808191
:1028300080618083E0913B02F0913C02808188605E
:102840008083E0913B02F0913C028081806880832C
:10285000E0913B02F0913C0280818F7D8083109259
:10286000E1021092E0021092DF021092DE0210925A
:10287000DD021092DC028DEC90E09093E3028093F5
:10288000E2029091D202963108F047C025E530E08F
:102890003093DD022093DC022BEC30E03093DF023A
:1028A0002093DE0220E930E03093E1022093E00241
:1028B0002091680084E0983048F031E09E3008F4C0
:1028C00030E081E001C0880F3A95EAF7822B8093CF
:1028D00068002DE630E0983050F02BE630E09E3076
:1028E00030F02CE630E0963110F030E020E030930C
:1028F000DA022093D902292F30E0983008F051C134
:1029000081E001C0880F9A95EAF78093DB028091FD
:10291000E2029091E3020197F1F78091E002909139
:10292000E102892B49F1E091E801F091E90182E0AF
:10293000E63CF80709F1309739F0A389B4899C91F6
:102940008589809589238C938091E4028E7F809382
:10295000E4021092E7011092E60186EC92E0909377
:10296000E9018093E801E091D902F091DA028081D7
:102970009091DB02892B808385E6C82E81E0D82EDA
:1029800091E6E92E91E0F92E2CEE822E21E0922E96
:1029900010E000E03FE0A32E31E0B32E44E6542ED9
:1029A00066246A9484E290E00E94FA15EC01D60154
:1029B0008D916D01F70191917F011A82B982A882F0
:1029C00099878A87980124503E4F3C872B87188629
:1029D0001F8260E00E94F50060E089850E94F5009A
:1029E00061E08A850E94230161E089850E942301BC
:1029F000772473947D867E861E8A1F8A798A5B8AF5
:102A00007D8A188E7F861C8A6BA2D401CD93DD93BC
:102A10004D01095F1F4F0C31110521F68AE190E04D
:102A20000E94FA15EC011A828BE191E09983888368
:102A300085E1898788E192E09B878A871C861D86CD
:102A40001E861F8686E090E0998B888B1B8A1A8AE7
:102A50001D8A1C8A1E8A1F8A188E198E60E085E1E5
:102A60000E942301D093F501C093F40187E090E028
:102A70000E94FA158C018FE591E0F8019183808323
:102A800089EB90E00E94FA15EC0187E291E09983CE
:102A90008883FE01E159FF4F80E098E391838083B2
:102AA00032961182108288E28C8386EF91E09B83BC
:102AB0008A8385E08D838CEE91E09F838E831986D7
:102AC00018861B870A87798A87E490E09B8B8A8B1C
:102AD00086EC92E09D8B8C8B83E08E8B61E00E9474
:102AE000230160E08E890E94F5001C8EFE01E959E9
:102AF000FF4F1082118212821382349682ED90E091
:102B0000918380831D861E861F8682E8888BCE0176
:102B10000E94380F1C861092EB018091EA01877F9A
:102B20008093EA0188E19EE00FB6F894A89580931F
:102B300060000FBE9093600083E491E099838883E6
:102B4000D0931F02C0931E02CE010E94800A88E02B
:102B50008C8762E00E9423018DE08D8761E00E94F6
:102B60002301C0E0D0E080911E0290911F02DC01A1
:102B7000ED91FC910190F081E02D099583B7817F63
:102B800083BF83B7816083BF889583B78E7F83BF00
:102B9000209749F30E94F001882329F30E94000046
:102BA000E2CF9E3040F42850310981E001C0880F07
:102BB0002A95EAF7AACE2E503109F7CF8FE791E098
:102BC0009093C7028093C6028091E8019091E90139
:102BD000865C924071F4E091D902F091DA02908122
:102BE0008091DB028095892380831092E901109205
:102BF000E80108950F931F93CF93DF9382309105DF
:102C000010F482E090E0E091E702F091E80230E019
:102C100020E0B0E0A0E0309799F42115310509F4E7
:102C20004AC0281B390B24303105D8F58A819B8195
:102C30006115710589F1FB0193838283FE0111C047
:102C4000408151810281138148175907E0F04817EC
:102C5000590799F4109761F012960C9312971396F6
:102C60001C933296CF01DF91CF911F910F91089560
:102C70000093E7021093E802F4CF2115310551F0DB
:102C80004217530738F0A901DB019A01BD01DF01AA
:102C9000F801C1CFEF01F9CF9093E8028093E702EA
:102CA000CDCFFE01E20FF31F8193919322503109A2
:102CB00039832883D7CF2091E5023091E602232B78
:102CC00041F420910301309104013093E6022093F6
:102CD000E50220910101309102012115310541F4F5
:102CE0002DB73EB74091050150910601241B350BCD
:102CF000E091E502F091E602E217F307A0F42E1B43
:102D00003F0B2817390778F0AC014E5F5F4F24174F
:102D1000350748F04E0F5F1F5093E6024093E502DF
:102D2000819391939FCFF0E0E0E09CCFCF93DF932E
:102D30000097E9F0FC01329713821282A091E7021A
:102D4000B091E802ED0130E020E01097A1F420817D
:102D50003181820F931F2091E5023091E6022817FE
:102D6000390709F061C0F093E602E093E502DF91D4
:102D7000CF910895EA01CE17DF07E8F54A815B811C
:102D80009E0141155105B1F7E901FB83EA834991A1
:102D90005991C40FD51FEC17FD0761F48081918113
:102DA0000296840F951FE90199838883828193811C
:102DB0009B838A83F0E0E0E012968D919C911397BB
:102DC0000097B9F52D913C911197CD010296820F94
:102DD000931F2091E5023091E6022817390739F652
:102DE000309751F51092E8021092E702B093E60294
:102DF000A093E502BCCFD383C28340815181840F6D
:102E0000951FC817D90761F44E5F5F4F888199817C
:102E1000480F591F518340838A819B81938382830A
:102E20002115310509F0B0CFF093E802E093E702F5
:102E30009ECFFD01DC01C0CF13821282D7CF8F92CB
:102E40009F92AF92BF92CF92DF92EF92FF92CF9379
:102E5000DF93EC01688179818A819B81611571051D
:102E60008105910521F464E279ED8BE597E02DE190
:102E700033EF41E050E00E94D91749015A019B010C
:102E8000AC01A7EAB1E40E94F8176B017C01ACEE3B
:102E9000B4EFA50194010E940618C60ED71EE81EC5
:102EA000F91EF7FE06C081E0C81AD108E10880E8E3
:102EB000F80AC882D982EA82FB82C701B6019F77ED
:102EC000DF91CF91FF90EF90DF90CF90BF90AF90C8
:102ED0009F908F9008958F929F92AF92BF92CF92C2
:102EE000DF92EF92FF92609107017091080180914B
:102EF000090190910A01611571058105910521F47F
:102F000064E279ED8BE597E02DE133EF41E050E0AD
:102F10000E94D91749015A019B01AC01A7EAB1E40B
:102F20000E94F8176B017C01ACEEB4EFA50194018F
:102F30000E940618C60ED71EE81EF91EF7FE06C030
:102F400081E0C81AD108E10880E8F80AC0920701B8
:102F5000D0920801E0920901F0920A01C701B6017E
:102F60009F77FF90EF90DF90CF90BF90AF909F90B2
:102F70008F90089560930701709308018093090171
:102F800090930A010895F999FECF92BD81BDF89AF8
:102F9000992780B50895262FF999FECF1FBA92BDC3
:102FA00081BD20BD0FB6F894FA9AF99A0FBE01962A
:102FB0000895052E97FB1EF400940E94F01757FD0C
:102FC00007D00E940B1807FC03D04EF40C94F017A6
:102FD00050954095309521953F4F4F4F5F4F089545
:102FE00090958095709561957F4F8F4F9F4F089575
:102FF0000E942D18A59F900DB49F900DA49F800D49
:10300000911D11240895B7FF0C94F8170E94F8172A
:10301000821B930B0895A1E21A2EAA1BBB1BFD0174
:103020000DC0AA1FBB1FEE1FFF1FA217B307E407A7
:10303000F50720F0A21BB30BE40BF50B661F771FFF
:10304000881F991F1A9469F76095709580959095DF
:103050009B01AC01BD01CF010895A29FB001B39FB8
:10306000C001A39F700D811D1124911DB29F700D91
:10307000811D1124911D089597FB072E16F40094CD
:1030800007D077FD09D00E94571807FC05D03EF401
:10309000909581959F4F0895709561957F4F089504
:1030A0000E942D18B7FF0895821B930B0895AA1B49
:1030B000BB1B51E107C0AA1FBB1FA617B70710F023
:1030C000A61BB70B881F991F5A95A9F78095909555
:1030D000BC01CD010895EE0FFF1F0590F491E02D86
:1030E0000994FB01DC0102C001900D924150504057
:1030F000D8F70895DC0101C06D9341505040E0F7CE
:10310000089510E0C2E6D0E004C0FE010E946B18F2
:0C3110002196C336D107C9F7F894FFCF11
:10311C00010000E9028000010000000000000096A0
:10312C00086A085B060C09000000004A031F0A2D00
:10313C0009290A00000000E30CB20294029302BABF
:10314C000FDC02420C8A0F1C030710800AD302000A
:10315C00000000E30CB2029402450ABA0FDC0242F2
:10316C000C8A0F1C030710800AD30200000000A475
:10317C000A060F1113050E1012000000002602861D
:10318C0001B3017302E401C201D601000000004B3F
:0E319C00058601DC059302A305BB0533050083
:00000001FF
