:100000000C949E000C94C6000C94C6000C94280B13
:100010000C94A90A0C942A0A0C94C6000C94C600ED
:100020000C94C6000C94C6000C94C6000C94C60038
:100030000C94C6000C94C6000C94C6000C94C60028
:100040000C940B130C94C6000C94A10F0C947B0F12
:100050000C94C6000C94C6000C94C6000C94C60008
:100060000C94C6000C94C600523A2041434B0A003F
:100070000A00543A2000453A204352430A000A003D
:10008000453A204D7367546F6F4C6F6E670A003AA4
:1000900000523A2000543A2046575665720A0054DE
:1000A0003A2048575665722C5479700A00433A201A
:1000B000577269746520454550524F4D0A00433AC6
:1000C000205265616420454550524F4D0A000A0098
:1000D000423A203241200000000000250028002B79
:1000E000000000000023002600290004040404048A
:1000F00004040402020202020203030303030301D5
:1001000002040810204080010204081020010204AB
:100110000810202000533A2000000000002400278F
:10012000002A00000000080002010000030407008C
:1001300000000000000000003114FE1311241FBE57
:10014000CFEFD8E0DEBFCDBF12E0A0E0B1E0ECEF32
:10015000F7E302C005900D92A434B107D9F723E06C
:10016000A4E4B2E001C01D92A638B207E1F710E0A6
:10017000CDE9D0E004C02197FE010E94FE18CC39E1
:10018000D107C9F70E94A5140C94F11B0C94000030
:10019000AF92BF92CF92DF92EF92FF920F931F9395
:1001A000CF93DF93EC01D62EB42EA22E8D819E81AB
:1001B000009759F0DC01ED91FC910190F081E02D68
:1001C000022F242F462FBE010995E881F98104846E
:1001D000F585E02DC12CEE24EA94FE2C87012A2D12
:1001E0004B2D6D2DCE010995DF91CF911F910F9170
:1001F000FF90EF90DF90CF90BF90AF900895CF9297
:10020000EF920F93FC0187819085009769F0CE2CC7
:10021000E02E022F9A01AB01BF01DC01ED91FC91B0
:100220000190F081E02D09950F91EF90CF90089506
:10023000089580E008950895FA0128E040815181F1
:10024000CA01880F991F67FD81609183808357FFE2
:1002500008C08081918132E0832730E19327918328
:100260008083660F215051F7089520918B023091C1
:100270008C022817390771F49091890280918A02C3
:10028000981741F0E0918902F0E0EC5BFD4F80812E
:1002900090E008958FEF9FEF089520918B023091A9
:1002A0008C022817390739F48FB7F89410928A0214
:1002B000109289028FBF089520918B0230918C0299
:1002C0002817390771F480918A022091890290E001
:1002D000805C9F4F821B910960E470E00E94D618F9
:1002E000089580E090E0089520918B0230918C0277
:1002F00028173907B9F49091890280918A029817DA
:1003000089F0E0918902F0E0EC5BFD4F8081209163
:10031000890230E02F5F3F4F2F73332720938902EC
:1003200090E008958FEF9FEF0895FF920F931F9332
:10033000CF93DF9300D0CDB7DEB78C01F62E8EE6DB
:1003400091E049835A830E94A70B8F2D0E94551379
:1003500049815A814115510521F06F2DC8010E9434
:100360001C01035A1F4F84E08F0D833070F4D801B5
:100370008D919C91DC01ED91FC910190F081E02D3B
:100380006CEF0995BF2DBF77FB2EF801808191811D
:10039000DC01ED91FC910190F081E02D6F2D0F902B
:1003A0000F90DF91CF911F910F91FF9009944F9281
:1003B0005F926F927F92AF92BF92CF92DF92FF9245
:1003C0000F931F93CF93DF9300D0CDB7DEB78C018F
:1003D0008FEF9FEF9A838983F80180899189A289A1
:1003E000B3898F3F9F4FAF4FBF4FA1F0F801E55545
:1003F000FF4F808190E095958795837020E2829FE2
:10040000C0011124D80154969C9154979F79892B4F
:1004100054968C9382E790E00E945D0E6801BFE5E0
:10042000CB0ED11C61E0F60180810E94A8108DEFF7
:100430000E9455135801FDE5AF0EB11CD5018D91F9
:100440009C91DC01ED91FC910190F081E02D6DEF2C
:100450000995AE014F5F5F4F6DEFC8010E941C010F
:10046000F801408851886288738854E0F52E672D22
:10047000772788279927AE014F5F5F4FC8010E94F9
:100480009501762C652C542C4424FA94F110EFCF6E
:10049000AE014F5F5F4FD80154966C91C8010E9426
:1004A0009501F801848983FD0CC0D80155966C91A3
:1004B0006E5FAE014F5F5F4FC8010E949501F12C46
:1004C0001BC0F801EF59FF4F40805180628073805C
:1004D00024E0F22E672D772788279927AE014F5FFA
:1004E0005F4FC8010E949501762C652C542C442442
:1004F000FA94F110EFCFD9CFF8018589F81660F49E
:10050000F801EF0DF11DAE014F5F5F4F6689C80125
:100510000E949501F394F0CFAE014F5F5F4F60E012
:10052000C8010E941C01AE014F5F5F4F60E0C8012F
:100530000E941C016A8140E050E0C8010E949501C0
:1005400040E050E06981C8010E949501D5018D917C
:100550009C91DC01ED91FC910680F781E02D0995DD
:1005600060E0F60180810E94A810F801E05AFF4F78
:1005700080818860808380E790E00E945D0E0F900C
:100580000F90DF91CF911F910F91FF90DF90CF904F
:10059000BF90AF907F906F905F904F900895CF92F3
:1005A000DF92EF92FF920F931F93CF93DF93EC01B3
:1005B000C62E0FB7F894E989FA89908188898095C9
:1005C0008923808387E790E00E94230A88E090E0F7
:1005D00020E810E0322F3C2109F01F5F269501979B
:1005E000C9F788E0E82EF12CDD24D394E989FA8953
:1005F00088899D2D9C2119F09081892B03C09081C1
:1006000080958923808382E790E00E94230ADD0C95
:1006100081E0E81AF10851F7E989FA89888990811F
:1006200010FF02C0892B02C080958923808382E756
:1006300090E00E94230AE989FA8990818889892BB0
:1006400080830FBF82E790E00E94230A81E090E060
:10065000DF91CF911F910F91FF90EF90DF90CF909E
:100660000895CF92DF92EF92FF920F93CF93DF9393
:1006700000D000D0CDB7DEB77C01FC01E95AFF4FB6
:10068000208130E06C0188E5C80ED11CD6016D9147
:100690007C9100E041E050E0C7010E94D413D601F4
:1006A000ED91FC9181819281A381B48189839A83A8
:1006B000AB83BC838C818183D601ED91FC91119732
:1006C0008B818283ED91FC9111978A818383ED91D7
:1006D000FC9189818483D701ED91FC910680F7819B
:1006E000E02DC7010F900F900F900F90DF91CF91E9
:1006F0000F91FF90EF90DF90CF900994EF92FF92CF
:100700000F931F93CF93DF93CDB7DEB764970FB6E8
:10071000F894DEBF0FBECDBF8B01FC01EF59FF4F38
:10072000608171818281938120E836E948E950E057
:100730000E94A5189F938F937F936F9380E791E01A
:100740009F938F93CE0101967C019F938F930E947C
:10075000191988E4F801808382E4818387E5828324
:10076000D801139687E0F70101900D928A95E1F781
:100770000FB6F894DEBF0FBECDBF64960FB6F894E7
:10078000DEBF0FBECDBFDF91CF911F910F91FF90C4
:10079000EF900895CF92DF92EF92FF920F931F9305
:1007A000CF93DF93EC010CEF13E060E070E0CB013E
:1007B000CC24D62EE72EF82EC8010E945D18A70182
:1007C0009601282BCA01B9010F5F1F4F011534E0B4
:1007D000130771F76F3F4FEF74078407940721F4F5
:1007E0006FEF7FEF8FEF92E4FE01EF59FF4F6083D1
:1007F000718382839383611571058105910511F0E1
:100800000E9454180E944F18C055DF4F24E630E074
:1008100040E050E00E947318DC01CB018E529F4FE4
:10082000AF4FBF4F99838883DF91CF911F910F9175
:10083000FF90EF90DF90CF9008950F931F93CF9389
:10084000DF931F92CDB7DEB7FB01211103C06C3FD0
:10085000734084F48F01CF0149830E945D18698140
:10086000681741F0C8010F90DF91CF911F910F9150
:100870000C9465180F90DF91CF911F910F910895FF
:100880003F924F925F926F927F928F929F92AF9220
:10089000BF92CF92DF92EF92FF920F931F93CF936D
:1008A000DF93EC015C018DE5A80EB11C3E019CEAD2
:1008B000690E711C8E01005A1F4FDE01A659BF4FF1
:1008C0007D0144244A9435E0332E6E01B6E6CB0E0A
:1008D000D11C88248A94982CD5018D919C91DC019F
:1008E000ED91FC910084F185E02D0995892B09F4A7
:1008F000DDC00E941411F3016083718382839383AE
:10090000D5018D919C91DC01ED91FC910284F385E0
:10091000E02D0995582EBDEF8B1303C081E990E0BF
:1009200002C08FE890E00E945D0E852D0E94551355
:10093000ECEF5E1207C0D8018C9181FD24C082606B
:100940008C93CACFBDEF5B121EC0F80180818D7FF2
:100950008160808310928802109287021C861D8617
:100960001E861F86D6011D921D921D921C92139702
:10097000909286028092850245E852E06DEFCE01AA
:100980000E941C01A9CFF801808180FFA5CF81FFC3
:1009900006C0F52DF0685F2E8D7FD8018C9345E859
:1009A00052E0652DCE010E941C01809187028430A7
:1009B00078F4F6014081518162817381762F652F31
:1009C000542F4427452940835183628373831AC07F
:1009D000843029F430928702509284027DCF409176
:1009E000840243FF13C0893088F44C855D856E8591
:1009F0007F85762F652F542F442745294C875D87A7
:100A00006E877F878F5F8093870266CF8F3F79F0F5
:100A100040928702F7015082F0E4F51508F05CCFB0
:100A2000D8018C918E7F8C9380E890E03CC08091BF
:100A30008802FE01E80FF11DE559FF4F508291E059
:100A4000980F90938802F7012081921345CF20914F
:100A5000850230918602232B21F5D8019C919E7F3F
:100A60009C93FE01E555FF4F40838150F701808341
:100A7000CB59DF4F81E088838EE790E0DF91CF9103
:100A80001F910F91FF90EF90DF90CF90BF90AF90AC
:100A90009F908F907F906F905F904F903F900C94BD
:100AA0005D0E86E790E00E945D0E16CFDF91CF913C
:100AB0001F910F91FF90EF90DF90CF90BF90AF907C
:100AC0009F908F907F906F905F904F903F90089590
:100AD000EF92FF920F931F93CF93DF93EC018C0162
:100AE000005A1F4FF80180819E0125553F4F790123
:100AF00083FF26C0F901808190E025E095958795D8
:100B00002A95E1F7282F23708C8990E09595879599
:100B10008370281315C04C855D856E857F85888917
:100B20009989AA89BB89481759076A077B0741F445
:100B300088E690E00E945D0EF8018081877F8083C7
:100B4000F701808183708130F9F0FE01E659FF4F93
:100B5000808181111BC0349780819181A281B381F2
:100B60008F3F9F4FAF4FBF4F89F08C859D85AE85DE
:100B7000BF85888B998BAA8BBB8B89E18C8B1D8A57
:100B800060E0CE010E94CE0580E001C081E0DF91EF
:100B9000CF911F910F91FF90EF9008954F925F9228
:100BA0006F927F928F929F92AF92BF92CF92DF927D
:100BB000EF92FF920F931F93CF93DF93EC01862E5A
:100BC000662379F10E941411FE01E455FF4F008164
:100BD000118122813381AB01BC01401B510B620B9F
:100BE000730B8E0100551F4FF80180819181A0E0A9
:100BF000B0E0481759076A077B0710F481E085C009
:100C00000E944F1824E630E040E050E00E94731844
:100C1000DC01CB018E529F4FAF4FBF4FF801918344
:100C2000808388899989AA89BB898F3F9F4FAF4F5D
:100C3000BF4F09F45CC08C898370813009F457C0C0
:100C400083E0982E8E010B591F4F7E0126E6E20E9F
:100C5000F11C6E0181E6C80ED11C5E01E0E6AE0E0D
:100C6000B11CCE010E94D7010E9414112B013C013E
:100C70000E941411DC01CB0184199509A609B7095A
:100C8000883C9105A105B10510F5CE010E944004F4
:100C9000F8018081882361F3F701408151816281ED
:100CA0007381F60180819181A281B3814817590730
:100CB0006A077B07E9F6F8011082CE010E946805F9
:100CC000F5019081892F887093FDD2CF1EC08820B6
:100CD000C1F00E941411DC01CB0184199509A60909
:100CE000B70986399105A105B10558F487CFCE0122
:100CF0000E94D701C05ADF4F8881877F888380E0B8
:100D000004C09A949110ADCF82E0DF91CF911F91F2
:100D10000F91FF90EF90DF90CF90BF90AF909F909A
:100D20008F907F906F905F904F900895CF93DF9357
:100D3000EC018FEF9FEFDC01888B998BAA8BBB8B2B
:100D400088EF8C8B83E0840F8D8B8BE48E8B6F8B85
:100D5000188E50E0B901CE0149960E94091961E050
:100D6000CE01DF91CF910C94CE05CF92EF92FF92FE
:100D70000F931F93FC01E08AF18A028B138B88EF9B
:100D8000848B84E0858B8BE4868B678BC08E2111EE
:100D900002C082E001C083E0440F440F480F418F3E
:100DA00061E0CF011F910F91FF90EF90CF900C94D5
:100DB000CE05EF92FF920F931F93CF93DF93EC0139
:100DC000E88AF98A0A8B1B8BEF28E02AE12A71F462
:100DD000FC01E85AFF4F0190F081E02D8181928162
:100DE000A381B481888B998BAA8BBB8B88EF8C8B6A
:100DF00082E0840F8D8B89E68E8B6F8B50E0B9017A
:100E0000CE0148960E94091961E0CE01DF91CF9191
:100E10001F910F91FF90EF900C94CE054F925F922F
:100E20006F927F928F929F92AF92BF92CF92DF92FA
:100E3000EF92FF920F931F93CF93DF93211183C102
:100E4000F42E6B01EC014C855D856E857F85488BAA
:100E5000598B6A8B7B8B88E78C8BD6018C91833581
:100E600009F447C1B0F4833409F454C040F4803429
:100E700091F1813409F050C189E68E8B50C18B34D9
:100E800009F4AFC0823509F4BFC0853409F044C10C
:100E900045C0833709F41EC150F4883609F402C1F5
:100EA0008E3609F40BC1873509F036C1CFC08837BB
:100EB00009F410C18B3C09F494C0863709F02CC1A9
:100EC00085E990E00E945D0EFE01E55AFF4F8081AA
:100ED00091819E8BFBC0F6018181813621F0CE018C
:100EE0000E94CA0319C1F6E0FF12F9CF22E0C20E38
:100EF000D11C0CEF13E0D6014D916D0121E0B8013A
:100F0000CE010E941D040F5F1F4F0115B4E01B07A7
:100F100091F7E5CFCE010E943103FEC0F601A38018
:100F2000F4808F2D8695869586959F2D977011F468
:100F30008C5F01C08B5F8D8B4D8950E060E070E06D
:100F4000CE0146960E94121985E68E8BD601119627
:100F50008C9111978F8B12968C911297888F139684
:100F60008C91898FB12C812C912C00E010E0CF2C3A
:100F7000D12C412C512C32014394C016D1060CF4D3
:100F8000CEC0E12CF12CEA14FB0434F5C701880D26
:100F9000991D0E945D188F3FD9F0F80123E0F59567
:100FA000E7952A95E1F73496EC0FFD1FC80187708D
:100FB0009927A301920104C0220F331F441F551F1C
:100FC0008A95D2F7DA01C9012689822B868B04C063
:100FD0003FEFE31AF30AD7CF0F5F1F4F8A0C9B1C1A
:100FE000CCCFE881F981D60113968C91139781704B
:100FF000E82E0088F189E02D12960C911297119637
:101000002C91CE01099588C0B4E0FB1285C08EEB0F
:1010100090E00E945D0EF601018110E0102F002784
:101020008281082BF12CD60113968C91F81608F0CA
:101030004FC0AF2CB12CC501800F911F0E945D18CD
:10104000FE01EA0DFB1D868BF394EDCF2F2D30E0D2
:10105000D60113968C9190E004962817390709F071
:101060005BC08DEA90E00E945D0EF601018110E008
:10107000102F00278281F4E0CF0ED11C082B84E0D2
:10108000E82EE01A8E2D800F8F1508F045C0D6018E
:101090004D916D0120E0B801CE010E941D040F5F4B
:1010A0001F4FF0CF8FE990E00E945D0EFE01EA5ADB
:1010B000FF4F80818E8B3496808108C0BE016A5EAE
:1010C0007F4FCE010E947E038AE002C08F8B82E0B8
:1010D0008D8B25C0E881F98196012E5F3F4F4EEF41
:1010E0004F0D0280F381E02DD60111966C91CE0157
:1010F0000995F601618119E61E8B6F8BE881F981F4
:101100000480F581E02DAE01485E5F4FCE01099568
:101110008E5F8D8B1E8B03C089E18C8B1D8A60E0F6
:10112000CE01DF91CF911F910F91FF90EF90DF9053
:10113000CF90BF90AF909F908F907F906F905F9077
:101140004F900C94CE05DF91CF911F910F91FF909E
:10115000EF90DF90CF90BF90AF909F908F907F9057
:101160006F905F904F900895089580E090E008950B
:10117000CF92DF92EF92FF921F93CF93DF93EC0118
:1011800039892F898A819B81AC81BD81CD8CDE8C90
:10119000EF8CF8A0E885F985333039F51D89BC015D
:1011A000CD016C197D098E099F0921110EC0238183
:1011B000348140E050E00E94A518121B153610F44F
:1011C0001C8B01C01C8A1E8A2EC02581368140E0FE
:1011D00050E00E94A518120F153610F41C8B02C0A7
:1011E00084E68C8B84E68E8B1EC01E89BC01CD01EB
:1011F0006C197D098E099F0921110BC0218130E0F6
:1012000040E050E00E94A518121B1E8B1536D8F640
:101210000AC0218130E040E050E00E94A518120F82
:101220001E8B1536F8F6DF91CF911F91FF90EF904E
:10123000DF90CF9008950F931F93CF93DF93EC012E
:101240008B018889811105C0CE010E94B8088C8964
:1012500006C08A8D882311F08B8901C08A89880F86
:10126000F801808381E0DF91CF911F910F91089564
:1012700080918F028F3F19F484E180938F02E6E919
:10128000F2E088EC90E024E1448155814F3F5F4FCC
:1012900011F495838483428153814F3F5F4F11F452
:1012A0009383828330813F3F09F42083379632E075
:1012B000E23BF30749F708952F923F924F925F92D6
:1012C0006F927F928F929F92AF92BF92CF92DF9256
:1012D000EF92FF920F931F93CF93DF93CDB7DEB7BB
:1012E00027970FB6F894DEBF0FBECDBF3C015B0160
:1012F00019012A01F02E10E0DD24DA94F301828135
:10130000181708F087C027E0129F40011124D3016D
:1013100013964D915C911497480D591D01E024E0FE
:1013200030E0BE016F5F7F4FC5010E94D4138981F9
:101330009A81AB81BC818F3FEFEF9E07AE07BE075E
:1013400009F466C082159305A405B50509F060C0CF
:10135000D30113964D915C9114974C5F5F4F480DEC
:10136000591D00E021E030E0BE01695F7F4FC501FB
:101370000E94D4138F818F114BC0F301438154819C
:101380004B5F5F4F480D591D21E030E0BE01695FA2
:101390007F4FC5010E94D4138F818E1139C0D301B4
:1013A00013964D915C9114974A5F5F4F480D591DFC
:1013B00021E030E0BE016A5F7F4FC5010E94D41377
:1013C0008E81CC2029F090E095958795959587950D
:1013D00083708E838E81813051F030F0823051F0F5
:1013E000833049F4DD8207C0B8ECBD8304C0E9EC6A
:1013F000ED8301C01D82D501ED91FC910280F38146
:10140000E02D9E012B5F3F4F41E06E2DC5010995F8
:101410001F5F74CF27960FB6F894DEBF0FBECDBF07
:10142000DF91CF911F910F91FF90EF90DF90CF90C0
:10143000BF90AF909F908F907F906F905F904F90F4
:101440003F902F90089520E001972FEF8F3F920754
:10145000D9F708951F920F920FB60F921124EF92B1
:10146000FF920F931F932F933F934F935F936F932D
:101470007F938F939F93AF93BF93CF93DF93EF931C
:10148000FF93C0918B02D0918C02209709F44AC03F
:10149000EE85FF8590818D85892309F043C086E321
:1014A00090E00E94230A88E0E82EF12C10E001E091
:1014B00085E790E00E94230AEE85FF8590818D8567
:1014C000892311F0102B03C0802F80951823000F63
:1014D00081E0E81AF10861F785E790E00E94230AAD
:1014E00085E790E00E94230A80918A022091890278
:1014F00090E001968F73992730E08217930779F077
:10150000E0918A02F0E0EC5BFD4F108380918A024B
:1015100090E001968F73992780938A0203C08E8989
:1015200081608E8BFF91EF91DF91CF91BF91AF9151
:101530009F918F917F916F915F914F913F912F91EB
:101540001F910F91FF90EF900F900FBE0F901F9083
:1015500018951F920F920FB60F921124EF92FF92DF
:101560000F931F932F933F934F935F936F937F93AB
:101570008F939F93AF93BF93CF93DF93EF93FF939B
:10158000C0918B02D0918C02209709F44AC0EE855D
:10159000FF8590818D85892309F043C086E390E023
:1015A0000E94230A88E0E82EF12C10E001E085E794
:1015B00090E00E94230AEE85FF8590818D85892326
:1015C00011F0102B03C0802F80951823000F81E0AD
:1015D000E81AF10861F785E790E00E94230A85E7A1
:1015E00090E00E94230A80918A022091890290E073
:1015F00001968F73992730E08217930779F0E09175
:101600008A02F0E0EC5BFD4F108380918A0290E04B
:1016100001968F73992780938A0203C08E89816017
:101620008E8BFF91EF91DF91CF91BF91AF919F9101
:101630008F917F916F915F914F913F912F911F916A
:101640000F91FF90EF900F900FBE0F901F90189585
:101650001F920F920FB60F921124EF92FF920F93E9
:101660001F932F933F934F935F936F937F938F932A
:101670009F93AF93BF93CF93DF93EF93FF93C0916B
:101680008B02D0918C02209709F44AC0EE85FF8529
:1016900090818D85892309F043C086E390E00E9404
:1016A000230A88E0E82EF12C10E001E085E790E0C5
:1016B0000E94230AEE85FF8590818D85892311F094
:1016C000102B03C0802F80951823000F81E0E81AAB
:1016D000F10861F785E790E00E94230A85E790E032
:1016E0000E94230A80918A022091890290E001964B
:1016F0008F73992730E08217930779F0E0918A027F
:10170000F0E0EC5BFD4F108380918A0290E001963F
:101710008F73992780938A0203C08E8981608E8B94
:10172000FF91EF91DF91CF91BF91AF919F918F91F9
:101730007F916F915F914F913F912F911F910F91E9
:10174000FF90EF900F900FBE0F901F901895BC0167
:1017500080918D0290918E02009711F00C941D0FD4
:1017600008954F925F926F927F929F92AF92BF9235
:10177000CF92DF92EF92FF920F931F93CF93DF935D
:1017800000D0CDB7DEB76C015B01942E0E9414111E
:10179000D60112966D937D938D939C9315975896D1
:1017A0004C9158974130B9F091960D911D912D9122
:1017B0003C919497DC01CB01801B910BA20BB30BE6
:1017C000F601038D148D20E030E080179107A20709
:1017D000B30708F47DC1D60150961C91123009F46C
:1017E00039C130F4112309F4A9C01130B1F170C12D
:1017F0001430E1F008F45AC0153009F069C161E015
:10180000F60187810E94A810F60182819381A4814C
:10181000B58181A392A3A3A3B4A3118B81E0808B94
:10182000108E84E893E0948F838F4EC161E0F601BF
:1018300086810E94A810D60151961C93519712964A
:101840008D919D910D90BC91A02DF60181A392A345
:10185000A3A3B4A380E29EE426C0D60152969C9135
:10186000529754968C915497891718F457961C9355
:1018700002C0F601178AD60157966C9157971696B3
:101880008C910E94A81081E0F601818B82E0808B10
:10189000108E82819381A481B58181A392A3A3A399
:1018A000B4A384E690E0948F838F12C160E0D601E8
:1018B00017968C910E94A810F60182819381A481D1
:1018C000B581858F968FA78FB0A381A392A3A3A381
:1018D000B4A32489258B83E0818B108A9789828920
:1018E00030E00084F185E02D911105C0281B3109FD
:1018F0006381748108C0482F50E02A01421A530ABC
:10190000920165817681269FA001279F500D369F09
:10191000500D1124D6015C965C934E935B978823FF
:1019200011F0843639F4F601838D948D88519C4FE3
:10193000948F838FD60158961C92CAC0F60141300D
:1019400059F4108EC6010E94B808D60154968C91A5
:10195000549752968C9319C08289848B97899111E0
:1019600002C0168A02C094E6968BF601918D911101
:101970000CC0882311F0843641F486E791E00E9480
:10198000A70B81E0D60159968C93F6018685978541
:10199000892B39F50084F185E02D808180FF21C0FD
:1019A000D6015A968C915A9781111BC012968D912F
:1019B0009D910D90BC91A02DF60182879387A487FD
:1019C000B587F501E85AFF4F0190F081E02D808145
:1019D000F4E68F9FC0011124D6011F969C938E932D
:1019E0001E9761E0F60187810E94A810D6015196EA
:1019F0001C92519784E050968C93509712968D913B
:101A00009D910D90BC91A02DF60181A392A3A3A35B
:101A1000B4A384E690E0948F838F828D882309F4A9
:101A200057C086EA91E00E94A70BD60153968C918D
:101A3000880F8A83D501ED91FC910280F381E02D1E
:101A40009E012E5F3F4F41E0692DC5010995F601CA
:101A5000128E3AC060E0D60117968C910E94A810B1
:101A6000F60182819381A481B581858F968FA78F9E
:101A7000B0A381A392A3A3A3B4A3118B83E0808B13
:101A800097890084F185E02DD60156968C91569762
:101A9000911109C09181899FC00111245C969C938A
:101AA0008E935B9715C024E630E02901481A51084F
:101AB0004181449D9001459D300D1124D6015C96D5
:101AC0003C932E935B9704C061E086810E94A8102E
:101AD000D6011E968D919C911F97009709F447C0DF
:101AE00012964D915D916D917C9115971A960D917D
:101AF0001D912D913C911D972A013B01401A510ADD
:101B0000620A730AA0E0B0E0481659066A067B062E
:101B100070F1D6011A964D935D936D937C931D974A
:101B2000ED91FC910280F381E02DBE016F5F7F4F4C
:101B3000C6010995D501ED91FC910084F185E02D58
:101B4000E12CF12C87019E012F5F3F4F41E0692D71
:101B5000C5010995813031F48AEF90E0F60197874D
:101B6000868705C0D6011F961C921E921E970F9065
:101B70000F90DF91CF911F910F91FF90EF90DF9029
:101B8000CF90BF90AF909F907F906F905F904F905D
:101B90000895CF93DF93EC01F90180818F3F29F500
:101BA0008EED91E00E94A70B8989823009F4188A92
:101BB00091E0988F8B7F09F07DC08F89811103C0E0
:101BC00084E68A8B01C01A8A81E0888B898D811115
:101BD00071C086EE91E00E94A70B8F89811102C02F
:101BE0001C8A68C084E68C8B65C0893C31F488EF20
:101BF00091E00E94A70B188A4CC08695853608F0A4
:101C000084E68A8B8EEF91E00E94A70B4A8980912F
:101C10008D0290918E02009731F050E060E070E00C
:101C20002AE00E94320F82E492E00E94A70B898D85
:101C3000811114C083E192E00E94A70B8A8981116F
:101C400003C084E68C8B0AC0843611F41C8A06C05B
:101C500094E69C8B8B8B1A8A81E08A8F89898250CB
:101C60008230C8F4CE010E94B8088F89811105C066
:101C70009A898C89891748F406C0813031F49A8991
:101C80008C89981710F485E003C08989833091F41A
:101C9000888B81E00EC09A898C89981759F081E071
:101CA000888B9A8D992329F084E893E09C8F8B8F01
:101CB00001C0888FDF91CF9108950F931F93CF9329
:101CC000DF9300918D0210918E020115110581F0B4
:101CD000EC01FE016491662359F0D801ED91FC916D
:101CE0000190F081E02DC80109952196892B89F793
:101CF000DF91CF911F910F910895CF92DF92EF92D4
:101D0000FF920F931F93CF93DF936C017A018B01A6
:101D1000C0E0D0E0CE15DF0589F0D8016D918D01CE
:101D2000D601ED91FC910190F081E02DC60109955D
:101D3000892B11F47E0102C02196ECCFC701DF91FF
:101D4000CF911F910F91FF90EF90DF90CF9008956A
:101D500082ED92E00E94041021E0892B09F420E03A
:101D6000822F08950E940419EF92FF920F931F9300
:101D7000CF93DF93EC0181E0888F9B8D8C8D98133E
:101D800005C0E889F989808185FD24C0F62E0B8D78
:101D900010E00F5F1F4F0F731127E02E8C8DE8129C
:101DA0000CC00FB607FCFACFE889F989808185FF5E
:101DB000F5CFCE010E948710F1CF8B8DFE01E80F89
:101DC000F11DE35AFF4FF0820B8FEA89FB89808176
:101DD000806207C0EE89FF896083E889F989808184
:101DE0008064808381E090E0DF91CF911F910F911B
:101DF000FF90EF900895CF93DF93EC01888D8823B7
:101E0000C9F0EA89FB89808185FD05C0A889B98967
:101E10008C9186FD0FC00FB607FCF5CF808185FF42
:101E2000F2CFA889B9898C9185FFEDCFCE010E94B0
:101E30008710E7CFDF91CF9108956115710579F093
:101E4000FB0101900020E9F73197AF01461B570BCA
:101E5000DC01ED91FC910280F381E02D099480E09A
:101E600090E008954F925F926F927F92EF92FF926F
:101E70000F931F93CF93DF93CDB7DEB7A1970FB624
:101E8000F894DEBF0FBECDBF7C01FA01CB0119A2D1
:101E9000223008F42AE08E010F5D1F4F422E512C94
:101EA000612C712CBF01A30192010E94A518F901B8
:101EB000CA01015011096A3014F4605D01C0695C07
:101EC000D8016C93232B242B252B61F7B801C70174
:101ED0000E941D0FA1960FB6F894DEBF0FBECDBFB6
:101EE000DF91CF911F910F91FF90EF907F906F90B6
:101EF0005F904F9008951F920F920FB60F9211248A
:101F00002F933F934F935F936F937F938F939F9301
:101F1000AF93BF93EF93FF9382ED92E00E948710FF
:101F2000FF91EF91BF91AF919F918F917F916F91B1
:101F30005F914F913F912F910F900FBE0F901F9087
:101F400018951F920F920FB60F9211242F938F9313
:101F50009F93EF93FF93E091E202F091E30280817F
:101F6000E091E802F091E90282FD12C09081809137
:101F7000EB028F5F8F732091EC02821751F0E0919A
:101F8000EB02F0E0EE52FD4F958F8093EB0201C023
:101F90008081FF91EF919F918F912F910F900FBEB4
:101FA0000F901F901895FC01538D448D252F30E024
:101FB000842F90E0821B930B541710F0CF96089556
:101FC00001970895FC01918D828D981761F0828DA3
:101FD000DF01A80FB11D5D968C91928D9F5F9F735D
:101FE000928F90E008958FEF9FEF0895FC01918DFF
:101FF000828D981731F0828DE80FF11D858D90E06C
:1020000008958FEF9FEF0895FC01918D228D892F08
:1020100090E0805C9F4F821B91098F7399270895F0
:1020200080E090E0892B29F00E94A80E81110C9489
:1020300000000895833081F028F4813099F08230D7
:10204000A1F008958730A9F08830B9F08430D1F438
:10205000809180008F7D03C0809180008F77809376
:102060008000089584B58F7702C084B58F7D84BDCC
:1020700008958091B0008F7703C08091B0008F7D6C
:102080008093B0000895CF93DF93282F30E0F901BB
:10209000ED5DFE4F8491F901E150FF4FD491F901BC
:1020A000E551FF4FC491CC2391F081110E941A1089
:1020B000EC2FF0E0EE0FFF1FEF51FF4FA591B49111
:1020C000EC91ED2381E090E021F480E002C080E01B
:1020D00090E0DF91CF9108950895FC018281681707
:1020E00090F423818481E22FF82FE60FF11DE60F93
:1020F000F11D80819181DC01ED91FC910280F381E1
:10210000E02DBA010994DA011C9281E00895FC01E6
:10211000848DDF01A80FB11DA35ABF4F2C91848D70
:1021200090E001968F739927848FA689B7892C93A5
:10213000A089B1898C9180648C93938D848D981340
:1021400006C00288F389E02D80818F7D8083089509
:102150001F93CF93DF93282F30E0F901ED5DFE4F01
:102160008491F901E150FF4FD491F901E551FF4FFE
:10217000C491CC23C9F0162F81110E941A10EC2FA4
:10218000F0E0EE0FFF1FE952FF4FA591B4918FB71A
:10219000F894111105C09C91ED2FE095E92302C040
:1021A000EC91ED2BEC938FBFDF91CF911F910895B0
:1021B000CF93DF9390E0FC01E150FF4F2491FC01AD
:1021C000E551FF4F8491882361F190E0880F991FBA
:1021D000FC01E75EFE4FC591D491FC01E952FF4F2F
:1021E000A591B491611109C09FB7F8948881209599
:1021F00082238883EC912E230BC0623061F49FB759
:10220000F8943881822F809583238883EC912E2B3C
:102210002C939FBF06C08FB7F894E8812E2B28839C
:102220008FBFDF91CF9108952FB7F89460917E030F
:1022300070917F0380918003909181032FBF089557
:10224000CF92DF92EF92FF920F931F93CF93DF9382
:10225000EC010E944004FE01EB59FF4F808188236E
:10226000C9F110828E010A591F4FF80180819181B6
:10227000A281B38135974081518162817381841736
:102280009507A607B70729F08F3F9F4FAF4FBF4F66
:1022900009F5CE010E9468058823E1F04881598143
:1022A00021E0F80180819181A281B3818F3F9F4F0E
:1022B000AF4FBF4F09F020E0DA015296ED91FC914B
:1022C0005397DE01A659BF4F4C91BE0165597F4F10
:1022D000CE0109950E941411683E73408105910555
:1022E00060F180916F03811128C08FEF9FEFDC01B7
:1022F000888B998BAA8BBB8B88EF8C8B80E18D8B25
:1023000081E48E8B1F8AFE01EA5AFF4F8081888FFD
:10231000198E3596808191819A8F8B8FBE01645E74
:102320007F4FCE010E947E0361E0CE010E94CE0568
:1023300091E0811190E090936F03F12C8A81F8165F
:10234000A8F49B818C81E92FF82FEF0DF11DEF0D83
:10235000F11D80819181DC01ED91FC910480F5817A
:10236000E02D4F2DBE010995F394E8CF89858F3F6D
:1023700009F448C10E9414116B017C018B858823EC
:10238000E1F089858E3008F08E50877080648093EC
:102390007C0080917A00806480937A0080917A003A
:1023A00086FDFCCF809178002091790090E0922BFF
:1023B00021E08132934044F406C089850E94431095
:1023C00021E0892B09F020E080917803823009F424
:1023D00067C028F4882361F08130C1F0BAC084302E
:1023E00009F482C008F460C0853009F49DC0B1C012
:1023F000222319F081E080937803C0927403D09275
:102400007503E0927603F0927703A3C08091740382
:1024100090917503A0917603B0917703222381F008
:1024200097018601081B190B2A0B3B0BD901C80128
:1024300089389341A105B1050CF48BC082E071C0CD
:10244000A7019601281B390B4A0B5B0B253631057A
:10245000410551050CF47BC08FEF9FEFDC01888BA9
:10246000998BAA8BBB8B88EF8C8B80E18D8B81E461
:102470008E8B1F8AFE01EA5AFF4F8081888F198E4A
:102480003596808191819A8F8B8FBE01645E7F4FDC
:10249000CE010E947E0361E0CE010E94CE0557C0AE
:1024A000211157C083E0A7CF8091740390917503E9
:1024B000A0917603B0917703B701A601481B590B91
:1024C0006A0B7B0BDB01CA014436510561057105BE
:1024D0000CF43FC0222311F084E08DCF813197426C
:1024E000A105B105A4F535C08091740390917503E1
:1024F000A0917603B0917703B701A601481B590B51
:102500006A0B7B0BDB01CA0144365105610571057D
:1025100004F12223E1F0893B9B40A105B105CCF0F9
:1025200085E08093780315C0211113C000E010E00E
:1025300020E04FEFB801CE010E941D040F5F1F4F36
:102540000C3F63E01607A1F7CE010E943103109201
:1025500078038A858F3F09F455C0909178039530B0
:1025600048F49230A8F4992341F0913009F04AC020
:1025700061E004C0953001F145C060E0DF91CF918A
:102580001F910F91FF90EF90DF90CF900C94A810C7
:1025900040917003509171036091720370917303C5
:1025A00097018601041B150B260B370B0536110509
:1025B000210531053CF115C0409170035091710324
:1025C000609172037091730397018601041B150BD0
:1025D000260B370BB901A8014F3E5240610571052A
:1025E0008CF00E94431061E0892B09F060E08A853D
:1025F0000E94A810C0927003D0927103E0927203FF
:10260000F0927303DF91CF911F910F91FF90EF90A4
:10261000DF90CF9008951F920F920FB60F92112462
:102620002F933F938F939F93AF93BF9380917E039C
:1026300090917F03A0918003B091810330917D033D
:1026400023E0230F2D3720F40196A11DB11D05C0F5
:1026500026E8230F0296A11DB11D20937D038093D0
:102660007E0390937F03A0938003B09381038091B6
:10267000790390917A03A0917B03B0917C0301963A
:10268000A11DB11D8093790390937A03A0937B03DE
:10269000B0937C03BF91AF919F918F913F912F9108
:1026A0000F900FBE0F901F901895CF93C82F809159
:1026B0008D0290918E020097D9F04C2F50E024E0CB
:1026C000559547952A95E1F7052E000C660B770B7B
:1026D00020E10E94320F4C2F4F7050E060E070E01C
:1026E00020E180918D0290918E02CF910C94320F57
:1026F000CF910895BF92CF92DF92EF92FF920F9306
:102700001F93CF93DF938C01F62ED42EE22EC32E8F
:1027100080918D0290918E02892BD1F085E191E01C
:102720000E945D0E8F2D0E94551383E191E00E945F
:102730005D0EBE2CCE2DDC2D8C2F8B198D1520F42B
:1027400089910E945513F8CF82E492E00E94A70B72
:10275000F8018281F816F0F493818481E92FF82F33
:10276000EF0DF11DEF0DF11D80819181DC01ED91E7
:10277000FC910190F081E02D2E2D3C2D4D2DB801C6
:10278000DF91CF911F910F91FF90EF90DF90CF904D
:10279000BF900994DF91CF911F910F91FF90EF901F
:1027A000DF90CF90BF900895AF92BF92CF92DF920B
:1027B000EF92FF920F93CF93DF936B015A01E901E0
:1027C00021977B01C7018C199D09CF3FFFEFDF07E0
:1027D00059F00111CE018A0D9B1D0E945D18F70171
:1027E00081937F012197EECFDF91CF910F91FF90E1
:1027F000EF90DF90CF90BF90AF90089580E691E08A
:102800009093B2028093B1022091BD02263140F52F
:10281000283028F02E3030F0ECE6F0E005C0EDE690
:10282000F0E002C0EBE6F0E03081283038F481E0DF
:1028300090E001C0880F2A95EAF70FC0422F50E0C0
:102840002E3018F44850510902C04E50510981E011
:1028500090E001C0880F4A95EAF780958323808332
:102860000895CF93DF93E2EDF2E01382128288EEB7
:1028700093E0A0E0B0E084839583A683B7832EE441
:1028800031E03183208325EC30E03587248724EC48
:1028900030E03787268720EC30E0318B208B21EC2D
:1028A00030E0338B228B22EC30E0358B248B26EC0E
:1028B00030E0378B268B118E128E138E148EC1EB67
:1028C000D2E01B821A828C839D83AE83BF8380E615
:1028D00091E099838883E7ECF2E080818E7F8083AA
:1028E00061E082E00E94D81061E082E00E94A810BE
:1028F000E1E0F1E0E491E88BEDEEF0E0E491F0E06E
:10290000EE0FFF1FE952FF4F859194919A8B898BAF
:1029100060E084E00E94D81061E084E00E94A8108A
:1029200084E08C87E3E0F1E0E491ED87EFEEF0E006
:10293000E491F0E0EE0FFF1FEF51FF4F859194916E
:102940009F878E87DF91CF910895CF93DF93CDB787
:10295000DEB72A970FB6F894DEBF0FBECDBF7894CE
:1029600084B5826084BD84B5816084BD85B5826094
:1029700085BD85B5816085BD80916E008160809345
:102980006E001092810080918100826080938100AE
:1029900080918100816080938100809180008160BE
:1029A000809380008091B10084608093B100809119
:1029B000B00081608093B00080917A008460809341
:1029C0007A0080917A00826080937A0080917A0008
:1029D000816080937A0080917A00806880937A0089
:1029E0001092C100E091E202F091E30282E0808364
:1029F000E091DE02F091DF021082E091E002F091BE
:102A0000E10287E680831092EA02E091E602F0910B
:102A1000E70286E08083E091E402F091E5028081A4
:102A200080618083E091E402F091E502808188601A
:102A30008083E091E402F091E502808180688083E8
:102A4000E091E402F091E50280818F7D8083909196
:102A5000BD029631E0F520916800983050F031E0E9
:102A60009E3008F430E081E001C0880F3A95EAF723
:102A700001C084E0822B80936800983038F09E304B
:102A800040F0963148F0E0E0F0E008C0EDE6F0E01C
:102A900005C0EBE6F0E002C0ECE6F0E040819830E3
:102AA00030F481E001C0880F9A95EAF70EC0292F13
:102AB00030E09E3018F42850310902C02E50310900
:102AC00081E001C0880F2A95EAF7842B808382E792
:102AD00090E00E94230A80918B0290918C02815B8E
:102AE000924091F08091C7028E7F8093C7028FB78A
:102AF000F89410928A021092890221EB32E030930E
:102B00008C0220938B028FBF86E08D838FE08E83B3
:102B100081E18F8383E1888785E089838EE08A83E2
:102B200080E18B8382E18C83CE0101964C015E01B2
:102B300095E0A90EB11C88ECC82E82E0D82EE12CBD
:102B4000F12C9EE0692E91E0792E24E0522E85E250
:102B500090E00E94D4168C01D4018D914D01F501B5
:102B600091915F01D80111967C926E9216969C937A
:102B7000169717968C93179797012B563D4F1996DA
:102B80003C932E9318971F961C921E921E97F80145
:102B9000128613861486158661E00E94D81061E0C3
:102BA000D80117968C910E94A81061E0F8018681E7
:102BB0000E94D81061E0D80116968C910E94A8104E
:102BC000F801508A518A108E118E148A168A178A3B
:102BD000128E128AD6010D931D936D01B7E0EB0E94
:102BE000F11CECE1EE16F10409F0B1CF85E090E0C4
:102BF0000E94D4167C0188E191E0D70111969C9344
:102C00008E9384E212968C93129786E290E014964B
:102C10009C938E93139782EB90E00E94D4168C01C4
:102C20008EE191E0F80191838083E95AFF4F82E2BF
:102C3000808331968FE892E09183808384E0D8018D
:102C400012968C93129788EC92E014969C938E9334
:102C5000139716961C921E9215971896FC92EE9258
:102C60001797329681E0808331968EE190E09183D0
:102C70008083329681EB92E0918380837801BFE577
:102C8000EB0EF11C83E0F701808361E00E94D81015
:102C900060E0D7018C910E94A810F801EB59FF4F1A
:102CA0001082E95BFF4F10821182128213823496E8
:102CB00082ED90E091838083EA55F10982E8808378
:102CC000C8010E94CA0382ED92E090938E02809325
:102CD0008D028FEFF801818782871386C8010E94D9
:102CE000310386E391E0D8018D939C93C8010E9443
:102CF00038091093D1020093D00288E0F80181874F
:102D0000138662E00E94D8108DE0D8011A968C9349
:102D100061E00E94D81080ED90E00E945D0E6E018F
:102D2000B9E0CB0ED11C8091820390918303009770
:102D300011F486E893E0C81AD90A00918D02109127
:102D40008E0201151105F1F00D2C000CEE08FF08A4
:102D5000F7FE12C0D801ED91FC910190F081E02DB9
:102D60006DE2C801099544275527BA014C195D0940
:102D70006E097F092AE003C02AE0B701A601C80155
:102D80000E94320F8EEC90E00E945D0E8091D00286
:102D90009091D102DC01ED91FC910190F081E02D48
:102DA00009950E941010F2CFCF93DF9382309105E6
:102DB00010F482E090E0E0918403F091850320E03C
:102DC00030E0C0E0D0E0309711F1408151814817E8
:102DD0005907C0F04817590761F482819381209701
:102DE00019F09B838A832BC090938503809384037F
:102DF00026C02115310519F04217530718F49A011E
:102E0000BE01DF01EF010280F381E02DDCCF21154F
:102E1000310509F1281B390B2430310590F4129645
:102E20008D919C9113976115710521F0FB0193839E
:102E3000828304C09093850380938403FD013296BE
:102E400044C0FD01E20FF31F819391932250310999
:102E50002D933C933AC02091820330918303232B1E
:102E600041F42091020130910301309383032093B8
:102E7000820320910001309101012115310541F4B7
:102E80002DB73EB74091040150910501241B350B2D
:102E9000E0918203F0918303E217F307A0F42E1B65
:102EA0003F0B2817390778F0AC014E5F5F4F2417AE
:102EB000350748F04E0F5F1F509383034093820302
:102EC0008193919302C0E0E0F0E0CF01DF91CF91D8
:102ED00008950F931F93CF93DF93009709F48CC04D
:102EE000FC013297138212820091840310918503B2
:102EF0000115110581F420813181820F931F2091EA
:102F00008203309183032817390779F5F0938303FF
:102F1000E093820371C0D80140E050E0AE17BF07D4
:102F200050F412962D913C911397AD012115310566
:102F300009F1D901F3CF9D01DA0133832283608146
:102F40007181860F971F8217930769F4EC0128811E
:102F50003981260F371F2E5F3F4F318320838A81AF
:102F60009B8193838283452B29F4F0938503E0931F
:102F7000840342C01396FC93EE931297ED0149919E
:102F800059919E01240F351FE217F30771F48081D8
:102F90009181840F951F029611969C938E93828146
:102FA000938113969C938E931297E0E0F0E0D80102
:102FB00012968D919C911397009719F0F8018C014E
:102FC000F6CF8D919C9198012E5F3F4F820F931FFA
:102FD00020918203309183032817390769F43097D1
:102FE00029F4109285031092840302C01382128286
:102FF0001093830300938203DF91CF911F910F9170
:1030000008958F929F92AF92BF92CF92DF92EF92EC
:10301000FF92CF93DF93EC01688179818A819B8154
:10302000611571058105910521F464E279ED8BE567
:1030300097E02DE133EF41E050E00E947318490121
:103040005A019B01AC01A7EAB1E40E9492186B01FE
:103050007C01ACEEB4EFA50194010E94A018DC0144
:10306000CB018C0D9D1DAE1DBF1DB7FF03C0019789
:10307000A109B04888839983AA83BB83BC01CD0191
:103080009F77DF91CF91FF90EF90DF90CF90BF902F
:10309000AF909F908F9008950E940118089586E048
:1030A00091E00E9401180895609306017093070152
:1030B00080930801909309010895F999FECF92BD7C
:1030C00081BDF89A992780B50895262FF999FECFEA
:1030D0001FBA92BD81BD20BD0FB6F894FA9AF99A35
:1030E0000FBE01960895052E97FB1EF400940E94D2
:1030F0008A1857FD07D00E94A51807FC03D04EF48C
:103100000C948A1850954095309521953F4F4F4F1C
:103110005F4F089590958095709561957F4F8F4F83
:103120009F4F08950E94C718A59F900DB49F900DC2
:10313000A49F800D911D11240895B7FF0C9492183F
:103140000E949218821B930B0895A1E21A2EAA1BCB
:10315000BB1BFD010DC0AA1FBB1FEE1FFF1FA21747
:10316000B307E407F50720F0A21BB30BE40BF50B44
:10317000661F771F881F991F1A9469F760957095CD
:10318000809590959B01AC01BD01CF010895A29F50
:10319000B001B39FC001A39F700D811D1124911D2B
:1031A000B29F700D811D1124911D089597FB072E6C
:1031B00016F4009407D077FD09D00E94EA1807FCA6
:1031C00005D03EF4909581959F4F08957095619537
:1031D0007F4F0895AA1BBB1B51E107C0AA1FBB1F4D
:1031E000A617B70710F0A61BB70B881F991F5A9593
:1031F000A9F780959095BC01CD010895EE0FFF1FB2
:103200000590F491E02D099481E090E0F8940C94FD
:10321000F11BFB01DC0102C001900D9241505040B6
:10322000D8F70895DC0101C06D9341505040E0F79C
:103230000895AEE0B0E0EFE1F9E10C94C81B0D8910
:103240001E8986E08C831A8309838FEF9FE79E8314
:103250008D83AE01475E5F4F6F89788DCE010196F9
:103260000E943C192F813885F801E20FF31F10826C
:103270002E96E4E00C94E41BACE0B0E0E2E4F9E16B
:103280000C94BA1B7C016B018A01FC011782168227
:10329000838181FFBDC1CE0101964C01F70193816D
:1032A000F60193FD859193FF81916F01882309F4C5
:1032B000ABC1853239F493FD859193FF81916F0104
:1032C000853229F4B70190E00E94241BE7CF512CEE
:1032D000312C20E02032A0F48B3269F030F48032BF
:1032E00059F0833269F420612CC08D3239F080337B
:1032F00039F4216026C02260246023C0286021C0E8
:1033000027FD27C030ED380F3A3078F426FF06C08D
:10331000FAE05F9E300D1124532E13C08AE0389ED0
:10332000300D1124332E20620CC08E3221F426FD84
:103330006BC1206406C08C3611F4206802C0883648
:1033400041F4F60193FD859193FF81916F01811105
:10335000C1CF982F9F7D9554933028F40C5F1F4F59
:10336000FFE3F9830DC0833631F0833771F0833585
:1033700009F05BC022C0F801808189830E5F1F4F76
:1033800044244394512C540115C03801F2E06F0ECF
:10339000711CF801A080B18026FF03C0652D70E08C
:1033A00002C06FEF7FEFC5012C870E94191B2C0113
:1033B00083012C852F77222E17C03801F2E06F0E83
:1033C000711CF801A080B18026FF03C0652D70E05C
:1033D00002C06FEF7FEFC5012C870E940E1B2C01EE
:1033E0002C852068222E830123FC1BC0832D90E0B6
:1033F00048165906B0F4B70180E290E00E94241B01
:103400003A94F4CFF50127FC859127FE81915F0165
:10341000B70190E00E94241B31103A94F1E04F1A5A
:1034200051084114510471F7E5C0843611F0893612
:1034300039F5F80127FF07C060817181828193818E
:103440000C5F1F4F08C060817181072E000C880B34
:10345000990B0E5F1F4F2F76722E97FF09C0909524
:103460008095709561957F4F8F4F9F4F2068722E8A
:103470002AE030E0A4010E945C1BA82EA81844C0DA
:10348000853729F42F7EB22E2AE030E025C0F22FB6
:10349000F97FBF2E8F36C1F018F4883579F0B4C0AB
:1034A000803719F0883721F0AFC02F2F2061B22E5E
:1034B000B4FE0DC08B2D8460B82E09C024FF0AC055
:1034C0009F2F9660B92E06C028E030E005C020E1AD
:1034D00030E002C020E132E0F801B7FE07C06081B1
:1034E0007181828193810C5F1F4F06C06081718161
:1034F00080E090E00E5F1F4FA4010E945C1BA82E8D
:10350000A818FB2DFF777F2E76FE0BC0372D3E7F50
:10351000A51450F474FE0AC072FC08C0372D3E7E1C
:1035200005C0BA2C372D03C0BA2C01C0B52C34FF0E
:103530000DC0FE01EA0DF11D8081803311F4397E4A
:1035400009C032FF06C0B394B39404C0832F8678B9
:1035500009F0B39433FD13C030FF06C05A2CB314E6
:1035600018F4530C5B18B32CB31468F4B70180E261
:1035700090E03C870E94241BB3943C85F5CFB314A4
:1035800010F43B1801C0312C34FF12C0B70180E3A6
:1035900090E03C870E94241B3C8532FF17C031FD20
:1035A00003C088E790E002C088E590E0B7010CC056
:1035B000832F867859F031FF02C08BE201C080E290
:1035C00037FD8DE2B70190E00E94241BA51438F46A
:1035D000B70180E390E00E94241B5A94F7CFAA948D
:1035E000F401EA0DF11D8081B70190E00E94241BD7
:1035F000A110F5CF332009F451CEB70180E290E05D
:103600000E94241B3A94F6CFF7018681978102C06D
:103610008FEF9FEF2C96E2E10C94D61BFC010590F6
:10362000615070400110D8F7809590958E0F9F1FC4
:103630000895FC016150704001900110D8F7809509
:1036400090958E0F9F1F08950F931F93CF93DF9335
:10365000FB01238121FD03C08FEF9FEF28C022FFD4
:1036600016C046815781248135814217530744F49F
:10367000A081B1819D012F5F3F4F318320838C93C7
:10368000268137812F5F3F4F3783268310C0EB01A0
:10369000092F182F0084F185E02D0995892BE1F67B
:1036A0008E819F8101969F838E83812F902FDF9142
:1036B000CF911F910F910895FA01AA27283051F157
:1036C000203181F1E8946F936E7F6E5F7F4F8F4F53
:1036D0009F4FAF4FB1E03ED0B4E03CD0670F781FB2
:1036E000891F9A1FA11D680F791F8A1F911DA11D97
:1036F0006A0F711D811D911DA11D20D009F46894D0
:103700003F912AE0269F11243019305D3193DEF677
:10371000CF010895462F4770405D4193B3E00FD02D
:10372000C9F7F6CF462F4F70405D4A3318F0495D18
:1037300031FD4052419302D0A9F7EACFB4E0A695FB
:103740009795879577956795BA95C9F7009761051D
:10375000710508959B01AC010A2E06945795479573
:1037600037952795BA95C9F7620F731F841F951F68
:10377000A01D08952F923F924F925F926F927F9279
:103780008F929F92AF92BF92CF92DF92EF92FF9271
:103790000F931F93CF93DF93CDB7DEB7CA1BDB0B1D
:1037A0000FB6F894DEBF0FBECDBF09942A883988C2
:1037B00048885F846E847D848C849B84AA84B984C9
:1037C000C884DF80EE80FD800C811B81AA81B981D5
:1037D000CE0FD11D0FB6F894DEBF0FBECDBFED01E9
:1037E000089510E0CDE9D0E004C0FE010E94FE186B
:0C37F0002196CE39D107C9F7F894FFCF1D
:1037FC000000860380000100000000000000C90DDD
:10380C001B09B10B000000005C0900000000201136
:10381C007A136D106C10D906C800B5069606FF0019
:10382C000E070000000020117A136D103809D9061C
:10383C00C800B5069606FF000E0700000000B40E87
:10384C007D0ED30FFB0E0410E20FF60F00000000EC
:10385C00CF027D0EB5084D015C01740135013A00B3
:10386C002530376C75005265666572656E63652030
:10387C00706F736974696F6E2072656163686564DB
:10388C002E20506F736974696F6E206973206B6E94
:10389C006F776E2E0A005265666572656E636520E1
:1038AC00706F736974696F6E2072656163686564AB
:1038BC002E204D6F76696E6720746F20746172676D
:1038CC00657420706F736974696F6E2E0A00546F83
:1038DC0067676C650A00506F736974696F6E207549
:1038EC006E6B6E6F776E0A0053746F700A005265C0
:1038FC007175657374656420506F736974696F6E4C
:10390C003A2000506F736974696F6E20756E6B6E20
:10391C006F776E2E204D6F76696E6720746F2072F4
:10392C0065666572656E636520706F736974696F27
:04393C006E2E0A00E1
:00000001FF
