:100000000C94A6000C94CE000C94CE000C94F20834
:100010000C94E8080C94DE080C94CE000C94CE00EE
:100020000C94CE000C94CE000C94CE000C94CE0018
:100030000C94CE000C94CE000C94CE000C94CE0008
:100040000C94A20A0C94CE000C94DA120C94B41204
:100050000C94CE000C94CE000C94CE000C94CE00E8
:100060000C94CE000C94CE004204560459046E0445
:10007000EF04EF04EF04EF04EF04EF0472048804CC
:100080009B04C004523A2041434B0A000A00543AF0
:100090002000453A204352430A000A00453A204DC9
:1000A0007367546F6F4C6F6E670A003A00523A20C4
:1000B00000543A2046575665720A00543A20485771
:1000C0005665722C5479700A00433A20577269744D
:1000D0006520454550524F4D0A00433A2052656114
:1000E0006420454550524F4D0A002000533A2000ED
:1000F00000000000240027002A0000000000250066
:1001000028002B0000000000230026002900040422
:1001100004040404040402020202020203030303AF
:10012000030301020408102040800102040810208B
:100130000102040810200000000800020100000372
:1001400004070000000000000000C41311241FBEBB
:10015000CFEFD8E0DEBFCDBF11E0A0E0B1E0EAE72D
:10016000F6E302C005900D92A638B107D9F722E058
:10017000A6E8B1E001C01D92A53AB207E1F710E090
:10018000C6EAD0E004C02197FE010E944818C53A93
:10019000D107C9F70E940D140C943B1B0C9400006E
:1001A00020E001972FEF8F3F9207D9F70895089528
:1001B00080E090E00895DC011896ED91FC9119978C
:1001C000CB014130D1F477FD079633E095958795C3
:1001D0003A95E1F7E80FF91FCB0168E070E00E9463
:1001E000341821E030E0A90102C0440F551F8A9560
:1001F000E2F7CA019081892B1AC077FD079623E0A8
:10020000959587952A95E1F7E80FF91FCB0168E0EE
:1002100070E00E94341821E030E0D90102C0AA0F3A
:10022000BB1F8A95E2F7CD01809590818923808359
:100230000895FC012485FB012083FC018385FB01DB
:10024000818382E00895A82FAF73807C803449F0C9
:10025000803871F0811114C02A2F30E0A8EEB3E08D
:1002600004C02A2F30E0A0E6BAEE0E9405180895D7
:10027000B0E020E432E44FE050E00E94D01708954F
:1002800060E070E0CB010895FC01208D318D02C04B
:10029000369527956A95E2F72770213041F48589D4
:1002A0008F3F91F0838987FD0CC02CE00DC0233077
:1002B00059F487898F3F41F0838986FD04C02DE082
:1002C00003C02AE001C02BE0828D8823A9F0848D31
:1002D0008F3F91F4838D813029F4838987FD09C094
:1002E0002CE00AC0833041F4838986FD04C02DE0F0
:1002F00003C02AE001C02BE0822F0895FC01238176
:10030000A481B581E22FF0E083E0F595E7958A9529
:10031000E1F718968D919C911997E80FF91F80814C
:1003200090E0277002C0959587952A95E2F780FFA7
:1003300004C088ECFB01808302C0FB01108281E0D5
:1003400008958091A0018F3F19F484E18093A0016A
:100350000895EF92FF920F931F93CF938C01C62FB6
:100360007A0180919E0190919F01009721F06CE7A6
:1003700071E00E9456128C2F0E94EC0AE114F104E5
:1003800029F0A7016C2FC8010E94E50D045A1F4FE8
:1003900084E08C0F833060F4D8018D919C91DC0156
:1003A000ED91FC910190F081E02D6CEF0995CF77F4
:1003B000F80180819181DC01ED91FC910190F08147
:1003C000E02D6C2FCF911F910F91FF90EF9009942A
:1003D0002F923F924F925F926F927F928F929F9255
:1003E000AF92CF92DF92EF92FF920F931F93CF9332
:1003F000DF93CDB7DEB72E970FB6F894DEBF0FBEF2
:10040000CDBF3C014B0119012A01F02EC88610E036
:10041000F3018281181708F096C024E1129F600151
:100420001124D30113964D915C9114974C0D5D1DD1
:1004300001E024E030E0BE01675F7F4FC4010E940D
:10044000710B89859A85AB85BC858F3FEFEF9E0741
:10045000AE07BE0709F475C082159305A405B5055E
:1004600009F06FC0D30113964D915C9114974C5FC6
:100470005F4F4C0D5D1D00E021E030E0BE01625F8A
:100480007F4FC4010E94710B8E858F115AC0F301FA
:10049000438154814B5F5F4F4C0D5D1D21E030E087
:1004A000BE01625F7F4FC4010E94710B8E858E1169
:1004B00048C0D30113964D915C911497A11015C0BB
:1004C0004A5F5F4F4C0D5D1D21E030E0BE01635F70
:1004D0007F4FC4010E94710B8D858F7091F1F301E4
:1004E000438154814A5F5F4F15C0435F5F4F4C0D9E
:1004F0005D1D00E021E030E0BE01635F7F4FC4017D
:100500000E94710B8D858F70E1F0F301438154815E
:10051000435F5F4F4C0D5D1D27E030E0BE016F5F14
:100520007F4FC4010E94710BD401ED91FC910280B8
:10053000F381E02D9E012F5F3F4F48E06E2DC401F7
:1005400009951F5F65CF2E960FB6F894DEBF0FBEDC
:10055000CDBFDF91CF911F910F91FF90EF90DF9072
:10056000CF90AF909F908F907F906F905F904F90C3
:100570003F902F9008958F929F92AF92BF92CF920B
:10058000DF92EF92FF920F931F93CF93DF93EC01D3
:100590005B01088119810150110917FD24C0F50183
:1005A000E00FF11FC0809A808C8087E0E82EF12C4C
:1005B000D12C96010E2C02C0359527950A94E2F7AE
:1005C000B90161707727882D0E94351361E0892D6C
:1005D0000E94351360E0892D0E94351381E0E81AEE
:1005E000F10838F7D8CFB986A88661E08E810E94DD
:1005F000351360E08E81DF91CF911F910F91FF90B5
:10060000EF90DF90CF90BF90AF909F908F900C9421
:100610003513CF93DF93EC010E94DB006885798569
:10062000CE01DF91CF910C94BB021F93CF93DF9348
:10063000EC01EE81FF81108111FF57C0FB01808129
:100640006B81AC81BD81893CC8F0E62FF0E083E08E
:10065000F595E7958A95E1F718968D919C911997F4
:10066000E80FF91F808190E0677002C0959587952B
:100670006A95E2F78095182F117015C012FB1127AB
:1006800010F9882339F070E041E0CD010E940903A0
:1006900081E008C091E0192770E040E0CD010E94A0
:1006A000090383E08B8F8C819D816A8170E0112327
:1006B00041F06F5F7F4F40E00E9409036A8170E064
:1006C00007C040E00E9409036A8170E06F5F7F4FBE
:1006D00041E08C819D810E9409030E94B8136F87BD
:1006E000788B898B9A8B81E08E878C859D85892B71
:1006F000D9F4EE81FF81808180FF16C00E94B8137B
:10070000688779878A879B87E091CA01F091CB013E
:10071000E95AFF4F0190F081E02D8081F4E68F9F30
:10072000C00111249D878C87DF91CF911F9108957F
:100730003F924F925F926F927F928F929F92AF9271
:10074000BF92CF92DF92EF92FF920F931F93CF93BE
:10075000DF9300D000D0CDB7DEB76C017C836B8314
:10076000342E0E94B8132B013C01F6018785908935
:10077000A189B289A3019201281B390B4A0B5B0B9B
:10078000203531054105510520F18685882309F181
:10079000628170E06F5F7F4F40E0848195810E94AD
:1007A000DB00D60112966C91129770E040E014962F
:1007B0008D919C9115970E94DB00F60184819581B3
:1007C000DC0118966D917C9119970E94BB02F6018D
:1007D0001686F60181A192A1A3A1B4A19301820181
:1007E000081B190B2A0B3B0B458D568D678D70A18D
:1007F000838D948D401751076207730718F4228D7B
:10080000211103C0891709F4F6C0891303C0D6016A
:100810005A961C92813049F030F0823041F083309A
:1008200099F469E00BC060E003C063E007C066E0D4
:10083000C6010E944401F601848F06C0C6010E94D1
:100840004401D6015C968C931A82D601ED91FC91FD
:100850000280F381E02DBE016F5F7F4FC6010995D5
:10086000D6015C96EC911981E43009F4B0C08E2F6A
:1008700090E08E30910508F0B2C0FC01EC5CFF4FB7
:100880000C944818F60184890E942301D6015D96D4
:100890006D937D938D939C939097F60141A252A204
:1008A00063A274A281E0828F138E99C088EC8A8340
:1008B00015C0F60186890E942301D6015D966D93CD
:1008C0007D938D939C939097F60141A252A263A2CF
:1008D00074A281E0828F82E0838F81C0D6015A9614
:1008E0001C9273C088EC8A83F60185890E942301DB
:1008F000D6015D966D937D938D939C939097F601B1
:1009000041A252A263A274A281E0828F848F5DC053
:10091000D60157968C910E942301F601658F768F40
:10092000878F90A3D60141A252A263A274A281E054
:10093000828F83E048C088EC8A83F60181A192A16E
:10094000A3A1B4A153014201881A990AAA0ABB0AB9
:1009500085890E94230186169706A806B90670F4B9
:10096000D6015D966D937D938D939C939097F60140
:1009700041A252A263A274A281E0828F81E022C0D0
:10098000F60181A192A1A3A1B4A153014201881A49
:10099000990AAA0ABB0A87890E942301861697062C
:1009A000A806B90670F4D6015D966D937D938D937C
:1009B0009C939097F60141A252A263A274A281E097
:1009C000828F83E0D6015C968C9391E009C011116F
:1009D00002C083E001C081E0F601838F848F90E044
:1009E0008A81181741F0992331F0BE016E5F7F4F65
:1009F000C6010E941503D6011C968D919C911D97EE
:100A0000892B09F445C00E94B813F60100851185B1
:100A1000228533852B013C01401A510A620A730A70
:100A200024853585890120E030E0401651066206B4
:100A3000730670F160877187828793870190F081D8
:100A4000E02D0280F381E02DBE016F5F7F4FC60174
:100A50000995AB81BC81ED91FC9111970084F185E2
:100A6000E02DE12CF12C87019E012F5F3F4F41E0EB
:100A7000632DCD010995813031F48AEF90E0F601C4
:100A80009587848705C0D6011D961C921E921C97DF
:100A90000F900F900F900F90DF91CF911F910F91BA
:100AA000FF90EF90DF90CF90BF90AF909F908F908E
:100AB0007F906F905F904F903F900895FF920F93BB
:100AC0001F93CF93DF931F92CDB7DEB78C01F9014F
:100AD000483008F454C08081D80153968C935397C2
:100AE000F780982F9F70923020F15A968C915A97E8
:100AF000811142C095968C918F15F1F1923029F4B5
:100B00008F2D8170F0FE0AC006C0933031F4F0FEE4
:100B100002C080E003C088EC01C08FEF8983BE0172
:100B20006F5F7F4FC8010E941503F801838D848F8A
:100B300023C0D80195969C919F1102C085FF1CC0CF
:100B40008181D80154968C935497828155968C93C9
:100B50005597838156968C935697848157968C939C
:100B60005797858158968C935897868159968C9380
:100B700059978FEF5C968C93F801F5A20CC0B901E0
:100B80000E941503D8015A961C925A975B968C9135
:100B90005B975C968C930F90DF91CF911F910F9193
:100BA000FF900895CF93DF93EC018B81EC81FD8161
:100BB000A82FB0E093E0B595A7959A95E1F7208529
:100BC0003185A20FB31F2C9130E0877002C035959C
:100BD00027958A95E2F7AE81BF819C9120FF05C0E1
:100BE00092FB992790F981E006C092FB882780F953
:100BF00091E0982783E08B8F6A8170E0992349F018
:100C00006F5F7F4F40E0CF010E9409036A8170E06F
:100C100008C040E0CF010E9409036A8170E06F5F65
:100C20007F4F41E08C819D810E9409038B8D8C8FC9
:100C30000E94B8136F87788B898B9A8B81E08E879F
:100C4000DF91CF910895CF93DF93EC0160E08A812B
:100C50000E946513EB81FC8181818F3F11F484E157
:100C60008183DF91CF9108950F931F93CF93DF93EB
:100C7000EC01EB81FC81808180FF03C01C861B8618
:100C800052C00E94B8130D811E812F813885AB019F
:100C9000BC01401B510B620B730B89859A85A0E048
:100CA000B0E0481759076A077B07E8F10E94B813BC
:100CB0006D837E838F8398878A810E94A113BC01F4
:100CC0002D8DFE01E20FF11DE20FF11D4B8D5C8DAC
:100CD00085859685481B590BCA01860F971F9C8FE7
:100CE0008B8F76876587EB81FC8160816695677065
:100CF00070E00E9420187C876B872F5F2D8F822FDA
:100D000090E020812695277030E0281739070CF4F1
:100D10001D8E418128EE33E0429FC001439F900D1C
:100D200011249A878987DF91CF911F910F910895A0
:100D30000F931F93CF93DF9300919E0110919F011A
:100D40000115110581F0EC01FE016491662359F053
:100D5000D801ED91FC910190F081E02DC801099539
:100D60002196892B89F7DF91CF911F910F910895DB
:100D70004F925F926F927F92AF92BF92CF92DF922B
:100D8000FF920F931F93CF93DF9300D0CDB7DEB7C1
:100D90008C018FEF9FEF9A838983F8018785908973
:100DA000A189B2898F3F9F4FAF4FBF4FA1F0F8018C
:100DB000E655FF4F808190E095958795837020E2FE
:100DC000829FC0011124D80153969C9153979F791B
:100DD000892B53968C938EE890E00E9498066801C8
:100DE000BEE5CB0ED11C61E0F60180810E94351377
:100DF0008DEF0E94EC0A5801FCE5AF0EB11CD50145
:100E00008D919C91DC01ED91FC910190F081E02DA0
:100E10006DEF0995AE014F5F5F4F6DEFC8010E9406
:100E2000E50DF801478450886188728854E0F52EFA
:100E3000672D772788279927AE014F5F5F4FC8013D
:100E40000E94A901762C652C542C4424FA94F110AC
:100E5000EFCFAE014F5F5F4FD80153966C91C80141
:100E60000E94A901F801838983FD0CC0D801549622
:100E70006C916E5FAE014F5F5F4FC8010E94A90188
:100E8000F12C1BC0F801E05AFF4F40805180628076
:100E9000738024E0F22E672D772788279927AE01EB
:100EA0004F5F5F4FC8010E94A901762C652C542C1E
:100EB0004424FA94F110EFCFD9CFF8018489F816C1
:100EC00060F4F801EF0DF11DAE014F5F5F4F6589D2
:100ED000C8010E94A901F394F0CFAE014F5F5F4FAC
:100EE00060E0C8010E94E50DAE014F5F5F4F60E01A
:100EF000C8010E94E50D6A8140E050E0C8010E94EF
:100F0000A90140E050E06981C8010E94A901D50112
:100F10008D919C91DC01ED91FC910680F781E02D93
:100F2000099560E0F60180810E943513F801E15ACD
:100F3000FF4F8081886080838CE890E00E94980653
:100F40000F900F90DF91CF911F910F91FF90DF9045
:100F5000CF90BF90AF907F906F905F904F9008952B
:100F6000EF92FF920F931F93CF93DF93EC018C01CD
:100F7000015A1F4FF80180819E0126553F4F79018C
:100F800083FF26C0F901808190E025E09595879543
:100F90002A95E1F7282F23708B8990E09595879506
:100FA0008370281315C04B855C856D857E858F8584
:100FB0009889A989BA89481759076A077B0741F4B4
:100FC00084E890E00E949806F8018081877F808302
:100FD000F701808183708130F9F0FE01E759FF4FFE
:100FE000808181111BC0349780819181A281B3815E
:100FF0008F3F9F4FAF4FBF4F89F08B859C85AD854D
:10100000BE858F87988BA98BBA8B89E18B8B1C8AC5
:1010100060E0CE010E94160880E001C081E0DF910F
:10102000CF911F910F91FF90EF9008954F925F9293
:101030006F927F928F929F92AF92BF92CF92DF92E8
:10104000EF92FF920F931F93CF93DF93EC01862EC5
:10105000662379F10E94B813FE01E555FF4F008128
:10106000118122813381AB01BC01401B510B620B0A
:10107000730B8E0101551F4FF80180819181A0E013
:10108000B0E0481759076A077B0710F481E085C074
:101090000E948D1724E630E040E050E00E94B11736
:1010A000DC01CB018E529F4FAF4FBF4FF8019183B0
:1010B00080838F859889A989BA898F3F9F4FAF4FC9
:1010C000BF4F09F45CC08B898370813009F457C02D
:1010D00083E0982E8E010C591F4F7E0125E6E20E0B
:1010E000F11C6E0180E6C80ED11C5E01EFE5AE0E6C
:1010F000B11CCE010E94B8060E94B8132B013C011E
:101100000E94B813DC01CB0184199509A609B7091F
:10111000883C9105A105B10510F5CE010E94FE0D98
:10112000F8018081882361F3F70140815181628158
:101130007381F60180819181A281B381481759079B
:101140006A077B07E9F6F8011082CE010E94B0071A
:10115000F5019081892F887093FDD2CF1EC0882021
:10116000C1F00E94B813DC01CB0184199509A609CE
:10117000B70986399105A105B10558F487CFCE018D
:101180000E94B806C15ADF4F8881877F888380E03C
:1011900004C09A949110ADCF82E0DF91CF911F915E
:1011A0000F91FF90EF90DF90CF90BF90AF909F9006
:1011B0008F907F906F905F904F9008951F920F9245
:1011C0000FB60F9211240F900FBE0F901F9018951D
:1011D0001F920F920FB60F9211240F900FBE0F9017
:1011E0001F9018951F920F920FB60F9211240F9017
:1011F0000FBE0F901F901895AF92BF92DF92EF92A3
:10120000FF920F931F93CF93DF931F92CDB7DEB75B
:101210005C017B01D42EFC017183608322833383C4
:10122000448355830683178361E0822F29830E94BC
:10123000651361E08D2D0E94651361E0802F0E948F
:10124000651360E02981822F0E94351360E08D2DA7
:101250000E94351360E0802F0E943513C7010E9461
:1012600012168C01F50191878087A70160E070E07C
:101270000E945C18B801C5010F90DF91CF911F91BA
:101280000F91FF90EF90DF90BF90AF900C94BB0256
:101290000895FC018281681790F423818481E22FF4
:1012A000F82FE60FF11DE60FF11D80819181DC0121
:1012B000ED91FC910280F381E02DBA010994DA01ED
:1012C0001C9281E00895AF92BF92CF92DF92EF928D
:1012D000FF920F931F93CF93DF93EC01D62EB42E82
:1012E000A22E8D819E81009759F0DC01ED91FC9139
:1012F0000190F081E02D022F242F462FBE01099589
:10130000E881F9810484F585E02DC12CEE24EA946E
:10131000FE2C87012A2D4B2D6D2DCE010995DF91D5
:10132000CF911F910F91FF90EF90DF90CF90BF90E2
:10133000AF900895AF92CF92EF920F93FC01878107
:101340009085009771F0AC2CCE2CE02E022F9A01E4
:10135000AB01BF01DC01ED91FC910190F081E02D2A
:1013600009950F91EF90CF90AF900895089508954B
:1013700080E008950895CF92EF92FF920F931F930C
:10138000FC01E786F08A018B128B88EF838B84E067
:10139000848B8BE4858B668BC78A211102C082E027
:1013A00001C083E0440F440F480F408F61E0CF013C
:1013B0001F910F91FF90EF90CF900C941608CF9350
:1013C000DF93EC018FEF9FEFDC018F87988BA98B68
:1013D000BA8B88EF8B8B83E0840F8C8B8BE48D8BA7
:1013E0006E8B1F8A50E0B901CE0148960E945318B7
:1013F00061E0CE01DF91CF910C941608EF92FF923D
:101400000F931F93CF93DF93EC01EF86F88A098B3C
:101410001A8BEF28E02AE12A71F4FC01E95AFF4F08
:101420000190F081E02D81819281A381B4818F8729
:10143000988BA98BBA8B88EF8B8B82E0840F8C8B77
:1014400089E68D8B6E8B50E0B901CE0147960E94E4
:10145000531861E0CE01DF91CF911F910F91FF9062
:10146000EF900C941608EF92FF920F931F93CF9377
:10147000DF93CDB7DEB764970FB6F894DEBF0FBE2B
:10148000CDBF8B01FC01E05AFF4F608171818281E9
:10149000938120E836E948E950E00E94E3179F93E2
:1014A0008F937F936F938EE791E09F938F93CE01FD
:1014B00001967C019F938F930E94631888E4F80142
:1014C000808382E4818387E58283D801139687E055
:1014D000F70101900D928A95E1F70FB6F894DEBFFF
:1014E0000FBECDBF64960FB6F894DEBF0FBECDBF62
:1014F000DF91CF911F910F91FF90EF9008950F937F
:101500001F93CF93DF931F92CDB7DEB7FB0121115D
:1015100003C06C3F734084F48F01CF0149830E9464
:101520009B176981681741F0C8010F90DF91CF9137
:101530001F910F910C94A3170F90DF91CF911F91E2
:101540000F9108951F920F920FB60F9211242F93AF
:101550003F938F939F93AF93BF9380919A01909104
:101560009B01A0919C01B0919D013091990123E0D4
:10157000230F2D3720F40196A11DB11D05C026E8CB
:10158000230F0296A11DB11D2093990180939A010A
:1015900090939B01A0939C01B0939D018091950134
:1015A00090919601A0919701B09198010196A11D8B
:1015B000B11D8093950190939601A0939701B093EC
:1015C0009801BF91AF919F918F913F912F910F9073
:1015D0000FBE0F901F901895CF93C82F80919E013A
:1015E00090919F010097D9F04C2F50E024E0559541
:1015F00047952A95E1F7052E000C660B770B20E145
:101600000E946B124C2F4F7050E060E070E020E1C0
:1016100080919E0190919F01CF910C946B12CF917C
:101620000895BF92CF92DF92EF92FF920F931F9394
:10163000CF93DF938C01F62ED42EE22EC32E809111
:101640009E0190919F01892B01F18CEE90E00E9408
:1016500098068F2D0E94EC0A8AEE90E00E94980670
:10166000BE2CCE2DDC2D8C2F8B198D1520F489915D
:101670000E94EC0AF8CF80919E0190919F01009703
:1016800021F064E871E00E945612F8018281F81698
:10169000F0F493818481E92FF82FEF0DF11DEF0D08
:1016A000F11D80819181DC01ED91FC910190F0812F
:1016B000E02D2E2D3C2D4D2DB801DF91CF911F91A6
:1016C0000F91FF90EF90DF90CF90BF900994DF9142
:1016D000CF911F910F91FF90EF90DF90CF90BF902F
:1016E0000895AF92BF92CF92DF92EF92FF920F9345
:1016F000CF93DF936B015A01E90121977B01C70169
:101700008C199D09CF3FFFEFDF0759F00111CE0182
:101710008A0D9B1D0E949B17F70181937F012197E2
:10172000EECFDF91CF910F91FF90EF90DF90CF90B0
:10173000BF90AF900895CF92DF92EF92FF920F93F8
:10174000CF93DF9300D000D0CDB7DEB77C01FC0192
:10175000EA5AFF4F208130E06C0187E5C80ED11CAA
:10176000D6016D917C9100E041E050E0C7010E94FC
:10177000710BD601ED91FC9181819281A381B4819D
:1017800089839A83AB83BC838C818183D601ED915D
:10179000FC9111978B818283ED91FC9111978A8145
:1017A0008383ED91FC9189818483F701EF54FF4F8E
:1017B00081E080830F900F900F900F90DF91CF9179
:1017C0000F91FF90EF90DF90CF900895CF92DF922E
:1017D000EF92FF920F931F93CF93DF93EC010CEFE7
:1017E00013E060E070E0CB01CC24D62EE72EF82E7B
:1017F000C8010E949B17A7019601282BCA01B901B5
:101800000F5F1F4F011534E0130771F76F3F4FEF64
:1018100074078407940721F46FEF7FEF8FEF92E452
:10182000FE01E05AFF4F60837183828393836115C9
:1018300071058105910511F00E9492170E948D1784
:10184000C155DF4F24E630E040E050E00E94B11780
:10185000DC01CB018E529F4FAF4FBF4F99838883DE
:10186000DF91CF911F910F91FF90EF90DF90CF907C
:1018700008954F925F926F927F928F929F92AF9254
:10188000BF92CF92DF92EF92FF920F931F93CF936D
:10189000DF93211189C1F42E5B01EC014B855C853E
:1018A0006D857E854F87588B698B7A8B88E78B8B0C
:1018B000D5018C91833509F44DC1B0F4833409F41A
:1018C00054C040F4803491F1813409F056C189E666
:1018D0008D8B56C18B3409F4AEC0823509F4C5C076
:1018E000853409F04AC145C0833709F424C150F456
:1018F000883609F408C18E3609F411C1873509F01C
:101900003CC1D5C0883709F416C18B3C09F493C09B
:10191000863709F032C181EB90E00E949806FE0103
:10192000E65AFF4F808191819D8B01C1F501818134
:10193000813621F0CE010E94E60B1FC1F6E0FF12B6
:10194000F9CF22E0A20EB11C0CEF13E0D5014D91AE
:101950005D0121E0B801CE010E947F0A0F5F1F4F99
:101960000115B4E01B0791F7E5CFCE010E949B0B58
:1019700004C1F501C380E4808E2D869586958695F9
:101980009E2D977011F48C5F01C08B5F8C8B4C89FE
:1019900050E060E070E0CE0145960E945C1885E65C
:1019A0008D8BD50111968C9111978E8B12968C91FF
:1019B00012978F8B13968C91888FD12C812C912C20
:1019C00000E010E0F12C412C512C32014394E01640
:1019D000F1060CF4D5C0A12CB12CAC14BD0434F527
:1019E000C501880D991D0E949B178F3FD9F0F80102
:1019F00033E0F595E7953A95E1F73496EC0FFD1F46
:101A0000C80187709927A301920104C0220F331FD8
:101A1000441F551F8A95D2F7DA01C9012589822B07
:101A2000858B04C03FEFA31AB30AD7CF0F5F1F4FB8
:101A30008C0C9D1CCCCFD50113968C91E881F9813B
:101A4000B82FB170CB2EE82EF12CF594E794F594D5
:101A5000E7940088F189E02DD50112960C91129738
:101A600011962C91CE01099588C0B4E0FB1285C077
:101A70008AED90E00E949806F501018110E0102F98
:101A800000278281082BF12CD50113968C91F81632
:101A900008F04FC0CF2CD12CC601800F911F0E949F
:101AA0009B17FE01EC0DFD1D858BF394EDCF2F2DC3
:101AB00030E0D50113968C9190E0049628173907F1
:101AC00009F05BC089EC90E00E949806F501018165
:101AD00010E0102F00278281F4E0AF0EB11C082B1C
:101AE00084E0E82EE01A8E2D800F8F1508F045C097
:101AF000D5014D915D0120E0B801CE010E947F0A21
:101B00000F5F1F4FF0CF8BEB90E00E949806FE0115
:101B1000EB5AFF4F80818D8B3496808108C0BE01C7
:101B20006B5E7F4FCE010E94330A8AE002C08E8B2B
:101B300082E08C8B25C0E881F98195012E5F3F4FB3
:101B40004EEF4F0D0280F381E02DD50111966C917F
:101B5000CE010995F501618119E61D8B6E8BE88137
:101B6000F9810480F581E02DAE01495E5F4FCE0121
:101B700009958E5F8C8B1D8B03C089E18B8B1C8A32
:101B800060E0CE01DF91CF911F910F91FF90EF9018
:101B9000DF90CF90BF90AF909F908F907F906F908D
:101BA0005F904F900C941608DF91CF911F910F9189
:101BB000FF90EF90DF90CF90BF90AF909F908F906D
:101BC0007F906F905F904F900895FA0128E04081D8
:101BD0005181CA01880F991F67FD816091838083BD
:101BE00057FF08C08081918132E0832730E193273D
:101BF00091838083660F215051F708953F924F9251
:101C00005F926F927F928F929F92AF92BF92CF928C
:101C1000DF92EF92FF920F931F93CF93DF93EC012C
:101C20005C018CE5A80EB11C3E019BEA690E711C9B
:101C30008E01015A1F4FDE01A759BF4F7D01442479
:101C40004A9435E0332E6E01B5E6CB0ED11C8824C4
:101C50008A94982CD5018D919C91DC01ED91FC9199
:101C60000084F185E02D0995892B09F4DDC00E94DF
:101C7000B813F3016083718382839383D5018D91BF
:101C80009C91DC01ED91FC910284F385E02D099596
:101C9000582EBDEF8B1303C08DEA90E002C08BEA93
:101CA00090E00E949806852D0E94EC0AECEF5E12EF
:101CB00007C0D8018C9181FD24C082608C93CACF6B
:101CC000BDEF5B121EC0F80180818D7F8160808333
:101CD00010928A01109289011B861C861D861E8621
:101CE000D6011D921D921D921C921397909288010D
:101CF0008092870147E851E06DEFCE010E94E50D2B
:101D0000A9CFF801808180FFA5CF81FF06C0F52D06
:101D1000F0685F2E8D7FD8018C9347E851E0652DE8
:101D2000CE010E94E50D80918901843078F4F6019E
:101D30004081518162817381762F652F542F442712
:101D4000452940835183628373831AC0843029F408
:101D500030928901509286017DCF4091860143FFE8
:101D600013C0893088F44B855C856D857E85762F20
:101D7000652F542F442745294B875C876D877E87C5
:101D80008F5F8093890166CF8F3F79F04092890100
:101D9000F7015082F0E4F51508F05CCFD8018C9182
:101DA0008E7F8C938CE990E03CC080918A01FE018B
:101DB000E80FF11DE659FF4F508291E0980F909384
:101DC0008A01F7012081921345CF2091870130913C
:101DD0008801232B21F5D8019C919E7F9C93FE01C5
:101DE000E655FF4F40838150F7018083CC59DF4F88
:101DF00081E088838AE990E0DF91CF911F910F9174
:101E0000FF90EF90DF90CF90BF90AF909F908F901A
:101E10007F906F905F904F903F900C94980682E96E
:101E200090E00E94980616CFDF91CF911F910F91FD
:101E3000FF90EF90DF90CF90BF90AF909F908F90EA
:101E40007F906F905F904F903F900895CF92DF9278
:101E5000EF92FF920F931F93CF93DF93EC018C01CE
:101E60000F541F4FD8018C91882301F1E881F9812B
:101E70000680F781E02DCE010995F12C8A81F816B4
:101E800098F49B818C81E92FF82FEF0DF11DEF0D58
:101E9000F11D80819181DC01ED91FC910680F7813B
:101EA000E02D0995F394EACFF8011082CE010E944B
:101EB000FE0DFE01EC59FF4F80818823C9F110828D
:101EC0008E010B591F4FF80180819181A281B3814E
:101ED0003597408151816281738184179507A607E8
:101EE000B70729F08F3F9F4FAF4FBF4F09F5CE0186
:101EF0000E94B0078823E1F04881598121E0F80170
:101F000080819181A281B3818F3F9F4FAF4FBF4F9F
:101F100009F020E0DA015296ED91FC915397DE0131
:101F2000A759BF4F4C91BE0166597F4FCE0109950D
:101F30000E94B813683E73408105910560F180915D
:101F40008B01811128C08FEF9FEFDC018F87988B69
:101F5000A98BBA8B88EF8B8B80E18C8B81E48D8B86
:101F60001E8AFE01EB5AFF4F80818F8B188E3596AB
:101F700080819181998F8A8FBE01655E7F4FCE01EE
:101F80000E94330A61E0CE010E94160891E081119F
:101F900090E090938B01F12C8A81F816A8F49B8134
:101FA0008C81E92FF82FEF0DF11DEF0DF11D8081D0
:101FB0009181DC01ED91FC910480F581E02D4F2DA4
:101FC000BE010995F394E8CF89858F3F09F434C1A8
:101FD0000E94B8136B017C0189859CEE980F9230AA
:101FE00038F40E94A11321E08A3F91053CF005C01E
:101FF0000E940C1321E0892B09F020E080919401CC
:10200000823009F467C028F4882361F08130C1F080
:10201000BAC0843009F482C008F460C0853009F485
:102020009DC0B1C0222319F081E080939401C09239
:102030009001D0929101E0929201F0929301A3C09D
:102040008091900190919101A0919201B0919301A2
:10205000222381F097018601081B190B2A0B3B0BE9
:10206000D901C80189389341A105B1050CF48BC091
:1020700082E071C0A7019601281B390B4A0B5B0B4C
:1020800025363105410551050CF47BC08FEF9FEFDC
:10209000DC018F87988BA98BBA8B88EF8B8B80E1C3
:1020A0008C8B81E48D8B1E8AFE01EB5AFF4F808161
:1020B0008F8B188E359680819181998F8A8FBE0182
:1020C000655E7F4FCE010E94330A61E0CE010E941F
:1020D000160857C0211157C083E0A7CF8091900107
:1020E00090919101A0919201B0919301B701A60145
:1020F000481B590B6A0B7B0BDB01CA0144365105A7
:10210000610571050CF43FC0222311F084E08DCFEE
:1021100081319742A105B105A4F535C080919001A8
:1021200090919101A0919201B0919301B701A60104
:10213000481B590B6A0B7B0BDB01CA014436510566
:102140006105710504F12223E1F0893B9B40A10563
:10215000B105CCF085E08093940115C0211113C026
:1021600000E010E020E04FEFB801CE010E947F0AAE
:102170000F5F1F4F0C3F63E01607A1F7CE010E94CF
:102180009B0B109294018A858F3F09F455C0909162
:102190009401953048F49230A8F4992341F091309D
:1021A00009F04AC061E004C0953001F145C060E02B
:1021B000DF91CF911F910F91FF90EF90DF90CF9023
:1021C0000C94351340918C0150918D0160918E01DA
:1021D00070918F0197018601041B150B260B370B9D
:1021E00005361105210531053CF115C040918C01E2
:1021F00050918D0160918E0170918F019701860140
:10220000041B150B260B370BB901A8014F3E52409A
:10221000610571058CF00E940C1361E0892B09F0B7
:1022200060E08A850E943513C0928C01D0928D01A6
:10223000E0928E01F0928F01DF91CF911F910F916B
:10224000FF90EF90DF90CF900895CF92DF92EF92C2
:10225000FF920F931F93CF93DF936C017A018B0151
:10226000C0E0D0E0CE15DF0589F0D8016D918D0179
:10227000D601ED91FC910190F081E02DC601099508
:10228000892B11F47E0102C02196ECCFC701DF91AA
:10229000CF911F910F91FF90EF90DF90CF90089515
:1022A000FC01538D448D252F30E0842F90E0821B5C
:1022B000930B541710F0CF96089501970895FC01E1
:1022C000918D828D981761F0828DDF01A80FB11D6D
:1022D0005D968C91928D9F5F9F73928F90E0089591
:1022E0008FEF9FEF0895FC01918D828D981731F04B
:1022F000828DE80FF11D858D90E008958FEF9FEF9F
:102300000895FC01918D228D892F90E0805C9F4F74
:10231000821B91098F739927089580EF91E00E94A5
:10232000811121E0892B09F420E0822F0895FC011E
:10233000848DDF01A80FB11DA35ABF4F2C91848D4E
:1023400090E001968F739927848FA689B7892C9383
:10235000A089B1898C9180648C93938D848D98131E
:1023600006C00288F389E02D80818F7D80830895E7
:10237000EF92FF920F931F93CF93DF93EC0181E0D5
:10238000888F9B8D8C8D981305C0E889F989808191
:1023900085FD24C0F62E0B8D10E00F5F1F4F0F73CD
:1023A0001127E02E8C8DE8120CC00FB607FCFACF77
:1023B000E889F989808185FFF5CFCE010E949711C8
:1023C000F1CF8B8DFE01E80FF11DE35AFF4FF08234
:1023D0000B8FEA89FB898081806207C0EE89FF89C3
:1023E0006083E889F98980818064808381E090E05E
:1023F000DF91CF911F910F91FF90EF900895CF93B0
:10240000DF93EC01888D8823C9F0EA89FB898081FC
:1024100085FD05C0A889B9898C9186FD0FC00FB6CE
:1024200007FCF5CF808185FFF2CFA889B9898C910F
:1024300085FFEDCFCE010E949711E7CFDF91CF91BD
:10244000089580E090E0892B29F00E948D11811180
:102450000C9400000895833081F028F4813099F0C5
:102460008230A1F008958730A9F08830B9F0843027
:10247000D1F4809180008F7D03C0809180008F77A0
:1024800080938000089584B58F7702C084B58F7DD6
:1024900084BD08958091B0008F7703C08091B00013
:1024A0008F7D8093B00008950E944E1861157105CC
:1024B00079F0FB0101900020E9F73197AF01461B4D
:1024C000570BDC01ED91FC910280F381E02D099422
:1024D00080E090E008954F925F926F927F92EF922A
:1024E000FF920F931F93CF93DF93CDB7DEB7A197E2
:1024F0000FB6F894DEBF0FBECDBF7C01FA01CB0151
:1025000019A2223008F42AE08E010F5D1F4F422EDF
:10251000512C612C712CBF01A30192010E94E31781
:10252000F901CA01015011096A3014F4605D01C05B
:10253000695CD8016C93232B242B252B61F7B80100
:10254000C7010E945612A1960FB6F894DEBF0FBEC7
:10255000CDBFDF91CF911F910F91FF90EF907F90B2
:102560006F905F904F9008951F920F920FB60F9249
:1025700011242F933F934F935F936F937F938F9388
:102580009F93AF93BF93EF93FF9380EF91E00E94EF
:102590009711FF91EF91BF91AF919F918F917F9193
:1025A0006F915F914F913F912F910F900FBE0F90C0
:1025B0001F9018951F920F920FB60F9211242F9310
:1025C0008F939F93EF93FF93E0910002F0910102AC
:1025D0008081E0910602F091070282FD12C0908195
:1025E000809109028F5F8F7320910A02821751F048
:1025F000E0910902F0E0E051FE4F958F80930902CF
:1026000001C08081FF91EF919F918F912F910F9049
:102610000FBE0F901F901895CF93DF93282F30E0B7
:10262000F901EA5CFE4F8491F901EE5DFE4FD49111
:10263000F901E25FFE4FC491CC2391F081110E9419
:102640002B12EC2FF0E0EE0FFF1FEC5FFE4FA59179
:10265000B491EC91ED2381E090E021F480E002C0A0
:1026600080E090E0DF91CF9108951F93CF93DF93A7
:10267000282F30E0F901EA5CFE4F8491F901EE5D0C
:10268000FE4FD491F901E25FFE4FC491CC23C9F013
:10269000162F81110E942B12EC2FF0E0EE0FFF1F7E
:1026A000E650FF4FA591B4918FB7F894111105C072
:1026B0009C91ED2FE095E92302C0EC91ED2BEC937A
:1026C0008FBFDF91CF911F910895CF93DF9390E05B
:1026D000FC01EE5DFE4F2491FC01E25FFE4F849110
:1026E000882361F190E0880F991FFC01E051FF4FB2
:1026F000C591D491FC01E650FF4FA591B4916111B1
:1027000009C09FB7F8948881209582238883EC9133
:102710002E230BC0623061F49FB7F8943881822F6A
:10272000809583238883EC912E2B2C939FBF06C02A
:102730008FB7F894E8812E2B28838FBFDF91CF913C
:1027400008958E3008F08E508770806480937C00EE
:1027500080917A00806480937A0080917A0086FD6F
:10276000FCCF809178002091790090E0922B089521
:102770002FB7F89460919A0170919B0180919C0110
:1027800090919D012FBF08950F931F93E0EFF1E00B
:102790001382128288EE93E0A0E0B0E084839583F8
:1027A000A683B7838EE691E09183808385EC90E0E9
:1027B0009587848784EC90E09787868780EC90E00B
:1027C000918B808B81EC90E0938B828B82EC90E0FC
:1027D000958B848B86EC90E0978B868B118E128E76
:1027E000138E148E04E010E023E030E04AE050E065
:1027F00063E070E087E992E00E94FC0809E010E0E5
:102800002CE030E047E050E063E070E08DE892E0DB
:102810000E94FC081F910F910895CF93DF93CDB7CD
:10282000DEB762970FB6F894DEBF0FBECDBF7894C7
:1028300084B5826084BD84B5816084BD85B58260C5
:1028400085BD85B5816085BD80916E008160809376
:102850006E001092810080918100826080938100DF
:1028600080918100816080938100809180008160EF
:10287000809380008091B10084608093B10080914A
:10288000B00081608093B00080917A008460809372
:102890007A0080917A00826080937A0080917A0039
:1028A000816080937A0080917A00806880937A00BA
:1028B0001092C10086E0EAE0F1E0DE011D96019091
:1028C0000D928A95E1F786E0E0E1F1E0DE011796EE
:1028D00001900D928A95E1F786E0E6E1F1E0DE01F4
:1028E000119601900D928A95E1F70CEC11E09EEBA8
:1028F000692E91E0792E412C512C2CE2E22E21E020
:10290000F22E33243A9430E2A32E31E0B32E40E28B
:10291000842E43E0942EC30148976C0196E049163B
:10292000510408F062C086E290E00E941216FC0199
:10293000ADE0B0E0AC0FBD1FA40DB51D8C91A7E0BC
:10294000B0E0AC0FBD1FA40DB51D9C91F182E082DB
:1029500092838383D782C682A7E9B2E0B583A4833A
:102960001586148610861186128613861786108A9D
:10297000118A128A1686358A378A118E108E128E27
:10298000158E168E178E10A211A212A213A214A2D7
:10299000D801ED93FC938EE190E00E941216FC01A9
:1029A000A1E0B0E0AC0FBD1FA40DB51D8C91B182AC
:1029B000A0829F01235F3F4FD9019EE01D929A950F
:1029C000E9F78283748263829286818615821682F9
:1029D0001782108614861386148E138E158ED801D6
:1029E0005996FC93EE9358973EC086E290E00E9481
:1029F0001216FC01842D66E00E941418892F90E0C5
:102A0000ADE0B0E0AC0FBD1FA80FB91F2C91A7E03F
:102A1000B0E0AC0FBD1FA80FB91F8C91F182E0820E
:102A200082832383D782C6828DE892E09583848354
:102A30001586148610861186128613861786108ACC
:102A4000118A128A1686358A378A118E108E128E56
:102A5000158E168E178E10A211A212A213A214A206
:102A6000D801ED93FC93BFEF4B1A5B0A0E5F1F4F2B
:102A7000E2E06E0E711CFCE04F16510409F04BCFE2
:102A8000E0910002F091010282E0D82ED082E09124
:102A9000FC01F091FD011082E091FE01F091FF0137
:102AA00087E6808310920802E0910402F09105020B
:102AB00086E28083E0910202F091030280818061CE
:102AC0008083E0910202F09103028081886080831C
:102AD000E0910202F0910302808180688083E0919E
:102AE0000202F091030280818F7D808385E090E077
:102AF0000E9412167C0188E391E0D70111969C9305
:102B00008E9384E212968C93129780E490E0149650
:102B10009C938E93139782EB90E00E9412168C0187
:102B20008EE391E0F80191838083EA5AFF4F8AE2B5
:102B30008083319680EA91E09183808382E1D8019D
:102B400012968C9312978CEC91E014969C938E9332
:102B5000139716961C921E9215971896FC92EE9259
:102B60001797329681E08083319683E090E09183DD
:102B70008083329680EF91E0918380837801BEE577
:102B8000EB0EF11CF701D08261E082E00E94651338
:102B900060E0D7018C910E943513F801EC59FF4F8A
:102BA0001082E95BFF4F10821182128213823496E9
:102BB00082ED90E091838083EA55F10983E9808377
:102BC000C8010E94E60B10929F0110929E018FEFA8
:102BD000F80181878287C8010E949B0B86E591E0FE
:102BE000D80111969C938E931093CB010093CA0148
:102BF00084E119968C9360E00E9465138DE0F801E2
:102C0000828761E00E9465138091CA019091CB0197
:102C1000DC01ED91FC910190F081E02D09950E947D
:102C20002112F2CFCF93DF938230910510F482E02E
:102C300090E0E091A302F091A40220E030E0C0E037
:102C4000D0E0309711F14081518148175907C0F009
:102C50004817590761F482819381209719F09B836B
:102C60008A832BC09093A4028093A30226C02115CF
:102C7000310519F04217530718F49A01BE01DF011C
:102C8000EF010280F381E02DDCCF2115310509F140
:102C9000281B390B2430310590F412968D919C91AC
:102CA00013976115710521F0FB019383828304C0A2
:102CB0009093A4028093A302FD01329644C0FD01CB
:102CC000E20FF31F81939193225031092D933C938E
:102CD0003AC02091A1023091A202232B41F420910D
:102CE0000201309103013093A2022093A1022091AE
:102CF0000001309101012115310541F42DB73EB796
:102D00004091040150910501241B350BE091A10273
:102D1000F091A202E217F307A0F42E1B3F0B281735
:102D2000390778F0AC014E5F5F4F2417350748F044
:102D30004E0F5F1F5093A2024093A1028193919383
:102D400002C0E0E0F0E0CF01DF91CF9108950F9352
:102D50001F93CF93DF93009709F48CC0FC01329747
:102D6000138212820091A3021091A4020115110591
:102D700081F420813181820F931F2091A102309133
:102D8000A2022817390779F5F093A202E093A10275
:102D900071C0D80140E050E0AE17BF0750F4129662
:102DA0002D913C911397AD012115310509F1D90100
:102DB000F3CF9D01DA013383228360817181860F15
:102DC000971F8217930769F4EC0128813981260F38
:102DD000371F2E5F3F4F318320838A819B819383EE
:102DE0008283452B29F4F093A402E093A30242C00E
:102DF0001396FC93EE931297ED01499159919E0120
:102E0000240F351FE217F30771F480819181840F3D
:102E1000951F029611969C938E93828193811396AF
:102E20009C938E931297E0E0F0E0D80112968D917A
:102E30009C911397009719F0F8018C01F6CF8D91B2
:102E40009C9198012E5F3F4F820F931F2091A1020A
:102E50003091A2022817390769F4309729F41092AB
:102E6000A4021092A30202C0138212821093A20243
:102E70000093A102DF91CF911F910F9108958F923E
:102E80009F92AF92BF92CF92DF92EF92FF92CF9339
:102E9000DF93EC01688179818A819B8161157105DD
:102EA0008105910521F464E279ED8BE597E02DE150
:102EB00033EF41E050E00E94B11749015A019B01F4
:102EC000AC01A7EAB1E40E94D0176B017C01ACEE23
:102ED000B4EFA50194010E94DE17DC01CB018C0D3B
:102EE0009D1DAE1DBF1DB7FF03C00197A109B048CE
:102EF00088839983AA83BB83BC01CD019F77DF912F
:102F0000CF91FF90EF90DF90CF90BF90AF909F90C8
:102F10008F9008950E943F17089586E091E00E94E7
:102F20003F1708956093060170930701809308018D
:102F3000909309010895F999FECF92BD81BDF89A49
:102F4000992780B50895262FF999FECF1FBA92BD13
:102F500081BD20BD0FB6F894FA9AF99A0FBE01967A
:102F60000895052E97FB1EF400940E94C81757FD84
:102F700007D00E94E31707FC03D04EF40C94C81747
:102F800050954095309521953F4F4F4F5F4F089595
:102F900090958095709561957F4F8F4F9F4F0895C5
:102FA0000E940518A59F900DB49F900DA49F800DC1
:102FB000911D11240895B7FF0C94D0170E94D017CB
:102FC000821B930B0895A1E21A2EAA1BBB1BFD01C5
:102FD0000DC0AA1FBB1FEE1FFF1FA217B307E407F8
:102FE000F50720F0A21BB30BE40BF50B661F771F50
:102FF000881F991F1A9469F7609570958095909530
:103000009B01AC01BD01CF010895A29FB001B39F08
:10301000C001A39F700D811D1124911DB29F700DE1
:10302000811D1124911D0895991B79E004C0991FF9
:10303000961708F0961B881F7A95C9F78095089512
:10304000AA1BBB1B51E107C0AA1FBB1FA617B707CE
:1030500010F0A61BB70B881F991F5A95A9F78095EA
:103060009095BC01CD01089597FB072E16F40094AE
:1030700007D077FD09D00E94201807FC05D03EF448
:10308000909581959F4F0895709561957F4F089514
:10309000EE0FFF1F0590F491E02D099481E090E080
:1030A000F8940C943B1BFB01DC0102C001900D92D3
:1030B00041505040D8F70895DC0101C06D93415054
:1030C0005040E0F70895AEE0B0E0E9E6F8E10C9496
:1030D000121B0D891E8986E08C831A8309838FEF6A
:1030E0009FE79E838D83AE01475E5F4F6F89788D2A
:1030F000CE0101960E9486182F813885F801E20FD3
:10310000F31F10822E96E4E00C942E1BACE0B0E08E
:10311000ECE8F8E10C94041B7C016B018A01FC01D2
:1031200017821682838181FFBDC1CE0101964C01B9
:10313000F7019381F60193FD859193FF81916F01D2
:10314000882309F4ABC1853239F493FD859193FF4F
:1031500081916F01853229F4B70190E00E946E1AC7
:10316000E7CF512C312C20E02032A0F48B3269F0D3
:1031700030F4803259F0833269F420612CC08D32F2
:1031800039F0803339F4216026C02260246023C0E6
:10319000286021C027FD27C030ED380F3A3078F481
:1031A00026FF06C0FAE05F9E300D1124532E13C097
:1031B0008AE0389E300D1124332E20620CC08E32EE
:1031C00021F426FD6BC1206406C08C3611F4206802
:1031D00002C0883641F4F60193FD859193FF8191F9
:1031E0006F018111C1CF982F9F7D9554933028F4A2
:1031F0000C5F1F4FFFE3F9830DC0833631F0833737
:1032000071F0833509F05BC022C0F80180818983A9
:103210000E5F1F4F44244394512C540115C03801B4
:10322000F2E06F0E711CF801A080B18026FF03C090
:10323000652D70E002C06FEF7FEFC5012C870E9403
:10324000631A2C0183012C852F77222E17C0380199
:10325000F2E06F0E711CF801A080B18026FF03C060
:10326000652D70E002C06FEF7FEFC5012C870E94D3
:10327000581A2C012C852068222E830123FC1BC0A8
:10328000832D90E048165906B0F4B70180E290E033
:103290000E946E1A3A94F4CFF50127FC859127FE1F
:1032A00081915F01B70190E00E946E1A31103A944B
:1032B000F1E04F1A51084114510471F7E5C084360A
:1032C00011F0893639F5F80127FF07C06081718157
:1032D000828193810C5F1F4F08C060817181072E2E
:1032E000000C880B990B0E5F1F4F2F76722E97FFE5
:1032F00009C090958095709561957F4F8F4F9F4F36
:103300002068722E2AE030E0A4010E94A61AA82E9E
:10331000A81844C0853729F42F7EB22E2AE030E069
:1033200025C0F22FF97FBF2E8F36C1F018F48835F3
:1033300079F0B4C0803719F0883721F0AFC02F2F53
:103340002061B22EB4FE0DC08B2D8460B82E09C052
:1033500024FF0AC09F2F9660B92E06C028E030E0F7
:1033600005C020E130E002C020E132E0F801B7FE04
:1033700007C060817181828193810C5F1F4F06C0FD
:103380006081718180E090E00E5F1F4FA4010E9478
:10339000A61AA82EA818FB2DFF777F2E76FE0BC04D
:1033A000372D3E7FA51450F474FE0AC072FC08C08D
:1033B000372D3E7E05C0BA2C372D03C0BA2C01C074
:1033C000B52C34FF0DC0FE01EA0DF11D8081803364
:1033D00011F4397E09C032FF06C0B394B39404C01F
:1033E000832F867809F0B39433FD13C030FF06C0F5
:1033F0005A2CB31418F4530C5B18B32CB31468F4A0
:10340000B70180E290E03C870E946E1AB3943C853D
:10341000F5CFB31410F43B1801C0312C34FF12C0A7
:10342000B70180E390E03C870E946E1A3C8532FF32
:1034300017C031FD03C088E790E002C088E590E046
:10344000B7010CC0832F867859F031FF02C08BE2A0
:1034500001C080E237FD8DE2B70190E00E946E1A54
:10346000A51438F4B70180E390E00E946E1A5A94D4
:10347000F7CFAA94F401EA0DF11D8081B70190E025
:103480000E946E1AA110F5CF332009F451CEB70176
:1034900080E290E00E946E1A3A94F6CFF70186819E
:1034A000978102C08FEF9FEF2C96E2E10C94201BD6
:1034B000FC010590615070400110D8F780959095FF
:1034C0008E0F9F1F0895FC01615070400190011004
:1034D000D8F7809590958E0F9F1F08950F931F9397
:1034E000CF93DF93FB01238121FD03C08FEF9FEF7B
:1034F00028C022FF16C0468157812481358142179A
:10350000530744F4A081B1819D012F5F3F4F318368
:1035100020838C93268137812F5F3F4F378326830B
:1035200010C0EB01092F182F0084F185E02D0995BB
:10353000892BE1F68E819F8101969F838E83812F57
:10354000902FDF91CF911F910F910895FA01AA2733
:10355000283051F1203181F1E8946F936E7F6E5FD6
:103560007F4F8F4F9F4FAF4FB1E03ED0B4E03CD084
:10357000670F781F891F9A1FA11D680F791F8A1F67
:10358000911DA11D6A0F711D811D911DA11D20D0CE
:1035900009F468943F912AE0269F11243019305D88
:1035A0003193DEF6CF010895462F4770405D419379
:1035B000B3E00FD0C9F7F6CF462F4F70405D4A33C6
:1035C00018F0495D31FD4052419302D0A9F7EACF8E
:1035D000B4E0A6959795879577956795BA95C9F7BD
:1035E00000976105710508959B01AC010A2E0694B0
:1035F0005795479537952795BA95C9F7620F731F69
:10360000841F951FA01D08952F923F924F925F92A5
:103610006F927F928F929F92AF92BF92CF92DF92E2
:10362000EF92FF920F931F93CF93DF93CDB7DEB747
:10363000CA1BDB0B0FB6F894DEBF0FBECDBF0994DB
:103640002A88398848885F846E847D848C849B8432
:10365000AA84B984C884DF80EE80FD800C811B8140
:10366000AA81B981CE0FD11D0FB6F894DEBF0FBE6F
:0A367000CDBFED010895F894FFCFDF
:10367A000000A50280000100000000010203040509
:10368A00080A0C1012140E0F101112130000000079
:10369A00BA09190134062306000000005E057E01FE
:1036AA009803D20500000000E80100000000260F80
:1036BA00110B49094809FE096309BB09DF099A097F
:1036CA00390C00000000260F110B4909A101FE095F
:1036DA006309BB09DF099A09390C00000000B81117
:1036EA0025115011FF1181115F1173113A00253014
:0636FA00376C75000A00A8
:107800000C94343C0C94513C0C94513C0C94513CE1
:107810000C94513C0C94513C0C94513C0C94513CB4
:107820000C94513C0C94513C0C94513C0C94513CA4
:107830000C94513C0C94513C0C94513C0C94513C94
:107840000C94513C0C94513C0C94513C0C94513C84
:107850000C94513C0C94513C0C94513C0C94513C74
:107860000C94513C0C94513C11241FBECFEFD8E036
:10787000DEBFCDBF11E0A0E0B1E0ECE9FFE702C060
:1078800005900D92A230B107D9F712E0A2E0B1E065
:1078900001C01D92AD30B107E1F70E942D3D0C945F
:1078A000CC3F0C94003C982F959595959595959582
:1078B000905D8F708A307CF0282F295A8091C0000B
:1078C00085FFFCCF9093C6008091C00085FFFCCF60
:1078D0002093C6000895282F205DF0CF982F809127
:1078E000C00085FFFCCF9093C6000895EF92FF92F1
:1078F0000F931F93EE24FF2487018091C00087FD22
:1079000017C00894E11CF11C011D111D81E4E8164B
:1079100082E4F8068FE0080780E0180770F3E09132
:107920000401F091050109958091C00087FFE9CF1E
:107930008091C6001F910F91FF90EF9008950E94D3
:10794000763C982F8091C00085FFFCCF9093C600B5
:1079500091362CF490330CF09053892F089597555D
:10796000892F08951F930E949F3C182F0E949F3CCF
:107970001295107F810F1F9108951F93182F882350
:1079800021F00E94763C1150E1F71F9108951F935A
:10799000182F0E94763C803249F0809103018F5F5E
:1079A000809303018530C1F01F9108958091C0003C
:1079B00085FFFCCF84E18093C6008091C00085FFE5
:1079C000FCCF1093C6008091C00085FFFCCF80E102
:1079D0008093C6001F910895E0910401F091050184
:1079E00009951F9108950E94763C803241F0809164
:1079F00003018F5F80930301853081F008958091AA
:107A0000C00085FFFCCF84E18093C6008091C00058
:107A100085FFFCCF80E18093C6000895E0910401CA
:107A2000F09105010995089540E951E08823A1F0FE
:107A30002D9A28EE33E0FA013197F1F721503040CA
:107A4000D1F72D9828EE33E0FA013197F1F7215064
:107A50003040D1F7815061F708953F924F925F9285
:107A60006F927F928F929F92AF92BF92CF92DF924E
:107A7000EF92FF920F931F93CF93DF93000080E16B
:107A80008093C4001092C50088E18093C10086E015
:107A90008093C2005098589A259A81E00E94143D24
:107AA00024E1F22E9EE1E92E85E9D82E0FE0C02ECA
:107AB00010E1B12EAA24A394B1E49B2EA6E58A2E50
:107AC000F2E57F2EE0E26E2E79E4572E63E5462E36
:107AD00050E5352E0E94763C8033B1F18133B9F107
:107AE000803409F46FC0813409F476C0823409F41B
:107AF00085C0853409F488C0803531F1823521F1A3
:107B0000813511F1853509F485C0863509F48DC0BC
:107B1000843609F496C0843709F403C1853709F423
:107B200072C1863709F466C0809103018F5F80932C
:107B30000301853079F6E0910401F0910501099582
:107B40000E94763C803351F60E94F33CC3CF0E94E2
:107B5000763C803249F78091C00085FFFCCFF092DF
:107B6000C6008091C00085FFFCCF9092C600809136
:107B7000C00085FFFCCF8092C6008091C00085FFC9
:107B8000FCCF7092C6008091C00085FFFCCF609250
:107B9000C6008091C00085FFFCCF5092C600809146
:107BA000C00085FFFCCF4092C6008091C00085FFD9
:107BB000FCCF3092C6008091C00085FFFCCFB09210
:107BC000C60088CF0E94763C863808F4BDCF0E945C
:107BD000763C0E94F33C7ECF0E94763C803809F4CC
:107BE0009CC0813809F40BC1823809F43CC1883942
:107BF00009F48FC080E00E94C73C6CCF84E10E94F2
:107C0000BD3C0E94F33C66CF85E00E94BD3C0E94D3
:107C1000F33C60CF0E94763C809306010E94763C44
:107C2000809307010E94F33C55CF0E94763C80333D
:107C300009F41DC183E00E94BD3C80E00E94C73C66
:107C400049CF0E94763C809309020E94763C809343
:107C5000080280910C028E7F80930C020E94763C79
:107C6000853409F415C18091080290910902892B8D
:107C700089F000E010E00E94763CF801E85FFE4FDA
:107C800080830F5F1F4F80910802909109020817AF
:107C9000190788F30E94763C803209F045CF809125
:107CA0000C0280FF01C16091060170910701660F0F
:107CB000771F7093070160930601A0910802B091AD
:107CC00009021097C9F0E8E0F1E09B01AD014E0F09
:107CD0005F1FF999FECF32BD21BD819180BDFA9A17
:107CE000F99A2F5F3F4FE417F50799F76A0F7B1F4B
:107CF00070930701609306018091C00085FFFCCF5F
:107D0000F092C6008091C00085FFFCCFB092C60003
:107D1000E1CE83E00E94C73CDDCE82E00E94C73CFA
:107D2000D9CE0E94763C809309020E94763C8093D3
:107D300008028091060190910701880F991F909386
:107D40000701809306010E94763C853409F4A6C0A1
:107D500080910C028E7F80930C020E94763C8032D0
:107D600009F0B8CE8091C00085FFFCCFF092C6002C
:107D7000609108027091090261157105B9F140E046
:107D800050E080910C02A82FA170B82FB27011C0E2
:107D9000BB2309F45CC0E0910601F0910701319624
:107DA000F0930701E09306014F5F5F4F46175707B7
:107DB000E8F4AA2369F3F999FECF209106013091E6
:107DC000070132BD21BDF89A90B58091C00085FFB2
:107DD000FCCF9093C6002F5F3F4F30930701209355
:107DE00006014F5F5F4F4617570718F38091C00099
:107DF00085FDE5CE8091C00085FFF8CFE0CE81E023
:107E00000E94C73C67CE0E94763C803209F08CCE3F
:107E10008091C00085FFFCCFF092C6008091C00029
:107E200085FFFCCFE092C6008091C00085FFFCCFAB
:107E3000D092C6008091C00085FFFCCFC092C600E2
:107E40008091C00085FFFCCFB092C60043CEE09188
:107E50000601F091070194918091C00085FFFCCF4D
:107E60009093C6009CCF80E10E94C73C33CE0E9415
:107E7000763C0E94763C182F0E94763C112309F430
:107E800083C0113009F484C08FE00E94C73C22CE29
:107E900080910C02816080930C02E5CE80910C02EF
:107EA000816080930C0259CF809107018823880F4D
:107EB000880B8A2180930B02809106019091070123
:107EC000880F991F90930701809306018091080203
:107ED00080FF09C080910802909109020196909359
:107EE000090280930802F894F999FECF1127E091D6
:107EF0000601F0910701C8E0D1E08091080290915D
:107F00000902103091F40091570001700130D9F34B
:107F100003E000935700E89500915700017001308D
:107F2000D9F301E100935700E89509901990009169
:107F3000570001700130D9F301E000935700E89534
:107F40001395103498F011270091570001700130FB
:107F5000D9F305E000935700E895009157000170B0
:107F60000130D9F301E100935700E895329602976A
:107F700009F0C7CF103011F00296E5CF112480919F
:107F8000C00085FFB9CEBCCE8EE10E94C73CA2CD19
:0C7F900085E90E94C73C9ECDF894FFCF0D
:027F9C00800063
:040000030000780081
:00000001FF
