:100000000C94A6000C94CE000C94CE000C94DF0D42
:100010000C9444080C943A080C94CE000C94CE0036
:100020000C94CE000C94CE000C94CE000C94CE0018
:100030000C94CE000C94CE000C94CE000C94CE0008
:100040000C9481130C94CE000C94CC100C942914B5
:100050000C94CE000C94CE000C94CE000C94CE00E8
:100060000C94CE000C94CE006A0C6D0C700C830CBA
:10007000E90CE90CE90CE90CE90CE90CB80B870C6C
:100080009A0CC20C523A2041434B0A000A00543ADF
:100090002000453A204352430A000A00453A204DC9
:1000A0007367546F6F4C6F6E670A003A00523A20C4
:1000B00000543A2046575665720A00543A20485771
:1000C0005665722C5479700A00433A20577269744D
:1000D0006520454550524F4D0A00433A2052656114
:1000E0006420454550524F4D0A002000533A2000ED
:1000F00000000000240027002A0000000000250066
:1001000028002B0000000000230026002900040422
:1001100004040404040402020202020203030303AF
:10012000030301020408102040800102040810208B
:100130000102040810200000000800020100000372
:10014000040700000000000000004F1411241FBE2F
:10015000CFEFD8E0DEBFCDBF11E0A0E0B1E0E6EC2C
:10016000F7E302C005900D92A638B107D9F722E057
:10017000A6E8B1E001C01D92A23FB207E1F710E08E
:10018000C6EAD0E004C02197FE010E94DA18C53A01
:10019000D107C9F70E9498140C94E11B0C9400003D
:1001A000AF92BF92CF92DF92EF92FF920F931F9385
:1001B000CF93DF9330910F0232FD23C0A22EB42ED5
:1001C000D62EEC018D819E81009759F0DC01ED91D6
:1001D000FC910190F081E02D022F242F462FBE01CB
:1001E0000995E881F9810484F585E02DC12CEE2480
:1001F000EA94FE2C87012A2D4B2D6D2DCE010995F9
:1002000001C081E0DF91CF911F910F91FF90EF909E
:10021000DF90CF90BF90AF900895AF92CF92EF92C2
:100220000F93FC0187819085009771F0AC2CCE2C48
:10023000E02E022F9A01AB01BF01DC01ED91FC9190
:100240000190F081E02D09950F91EF90CF90AF9044
:1002500008950895089580E008950895FA0128E02A
:1002600040815181CA01880F991F67FD8160918388
:10027000808357FF08C08081918132E0832730E17D
:10028000932791838083660F215051F70895EF9251
:10029000FF920F931F93CF938C01C62F7A01809109
:1002A000E1019091E201009721F06CE771E00E947A
:1002B000CB138C2F0E948811E114F10429F0A701BF
:1002C0006C2FC8010E942E01025A1F4F84E08C0F30
:1002D000833060F4D8018D919C91DC01ED91FC910B
:1002E0000190F081E02D6CEF0995CF77F8018081C6
:1002F0009181DC01ED91FC910190F081E02D6C2F5A
:10030000CF911F910F91FF90EF9009944F925F92C0
:100310006F927F92AF92BF92CF92DF92FF920F9334
:100320001F93CF93DF9300D0CDB7DEB78C018FEF53
:100330009FEF9A838983F80181899289A389B4897F
:100340008F3F9F4FAF4FBF4FA1F0F801E455FF4FD4
:10035000808190E095958795837020E2829FC0010F
:100360001124D80155969C9155979F79892B5596C4
:100370008C938EE890E00E94E90D6801B0E6CB0E08
:10038000D11C61E0F60180810E94F2128DEF0E9483
:1003900088115801FEE5AF0EB11CD5018D919C91DD
:1003A000DC01ED91FC910190F081E02D6DEF09955C
:1003B000AE014F5F5F4F6DEFC8010E942E01F80143
:1003C000418852886388748854E0F52E672D77271A
:1003D00088279927AE014F5F5F4FC8010E944701F0
:1003E000762C652C542C4424FA94F110EFCFAE01F6
:1003F0004F5F5F4FD80155966C91C8010E9447012D
:10040000F801858983FD0CC0D80156966C916E5F0A
:10041000AE014F5F5F4FC8010E944701F12C1BC026
:10042000F801EE59FF4F408051806280738024E0D4
:10043000F22E672D772788279927AE014F5F5F4FF0
:10044000C8010E944701762C652C542C4424FA9450
:10045000F110EFCFD9CFF8018689F81660F4F801D2
:10046000EF0DF11DAE014F5F5F4F6789C8010E941C
:100470004701F394F0CFAE014F5F5F4F60E0C801DA
:100480000E942E01AE014F5F5F4F60E0C8010E94E5
:100490002E016A8140E050E0C8010E94470140E01F
:1004A00050E06981C8010E944701D5018D919C915E
:1004B000DC01ED91FC910680F781E02D099560E06B
:1004C000F60180810E94F212F801EF59FF4F8081FE
:1004D000886080838CE890E00E94E90D0F900F9077
:1004E000DF91CF911F910F91FF90DF90CF90BF9040
:1004F000AF907F906F905F904F900895EF92FF9232
:100500000F93CF93DF9300D000D0CDB7DEB7FC01BF
:10051000E85AFF4F208130E07C0149E5E40EF11CF0
:10052000D7016D917C9100E041E050E00E940D12F6
:10053000D701ED91FC9181819281A381B48189835E
:100540009A83AB83BC838C818183D701ED91FC912D
:1005500011978B818283ED91FC9111978A8183831E
:10056000ED91FC918981848380910F028160809359
:100570000F020F900F900F900F90DF91CF910F917E
:10058000FF90EF900895EF92FF920F931F93CF93F8
:10059000DF93CDB7DEB764970FB6F894DEBF0FBE1A
:1005A000CDBF8B01FC01EE59FF4F608171818281CB
:1005B000938120E836E948E950E00E9489189F932A
:1005C0008F937F936F938EE791E09F938F93CE01EC
:1005D00001967C019F938F930E94091988E4F8018A
:1005E000808382E4818387E58283D801139687E044
:1005F000F70101900D928A95E1F70FB6F894DEBFEE
:100600000FBECDBF64960FB6F894DEBF0FBECDBF50
:10061000DF91CF911F910F91FF90EF900895CF92AE
:10062000DF92EF92FF920F931F93CF93DF93EC0132
:100630000CEF13E060E070E0CB01CC24D62EE72E67
:10064000F82EC8010E944118A7019601282BCA0163
:10065000B9010F5F1F4F011534E0130771F76F3FAA
:100660004FEF74078407940721F46FEF7FEF8FEF4C
:1006700092E4FE01EE59FF4F60837183828393837E
:10068000611571058105910511F00E9438180E94CD
:100690003318CF54DF4F24E630E040E050E00E94B2
:1006A0005718DC01CB018E529F4FAF4FBF4F99833C
:1006B0008883DF91CF911F910F91FF90EF90DF9092
:1006C000CF9008950F931F93CF93DF931F92CDB7D1
:1006D000DEB7FB01211103C06C3F734084F48F012E
:1006E000CF0149830E9441186981681741F0C80110
:1006F0000F90DF91CF911F910F910C9449180F909B
:10070000DF91CF911F910F9108953F924F925F9289
:100710006F927F928F929F92AF92BF92CF92DF9211
:10072000EF92FF920F931F93CF93DF93EC015C0145
:100730008EE5A80EB11C3E019DEA690E711C8E016A
:100740000F591F4FDE01A559BF4F7D0144244A9424
:1007500035E0332E6E01B7E6CB0ED11C88248A9487
:10076000982CD5018D919C91DC01ED91FC91008438
:10077000F185E02D0995892B09F4DDC00E947513E0
:10078000F3016083718382839383D5018D919C9162
:10079000DC01ED91FC910284F385E02D0995582E42
:1007A000BDEF8B1303C08DEA90E002C08BEA90E0AE
:1007B0000E94E90D852D0E948811ECEF5E1207C0A2
:1007C000D8018C9181FD24C082608C93CACFBDEF8B
:1007D0005B121EC0F80180818D7F81608083109242
:1007E000CC011092CB011D861E861F86188AD60169
:1007F0001D921D921D921C9213979092CA01809295
:10080000C90149EC51E06DEFCE010E942E01A9CF44
:10081000F801808180FFA5CF81FF06C0F52DF0682B
:100820005F2E8D7FD8018C9349EC51E0652DCE0170
:100830000E942E018091CB01843078F4F601408132
:10084000518162817381762F652F542F442745296A
:1008500040835183628373831AC0843029F43092B9
:10086000CB015092C8017DCF4091C80143FF13C016
:10087000893088F44D855E856F857889762F652F60
:10088000542F442745294D875E876F87788B8F5F6C
:100890008093CB0166CF8F3F79F04092CB01F70177
:1008A0005082F0E4F51508F05CCFD8018C918E7F72
:1008B0008C938CE990E03CC08091CC01FE01E80F64
:1008C000F11DE459FF4F508291E0980F9093CC01B5
:1008D000F7012081921345CF2091C9013091CA01BF
:1008E000232B21F5D8019C919E7F9C93FE01E4551A
:1008F000FF4F40838150F7018083CA59DF4F81E069
:1009000088838AE990E0DF91CF911F910F91FF904A
:10091000EF90DF90CF90BF90AF909F908F907F909F
:100920006F905F904F903F900C94E90D82E990E0BA
:100930000E94E90D16CFDF91CF911F910F91FF908B
:10094000EF90DF90CF90BF90AF909F908F907F906F
:100950006F905F904F903F900895EF92FF920F93AA
:100960001F93CF93DF93EC01FC01EB54FF4F81E029
:1009700080838E010F591F4FF80180819E012455FD
:100980003F4F790183FF26C0F901808190E025E087
:10099000959587952A95E1F7282F23708D8990E00A
:1009A000959587958370281315C04D855E856F8555
:1009B000788989899A89AB89BC89481759076A0758
:1009C0007B0741F484E890E00E94E90DF801808102
:1009D000877F8083F701808183708130F9F0FE0189
:1009E000E559FF4F808181111BC03497808191812F
:1009F000A281B3818F3F9F4FAF4FBF4F89F08D854D
:100A00009E85AF85B889898B9A8BAB8BBC8B89E12E
:100A10008D8B1E8A60E0CE010E94180580E001C027
:100A200081E0DF91CF911F910F91FF90EF9008959A
:100A30004F925F926F927F928F929F92AF92BF92EE
:100A4000CF92DF92EF92FF920F931F93CF93DF939A
:100A5000EC01862E662379F10E947513FE01E355A1
:100A6000FF4F0081118122813381AB01BC01401B0A
:100A7000510B620B730B8E010F541F4FF8018081D5
:100A80009181A0E0B0E0481759076A077B0710F48E
:100A900081E08AC00E94331824E630E040E050E054
:100AA0000E945718DC01CB018E529F4FAF4FBF4FB2
:100AB000F8019183808381E0FE01EC54FF4F808335
:100AC00089899A89AB89BC898F3F9F4FAF4FBF4FB0
:100AD00009F45CC08D898370813009F457C083E0CC
:100AE000982E8E010A591F4F7E0127E6E20EF11C57
:100AF0006E0182E6C80ED11C5E01E1E6AE0EB11CAD
:100B0000CE010E9486010E9475132B013C010E94B8
:100B10007513DC01CB0184199509A609B709883C36
:100B20009105A105B10510F5CE010E948503F801DC
:100B30008081882361F3F701408151816281738153
:100B4000F60180819181A281B381481759076A0714
:100B50007B07E9F6F8011082CE010E94AD04F50191
:100B60009081892F887093FDD2CF1EC08820C1F05C
:100B70000E947513DC01CB0184199509A609B709F8
:100B800086399105A105B10558F482CFCE010E94A6
:100B90008601CF59DF4F8881877F888380E004C03A
:100BA0009A949110ADCF82E0DF91CF911F910F9178
:100BB000FF90EF90DF90CF90BF90AF909F908F907D
:100BC0007F906F905F904F900895CF93DF935091F7
:100BD0000F0252FD1DC0EC018FEF9FEFDC01898BEE
:100BE0009A8BAB8BBC8B88EF8D8B83E0840F8E8BC5
:100BF0008BE48F8B688F198E50E0B901CE014A9635
:100C00000E94F91861E0CE01DF91CF910C94180594
:100C100081E0DF91CF910895CF92EF92FF920F93F1
:100C20001F93FC0180910F0282FD1EC0E18AF28AAF
:100C3000038B148B88EF858B84E0868B8BE4878B0A
:100C4000608FC18E211102C082E001C083E0440F99
:100C5000440F480F428F61E0CF011F910F91FF9029
:100C6000EF90CF900C94180581E01F910F91FF90A9
:100C7000EF90CF900895EF92FF920F931F93CF9331
:100C8000DF93EC0180910F0282FD2EC0E98AFA8A7F
:100C90000B8B1C8BEF28E02AE12A71F4FE01E75A46
:100CA000FF4F0190F081E02D81819281A381B48179
:100CB000898B9A8BAB8BBC8B88EF8D8B82E0840FFA
:100CC0008E8B89E68F8B688F50E0B901CE014996F3
:100CD0000E94F91861E0CE01DF91CF911F910F9131
:100CE000FF90EF900C94180581E0DF91CF911F9158
:100CF0000F91FF90EF9008954F925F926F927F92C5
:100D00008F929F92AF92BF92CF92DF92EF92FF921B
:100D10000F931F93CF93DF93222389F0DB018C91F4
:100D20008A3539F08A3709F094C180910F028460C6
:100D300003C080910F028B7F80930F028AC12091A4
:100D40000F0222FD86C1F42E5B01EC014D855E850C
:100D50006F857889498B5A8B6B8B7C8B88E78D8B61
:100D6000F5018081833509F44AC1B0F4833409F474
:100D700053C040F4803491F1813409F053C189E6C5
:100D80008F8B53C18B3409F4ADC0823509F4C4C0D4
:100D9000853409F047C144C0833709F421C150F4B8
:100DA000883609F405C18E3609F40EC1873509F07D
:100DB00039C1D4C0883709F413C18B3C09F492C0FF
:100DC000863709F02FC181EB90E00E94E90DFE010A
:100DD000E45AFF4F808191819F8BFEC081818136D3
:100DE00021F0CE010E940F031DC1B6E0FB12F9CF26
:100DF000E2E0AE0EB11C0CEF13E0D5014D915D01A8
:100E000021E0B801CE010E9462030F5F1F4F011560
:100E1000B4E01B0791F7E5CFCE010E947E0202C12C
:100E2000F501C380E4808E2D8695869586959E2D4E
:100E3000977011F48C5F01C08B5F8E8B4E8950E0F0
:100E400060E070E0CE0147960E94021985E68F8B24
:100E5000D50111968C911197888F12968C911297CB
:100E6000898F13968C918A8FD12C812C912C00E044
:100E700010E0F12C412C512C32014394E016F10684
:100E80000CF4D3C0A12CB12CAC14BD0434F5C501B5
:100E9000880D991D0E9441188F3FD9F0F80133E069
:100EA000F595E7953A95E1F73496EC0FFD1FC801EB
:100EB00087709927A301920104C0220F331F441F9A
:100EC000551F8A95D2F7DA01C9012789822B878BB2
:100ED00004C03FEFA31AB30AD7CF0F5F1F4F8C0C8C
:100EE0009D1CCCCFD50113968C91E881F981B82F48
:100EF000B170CB2EE82EF12CF594E794F594E7949D
:100F00000088F189E02DD50112960C911297119667
:100F10002C91CE01099586C0B4E0FB1283C08AED06
:100F200090E00E94E90DF501018110E0102F0027EB
:100F30008281082BF12CD50113968C91F81608F0BC
:100F40004DC0CF2CD12CC601800F911F0E9441189B
:100F5000FE01EC0DFD1D878BF394EDCF2F2D30E0BE
:100F6000838190E004962817390709F05BC089EC6B
:100F700090E00E94E90DF501018110E0102F00279B
:100F80008281F4E0AF0EB11C082B84E0E82EE01A59
:100F90008E2D800F8F1508F045C0D5014D915D0154
:100FA00020E0B801CE010E9462030F5F1F4FF0CF17
:100FB0008BEB90E00E94E90DFE01E95AFF4F808122
:100FC0008F8B3496808108C0BE01695E7F4FCE0151
:100FD0000E94C3028AE002C0888F82E08E8B25C007
:100FE000E881F98195012E5F3F4F4EEF4F0D028052
:100FF000F381E02DD50111966C91CE010995F50193
:10100000618119E61F8B688FE881F9810480F58181
:10101000E02DAE01475E5F4FCE0109958E5F8E8B4E
:101020001F8B03C089E18D8B1E8A60E0CE01DF91AA
:10103000CF911F910F91FF90EF90DF90CF90BF90D5
:10104000AF909F908F907F906F905F904F900C9497
:101050001805DF91CF911F910F91FF90EF90DF90D6
:10106000CF90BF90AF909F908F907F906F905F9048
:101070004F9008951F920F920FB60F9211240F9068
:101080000FBE0F901F9018951F920F920FB60F92E0
:1010900011240F900FBE0F901F901895089580E0B7
:1010A00090E00895FC012385FB012083FC018285EB
:1010B000FB01818382E00895DC011896ED91FC919B
:1010C0001997CB014130D1F477FD079633E0959520
:1010D00087953A95E1F7E80FF91FCB0168E070E0DA
:1010E0000E94C61821E030E0A90102C0440F551F3C
:1010F0008A95E2F7CA019081892B1AC077FD07967D
:1011000023E0959587952A95E1F7E80FF91FCB0124
:1011100068E070E00E94C61821E030E0D90102C00A
:10112000AA0FBB1F8A95E2F7CD0180959081892394
:1011300080830895A82FAF73807C803449F0803875
:1011400071F0811114C02A2F30E0A8EEB3E004C082
:101150002A2F30E0A0E6BAEE0E94AB180895B0E066
:1011600020E432E44FE050E00E947618089560E0F9
:1011700070E0CB010895FC012381A481B581E22FA9
:10118000F0E083E0F595E7958A95E1F718968D9163
:101190009C911997E80FF91F808190E0277002C099
:1011A000959587952A95E2F780FF04C088ECFB01AE
:1011B000808302C0FB01108281E008958091E301E9
:1011C0008F3F19F482E38093E30108950F931F93F7
:1011D000FC01822F008111812281338104C0369568
:1011E0002795179507956A95D2F70770041308C0DD
:1011F00094819F3F91F0968997FD0CC00CE00DC043
:1012000008130BC096819F3F41F0968996FD04C05C
:101210000DE003C00AE001C00BE093859923A9F01B
:10122000918D9E3F91F4908D941305C0868987FD22
:1012300009C00CE00AC0981308C0868986FD04C066
:101240000DE003C00AE001C00BE0802F1F910F9159
:1012500008952F923F924F925F926F927F928F925A
:101260009F92AF92CF92DF92EF92FF920F931F93D4
:10127000CF93DF93CDB7DEB72E970FB6F894DEBFCE
:101280000FBECDBF3C014B0119012A01F02EC886CB
:1012900010E0F3018281181708F096C024E1129F34
:1012A00060011124D30113964D915C9114974C0D5C
:1012B0005D1D01E024E030E0BE01675F7F4FC401A7
:1012C0000E940D1289859A85AB85BC858F3FEFEF13
:1012D0009E07AE07BE0709F475C082159305A405E5
:1012E000B50509F06FC0D30113964D915C91149729
:1012F0004C5F5F4F4C0D5D1D00E021E030E0BE0112
:10130000625F7F4FC4010E940D128E858F115AC0FB
:10131000F301438154814B5F5F4F4C0D5D1D21E014
:1013200030E0BE01625F7F4FC4010E940D128E85C6
:101330008E1148C0D30113964D915C911497A11062
:1013400015C04A5F5F4F4C0D5D1D21E030E0BE01CE
:10135000635F7F4FC4010E940D128D858F7091F1E4
:10136000F301438154814A5F5F4F15C0435F5F4F74
:101370004C0D5D1D00E021E030E0BE01635F7F4F5A
:10138000C4010E940D128D858F70E1F0F30143813D
:101390005481435F5F4F4C0D5D1D27E030E0BE017F
:1013A0006F5F7F4FC4010E940D12D401ED91FC913B
:1013B0000280F381E02D9E012F5F3F4F48E06E2DAC
:1013C000C40109951F5F65CF2E960FB6F894DEBF56
:1013D0000FBECDBFDF91CF911F910F91FF90EF9086
:1013E000DF90CF90AF909F908F907F906F905F90A5
:1013F0004F903F902F900895CF92DF92EF92FF92FF
:101400000F931F93CF93DF93EC01EB81FC818081DD
:1014100080FD03C01B861A8658C00E9475130D817B
:101420001E812F8138856B017C01C01AD10AE20A26
:10143000F30A298530E0A8EEB3E00E94AB18C61687
:10144000D706E806F90608F440C082E089871091C3
:10145000D30101E0010F0093D3018A810E945E1342
:10146000E12FF0E0EE0FFF1FE353FE4F91838083E7
:101470000E9475136D837E838F839887033028F1D4
:101480001092D3012091CF013091D0016091D10110
:101490007091D201CB01A0E0B0E0820F931FA11D9B
:1014A000B11D2091CD013091CE01BC01CD01620F63
:1014B000731F811D911D23E030E040E050E00E9449
:1014C00089183B872A8785E88987DF91CF911F910B
:1014D0000F91FF90EF90DF90CF9008958F929F92A1
:1014E000AF92BF92CF92DF92EF92FF920F931F9332
:1014F000CF93DF93EC015B01088119810150110941
:1015000017FD24C0F501E00FF11FC0809A808C8088
:1015100087E0E82EF12CD12C96010E2C02C03595D7
:1015200027950A94E2F7B90161707727882D0E9408
:10153000F21261E0892D0E94F21260E0892D0E9472
:10154000F21281E0E81AF10838F7D8CFB986A886F8
:1015500061E08E810E94F21260E08E81DF91CF9176
:101560001F910F91FF90EF90DF90CF90BF90AF90C1
:101570009F908F900C94F212CF93DF93EC010E9416
:101580005C0868857985CE01DF91CF910C946E0A55
:101590001F93CF93DF93EC01EE81FF81108111FF48
:1015A00057C0FB0180816B81AC81BD81893CC8F053
:1015B000E62FF0E083E0F595E7958A95E1F7189638
:1015C0008D919C911997E80FF91F808190E06770C9
:1015D00002C0959587956A95E2F78095182F11704E
:1015E00015C012FB112710F9882339F070E041E093
:1015F000CD010E94BC0A81E008C091E0192770E08B
:1016000040E0CD010E94BC0A83E08BA78C819D81C4
:101610006A8170E0112341F06F5F7F4F40E00E94CC
:10162000BC0A6A8170E007C040E00E94BC0A6A817F
:1016300070E06F5F7F4F41E08C819D810E94BC0A0A
:101640000E9475136F87788B898B9A8B81E08E87C8
:101650008C859D85892BD9F4EE81FF81808180FF67
:1016600016C00E947513688779878A879B87E091E7
:101670000D02F0910E02E75AFF4F0190F081E02D2C
:101680008081F4E68F9FC00111249D878C87DF91B4
:10169000CF911F9108952F923F924F925F926F9238
:1016A0007F928F929F92AF92BF92CF92DF92EF92F2
:1016B000FF920F931F93CF93DF9300D01F92CDB76C
:1016C000DEB76C013B014B830E9475134B015C013B
:1016D000F60187859089A189B289A5019401281B0B
:1016E000390B4A0B5B0B203531054105510520F1C3
:1016F0008685882309F1628170E06F5F7F4F40E04B
:10170000848195810E945C08D60112966C91129793
:1017100070E040E014968D919C9115970E945C08B2
:10172000F60184819581DC0118966D917C91199761
:101730000E946E0AF6011686F60184A195A1A6A163
:10174000B7A195018401081B190B2A0B3B0B40A183
:1017500051A162A173A183A594A540175107620707
:10176000730718F4268D211171C089136FC01EC034
:1017700088EC8A83F60187890E949A08D6019096A0
:101780006D937D938D939C939397F60184A295A27C
:10179000A6A2B7A281E0868F84A7D6019C969C91D1
:1017A0009C979B969C939A8119131CC1F601848582
:1017B0009585892B09F420C10E947513D6011896CE
:1017C0000D911D912D913C911B974B015C01801A4D
:1017D000910AA20AB30A1C962D913C911D9789018A
:1017E00020E030E080169106A206B30608F404C19A
:1017F000F60160877187828793870190F081E02DE1
:101800000280F381E02DBE016F5F7F4FC601099515
:10181000D301ED91FC910084F185E02DE12CF12CB8
:1018200087019E012F5F3F4F41E06B81C301099506
:10183000813031F48AEF90E0F60195878487DCC02F
:10184000D6011D961C921E921C97D6C0891303C008
:10185000D6015E961C92813069F040F0823071F0C2
:101860008330E9F423E041E069E012C023E041E085
:1018700060E007C023E041E063E00AC023E041E00C
:1018800066E0C60143960E94E608F60184A707C0F9
:10189000C60143960E94E608D6019C968C931A8254
:1018A000D601ED91FC910280F381E02DBE016F5FC6
:1018B0007F4FC6010995D6019C96EC918E2F90E042
:1018C00019818E30910508F084C0FC01EC5CFF4F5B
:1018D0000C94DA18F601808D05C088EC8A8313C059
:1018E000F601828D0E949A08D60190966D937D93A1
:1018F0008D939C939397F60184A295A2A6A2B7A27A
:1019000081E0868F6DC0D6015E961C9260C0D601C4
:1019100059968C910E949A08F60160A371A382A344
:1019200093A3D60184A295A2A6A2B7A281E0868F36
:1019300083E04BC088EC8A83F60184A195A1A6A11F
:10194000B7A114012501281A390A4A0A5B0A8789B6
:101950000E949A08261637064806590670F4D601E2
:1019600090966D937D938D939C939397F60184A2AB
:1019700095A2A6A2B7A281E0868F81E0D6019C96AF
:101980008C930BCFF60184A195A1A6A1B7A1140158
:101990002501281A390A4A0A5B0A818D0E949A0891
:1019A000261637064806590670F4D60190966D93B0
:1019B0007D938D939C939397F60184A295A2A6A202
:1019C000B7A281E0868F83E0D6019C968C9381E05C
:1019D000E4CE111102C083E001C081E0F60184A7CA
:1019E00080E0DBCE882309F4E1CEBE016E5F7F4F3D
:1019F000C6010E94C80ADACE0F900F900F90DF91B7
:101A0000CF911F910F91FF90EF90DF90CF90BF90FB
:101A1000AF909F908F907F906F905F904F903F908E
:101A20002F900895FF920F931F93CF93DF931F92F0
:101A3000CDB7DEB78C01F9014830C0F18081D80103
:101A400099968C939997F780982F9F70923020F1F8
:101A50005E968C915E97811126C098968C918F1519
:101A600011F1923029F48F2D8170F0FE0AC006C06A
:101A7000933031F4F0FE02C080E003C088EC01C076
:101A80008FEF8983BE016F5F7F4FC8010E94C80A34
:101A9000F80183A584A707C0D80198969C919F114F
:101AA00012C085FD10C0F801F0A62AC0B9010E943D
:101AB000C80AD8015E961C925E979B968C919B9764
:101AC0009C968C931DC08181D80158968C93589711
:101AD000828157968C93579783815A968C935A9705
:101AE000848159968C935997858153968C935397FB
:101AF000868154968C9354978EEF9C968C93D3CF7B
:101B00000F90DF91CF911F910F91FF900895CF9388
:101B1000DF93EC018B81EC81FD81A82FB0E093E095
:101B2000B595A7959A95E1F720853185A20FB31F4A
:101B30002C9130E0877002C0359527958A95E2F7A1
:101B4000AE81BF819C9120FF05C092FB992790F93F
:101B500081E006C092FB882780F991E0982783E016
:101B60008BA76A8170E0992349F06F5F7F4F40E057
:101B7000CF010E94BC0A6A8170E008C040E0CF013A
:101B80000E94BC0A6A8170E06F5F7F4F41E08C81E8
:101B90009D810E94BC0A8BA58CA70E9475136F873C
:101BA000788B898B9A8B81E08E87DF91CF91089516
:101BB00020E001972FEF8F3F9207D9F708951F92EA
:101BC0000F920FB60F9211240F900FBE0F901F901F
:101BD00018950F931F93CF93DF930091E10110911C
:101BE000E2010115110581F0EC01FE01649166230B
:101BF00059F0D801ED91FC910190F081E02DC801E0
:101C000009952196892B89F7DF91CF911F910F912B
:101C10000895AF92BF92DF92EF92FF920F931F93BE
:101C2000CF93DF931F92CDB7DEB75C017B01D42E3B
:101C3000FC0171836083228333834483558306834D
:101C4000178361E0822F29830E94221361E08D2D8A
:101C50000E94221361E0802F0E94221360E02981FC
:101C6000822F0E94F21260E08D2D0E94F21260E03D
:101C7000802F0E94F212C7010E94B8168C01F50154
:101C800091878087A70160E070E00E940219B80187
:101C9000C5010F90DF91CF911F910F91FF90EF90B1
:101CA000DF90BF90AF900C946E0AFC01538D448D71
:101CB000252F30E0842F90E0821B930B541710F0F7
:101CC000CF96089501970895FC01918D828D981704
:101CD00061F0828DDF01A80FB11D5D968C91928D10
:101CE0009F5F9F73928F90E008958FEF9FEF08950D
:101CF000FC01918D828D981731F0828DE80FF11DD6
:101D0000858D90E008958FEF9FEF0895FC01918DF0
:101D1000228D892F90E0805C9F4F821B91098F73E9
:101D20009927089580E090E0892B29F00E948B127A
:101D300081110C94000008950895FC0182816817B8
:101D400090F423818481E22FF82FE60FF11DE60F36
:101D5000F11D80819181DC01ED91FC910280F38184
:101D6000E02DBA010994DA011C9281E008958F9266
:101D70009F92AF92BF92CF92DF92EF92FF920F931A
:101D80001F93CF93DF93EC0180910F0280FF23C05C
:101D9000E881F9810680F781E02DCE01099510E0F8
:101DA0008A81181798F49B818C81E92FF82FE10F15
:101DB000F11DE10FF11D80819181DC01ED91FC911C
:101DC0000680F781E02D09951F5FEACF80910F0211
:101DD0008E7F80930F02CE010E948503FE01EA5997
:101DE000FF4F80818823C9F110828E0109591F4F4E
:101DF000F80180819181A281B38135974081518121
:101E00006281738184179507A607B70729F08F3F72
:101E10009F4FAF4FBF4F09F5CE010E94AD048823FD
:101E2000E1F04881598121E0F80180819181A2810E
:101E3000B3818F3F9F4FAF4FBF4F09F020E0DA01D2
:101E40005296ED91FC915397DE01A559BF4F4C91ED
:101E5000BE0164597F4FCE0109950E947513683EFB
:101E600073408105910580F080910F0281FD0CC0C7
:101E7000CE010E94971291E0811190E080910F02B3
:101E800090FB81F980930F024091E0019B818C814E
:101E9000E92FF82FE40FF11DE40FF11D80819181EE
:101EA000DC01ED91FC910480F581E02DBE010995E6
:101EB0008091E0018F5F8093E0019A81891710F093
:101EC0001092E0018985882309F401C10E947513ED
:101ED0006B017C0189859CEE980F923038F40E944A
:101EE0005E1321E08A3F91053CF005C00E94C912B3
:101EF00021E0892B09F020E08E010D541F4FF801DD
:101F000080818230C1F128F4882359F0813069F052
:101F10009DC0843009F461C0E0F1853009F47FC0D0
:101F200095C0222369F181E04DC08091D801909144
:101F3000D901A091DA01B091DB0146015701881A5D
:101F4000990AAA0ABB0AD501C401222351F029E843
:101F5000821623E19206A104B1040CF477C082E05A
:101F60005BC085369105A105B1050CF46DC0CE01AD
:101F70000E94971269C0211169C083E0F801808333
:101F8000C092D801D092D901E092DA01F092DB013F
:101F90005DC08091D8019091D901A091DA01B091F2
:101FA000DB0146015701881A990AAA0ABB0AD50122
:101FB000C40184369105A105B1050CF447C0222364
:101FC00021F084E0D8018C93DBCFE1E18E16E7E2CB
:101FD0009E06A104B104C4F539C08091D801909146
:101FE000D901A091DA01B091DB0146015701881AAD
:101FF000990AAA0ABB0AD501C40184369105A10534
:10200000B10524F1222301F129EB82162BE092067F
:10201000A104B104DCF085E0D8018C9317C0211134
:1020200015C0A12CB12C20E04FEFB501CE010E94CC
:102030006203BFEFAB1ABB0AECEFAE16E3E0BE06DD
:1020400091F7CE010E947E02D8011C928A858823D6
:10205000F1F14091D4015091D5016091D601709178
:10206000D70146015701841A950AA60AB70AB50195
:10207000A40145365105610571054CF1D8019C91CB
:10208000953040F4923090F4992339F09130F9F47E
:1020900061E013C0953019F01AC060E00EC0BFEEC9
:1020A0008B16B2E09B06A104B1048CF00E94C91209
:1020B00061E0892B09F060E08A850E94F212C092EB
:1020C000D401D092D501E092D601F092D7010E94BE
:1020D00075130091DC011091DD012091DE0130913A
:1020E000DF01DC01CB01801B910BA20BB30BCD9761
:1020F000A105B10508F443C08B85882309F19C85AF
:1021000089130CC0DE01AB54BF4F9C91992331F071
:1021100091E0FE01EC54FF4F90831C92FE01ED54C0
:10212000FF4F9081992319F09A85891749F08E0104
:102130000C541F4FF80160810E94F212D8011C92CA
:102140008C85882391F09B85981779F0FE01ED54DA
:10215000FF4F9081992319F09A85891731F0CB545C
:10216000DF4F68810E94F21218820E9475136093FB
:10217000DC017093DD018093DE019093DF01DF913C
:10218000CF911F910F91FF90EF90DF90CF90BF9074
:10219000AF909F908F9008951F920F920FB60F925D
:1021A00011242F938F939F93EF93FF93E09120023D
:1021B000F09121028081E0912602F091270282FDB8
:1021C00012C09081809129028F5F8F7320912A0223
:1021D000821751F0E0912902F0E0E05FFD4F958F0A
:1021E0008093290201C08081FF91EF919F918F918F
:1021F0002F910F900FBE0F901F901895FC01848DAA
:10220000DF01A80FB11DA35ABF4F2C91848D90E020
:1022100001968F739927848FA689B7892C93A089FB
:10222000B1898C9180648C93938D848D981306C0B2
:102230000288F389E02D80818F7D80830895EF925D
:10224000FF920F931F93CF93DF93EC0181E0888F70
:102250009B8D8C8D981305C0E889F989808185FD57
:1022600024C0F62E0B8D10E00F5F1F4F0F73112748
:10227000E02E8C8DE8120CC00FB607FCFACFE8896F
:10228000F989808185FFF5CFCE010E94FE10F1CF44
:102290008B8DFE01E80FF11DE35AFF4FF0820B8F8B
:1022A000EA89FB898081806207C0EE89FF896083AB
:1022B000E889F98980818064808381E090E0DF9102
:1022C000CF911F910F91FF90EF900895CF93DF93DF
:1022D000EC01888D8823C9F0EA89FB89808185FD1E
:1022E00005C0A889B9898C9186FD0FC00FB607FC7F
:1022F000F5CF808185FFF2CFA889B9898C9185FFC0
:10230000EDCFCE010E94FE10E7CFDF91CF9108956F
:10231000CF93C82F8091E1019091E2010097D9F00D
:102320004C2F50E024E0559547952A95E1F7052E6E
:10233000000C660B770B20E10E94E0134C2F4F70CE
:1023400050E060E070E020E18091E1019091E201D5
:10235000CF910C94E013CF910895BF92CF92DF926A
:10236000EF92FF920F931F93CF93DF938C01F62E82
:10237000D42EE22EC32E8091E1019091E201892BAF
:1023800001F18CEE90E00E94E90D8F2D0E948811E2
:102390008AEE90E00E94E90DBE2CCE2DDC2D8C2F14
:1023A0008B198D1520F489910E948811F8CF8091A6
:1023B000E1019091E201009721F064E871E00E9450
:1023C000CB13F8018281F816F0F493818481E92F10
:1023D000F82FEF0DF11DEF0DF11D80819181DC01D2
:1023E000ED91FC910190F081E02D2E2D3C2D4D2D95
:1023F000B801DF91CF911F910F91FF90EF90DF9087
:10240000CF90BF900994DF91CF911F910F91FF90D2
:10241000EF90DF90CF90BF900895AF92BF92CF9290
:10242000DF92EF92FF920F93CF93DF936B015A01EC
:10243000E90121977B01C7018C199D09CF3FFFEF6F
:10244000DF0759F00111CE018A0D9B1D0E94411832
:10245000F70181937F012197EECFDF91CF910F910B
:10246000FF90EF90DF90CF90BF90AF9008958330B2
:1024700081F028F4813099F08230A1F008958730FE
:10248000A9F08830B9F08430D1F4809180008F7D3C
:1024900003C0809180008F7780938000089584B579
:1024A0008F7702C084B58F7D84BD08958091B00080
:1024B0008F7703C08091B0008F7D8093B000089526
:1024C000CF92DF92EF92FF920F931F93CF93DF9300
:1024D0006C017A018B01C0E0D0E0CE15DF0589F0F8
:1024E000D8016D918D01D601ED91FC910190F081A3
:1024F000E02DC6010995892B11F47E0102C02196B9
:10250000ECCFC701DF91CF911F910F91FF90EF901A
:10251000DF90CF90089580E192E00E94860E21E046
:10252000892B09F420E0822F08950E94F418CF939C
:10253000DF93EC018FEF9FEFDC01898B9A8BAB8BE4
:10254000BC8B88EF8D8B80E18E8B81E48F8B188E16
:10255000FE01E95AFF4F8081898F349680818A8FEE
:102560003196808191819B8F8C8FBE01635E7F4FFE
:10257000CE010E94C30280910F0282FD06C061E07D
:10258000CE01DF91CF910C94180581E0DF91CF91BE
:102590000895CF93DF93282F30E0F901EA5CFE4FD6
:1025A0008491F901EE5DFE4FD491F901E25FFE4F97
:1025B000C491CC2391F081110E943712EC2FF0E0EE
:1025C000EE0FFF1FEC5FFE4FA591B491EC91ED2350
:1025D00081E090E021F480E002C080E090E0DF91B3
:1025E000CF9108951F93CF93DF93282F30E0F90107
:1025F000EA5CFE4F8491F901EE5DFE4FD491F90142
:10260000E25FFE4FC491CC23C9F0162F81110E94C6
:102610003712EC2FF0E0EE0FFF1FE650FF4FA591B1
:10262000B4918FB7F894111105C09C91ED2FE095EE
:10263000E92302C0EC91ED2BEC938FBFDF91CF919A
:102640001F910895CF93DF9390E0FC01EE5DFE4F64
:102650002491FC01E25FFE4F8491882361F190E0B8
:10266000880F991FFC01E051FF4FC591D491FC01E7
:10267000E650FF4FA591B491611109C09FB7F8943E
:102680008881209582238883EC912E230BC06230B1
:1026900061F49FB7F8943881822F809583238883D3
:1026A000EC912E2B2C939FBF06C08FB7F894E88136
:1026B0002E2B28838FBFDF91CF9108958E3008F0A5
:1026C0008E508770806480937C0080917A00806453
:1026D00080937A0080917A0086FDFCCF809178000B
:1026E0002091790090E0922B08952FB7F894609193
:1026F000D6027091D7028091D8029091D9022FBF53
:1027000008951F920F920FB60F9211242F933F93AB
:102710008F939F93AF93BF938091D6029091D702EE
:10272000A091D802B091D9023091D50223E0230FB5
:102730002D3720F40196A11DB11D05C026E8230FF9
:102740000296A11DB11D2093D5028093D6029093CD
:10275000D702A093D802B093D9028091D102909170
:10276000D202A091D302B091D4020196A11DB11D55
:102770008093D1029093D202A093D302B093D4025B
:10278000BF91AF919F918F913F912F910F900FBE6D
:102790000F901F9018956115710579F0FB0101905C
:1027A0000020E9F73197AF01461B570BDC01ED9193
:1027B000FC910280F381E02D099480E090E008957F
:1027C0004F925F926F927F92EF92FF920F931F93BF
:1027D000CF93DF93CDB7DEB7A1970FB6F894DEBFE6
:1027E0000FBECDBF7C01FA01CB0119A2223008F443
:1027F0002AE08E010F5D1F4F422E512C612C712C4F
:10280000BF01A30192010E948918F901CA01015078
:1028100011096A3014F4605D01C0695CD8016C93E1
:10282000232B242B252B61F7B801C7010E94CB1362
:10283000A1960FB6F894DEBF0FBECDBFDF91CF914A
:102840001F910F91FF90EF907F906F905F904F904E
:1028500008951F920F920FB60F9211242F933F935A
:102860004F935F936F937F938F939F93AF93BF9398
:10287000EF93FF9380E192E00E94FE10FF91EF91B1
:10288000BF91AF919F918F917F916F915F914F9188
:102890003F912F910F900FBE0F901F9018950F939F
:1028A0001F93E0E1F2E01382128288EE93E0A0E051
:1028B000B0E084839583A683B7838EE691E091830D
:1028C000808385EC90E09587848784EC90E09787FF
:1028D000868780EC90E0918B808B81EC90E0938BED
:1028E000828B82EC90E0958B848B86EC90E0978BCA
:1028F000868B118E128E138E148E04E010E023E06E
:1029000030E04AE050E063E070E084EE92E00E9444
:10291000090E09E010E02CE030E047E050E063E011
:1029200070E08AED92E00E94090E1F910F910895C8
:10293000CF93DF93CDB7DEB762970FB6F894DEBFC3
:102940000FBECDBF789484B5826084BD84B58160AC
:1029500084BD85B5826085BD85B5816085BD80916A
:102960006E00816080936E001092810080918100E2
:1029700082608093810080918100816080938100DA
:10298000809180008160809380008091B10084609C
:102990008093B1008091B00081608093B0008091FD
:1029A0007A00846080937A0080917A0082608093BC
:1029B0007A0080917A00816080937A0080917A0019
:1029C000806880937A001092C10086E0EAE0F1E02E
:1029D000DE011D9601900D928A95E1F786E0E0E117
:1029E000F1E0DE01179601900D928A95E1F786E0FD
:1029F000E6E1F1E0DE01119601900D928A95E1F792
:102A00000DEA12E091E0E92E92E0F92E212C312C12
:102A10002CE2C22E21E0D22E3AED432E32E0532E8C
:102A200099249A9444EE642E42E0742E9701285122
:102A3000310959018DE290E036E02316310408F0A7
:102A40005FC00E94B816FC01ADE0B0E0AC0FBD1F46
:102A5000A20DB31D8C91A7E0B0E0AC0FBD1FA20D7D
:102A6000B31D9C91D182C08292838383B782A68258
:102A700075826482158614861086118612861386E6
:102A80001786108A118A128A1686978A918E138A5F
:102A9000148A158A168A168E10A211A212A213A2E7
:102AA00014A215A216A217A2D801ED93FC938CE0F4
:102AB00090E00E94B8165C01E1E0F0E0EC0FFD1F31
:102AC000E20DF31D808120E231E0F50131832083A6
:102AD0008283F482E382D5011582168217821086E2
:102AE000E4E01996EC9319971B961C921E921A9784
:102AF0000E945E13D8015996BC92AE9258973CC082
:102B00000E94B816FC01822D66E00E94BA18892F37
:102B100090E0ADE0B0E0AC0FBD1FA80FB91F2C9145
:102B2000A7E0B0E0AC0FBD1FA80FB91F8C91D182F8
:102B3000C08282832383B782A6825582448215860F
:102B4000148610861186128613861786108A118ABB
:102B5000128A1686978A918E138A148A158A168A83
:102B6000168E10A211A212A213A214A215A216A2CE
:102B700017A2D801ED93FC93BFEF2B1A3B0A0E5F0F
:102B80001F4FE2E0EE0EF11CFCE02F16310409F0BD
:102B90004DCFE0912002F091210282E0D82ED08228
:102BA000E0911C02F0911D021082E0911E02F09152
:102BB0001F0287E6808310922802E0912402F091A0
:102BC000250286E28083E0912202F0912302808137
:102BD00080618083E0912202F091230280818860ED
:102BE0008083E0912202F0912302808180688083BB
:102BF000E0912202F091230280818F7D808385E025
:102C000090E00E94B8167C0188E391E0D70111960C
:102C10009C938E9384E212968C93129780E490E0BA
:102C200014969C938E93139788EB90E00E94B816AD
:102C30008C018EE391E0F80191838083EA54FF4F89
:102C400080E098E391838083EE55F1098AE28083E6
:102C5000319683EE91E09183808382E1D8011296D0
:102C60008C9312978DEA92E014969C938E9313970F
:102C700016961C921E9215971896FC92EE92179734
:102C8000329681E08083319684E090E09183808366
:102C9000329680E192E0918380837801B0E6EB0E7A
:102CA000F11CF701D08261E082E00E94221360E013
:102CB000D7018C910E94F212F801EA59FF4F10825D
:102CC000E95BFF4F1082118212821382349682EDEB
:102CD00090E091838083EA55F10983E98083C801FC
:102CE0000E940F031092E2011092E101F801118697
:102CF000ED54FF4F1082D8011A961C921A971C9619
:102D00001C921C971B961C92C8010E947E02809107
:102D10000F028D7F8B7F80930F0286E591E0F80193
:102D20009183808310930E0200930D0284E18187CA
:102D300060E00E9422138DE0D8011A968C9361E026
:102D40000E94221360E088E00E94F21261E088E0B5
:102D50000E94221380910D0290910E02DC01ED91F0
:102D6000FC910190F081E02D09950E94920EF2CF26
:102D7000CF93DF938230910510F482E090E0E091F0
:102D8000F002F091F10220E030E0C0E0D0E03097B6
:102D900011F14081518148175907C0F04817590770
:102DA00061F482819381209719F09B838A832BC0E1
:102DB0009093F1028093F00226C02115310519F09D
:102DC0004217530718F49A01BE01DF01EF01028098
:102DD000F381E02DDCCF2115310509F1281B390BDA
:102DE0002430310590F412968D919C9113976115C2
:102DF000710521F0FB019383828304C09093F1025B
:102E00008093F002FD01329644C0FD01E20FF31FF2
:102E100081939193225031092D933C933AC0209194
:102E2000EE023091EF02232B41F420910201309108
:102E300003013093EF022093EE02209100013091C4
:102E400001012115310541F42DB73EB74091040130
:102E500050910501241B350BE091EE02F091EF0239
:102E6000E217F307A0F42E1B3F0B2817390778F061
:102E7000AC014E5F5F4F2417350748F04E0F5F1FC0
:102E80005093EF024093EE028193919302C0E0E0F1
:102E9000F0E0CF01DF91CF9108950F931F93CF936F
:102EA000DF93009709F48CC0FC01329713821282E1
:102EB0000091F0021091F1020115110581F42081B9
:102EC0003181820F931F2091EE023091EF0228177B
:102ED000390779F5F093EF02E093EE0271C0D80163
:102EE00040E050E0AE17BF0750F412962D913C9190
:102EF0001397AD012115310509F1D901F3CF9D01DA
:102F0000DA013383228360817181860F971F8217D4
:102F1000930769F4EC0128813981260F371F2E5F52
:102F20003F4F318320838A819B8193838283452B0A
:102F300029F4F093F102E093F00242C01396FC935F
:102F4000EE931297ED01499159919E01240F351F7F
:102F5000E217F30771F480819181840F951F029627
:102F600011969C938E938281938113969C938E935A
:102F70001297E0E0F0E0D80112968D919C911397A2
:102F8000009719F0F8018C01F6CF8D919C91980172
:102F90002E5F3F4F820F931F2091EE023091EF0280
:102FA0002817390769F4309729F41092F10210922A
:102FB000F00202C0138212821093EF020093EE021D
:102FC000DF91CF911F910F9108958F929F92AF92B1
:102FD000BF92CF92DF92EF92FF92CF93DF93EC01FB
:102FE000688179818A819B816115710581059105CF
:102FF00021F464E279ED8BE597E02DE133EF41E0D8
:1030000050E00E94571849015A019B01AC01A7EA00
:10301000B1E40E9476186B017C01ACEEB4EFA5011F
:1030200094010E948418DC01CB018C0D9D1DAE1D06
:10303000BF1DB7FF03C00197A109B04888839983DA
:10304000AA83BB83BC01CD019F77DF91CF91FF9015
:10305000EF90DF90CF90BF90AF909F908F900895AA
:103060000E94E517089586E091E00E94E517089513
:103070006093060170930701809308019093090102
:103080000895F999FECF92BD81BDF89A992780B530
:103090000895262FF999FECF1FBA92BD81BD20BD9C
:1030A0000FB6F894FA9AF99A0FBE01960895052E74
:1030B00097FB1EF400940E946E1857FD07D00E94E3
:1030C000891807FC03D04EF40C946E185095409567
:1030D000309521953F4F4F4F5F4F089590958095C4
:1030E000709561957F4F8F4F9F4F08950E94AB1849
:1030F000A59F900DB49F900DA49F800D911D11244C
:103100000895B7FF0C9476180E947618821B930BD3
:103110000895A1E21A2EAA1BBB1BFD010DC0AA1F18
:10312000BB1FEE1FFF1FA217B307E407F50720F030
:10313000A21BB30BE40BF50B661F771F881F991FAB
:103140001A9469F760957095809590959B01AC01F4
:10315000BD01CF010895A29FB001B39FC001A39FFD
:10316000700D811D1124911DB29F700D811D1124C0
:10317000911D0895991B79E004C0991F961708F0D6
:10318000961B881F7A95C9F78095089597FB072E9F
:1031900016F4009407D077FD09D00E94E01807FCD0
:1031A00005D03EF4909581959F4F08957095619557
:1031B0007F4F0895EE0FFF1F0590F491E02D0994C5
:1031C000AA1BBB1B51E107C0AA1FBB1FA617B7074D
:1031D00010F0A61BB70B881F991F5A95A9F7809569
:1031E0009095BC01CD01089581E090E0F8940C9495
:1031F000E11BFB01DC0102C001900D9241505040E7
:10320000D8F70895DC0101C06D9341505040E0F7BC
:103210000895AEE0B0E0EFE0F9E10C94B81B0D8941
:103220001E8986E08C831A8309838FEF9FE79E8334
:103230008D83AE01475E5F4F6F89788DCE01019619
:103240000E942C192F813885F801E20FF31F10829C
:103250002E96E4E00C94D41BACE0B0E0E2E3F9E19C
:103260000C94AA1B7C016B018A01FC011782168257
:10327000838181FFBDC1CE0101964C01F70193818D
:10328000F60193FD859193FF81916F01882309F4E5
:10329000ABC1853239F493FD859193FF81916F0124
:1032A000853229F4B70190E00E94141BE7CF512C1E
:1032B000312C20E02032A0F48B3269F030F48032DF
:1032C00059F0833269F420612CC08D3239F080339B
:1032D00039F4216026C02260246023C0286021C008
:1032E00027FD27C030ED380F3A3078F426FF06C0AE
:1032F000FAE05F9E300D1124532E13C08AE0389EF1
:10330000300D1124332E20620CC08E3221F426FDA4
:103310006BC1206406C08C3611F4206802C0883668
:1033200041F4F60193FD859193FF81916F01811125
:10333000C1CF982F9F7D9554933028F40C5F1F4F79
:10334000FFE3F9830DC0833631F0833771F08335A5
:1033500009F05BC022C0F801808189830E5F1F4F96
:1033600044244394512C540115C03801F2E06F0EEF
:10337000711CF801A080B18026FF03C0652D70E0AC
:1033800002C06FEF7FEFC5012C870E94091B2C0143
:1033900083012C852F77222E17C03801F2E06F0EA3
:1033A000711CF801A080B18026FF03C0652D70E07C
:1033B00002C06FEF7FEFC5012C870E94FE1A2C011F
:1033C0002C852068222E830123FC1BC0832D90E0D6
:1033D00048165906B0F4B70180E290E00E94141B31
:1033E0003A94F4CFF50127FC859127FE81915F0186
:1033F000B70190E00E94141B31103A94F1E04F1A8B
:1034000051084114510471F7E5C0843611F0893632
:1034100039F5F80127FF07C06081718182819381AE
:103420000C5F1F4F08C060817181072E000C880B54
:10343000990B0E5F1F4F2F76722E97FF09C0909544
:103440008095709561957F4F8F4F9F4F2068722EAA
:103450002AE030E0A4010E944C1BA82EA81844C00A
:10346000853729F42F7EB22E2AE030E025C0F22FD6
:10347000F97FBF2E8F36C1F018F4883579F0B4C0CB
:10348000803719F0883721F0AFC02F2F2061B22E7E
:10349000B4FE0DC08B2D8460B82E09C024FF0AC075
:1034A0009F2F9660B92E06C028E030E005C020E1CD
:1034B00030E002C020E132E0F801B7FE07C06081D1
:1034C0007181828193810C5F1F4F06C06081718181
:1034D00080E090E00E5F1F4FA4010E944C1BA82EBD
:1034E000A818FB2DFF777F2E76FE0BC0372D3E7F71
:1034F000A51450F474FE0AC072FC08C0372D3E7E3D
:1035000005C0BA2C372D03C0BA2C01C0B52C34FF2E
:103510000DC0FE01EA0DF11D8081803311F4397E6A
:1035200009C032FF06C0B394B39404C0832F8678D9
:1035300009F0B39433FD13C030FF06C05A2CB31406
:1035400018F4530C5B18B32CB31468F4B70180E281
:1035500090E03C870E94141BB3943C85F5CFB314D4
:1035600010F43B1801C0312C34FF12C0B70180E3C6
:1035700090E03C870E94141B3C8532FF17C031FD50
:1035800003C088E790E002C088E590E0B7010CC076
:10359000832F867859F031FF02C08BE201C080E2B0
:1035A00037FD8DE2B70190E00E94141BA51438F49A
:1035B000B70180E390E00E94141B5A94F7CFAA94BD
:1035C000F401EA0DF11D8081B70190E00E94141B07
:1035D000A110F5CF332009F451CEB70180E290E07D
:1035E0000E94141B3A94F6CFF7018681978102C09E
:1035F0008FEF9FEF2C96E2E10C94C61BFC01059027
:10360000615070400110D8F7809590958E0F9F1FE4
:103610000895FC016150704001900110D8F7809529
:1036200090958E0F9F1F08950F931F93CF93DF9355
:10363000FB01238121FD03C08FEF9FEF28C022FFF4
:1036400016C046815781248135814217530744F4BF
:10365000A081B1819D012F5F3F4F318320838C93E7
:10366000268137812F5F3F4F3783268310C0EB01C0
:10367000092F182F0084F185E02D0995892BE1F69B
:103680008E819F8101969F838E83812F902FDF9162
:10369000CF911F910F910895FA01AA27283051F177
:1036A000203181F1E8946F936E7F6E5F7F4F8F4F73
:1036B0009F4FAF4FB1E03ED0B4E03CD0670F781FD2
:1036C000891F9A1FA11D680F791F8A1F911DA11DB7
:1036D0006A0F711D811D911DA11D20D009F46894F0
:1036E0003F912AE0269F11243019305D3193DEF698
:1036F000CF010895462F4770405D4193B3E00FD04E
:10370000C9F7F6CF462F4F70405D4A3318F0495D38
:1037100031FD4052419302D0A9F7EACFB4E0A6951B
:103720009795879577956795BA95C9F7009761053D
:10373000710508959B01AC010A2E06945795479593
:1037400037952795BA95C9F7620F731F841F951F88
:10375000A01D08952F923F924F925F926F927F9299
:103760008F929F92AF92BF92CF92DF92EF92FF9291
:103770000F931F93CF93DF93CDB7DEB7CA1BDB0B3D
:103780000FB6F894DEBF0FBECDBF09942A883988E2
:1037900048885F846E847D848C849B84AA84B984E9
:1037A000C884DF80EE80FD800C811B81AA81B981F5
:1037B000CE0FD11D0FB6F894DEBF0FBECDBFED0109
:0637C0000895F894FFCF0C
:1037C6000000F2028000010000000001020304056F
:1037D600080A0C1012140E0F10111213000000002C
:1037E6002D015208FC09290100000000120DBB083A
:1037F6004B0B870D00000000290900000000B70EE2
:10380600AD119D0E9C0E3B06D0000C06E5050D0184
:103816007C0600000000B70EAD119D0EDE083B06CB
:10382600D0000C06E5050D017C06000000001F1106
:103836006012550E6611860E640E780E3A0025301B
:06384600376C75000A005A
:107800000C94343C0C94513C0C94513C0C94513CE1
:107810000C94513C0C94513C0C94513C0C94513CB4
:107820000C94513C0C94513C0C94513C0C94513CA4
:107830000C94513C0C94513C0C94513C0C94513C94
:107840000C94513C0C94513C0C94513C0C94513C84
:107850000C94513C0C94513C0C94513C0C94513C74
:107860000C94513C0C94513C11241FBECFEFD8E036
:10787000DEBFCDBF11E0A0E0B1E0ECE9FFE702C060
:1078800005900D92A230B107D9F712E0A2E0B1E065
:1078900001C01D92AD30B107E1F70E942D3D0C945F
:1078A000CC3F0C94003C982F959595959595959582
:1078B000905D8F708A307CF0282F295A8091C0000B
:1078C00085FFFCCF9093C6008091C00085FFFCCF60
:1078D0002093C6000895282F205DF0CF982F809127
:1078E000C00085FFFCCF9093C6000895EF92FF92F1
:1078F0000F931F93EE24FF2487018091C00087FD22
:1079000017C00894E11CF11C011D111D81E4E8164B
:1079100082E4F8068FE0080780E0180770F3E09132
:107920000401F091050109958091C00087FFE9CF1E
:107930008091C6001F910F91FF90EF9008950E94D3
:10794000763C982F8091C00085FFFCCF9093C600B5
:1079500091362CF490330CF09053892F089597555D
:10796000892F08951F930E949F3C182F0E949F3CCF
:107970001295107F810F1F9108951F93182F882350
:1079800021F00E94763C1150E1F71F9108951F935A
:10799000182F0E94763C803249F0809103018F5F5E
:1079A000809303018530C1F01F9108958091C0003C
:1079B00085FFFCCF84E18093C6008091C00085FFE5
:1079C000FCCF1093C6008091C00085FFFCCF80E102
:1079D0008093C6001F910895E0910401F091050184
:1079E00009951F9108950E94763C803241F0809164
:1079F00003018F5F80930301853081F008958091AA
:107A0000C00085FFFCCF84E18093C6008091C00058
:107A100085FFFCCF80E18093C6000895E0910401CA
:107A2000F09105010995089540E951E08823A1F0FE
:107A30002D9A28EE33E0FA013197F1F721503040CA
:107A4000D1F72D9828EE33E0FA013197F1F7215064
:107A50003040D1F7815061F708953F924F925F9285
:107A60006F927F928F929F92AF92BF92CF92DF924E
:107A7000EF92FF920F931F93CF93DF93000080E16B
:107A80008093C4001092C50088E18093C10086E015
:107A90008093C2005098589A259A81E00E94143D24
:107AA00024E1F22E9EE1E92E85E9D82E0FE0C02ECA
:107AB00010E1B12EAA24A394B1E49B2EA6E58A2E50
:107AC000F2E57F2EE0E26E2E79E4572E63E5462E36
:107AD00050E5352E0E94763C8033B1F18133B9F107
:107AE000803409F46FC0813409F476C0823409F41B
:107AF00085C0853409F488C0803531F1823521F1A3
:107B0000813511F1853509F485C0863509F48DC0BC
:107B1000843609F496C0843709F403C1853709F423
:107B200072C1863709F466C0809103018F5F80932C
:107B30000301853079F6E0910401F0910501099582
:107B40000E94763C803351F60E94F33CC3CF0E94E2
:107B5000763C803249F78091C00085FFFCCFF092DF
:107B6000C6008091C00085FFFCCF9092C600809136
:107B7000C00085FFFCCF8092C6008091C00085FFC9
:107B8000FCCF7092C6008091C00085FFFCCF609250
:107B9000C6008091C00085FFFCCF5092C600809146
:107BA000C00085FFFCCF4092C6008091C00085FFD9
:107BB000FCCF3092C6008091C00085FFFCCFB09210
:107BC000C60088CF0E94763C863808F4BDCF0E945C
:107BD000763C0E94F33C7ECF0E94763C803809F4CC
:107BE0009CC0813809F40BC1823809F43CC1883942
:107BF00009F48FC080E00E94C73C6CCF84E10E94F2
:107C0000BD3C0E94F33C66CF85E00E94BD3C0E94D3
:107C1000F33C60CF0E94763C809306010E94763C44
:107C2000809307010E94F33C55CF0E94763C80333D
:107C300009F41DC183E00E94BD3C80E00E94C73C66
:107C400049CF0E94763C809309020E94763C809343
:107C5000080280910C028E7F80930C020E94763C79
:107C6000853409F415C18091080290910902892B8D
:107C700089F000E010E00E94763CF801E85FFE4FDA
:107C800080830F5F1F4F80910802909109020817AF
:107C9000190788F30E94763C803209F045CF809125
:107CA0000C0280FF01C16091060170910701660F0F
:107CB000771F7093070160930601A0910802B091AD
:107CC00009021097C9F0E8E0F1E09B01AD014E0F09
:107CD0005F1FF999FECF32BD21BD819180BDFA9A17
:107CE000F99A2F5F3F4FE417F50799F76A0F7B1F4B
:107CF00070930701609306018091C00085FFFCCF5F
:107D0000F092C6008091C00085FFFCCFB092C60003
:107D1000E1CE83E00E94C73CDDCE82E00E94C73CFA
:107D2000D9CE0E94763C809309020E94763C8093D3
:107D300008028091060190910701880F991F909386
:107D40000701809306010E94763C853409F4A6C0A1
:107D500080910C028E7F80930C020E94763C8032D0
:107D600009F0B8CE8091C00085FFFCCFF092C6002C
:107D7000609108027091090261157105B9F140E046
:107D800050E080910C02A82FA170B82FB27011C0E2
:107D9000BB2309F45CC0E0910601F0910701319624
:107DA000F0930701E09306014F5F5F4F46175707B7
:107DB000E8F4AA2369F3F999FECF209106013091E6
:107DC000070132BD21BDF89A90B58091C00085FFB2
:107DD000FCCF9093C6002F5F3F4F30930701209355
:107DE00006014F5F5F4F4617570718F38091C00099
:107DF00085FDE5CE8091C00085FFF8CFE0CE81E023
:107E00000E94C73C67CE0E94763C803209F08CCE3F
:107E10008091C00085FFFCCFF092C6008091C00029
:107E200085FFFCCFE092C6008091C00085FFFCCFAB
:107E3000D092C6008091C00085FFFCCFC092C600E2
:107E40008091C00085FFFCCFB092C60043CEE09188
:107E50000601F091070194918091C00085FFFCCF4D
:107E60009093C6009CCF80E10E94C73C33CE0E9415
:107E7000763C0E94763C182F0E94763C112309F430
:107E800083C0113009F484C08FE00E94C73C22CE29
:107E900080910C02816080930C02E5CE80910C02EF
:107EA000816080930C0259CF809107018823880F4D
:107EB000880B8A2180930B02809106019091070123
:107EC000880F991F90930701809306018091080203
:107ED00080FF09C080910802909109020196909359
:107EE000090280930802F894F999FECF1127E091D6
:107EF0000601F0910701C8E0D1E08091080290915D
:107F00000902103091F40091570001700130D9F34B
:107F100003E000935700E89500915700017001308D
:107F2000D9F301E100935700E89509901990009169
:107F3000570001700130D9F301E000935700E89534
:107F40001395103498F011270091570001700130FB
:107F5000D9F305E000935700E895009157000170B0
:107F60000130D9F301E100935700E895329602976A
:107F700009F0C7CF103011F00296E5CF112480919F
:107F8000C00085FFB9CEBCCE8EE10E94C73CA2CD19
:0C7F900085E90E94C73C9ECDF894FFCF0D
:027F9C00800063
:040000030000780081
:00000001FF
