:100000000C9498000C94C0000C94C0000C94C6038F
:100010000C94BC030C94B2030C94C0000C94C0006C
:100020000C94C0000C94C0000C94C0000C94C00050
:100030000C94C0000C94C0000C94C0000C94C00040
:100040000C94F8090C94C0000C94D6110C94B011C7
:100050000C94C0000C94C0000C94C0000C94C00020
:100060000C94C0000C94C000523A2041434B0A004B
:100070000A00543A2000453A204352430A000A003D
:10008000453A204D7367546F6F4C6F6E670A003AA4
:1000900000523A2000543A2046575665720A0054DE
:1000A0003A2048575665722C5479700A00433A201A
:1000B000577269746520454550524F4D0A00433AC6
:1000C000205265616420454550524F4D0A00200082
:1000D000533A200000000000240027002A000000FE
:1000E0000000250028002B0000000000230026004F
:1000F00029000404040404040404020202020202AB
:1001000003030303030301020408102040800102DB
:10011000040810200102040810200000000800025A
:1001200001000003040700000000000000006D1241
:1001300011241FBECFEFD8E0DEBFCDBF12E0A0E09C
:10014000B1E0E4E9F2E302C005900D92A434B107F6
:10015000D9F723E0A4E4B2E001C01D92A535B207AF
:10016000E1F710E0C8E9D0E004C02197FE010E9449
:100170005516C739D107C9F70E949A120C9448192D
:100180000C940000FA0128E040815181CA01880FD7
:10019000991F67FD81609183808357FF08C080812C
:1001A000918132E0832730E1932791838083660F2A
:1001B000215051F7089520E001972FEF8F3F9207CC
:1001C000D9F70895089580E090E00895DC01149631
:1001D000ED91FC91159785819681019621F488EC2B
:1001E00090E09683858383819481019621F488EC45
:1001F00090E09483838381818F3F11F484E1818334
:100200000895809163028F3F19F484E18093630223
:100210000895CF92DF92EF92FF921F93CF93DF93D7
:10022000EC010E9461123D852B89C98CDA8CEB8C24
:10023000FC8CEC81FD81333029F519896C197D091D
:100240008E099F09213071F42381348140E050E010
:100250000E942416121B153610F4188B01C0188A40
:100260001A8A2CC02581368140E050E00E94241675
:10027000120F153610F4188B02C084E6888B84E6C2
:100280008A8B1CC01A896C197D098E099F0921303F
:1002900059F4218130E040E050E00E942416121B06
:1002A0001A8B1536E8F60AC0218130E040E050E0B4
:1002B0000E942416120F1A8B153608F7DF91CF9182
:1002C0001F91FF90EF90DF90CF9008950F931F93B1
:1002D000CF93DF93EC018B018C85811105C0CE019A
:1002E0000E940901888906C08E89882311F08F85B4
:1002F00001C08E85880FF801808381E0DF91CF9166
:100300001F910F9108952F923F924F925F926F929B
:100310007F928F929F92AF92BF92CF92DF92EF9295
:10032000FF920F931F93CF93DF93CDB7DEB727973D
:100330000FB6F894DEBF0FBECDBF3C016B011901B3
:100340002A01F02E10E039ECB32EF3018281181748
:1003500008F0A7C027E0129F40011124D301139693
:100360004D915C911497480D591D01E024E030E057
:10037000BE016F5F7F4FC6010E94C10A89819A81C9
:10038000AB81BC818F3FEFEF9E07AE07BE0709F43C
:1003900086C082159305A405B50509F080C0D30178
:1003A00013964D915C9114974C5F5F4F480D591D0A
:1003B00000E021E030E0BE01695F7F4FC6010E948E
:1003C000C10A8F818F116BC0F301438154814B5F50
:1003D0005F4F480D591D21E030E0BE01695F7F4F3E
:1003E000C6010E94C10A8F818E1159C0D301139694
:1003F0004D915C9114974A5F5F4F480D591D21E064
:1004000030E0BE016A5F7F4FC6010E94C10AF3015E
:10041000438154818E81AA2069F090E023E0959574
:1004200087952A95E1F787708E83485F5F4F480D67
:10043000591D07C087708E83495F5F4F480D591D56
:1004400000E021E030E0BE016B5F7F4FC6010E94FB
:10045000C10A8E81823081F030F4882351F08130DE
:1004600089F4BD820FC0843061F040F08530B9F06E
:1004700009C0F8ECFD8306C01D8204C02FEF2D8358
:1004800001C00000D601ED91FC910280F381E02DC6
:100490009E012B5F3F4F41E06E2DC60109951F5F06
:1004A00054CF27960FB6F894DEBF0FBECDBFDF91B5
:1004B000CF911F910F91FF90EF90DF90CF90BF9061
:1004C000AF909F908F907F906F905F904F903F90F4
:1004D0002F9008950F931F93CF93DF9300916102A4
:1004E000109162020115110581F0EC01FE01649189
:1004F000662359F0D801ED91FC910190F081E02D37
:10050000C80109952196892B89F7DF91CF911F9119
:100510000F9108953F924F925F926F927F928F92C8
:100520009F92AF92BF92CF92DF92EF92FF920F9382
:100530001F93CF93DF93EC015C018EE5A80EB11CF5
:100540003E019DEA690E711C8E010F591F4FDE019D
:10055000A559BF4F7D0144244A9435E0332E6E01E6
:10056000B7E6CB0ED11C88248A94982CD5018D91A6
:100570009C91DC01ED91FC910084F185E02D0995C1
:10058000892B09F4DDC00E946112F301608371833D
:1005900082839383D5018D919C91DC01ED91FC9137
:1005A0000284F385E02D0995582EBDEF8B1303C00F
:1005B00081E990E002C08FE890E00E946A02852DF8
:1005C0000E94420AECEF5E1207C0D8018C9181FDB7
:1005D00024C082608C93CACFBDEF5B121EC0F801AD
:1005E00080818D7F8160808310924A02109249023F
:1005F0001D861E861F86188AD6011D921D921D9289
:100600001C921397909248028092470247E452E06E
:100610006DEFCE010E94C200A9CFF801808180FF5A
:10062000A5CF81FF06C0F52DF0685F2E8D7FD80124
:100630008C9347E452E0652DCE010E94C200809168
:100640004902843078F4F6014081518162817381DE
:10065000762F652F542F4427452940835183628389
:1006600073831AC0843029F43092490250924602B2
:100670007DCF4091460243FF13C0893088F44D85F9
:100680005E856F857889762F652F542F44274529FD
:100690004D875E876F87788B8F5F8093490266CF27
:1006A0008F3F79F040924902F7015082F0E4F5154E
:1006B00008F05CCFD8018C918E7F8C9380E890E01D
:1006C0003CC080914A02FE01E80FF11DE459FF4F42
:1006D000508291E0980F90934A02F7012081921383
:1006E00045CF2091470230914802232B21F5D801B4
:1006F0009C919E7F9C93FE01E455FF4F4083815067
:10070000F7018083CA59DF4F81E088838EE790E04C
:10071000DF91CF911F910F91FF90EF90DF90CF90DD
:10072000BF90AF909F908F907F906F905F904F9011
:100730003F900C946A0286E790E00E946A0216CF0E
:10074000DF91CF911F910F91FF90EF90DF90CF90AD
:10075000BF90AF909F908F907F906F905F904F90E1
:100760003F9008951F920F920FB60F9211240F9091
:100770000FBE0F901F9018951F920F920FB60F92F9
:1007800011240F900FBE0F901F9018951F920F927B
:100790000FB60F9211240F900FBE0F901F90189557
:1007A000BC018091610290916202009711F00C945B
:1007B00052110895FF920F931F93CF93DF9300D0B0
:1007C000CDB7DEB78C01F62E8EE691E049835A83D1
:1007D0000E94D0038F2D0E94420A49815A814115FF
:1007E000510521F06F2DC8010E94C200025A1F4F0F
:1007F00084E08F0D833070F4D8018D919C91DC01E1
:10080000ED91FC910190F081E02D6CEF0995BF2DE9
:10081000BF77FB2EF80180819181DC01ED91FC9185
:100820000190F081E02D6F2D0F900F90DF91CF910F
:100830001F910F91FF9009944F925F926F927F9258
:10084000AF92BF92CF92DF92FF920F931F93CF93FD
:10085000DF9300D0CDB7DEB78C018FEF9FEF9A8387
:100860008983F80181899289A389B4898F3F9F4F39
:10087000AF4FBF4FA1F0F801E455FF4F808190E0EA
:1008800095958795837020E2829FC0011124D8013D
:1008900055969C9155979F79892B55968C9382E715
:1008A00090E00E946A026801B0E6CB0ED11C61E0C4
:1008B000F60180810E9431128DEF0E94420A580198
:1008C000FEE5AF0EB11CD5018D919C91DC01ED913F
:1008D000FC910190F081E02D6DEF0995AE014F5F25
:1008E0005F4F6DEFC8010E94C200F8014188528835
:1008F0006388748854E0F52E672D77278827992719
:10090000AE014F5F5F4FC8010E94DA03762C652C61
:10091000542C4424FA94F110EFCFAE014F5F5F4F97
:10092000D80155966C91C8010E94DA03F8018589B7
:1009300083FD0CC0D80156966C916E5FAE014F5F7F
:100940005F4FC8010E94DA03F12C1BC0F801EE5979
:10095000FF4F408051806280738024E0F22E672D2B
:10096000772788279927AE014F5F5F4FC8010E9404
:10097000DA03762C652C542C4424FA94F110EFCF32
:10098000D9CFF8018689F81660F4F801EF0DF11D52
:10099000AE014F5F5F4F6789C8010E94DA03F3948D
:1009A000F0CFAE014F5F5F4F60E0C8010E94C20010
:1009B000AE014F5F5F4F60E0C8010E94C2006A81D4
:1009C00040E050E0C8010E94DA0340E050E0698155
:1009D000C8010E94DA03D5018D919C91DC01ED9153
:1009E000FC910680F781E02D099560E0F601808199
:1009F0000E943112F801EF59FF4F80818860808397
:100A000080E790E00E946A020F900F90DF91CF91F3
:100A10001F910F91FF90DF90CF90BF90AF907F908C
:100A20006F905F904F9008954F925F926F927F9278
:100A30008F929F92AF92BF92CF92DF92EF92FF92EE
:100A40000F931F93CF93DF93EC01862E662379F1EA
:100A50000E946112FE01E355FF4F00811181228146
:100A60003381AB01BC01401B510B620B730B8E0138
:100A70000F541F4FF80180819181A0E0B0E048172A
:100A800059076A077B0710F481E08AC00E94CE15DF
:100A900024E630E040E050E00E94F215DC01CB019A
:100AA0008E529F4FAF4FBF4FF8019183808381E0FB
:100AB000FE01EC54FF4F808389899A89AB89BC89F8
:100AC0008F3F9F4FAF4FBF4F09F45CC08D8983703C
:100AD000813009F457C083E0982E8E010A591F4FC8
:100AE0007E0127E6E20EF11C6E0182E6C80ED11CE3
:100AF0005E01E1E6AE0EB11CCE010E941C040E9414
:100B000061122B013C010E946112DC01CB018419AE
:100B10009509A609B709883C9105A105B10510F50D
:100B2000CE010E948A02F8018081882361F3F701D7
:100B30004081518162817381F60180819181A2811E
:100B4000B381481759076A077B07E9F6F801108255
:100B5000CE010E94E105F5019081892F887093FDF7
:100B6000D2CF1EC08820C1F00E946112DC01CB01EF
:100B700084199509A609B70986399105A105B1051A
:100B800058F482CFCE010E941C04CF59DF4F8881D8
:100B9000877F888380E004C09A949110ADCF82E073
:100BA000DF91CF911F910F91FF90EF90DF90CF9049
:100BB000BF90AF909F908F907F906F905F904F907D
:100BC0000895EF92FF920F931F93CF93DF93EC0161
:100BD000FC01EB54FF4F81E080838E010F591F4FC2
:100BE000F80180819E0124553F4F790183FF26C083
:100BF000F901808190E025E0959587952A95E1F7A8
:100C0000282F23708D8990E0959587958370281300
:100C100015C04D855E856F85788989899A89AB89EC
:100C2000BC89481759076A077B0741F488E690E0BA
:100C30000E946A02F8018081877F8083F7018081AA
:100C400083708130F9F0FE01E559FF4F80818111F9
:100C50001BC0349780819181A281B3818F3F9F4FC8
:100C6000AF4FBF4F89F08D859E85AF85B889898B41
:100C70009A8BAB8BBC8B89E18D8B1E8A60E0CE0199
:100C80000E94140580E001C081E0DF91CF911F91A7
:100C90000F91FF90EF9008955F926F927F928F92E5
:100CA0009F92AF92BF92CF92DF92EF92FF920F93FB
:100CB0001F93CF93DF9300D0CDB7DEB76C013B011C
:100CC000542E0E9461124B015C01D60154962C9166
:100CD0005497211117C05D968D919D910D90BC91F7
:100CE000A02DB501A401481B590B6A0B7B0BF60123
:100CF0008789908DA0E0B0E0481759076A077B0705
:100D000008F463C1D6011C961C91123009F427C166
:100D100030F4112309F4A5C0113099F156C11430F3
:100D2000F1F008F452C0153009F04FC160E0F6014F
:100D300083810E943112D6015D968D929D92AD9273
:100D4000BC9290971D961C931D9781E01C968C93E6
:100D50001C9754961C92549780E293E032C160E055
:100D6000F60182810E943112D6011D961C93F60174
:100D7000858E968EA78EB0A280E29EE4908F878BA0
:100D800024C1D6011E969C911E9750968C91509727
:100D9000891718F453961C9202C0F601138BD601E2
:100DA00053966C91539712968C910E94311281E068
:100DB000F601858782E08487148AD601858E968E17
:100DC000A78EB0A288EC90E0FCC061E0F6018381C0
:100DD0000E943112D60159968D929D92AD92BC928D
:100DE0005C97F601858E968EA78EB0A28089818B46
:100DF00093E0958714863389268590E00480F581F9
:100E0000E02D313061F4821B910963817481869FEA
:100E1000A001879F500D969F500D11240FC0422FA7
:100E200050E08A01081B190B65817681069FA0019D
:100E3000079F500D169F500D1124D60158965C93B4
:100E40004E935797222311F0243639F4F6018789FF
:100E5000908D88519C4F908F878BD60154961C9211
:100E6000B4C0F601222359F0148AC6010E94090178
:100E7000D60150968C9150971E968C9319C08685FA
:100E8000808B9389913011F4128A02C094E6928B80
:100E9000F601958991110CC0882311F0843641F434
:100EA00080E791E00E94D00381E0D60155968C93B3
:100EB000F60182859385892B01F50480F581E02D6B
:100EC000808180FF1AC0D60156968C915697811169
:100ED00014C0F60186829782A086B186F301E75A94
:100EE000FF4F0190F081E02D8081F4E68F9FC001DB
:100EF00011241B969C938E931A9760E0F6018381D0
:100F00000E943112D6011D961C921D9784E01C96FA
:100F10008C93F601858E968EA78EB0A288EC90E019
:100F2000908F878B8689882309F44FC080EA91E0EF
:100F30000E94D003D6011F968C91880F8A83D3011B
:100F4000ED91FC910280F381E02D9E012E5F3F4FD9
:100F500041E0652DC3010995F601168A36C061E0AE
:100F6000D60113968C910E943112F601818E928ED9
:100F7000A38EB48ED601858E968EA78EB0A21587CD
:100F800083E0848793890480F581E02D52968C91CB
:100F90005297913029F49181899FC001112411C089
:100FA00024E630E08901081B11094181409F90012E
:100FB000419F300D1124D60158963C932E9357979C
:100FC00004C058969C938E935797F601828593851B
:100FD0000097E9F14681578160857185950184010B
:100FE000041B150B260B370BA0E0B0E00817190700
:100FF0002A073B0760F186829782A086B18601901E
:10100000F081E02D0280F381E02DBE016F5F7F4F04
:10101000C6010995D301ED91FC910084F185E02D85
:10102000E12CF12C87019E012F5F3F4F41E0652DA0
:10103000C3010995813031F48AEF90E0F60193877E
:10104000828705C0D6011B961C921E921A970F909C
:101050000F90DF91CF911F910F91FF90EF90DF9054
:10106000CF90BF90AF909F908F907F906F905F9048
:101070000895CF93DF93EC01F90180818F3F29F52B
:1010800088ED91E00E94D0038D85823009F41C86A2
:1010900091E09C8B8B7F09F075C08B89813019F4AE
:1010A00084E68E8701C01E8681E08C878D89811140
:1010B00069C080EE91E00E94D0038B89813011F4E9
:1010C000188A60C084E6888B5DC0893C31F482EF69
:1010D00091E00E94D0031C864CC08695853608F0AE
:1010E00084E68E8788EF91E00E94D0034E85809140
:1010F000610290916202009731F050E060E070E090
:101100002AE00E9467118CE392E00E94D0038D894F
:10111000811114C08DE092E00E94D0038E85811170
:1011200003C084E6888B0AC0843611F4188A06C08E
:1011300094E6988B8F871E8681E08E8B8D858250FA
:101140008230C8F4CE010E9409018B89813029F4D4
:101150009E858889891748F406C0811106C09E853E
:101160008889981710F485E003C08D85833051F489
:101170008C8781E006C09E858889981719F081E0E8
:101180008C878C8BDF91CF9108950895FC0182812B
:10119000681790F423818481E22FF82FE60FF11D68
:1011A000E60FF11D80819181DC01ED91FC910280BF
:1011B000F381E02DBA010994DA011C9281E00895CF
:1011C000AF92BF92CF92DF92EF92FF920F931F9355
:1011D000CF93DF933091A10232FD23C0A22EB42E13
:1011E000D62EEC018D819E81009759F0DC01ED91A6
:1011F000FC910190F081E02D022F242F462FBE019B
:101200000995E881F9810484F585E02DC12CEE244F
:10121000EA94FE2C87012A2D4B2D6D2DCE010995C8
:1012200001C081E0DF91CF911F910F91FF90EF906E
:10123000DF90CF90BF90AF900895AF92CF92EF9292
:101240000F93FC0187819085009771F0AC2CCE2C18
:10125000E02E022F9A01AB01BF01DC01ED91FC9160
:101260000190F081E02D09950F91EF90CF90AF9014
:1012700008950895089580E0089508950F931F93A9
:10128000CF93DF931F92CDB7DEB7FB01211103C0CF
:101290006C3F734084F48F01CF0149830E94DC15B9
:1012A0006981681741F0C8010F90DF91CF911F91BC
:1012B0000F910C94E4150F90DF91CF911F910F9136
:1012C0000895CF93DF935091A10252FD1DC0EC0110
:1012D0008FEF9FEFDC01898B9A8BAB8BBC8B88EFF8
:1012E0008D8B83E0840F8E8B8BE48F8B688F198EB0
:1012F00050E0B901CE014A960E94601661E0CE012D
:10130000DF91CF910C94140581E0DF91CF91089586
:10131000CF92EF92FF920F931F93FC018091A10255
:1013200082FD1EC0E18AF28A038B148B88EF858BC5
:1013300084E0868B8BE4878B608FC18E211102C085
:1013400082E001C083E0440F440F480F428F61E008
:10135000CF011F910F91FF90EF90CF900C94140547
:1013600081E01F910F91FF90EF90CF900895EF9241
:10137000FF920F931F93CF93DF93EC018091A10213
:1013800082FD2EC0E98AFA8A0B8B1C8BEF28E02A9B
:10139000E12A71F4FE01E75AFF4F0190F081E02D40
:1013A00081819281A381B481898B9A8BAB8BBC8B19
:1013B00088EF8D8B82E0840F8E8B89E68F8B688F10
:1013C00050E0B901CE0149960E94601661E0CE015D
:1013D000DF91CF911F910F91FF90EF900C94140526
:1013E00081E0DF91CF911F910F91FF90EF900895D1
:1013F0001F920F920FB60F9211242F933F938F934A
:101400009F93AF93BF9380915D0290915E02A091F4
:101410005F02B091600230915C0223E0230F2D3710
:1014200020F40196A11DB11D05C026E8230F0296E8
:10143000A11DB11D20935C0280935D0290935E021A
:10144000A0935F02B093600280915802909159027C
:10145000A0915A02B0915B020196A11DB11D80932B
:10146000580290935902A0935A02B0935B02BF9125
:10147000AF919F918F913F912F910F900FBE0F9041
:101480001F901895CF93C82F8091610290916202AE
:101490000097D9F04C2F50E024E0559547952A95B8
:1014A000E1F7052E000C660B770B20E10E94671117
:1014B0004C2F4F7050E060E070E020E180916102BD
:1014C00090916202CF910C946711CF910895BF92D1
:1014D000CF92DF92EF92FF920F931F93CF93DF9300
:1014E0008C01F62ED42EE22EC32E809161029091B3
:1014F0006202892BD1F080ED90E00E946A028F2D6C
:101500000E94420A8EEC90E00E946A02BE2CCE2D10
:10151000DC2D8C2F8B198D1520F489910E94420AA5
:10152000F8CF8CE392E00E94D003F8018281F81694
:10153000F0F493818481E92FF82FEF0DF11DEF0D69
:10154000F11D80819181DC01ED91FC910190F08190
:10155000E02D2E2D3C2D4D2DB801DF91CF911F9107
:101560000F91FF90EF90DF90CF90BF900994DF91A3
:10157000CF911F910F91FF90EF90DF90CF90BF9090
:101580000895AF92BF92CF92DF92EF92FF920F93A6
:10159000CF93DF936B015A01E90121977B01C701CA
:1015A0008C199D09CF3FFFEFDF0759F00111CE01E4
:1015B0008A0D9B1D0E94DC15F70181937F01219705
:1015C000EECFDF91CF910F91FF90EF90DF90CF9012
:1015D000BF90AF900895EF92FF920F93CF93DF9358
:1015E00000D000D0CDB7DEB7FC01E85AFF4F208114
:1015F00030E07C0149E5E40EF11CD7016D917C914E
:1016000000E041E050E00E94C10AD701ED91FC9159
:1016100081819281A381B48189839A83AB83BC83C6
:101620008C818183D701ED91FC9111978B8182830D
:10163000ED91FC9111978A818383ED91FC918981D1
:1016400084838091A10281608093A1020F900F900A
:101650000F900F90DF91CF910F91FF90EF90089531
:101660008F929F92AF92BF92CF92DF92EF92FF92B2
:101670000F931F93CF93DF93EC018091A10280FF22
:1016800023C0E881F9810680F781E02DCE0109951C
:1016900010E08A81181798F49B818C81E92FF82F2C
:1016A000E10FF11DE10FF11D80819181DC01ED91D0
:1016B000FC910680F781E02D09951F5FEACF8091AC
:1016C000A1028E7F8093A102CE010E948A02FE01B8
:1016D000EA59FF4F80818823C9F110828E01095990
:1016E0001F4FF80180819181A281B381359740819C
:1016F00051816281738184179507A607B70729F086
:101700008F3F9F4FAF4FBF4F09F5CE010E94E105BC
:101710008823E1F04881598121E0F801808191819D
:10172000A281B3818F3F9F4FAF4FBF4F09F020E0A1
:10173000DA015296ED91FC915397DE01A559BF4F06
:101740004C91BE0164597F4FCE0109950E946112F0
:10175000683E73408105910580F08091A10281FD72
:101760000CC0CE010E94201191E0811190E0809187
:10177000A10290FB81F98093A102409157029B81C5
:101780008C81E92FF82FE40FF11DE40FF11D80810A
:101790009181DC01ED91FC910480F581E02DBE0189
:1017A0000995809157028F5F809357029A8189171C
:1017B00010F0109257028985882309F412C10E9403
:1017C00061126B017C0189859CEE980F9230C0F408
:1017D0008E50806480937C0080917A008064809336
:1017E0007A0080917A0086FDFCCF8091780020916C
:1017F000790090E0922B21E08A3F91053CF005C0F2
:101800000E94081221E0892B09F020E08E010D547E
:101810001F4FF80180818230C1F128F4882359F0EC
:10182000813069F09DC0843009F461C0E0F18530F9
:1018300009F47FC095C0222369F181E04DC08091F9
:101840004F0290915002A0915102B0915202460174
:101850005701881A990AAA0ABB0AD501C401222392
:1018600051F029E8821623E19206A104B1040CF498
:1018700077C082E05BC085369105A105B1050CF407
:101880006DC0CE010E94201169C0211169C083E0A2
:10189000F8018083C0924F02D0925002E092510230
:1018A000F09252025DC080914F0290915002A0913F
:1018B0005102B091520246015701881A990AAA0AA8
:1018C000BB0AD501C40184369105A105B1050CF40C
:1018D00047C0222321F084E0D8018C93DBCFE1E1E3
:1018E0008E16E7E29E06A104B104C4F539C08091CA
:1018F0004F0290915002A0915102B09152024601C4
:101900005701881A990AAA0ABB0AD501C40184366C
:101910009105A105B10524F1222301F129EB8216DD
:101920002BE09206A104B104DCF085E0D8018C9391
:1019300017C0211115C0A12CB12C20E04FEFB5012B
:10194000CE010E943E09BFEFAB1ABB0AECEFAE1608
:10195000E3E0BE0691F7CE010E94EB0AD8011C928B
:101960008A858823F1F140914B0250914C0260919D
:101970004D0270914E0246015701841A950AA60A3B
:10198000B70AB501A40145365105610571054CF151
:10199000D8019C91953040F4923090F4992339F01D
:1019A0009130F9F461E013C0953019F01AC060E08D
:1019B0000EC0BFEE8B16B2E09B06A104B1048CF002
:1019C0000E94081261E0892B09F060E08A850E947C
:1019D0003112C0924B02D0924C02E0924D02F09232
:1019E0004E020E9461120091530210915402209104
:1019F000550230915602DC01CB01801B910BA20BEA
:101A0000B30BCD97A105B10508F443C08B8588239E
:101A100009F19C8589130CC0DE01AB54BF4F9C912A
:101A2000992331F091E0FE01EC54FF4F90831C921A
:101A3000FE01ED54FF4F9081992319F09A85891783
:101A400049F08E010C541F4FF80160810E94311241
:101A5000D8011C928C85882391F09B85981779F08A
:101A6000FE01ED54FF4F9081992319F09A85891753
:101A700031F0CB54DF4F68810E94311218820E94EE
:101A800061126093530270935402809355029093B5
:101A90005602DF91CF911F910F91FF90EF90DF9051
:101AA000CF90BF90AF909F908F900895EF92FF924C
:101AB0000F931F93CF93DF93CDB7DEB764970FB625
:101AC000F894DEBF0FBECDBF8B01FC01EE59FF4F76
:101AD000608171818281938120E836E948E950E094
:101AE0000E9424169F938F937F936F938EE392E0CF
:101AF0009F938F93CE0101967C019F938F930E94B9
:101B0000701688E4F801808382E4818387E582830C
:101B1000D801139687E0F70101900D928A95E1F7BD
:101B20000FB6F894DEBF0FBECDBF64960FB6F89423
:101B3000DEBF0FBECDBFDF91CF911F910F91FF9000
:101B4000EF900895CF92DF92EF92FF920F931F9341
:101B5000CF93DF93EC010CEF13E060E070E0CB017A
:101B6000CC24D62EE72EF82EC8010E94DC15A70142
:101B70009601282BCA01B9010F5F1F4F011534E0F0
:101B8000130771F76F3F4FEF74078407940721F431
:101B90006FEF7FEF8FEF92E4FE01EE59FF4F60830E
:101BA000718382839383611571058105910511F01D
:101BB0000E94D3150E94CE15CF54DF4F24E630E0AB
:101BC00040E050E00E94F215DC01CB018E529F4FA5
:101BD000AF4FBF4F99838883DF91CF911F910F91B2
:101BE000FF90EF90DF90CF9008954F925F926F92A9
:101BF0007F928F929F92AF92BF92CF92DF92EF929D
:101C0000FF920F931F93CF93DF93222389F0DB0181
:101C10008C918A3539F08A3709F094C18091A102FC
:101C2000846003C08091A1028B7F8093A1028AC14E
:101C30002091A10222FD86C1F42E5B01EC014D85AD
:101C40005E856F857889498B5A8B6B8B7C8B88E797
:101C50008D8BF5018081833509F44AC1B0F483345A
:101C600009F453C040F4803491F1813409F053C138
:101C700089E68F8B53C18B3409F4ADC0823509F4EA
:101C8000C4C0853409F047C144C0833709F421C179
:101C900050F4883609F405C18E3609F40EC1873533
:101CA00009F039C1D4C0883709F413C18B3C09F459
:101CB00092C0863709F02FC185E990E00E946A0240
:101CC000FE01E45AFF4F808191819F8BFEC081818C
:101CD000813621F0CE010E94A20D1DC1B6E0FB129B
:101CE000F9CFE2E0AE0EB11C0CEF13E0D5014D913F
:101CF0005D0121E0B801CE010E943E090F5F1F4F38
:101D00000115B4E01B0791F7E5CFCE010E94EB0A65
:101D100002C1F501C380E4808E2D86958695869557
:101D20009E2D977011F48C5F01C08B5F8E8B4E8956
:101D300050E060E070E0CE0147960E94691685E6AB
:101D40008F8BD50111968C911197888F12968C915B
:101D50001297898F13968C918A8FD12C812C912C7C
:101D600000E010E0F12C412C512C32014394E0169C
:101D7000F1060CF4D3C0A12CB12CAC14BD0434F585
:101D8000C501880D991D0E94DC158F3FD9F0F8011F
:101D900033E0F595E7953A95E1F73496EC0FFD1FA2
:101DA000C80187709927A301920104C0220F331F35
:101DB000441F551F8A95D2F7DA01C9012789822B62
:101DC000878B04C03FEFA31AB30AD7CF0F5F1F4F13
:101DD0008C0C9D1CCCCFD50113968C91E881F98198
:101DE000B82FB170CB2EE82EF12CF594E794F59432
:101DF000E7940088F189E02DD50112960C91129795
:101E000011962C91CE01099586C0B4E0FB1283C0D7
:101E10008EEB90E00E946A02F501018110E0102F24
:101E200000278281082BF12CD50113968C91F8168E
:101E300008F04DC0CF2CD12CC601800F911F0E94FD
:101E4000DC15FE01EC0DFD1D878BF394EDCF2F2DDE
:101E500030E0838190E004962817390709F05BC0D1
:101E60008DEA90E00E946A02F501018110E0102FD6
:101E700000278281F4E0AF0EB11C082B84E0E82E2D
:101E8000E01A8E2D800F8F1508F045C0D5014D91B9
:101E90005D0120E0B801CE010E943E090F5F1F4F97
:101EA000F0CF8FE990E00E946A02FE01E95AFF4FED
:101EB00080818F8B3496808108C0BE01695E7F4F20
:101EC000CE010E94560D8AE002C0888F82E08E8B80
:101ED00025C0E881F98195012E5F3F4F4EEF4F0DF0
:101EE0000280F381E02DD50111966C91CE01099508
:101EF000F501618119E61F8B688FE881F981048003
:101F0000F581E02DAE01475E5F4FCE0109958E5FF2
:101F10008E8B1F8B03C089E18D8B1E8A60E0CE0102
:101F2000DF91CF911F910F91FF90EF90DF90CF90B5
:101F3000BF90AF909F908F907F906F905F904F90E9
:101F40000C941405DF91CF911F910F91FF90EF90AA
:101F5000DF90CF90BF90AF909F908F907F906F90C9
:101F60005F904F900895CF92DF92EF92FF920F9380
:101F70001F93CF93DF936C017A018B01C0E0D0E017
:101F8000CE15DF0589F0D8016D918D01D601ED9157
:101F9000FC910190F081E02DC6010995892B11F487
:101FA0007E0102C02196ECCFC701DF91CF911F9136
:101FB0000F91FF90EF90DF90CF900895FC01538D2B
:101FC000448D252F30E0842F90E0821B930B541713
:101FD00010F0CF96089501970895FC01918D828DA0
:101FE000981761F0828DDF01A80FB11D5D968C916D
:101FF000928D9F5F9F73928F90E008958FEF9FEF78
:102000000895FC01918D828D981731F0828DE80F33
:10201000F11D858D90E008958FEF9FEF0895FC01ED
:10202000918D228D892F90E0805C9F4F821B9109BA
:102030008F739927089582EB92E00E940F1021E0A0
:10204000892B09F420E0822F0895FC01848DDF01A3
:10205000A80FB11DA35ABF4F2C91848D90E001961B
:102060008F739927848FA689B7892C93A089B1890A
:102070008C9180648C93938D848D981306C0028814
:10208000F389E02D80818F7D80830895EF92FF9208
:102090000F931F93CF93DF93EC0181E0888F9B8D8B
:1020A0008C8D981305C0E889F989808185FD24C04D
:1020B000F62E0B8D10E00F5F1F4F0F731127E02ED0
:1020C0008C8DE8120CC00FB607FCFACFE889F989AD
:1020D000808185FFF5CFCE010E942510F1CF8B8D39
:1020E000FE01E80FF11DE35AFF4FF0820B8FEA89E2
:1020F000FB898081806207C0EE89FF896083E8895F
:10210000F98980818064808381E090E0DF91CF91C4
:102110001F910F91FF90EF900895CF93DF93EC0103
:10212000888D8823C9F0EA89FB89808185FD05C0F7
:10213000A889B9898C9186FD0FC00FB607FCF5CF31
:10214000808185FFF2CFA889B9898C9185FFEDCF79
:10215000CE010E942510E7CFDF91CF91089580E056
:1021600090E0892B29F00E941B1081110C94000033
:102170000895833081F028F4813099F08230A1F005
:1021800008958730A9F08830B9F08430D1F4809177
:1021900080008F7D03C0809180008F7780938000C6
:1021A000089584B58F7702C084B58F7D84BD08956E
:1021B0008091B0008F7703C08091B0008F7D8093B5
:1021C000B0000895CF93DF9390E0FC01EA5FFE4FEB
:1021D0002491FC01EE50FF4F8491882361F190E03F
:1021E000880F991FFC01EC52FF4FC591D491FC015F
:1021F000E252FF4FA591B491611109C09FB7F894C5
:102200008881209582238883EC912E230BC0623035
:1022100061F49FB7F8943881822F80958323888357
:10222000EC912E2B2C939FBF06C08FB7F894E881BA
:102230002E2B28838FBFDF91CF9108950E945B16CC
:10224000CF93DF93EC018FEF9FEFDC01898B9A8BAB
:10225000AB8BBC8B88EF8D8B80E18E8B81E48F8B79
:10226000188EFE01E95AFF4F8081898F3496808154
:102270008A8F3196808191819B8F8C8FBE01635EA6
:102280007F4FCE010E94560D8091A10282FD06C0B3
:1022900061E0CE01DF91CF910C94140581E0DF91D4
:1022A000CF9108956115710579F0FB01019000202F
:1022B000E9F73197AF01461B570BDC01ED91FC911B
:1022C0000280F381E02D099480E090E008954F9220
:1022D0005F926F927F92EF92FF920F931F93CF9333
:1022E000DF93CDB7DEB7A1970FB6F894DEBF0FBE70
:1022F000CDBF7C01FA01CB0119A2223008F42AE0FB
:102300008E010F5D1F4F422E512C612C712CBF018D
:10231000A30192010E942416F901CA01015011097A
:102320006A3014F4605D01C0695CD8016C93232BA2
:10233000242B252B61F7B801C7010E945211A196E9
:102340000FB6F894DEBF0FBECDBFDF91CF911F91C6
:102350000F91FF90EF907F906F905F904F90089556
:102360001F920F920FB60F9211242F933F934F930A
:102370005F936F937F938F939F93AF93BF93EF93ED
:10238000FF9382EB92E00E942510FF91EF91BF91A5
:10239000AF919F918F917F916F915F914F913F91FD
:1023A0002F910F900FBE0F901F9018951F920F92B4
:1023B0000FB60F9211242F938F939F93EF93FF9358
:1023C000E091C202F091C3028081E091C802F091D5
:1023D000C90282FD12C090818091CB028F5F8F7302
:1023E0002091CC02821751F0E091CB02F0E0EE5444
:1023F000FD4F958F8093CB0201C08081FF91EF91BB
:102400009F918F912F910F900FBE0F901F90189555
:10241000CF93DF93282F30E0F901E65EFE4F8491E1
:10242000F901EA5FFE4FD491F901EE50FF4FC491DC
:10243000CC2391F081110E94B910EC2FF0E0EE0F47
:10244000FF1FE851FF4FA591B491EC91ED2381E07E
:1024500090E021F480E002C080E090E0DF91CF9135
:1024600008951F93CF93DF93282F30E0F901E65EA4
:10247000FE4F8491F901EA5FFE4FD491F901EE50CD
:10248000FF4FC491CC23C9F0162F81110E94B910BF
:10249000EC2FF0E0EE0FFF1FE252FF4FA591B49139
:1024A0008FB7F894111105C09C91ED2FE095E923A9
:1024B00002C0EC91ED2BEC938FBFDF91CF911F9178
:1024C00008952FB7F89460915D0270915E0280913B
:1024D0005F02909160022FBF0895E2EBF2E0138259
:1024E000128288EE93E0A0E0B0E084839583A68317
:1024F000B7838EE191E09183808385EC90E09587AE
:10250000848784EC90E09787868780EC90E0918BBD
:10251000808B81EC90E0938B828B82EC90E0958BAA
:10252000848B86EC90E0978B868B118E128E138EA7
:10253000148E0895CF93DF93CDB7DEB760970FB6B3
:10254000F894DEBF0FBECDBF789484B5826084BDA1
:1025500084B5816084BD85B5826085BD85B58160A7
:1025600085BD80916E00816080936E001092810025
:1025700080918100826080938100809181008160E0
:1025800080938100809180008160809380008091A1
:10259000B10084608093B1008091B000816080932D
:1025A000B00080917A00846080937A0080917A00F4
:1025B000826080937A0080917A00816080937A00B3
:1025C00080917A00806880937A001092C100E09137
:1025D000C202F091C30282E08083E091BE02F091DA
:1025E000BF021082E091C002F091C10287E68083B1
:1025F0001092CA02E091C602F091C70286E280837F
:10260000E091C402F091C502808180618083E091F5
:10261000C402F091C502808188608083E091C40289
:10262000F091C502808180688083E091C402F091BE
:10263000C50280818F7D808388E0EAE0F1E0DE01E1
:10264000199601900D928A95E1F788E0E2E1F1E0B8
:10265000DE01119601900D928A95E1F7CE01019667
:102660007C014E0199E0890E911C92EA492E92E07C
:10267000592EC12CD12C20E3622E21E0722E34E0A1
:10268000A32E81E290E00E9453148C01D7018D911A
:102690007D01F40191914F01D80111967C926E92C7
:1026A00012969C93129713968C9313979601275921
:1026B0003D4F15963C932E9314971B961C921E9299
:1026C0001A97F801168217821086118661E00E941F
:1026D000E21060E0D80113968C910E94311261E003
:1026E000F80182810E94E21060E0D80112968C917C
:1026F0000E943112F801A486A586148A158A108AD0
:10270000128ABB24B394B38A168A1686D2010D931B
:102710001D932D01B7E0CB0ED11CE8E3CE16D104FA
:1027200009F0AFCF85E090E00E9453147C018CE368
:1027300091E0D70111969C938E9380E412968C932E
:10274000129786E290E014969C938E93139788EBF1
:1027500090E00E9453148C0182E491E0F80191838F
:102760008083EA54FF4F80E098E391838083EE55A5
:10277000F1098EE38083319683E692E09183808332
:1027800088E0D80112968C93129782EA92E0149610
:102790009C938E93139716961C921E9215971896DB
:1027A000FC92EE9217973296B082319684E190E0D7
:1027B00091838083329682EB92E0918380837801CB
:1027C000B0E6EB0EF11C82E0F701808361E00E942D
:1027D000E21060E0D7018C910E943112F801EA59B1
:1027E000FF4F1082E95BFF4F108211821282138229
:1027F000349682ED90E091838083EA55F10982E975
:102800008083C8010E94A20D1092620210926102A0
:10281000F8011186ED54FF4F1082D8011A961C92D0
:102820001A971C961C921C971B961C92C8010E941A
:10283000EB0A8091A1028D7F8B7F8093A1028AE5B4
:1028400091E0F801918380831093500300934F032C
:1028500084E1818760E00E94E2108DE0F82ED801CB
:102860001A96FC9261E08DE00E94E210F801F38676
:10287000F48661E08DE00E94E210D8011C968C91F4
:10288000882319F061E00E94E21080914F0390913B
:102890005003DC01ED91FC910190F081E02D099550
:1028A0000E94AF10F2CFCF93DF938230910510F4E6
:1028B00082E090E0E0915303F091540320E030E097
:1028C000C0E0D0E0309711F140815181481759079D
:1028D000C0F04817590761F482819381209719F05D
:1028E0009B838A832BC0909354038093530326C009
:1028F0002115310519F04217530718F49A01BE014A
:10290000DF01EF010280F381E02DDCCF21153105DD
:1029100009F1281B390B2430310590F412968D9162
:102920009C9113976115710521F0FB0193838283BC
:1029300004C09093540380935303FD01329644C026
:10294000FD01E20FF31F81939193225031092D93E2
:102950003C933AC02091510330915203232B41F410
:1029600020910201309103013093520320935103CF
:1029700020910001309101012115310541F42DB75D
:102980003EB74091040150910501241B350BE091A5
:102990005103F0915203E217F307A0F42E1B3F0BF3
:1029A0002817390778F0AC014E5F5F4F24173507C1
:1029B00048F04E0F5F1F5093520340935103819391
:1029C000919302C0E0E0F0E0CF01DF91CF91089554
:1029D0000F931F93CF93DF93009709F48CC0FC01F2
:1029E0003297138212820091530310915403011500
:1029F000110581F420813181820F931F20915103B1
:102A0000309152032817390779F5F0935203E09378
:102A1000510371C0D80140E050E0AE17BF0750F439
:102A200012962D913C911397AD012115310509F1B5
:102A3000D901F3CF9D01DA01338322836081718153
:102A4000860F971F8217930769F4EC01288139815B
:102A5000260F371F2E5F3F4F318320838A819B8152
:102A600093838283452B29F4F0935403E09353031B
:102A700042C01396FC93EE931297ED014991599140
:102A80009E01240F351FE217F30771F480819181B5
:102A9000840F951F029611969C938E938281938149
:102AA00013969C938E931297E0E0F0E0D801129673
:102AB0008D919C911397009719F0F8018C01F6CF36
:102AC0008D919C9198012E5F3F4F820F931F209113
:102AD0005103309152032817390769F4309729F4CC
:102AE000109254031092530302C013821282109367
:102AF000520300935103DF91CF911F910F910895DD
:102B00008F929F92AF92BF92CF92DF92EF92FF92FD
:102B1000CF93DF93EC01688179818A819B81611574
:102B200071058105910521F464E279ED8BE597E06B
:102B30002DE133EF41E050E00E94F21549015A01C6
:102B40009B01AC01A7EAB1E40E9411166B017C0164
:102B5000ACEEB4EFA50194010E941F16DC01CB017D
:102B60008C0D9D1DAE1DBF1DB7FF03C00197A109B0
:102B7000B04888839983AA83BB83BC01CD019F772A
:102B8000DF91CF91FF90EF90DF90CF90BF90AF900B
:102B90009F908F9008950E948015089586E091E09F
:102BA0000E94801508956093060170930701809339
:102BB0000801909309010895F999FECF92BD81BD56
:102BC000F89A992780B50895262FF999FECF1FBA54
:102BD00092BD81BD20BD0FB6F894FA9AF99A0FBE46
:102BE00001960895052E97FB1EF400940E94091685
:102BF00057FD07D00E94241607FC03D04EF40C9416
:102C0000091650954095309521953F4F4F4F5F4F96
:102C1000089590958095709561957F4F8F4F9F4F48
:102C200008950E944616A59F900DB49F900DA49FF5
:102C3000800D911D11240895B7FF0C9411160E9468
:102C40001116821B930B0895A1E21A2EAA1BBB1B1F
:102C5000FD010DC0AA1FBB1FEE1FFF1FA217B30768
:102C6000E407F50720F0A21BB30BE40BF50B661F7E
:102C7000771F881F991F1A9469F760957095809542
:102C800090959B01AC01BD01CF010895A29FB001B9
:102C9000B39FC001A39F700D811D1124911DB29F90
:102CA000700D811D1124911D0895EE0FFF1F0590D9
:102CB000F491E02D099481E090E0F8940C94481987
:102CC000FB01DC0102C001900D9241505040D8F749
:102CD0000895DC0101C06D9341505040E0F7089524
:102CE000AEE0B0E0E6E7F6E10C941F190D891E890D
:102CF00086E08C831A8309838FEF9FE79E838D8301
:102D0000AE01475E5F4F6F89788DCE0101960E94BC
:102D100093162F813885F801E20FF31F10822E964B
:102D2000E4E00C943B19ACE0B0E0E9E9F6E10C9486
:102D300011197C016B018A01FC01178216828381C3
:102D400081FFBDC1CE0101964C01F7019381F601CF
:102D500093FD859193FF81916F01882309F4ABC1A5
:102D6000853239F493FD859193FF81916F0185320E
:102D700029F4B70190E00E947B18E7CF512C312C49
:102D800020E02032A0F48B3269F030F4803259F028
:102D9000833269F420612CC08D3239F0803339F4EC
:102DA000216026C02260246023C0286021C027FD46
:102DB00027C030ED380F3A3078F426FF06C0FAE02D
:102DC0005F9E300D1124532E13C08AE0389E300DC3
:102DD0001124332E20620CC08E3221F426FD6BC1EB
:102DE000206406C08C3611F4206802C0883641F495
:102DF000F60193FD859193FF81916F018111C1CF00
:102E0000982F9F7D9554933028F40C5F1F4FFFE35C
:102E1000F9830DC0833631F0833771F0833509F0C3
:102E20005BC022C0F801808189830E5F1F4F44245C
:102E30004394512C540115C03801F2E06F0E711CFF
:102E4000F801A080B18026FF03C0652D70E002C0AC
:102E50006FEF7FEFC5012C870E9470182C01830152
:102E60002C852F77222E17C03801F2E06F0E711CCF
:102E7000F801A080B18026FF03C0652D70E002C07C
:102E80006FEF7FEFC5012C870E9465182C012C8500
:102E90002068222E830123FC1BC0832D90E048165E
:102EA0005906B0F4B70180E290E00E947B183A9492
:102EB000F4CFF50127FC859127FE81915F01B701D1
:102EC00090E00E947B1831103A94F1E04F1A5108BB
:102ED0004114510471F7E5C0843611F0893639F593
:102EE000F80127FF07C060817181828193810C5FA7
:102EF0001F4F08C060817181072E000C880B990B51
:102F00000E5F1F4F2F76722E97FF09C09095809508
:102F1000709561957F4F8F4F9F4F2068722E2AE0EA
:102F200030E0A4010E94B318A82EA81844C0853729
:102F300029F42F7EB22E2AE030E025C0F22FF97F4F
:102F4000BF2E8F36C1F018F4883579F0B4C08037C1
:102F500019F0883721F0AFC02F2F2061B22EB4FEB8
:102F60000DC08B2D8460B82E09C024FF0AC09F2F8E
:102F70009660B92E06C028E030E005C020E130E0C0
:102F800002C020E132E0F801B7FE07C06081718124
:102F9000828193810C5F1F4F06C06081718180E048
:102FA00090E00E5F1F4FA4010E94B318A82EA8182E
:102FB000FB2DFF777F2E76FE0BC0372D3E7FA514AD
:102FC00050F474FE0AC072FC08C0372D3E7E05C066
:102FD000BA2C372D03C0BA2C01C0B52C34FF0DC05C
:102FE000FE01EA0DF11D8081803311F4397E09C0A4
:102FF00032FF06C0B394B39404C0832F867809F0DF
:10300000B39433FD13C030FF06C05A2CB31418F428
:10301000530C5B18B32CB31468F4B70180E290E052
:103020003C870E947B18B3943C85F5CFB31410F411
:103030003B1801C0312C34FF12C0B70180E390E08F
:103040003C870E947B183C8532FF17C031FD03C0CE
:1030500088E790E002C088E590E0B7010CC0832FBC
:10306000867859F031FF02C08BE201C080E237FD63
:103070008DE2B70190E00E947B18A51438F4B701E7
:1030800080E390E00E947B185A94F7CFAA94F40151
:10309000EA0DF11D8081B70190E00E947B18A1101C
:1030A000F5CF332009F451CEB70180E290E00E94C1
:1030B0007B183A94F6CFF7018681978102C08FEF93
:1030C0009FEF2C96E2E10C942D19FC0105906150C4
:1030D00070400110D8F7809590958E0F9F1F08952E
:1030E000FC016150704001900110D8F780959095D7
:1030F0008E0F9F1F08950F931F93CF93DF93FB01B4
:10310000238121FD03C08FEF9FEF28C022FF16C04F
:1031100046815781248135814217530744F4A081A9
:10312000B1819D012F5F3F4F318320838C93268196
:1031300037812F5F3F4F3783268310C0EB01092F64
:10314000182F0084F185E02D0995892BE1F68E81F9
:103150009F8101969F838E83812F902FDF91CF9146
:103160001F910F910895FA01AA27283051F12031BB
:1031700081F1E8946F936E7F6E5F7F4F8F4F9F4F0B
:10318000AF4FB1E03ED0B4E03CD0670F781F891F4D
:103190009A1FA11D680F791F8A1F911DA11D6A0F1B
:1031A000711D811D911DA11D20D009F468943F91CE
:1031B0002AE0269F11243019305D3193DEF6CF01CD
:1031C0000895462F4770405D4193B3E00FD0C9F793
:1031D000F6CF462F4F70405D4A3318F0495D31FD00
:1031E0004052419302D0A9F7EACFB4E0A695979553
:1031F000879577956795BA95C9F700976105710529
:1032000008959B01AC010A2E069457954795379572
:103210002795BA95C9F7620F731F841F951FA01DCC
:1032200008952F923F924F925F926F927F928F926A
:103230009F92AF92BF92CF92DF92EF92FF920F9345
:103240001F93CF93DF93CDB7DEB7CA1BDB0B0FB64F
:10325000F894DEBF0FBECDBF09942A88398848880C
:103260005F846E847D848C849B84AA84B984C884A2
:10327000DF80EE80FD800C811B81AA81B981CE0F99
:10328000D11D0FB6F894DEBF0FBECDBFED0108957E
:04329000F894FFCFE0
:103294000000550380000100000009070503121017
:1032A4000F0B0A08060413110E0C00000000461050
:1032B400B30FDE0F8D100F10ED0F01100000000092
:1032C400390866014C06E600000000008301000096
:1032D4000000300B670AC608C508B709E00888096A
:1032E40061091D09F50D00000000300B670AC608CE
:1032F4000101B709E008880961091D09F50D3A00C3
:103304005265666572656E636520706F7369746972
:103314006F6E20726561636865642E20506F7369F7
:1033240074696F6E206973206B6E6F776E2E0A005E
:103334005265666572656E636520706F7369746942
:103344006F6E20726561636865642E204D6F7669C7
:103354006E6720746F2074617267657420706F7378
:103364006974696F6E2E0A00546F67676C650A0092
:10337400506F736974696F6E20756E6B6E6F776EC4
:103384000A0053746F700A00526571756573746531
:103394006420506F736974696F6E3A2000506F73C4
:1033A4006974696F6E20756E6B6E6F776E2E204D2B
:1033B4006F76696E6720746F207265666572656EDC
:1033C400636520706F736974696F6E2E0A0025300F
:0433D400376C7500DD
:00000001FF
