:100000000C9498000C94C0000C94C0000C942B0C21
:100010000C94210C0C94170C0C94C0000C94C00090
:100020000C94C0000C94C0000C94C0000C94C00050
:100030000C94C0000C94C0000C94C0000C94C00040
:100040000C9465110C94C0000C94CE100C94A81064
:100050000C94C0000C94C0000C94C0000C94C00020
:100060000C94C0000C94C000453A204352430A004F
:100070000A00453A204D7367546F6F4C6F6E670AE4
:10008000003A00523A2000543A2046575665720A08
:1000900000543A2048575665722C5479700A004330
:1000A0003A20577269746520454550524F4D0A00F9
:1000B000433A205265616420454550524F4D0A0035
:1000C0002000533A2000523A2041434B0A000A00D4
:1000D000543A200000000000240027002A000000FD
:1000E0000000250028002B0000000000230026004F
:1000F00029000404040404040404020202020202AB
:1001000003030303030301020408102040800102DB
:10011000040810200102040810200000000800025A
:100120000100000304070000000000000000CF11E0
:1001300011241FBECFEFD8E0DEBFCDBF12E0A0E09C
:10014000B1E0E6E1F1E302C005900D92A234B107FF
:10015000D9F723E0A2E4B2E001C01D92AD34B207AA
:10016000E1F710E0C8E9D0E004C02197FE010E9449
:100170009615C739D107C9F70E94FC110C9489184C
:100180000C9400000895FC018281681790F423818B
:100190008481E22FF82FE60FF11DE60FF11D80811B
:1001A0009181DC01ED91FC910280F381E02DBA0197
:1001B0000994DA011C9281E00895AF92BF92CF9228
:1001C000DF92EF92FF920F931F93CF93DF93EC0197
:1001D000D62EB42EA22E8D819E81009759F0DC017F
:1001E000ED91FC910190F081E02D022F242F462FFC
:1001F000BE010995E881F9810484F585E02DC12CC3
:10020000EE24EA94FE2C87012A2D4B2D6D2DCE0174
:100210000995DF91CF911F910F91FF90EF90DF90A3
:10022000CF90BF90AF900895CF92EF920F93FC01C3
:1002300087819085009769F0CE2CE02E022F9A01DD
:10024000AB01BF01DC01ED91FC910190F081E02D4B
:1002500009950F91EF90CF900895089580E008954B
:100260000895CF92EF92FF920F931F93FC01E08AC3
:10027000F18A028B138B88EF848B84E0858B8BE46F
:10028000868B678BC08E211102C082E001C083E0A3
:10029000440F440F480F418F61E0CF011F910F9130
:1002A000FF90EF90CF900C944F0BCF93DF93EC0126
:1002B0008FEF9FEFDC01888B998BAA8BBB8B88EF2C
:1002C0008C8B83E0840F8D8B8BE48E8B6F8B188EE1
:1002D00050E0B901CE0149960E94A11561E0CE011E
:1002E000DF91CF910C944F0BEF92FF920F931F93DE
:1002F000CF93DF93EC01E88AF98A0A8B1B8BEF28F6
:10030000E02AE12A71F4FC01E85AFF4F0190F081E4
:10031000E02D81819281A381B481888B998BAA8BF6
:10032000BB8B88EF8C8B82E0840F8D8B89E68E8B64
:100330006F8B50E0B901CE0148960E94A11561E093
:10034000CE01DF91CF911F910F91FF90EF900C9410
:100350004F0BEF92FF920F931F93CF93DF93CDB785
:10036000DEB764970FB6F894DEBF0FBECDBF8B012A
:10037000FC01EF59FF4F608171818281938120E8F8
:1003800036E948E950E00E9465159F938F937F936B
:100390006F938CE691E09F938F93CE0101967C0141
:1003A0009F938F930E94B11588E4F801808382E4C3
:1003B000818387E58283D801139687E0F701019056
:1003C0000D928A95E1F70FB6F894DEBF0FBECDBF50
:1003D00064960FB6F894DEBF0FBECDBFDF91CF910C
:1003E0001F910F91FF90EF9008950F931F93CF935C
:1003F000DF931F92CDB7DEB7FB01211103C06C3F25
:10040000734084F48F01CF0149830E941D156981D7
:10041000681741F0C8010F90DF91CF911F910F91A4
:100420000C9425150F90DF91CF911F910F91089596
:10043000CF93C82F80915102909152020097D9F02A
:100440004C2F50E024E0559547952A95E1F7052E6D
:10045000000C660B770B20E10E945F104C2F4F7051
:1004600050E060E070E020E18091510290915202F2
:10047000CF910C945F10CF910895BF92CF92DF92ED
:10048000EF92FF920F931F93CF93DF938C01F62E81
:10049000D42EE22EC32E8091510290915202892BCC
:1004A000D1F082EC90E00E94AF118F2D0E941802D3
:1004B00080EC90E00E94AF11BE2CCE2DDC2D8C2F55
:1004C0008B198D1520F489910E941802F8CF80E4D1
:1004D00092E00E94350CF8018281F816F0F49381C5
:1004E0008481E92FF82FEF0DF11DEF0DF11D8081B3
:1004F0009181DC01ED91FC910190F081E02D2E2D98
:100500003C2D4D2DB801DF91CF911F910F91FF90A0
:10051000EF90DF90CF90BF900994DF91CF911F9122
:100520000F91FF90EF90DF90CF90BF900895AF9222
:10053000BF92CF92DF92EF92FF920F93CF93DF9310
:100540006B015A01E90121977B01C7018C199D09B3
:10055000CF3FFFEFDF0759F00111CE018A0D9B1D40
:100560000E941D15F70181937F012197EECFDF9146
:10057000CF910F91FF90EF90DF90CF90BF90AF9011
:100580000895CF92DF92EF92FF920F93CF93DF9374
:1005900000D000D0CDB7DEB77C01FC01E95AFF4F97
:1005A000208130E06C0188E5C80ED11CD6016D9128
:1005B0007C9100E041E050E0C7010E949702D60123
:1005C000ED91FC9181819281A381B48189839A8389
:1005D000AB83BC838C818183D601ED91FC91119713
:1005E0008B818283ED91FC9111978A818383ED91B8
:1005F000FC9189818483D701ED91FC910680F7817C
:10060000E02DC7010F900F900F900F90DF91CF91C9
:100610000F91FF90EF90DF90CF900994CF92DF92EF
:10062000EF92FF920F931F93CF93DF93EC010CEFA8
:1006300013E060E070E0CB01CC24D62EE72EF82E3C
:10064000C8010E941D15A7019601282BCA01B901F6
:100650000F5F1F4F011534E0130771F76F3F4FEF26
:1006600074078407940721F46FEF7FEF8FEF92E414
:10067000FE01EF59FF4F608371838283938361157D
:1006800071058105910511F00E9414150E940F1546
:10069000C055DF4F24E630E040E050E00E943315C3
:1006A000DC01CB018E529F4FAF4FBF4F99838883A0
:1006B000DF91CF911F910F91FF90EF90DF90CF903E
:1006C00008954F925F926F927F928F929F92AF9216
:1006D000BF92CF92DF92EF92FF920F931F93CF932F
:1006E000DF93211183C1F42E6B01EC014C855D85F4
:1006F0006E857F85488B598B6A8B7B8B88E78C8BCB
:10070000D6018C91833509F447C1B0F4833409F4E0
:1007100054C040F4803491F1813409F050C189E62D
:100720008E8B50C18B3409F4AFC0823509F4BFC041
:10073000853409F044C145C0833709F41EC150F423
:10074000883609F402C18E3609F40BC1873509F0E9
:1007500036C1CFC0883709F410C18B3C09F494C06E
:10076000863709F02CC187E890E00E94AF11FE01A6
:10077000E55AFF4F808191819E8BFBC0F6018181FC
:10078000813621F0CE010E940E0319C1F6E0FF125E
:10079000F9CF22E0C20ED11C0CEF13E0D6014D912F
:1007A0006D0121E0B801CE010E94F5010F5F1F4FDE
:1007B0000115B4E01B0791F7E5CFCE010E94C102FD
:1007C000FEC0F601A380F4808F2D869586958695D0
:1007D0009F2D977011F48C5F01C08B5F8D8B4D89BD
:1007E00050E060E070E0CE0146960E94AA1585E6D2
:1007F0008E8BD60111968C9111978F8B12968C91BE
:100800001297888F13968C91898FB12C812C912C03
:1008100000E010E0CF2CD12C412C512C320143941C
:10082000C016D1060CF4CEC0E12CF12CEA14FB0466
:1008300034F5C701880D991D0E941D158F3FD9F011
:10084000F80123E0F595E7952A95E1F73496EC0F4A
:10085000FD1FC80187709927A301920104C0220FD0
:10086000331F441F551F8A95D2F7DA01C901268923
:10087000822B868B04C03FEFE31AF30AD7CF0F5FBA
:100880001F4F8A0C9B1CCCCFE881F981D6011396AF
:100890008C9113978170E82E0088F189E02D1296D3
:1008A0000C91129711962C91CE01099588C0B4E055
:1008B000FB1285C080EB90E00E94AF11F601018130
:1008C00010E0102F00278281082BF12CD6011396FF
:1008D0008C91F81608F04FC0AF2CB12CC501800FD9
:1008E000911F0E941D15FE01EA0DFB1D868BF394DE
:1008F000EDCF2F2D30E0D60113968C9190E0049629
:100900002817390709F05BC08FE990E00E94AF110A
:10091000F601018110E0102F00278281F4E0CF0E54
:10092000D11C082B84E0E82EE01A8E2D800F8F1545
:1009300008F045C0D6014D916D0120E0B801CE010F
:100940000E94F5010F5F1F4FF0CF81E990E00E94F8
:10095000AF11FE01EA5AFF4F80818E8B3496808161
:1009600008C0BE016A5E7F4FCE010E94A9018AE0E5
:1009700002C08F8B82E08D8B25C0E881F9819601C2
:100980002E5F3F4F4EEF4F0D0280F381E02DD601D9
:1009900011966C91CE010995F601618119E61E8BC5
:1009A0006F8BE881F9810480F581E02DAE01485E0E
:1009B0005F4FCE0109958E5F8D8B1E8B03C089E141
:1009C0008C8B1D8A60E0CE01DF91CF911F910F913A
:1009D000FF90EF90DF90CF90BF90AF909F908F905F
:1009E0007F906F905F904F900C944F0BDF91CF9161
:1009F0001F910F91FF90EF90DF90CF90BF90AF903D
:100A00009F908F907F906F905F904F900895FA0124
:100A100028E040815181CA01880F991F67FD8160DC
:100A20009183808357FF08C08081918132E08327C2
:100A300030E1932791838083660F215051F7089509
:100A40003F924F925F926F927F928F929F92AF925E
:100A5000BF92CF92DF92EF92FF920F931F93CF93AB
:100A6000DF93EC015C018DE5A80EB11C3E019CEA10
:100A7000690E711C8E01005A1F4FDE01A659BF4F2F
:100A80007D0144244A9435E0332E6E01B6E6CB0E48
:100A9000D11C88248A94982CD5018D919C91DC01DD
:100AA000ED91FC910084F185E02D0995892B09F4E5
:100AB000DDC00E945911F3016083718382839383A7
:100AC000D5018D919C91DC01ED91FC910284F3851F
:100AD000E02D0995582EBDEF8B1303C083E890E0FD
:100AE00002C081E890E00E94AF11852D0E9418029B
:100AF000ECEF5E1207C0D8018C9181FD24C08260AA
:100B00008C93CACFBDEF5B121EC0F80180818D7F30
:100B10008160808310924602109245021C861D86D9
:100B20001E861F86D6011D921D921D921C92139740
:100B3000909244028092430243E452E06DEFCE0172
:100B40000E940705A9CFF801808180FFA5CF81FF12
:100B500006C0F52DF0685F2E8D7FD8018C9343E49D
:100B600052E0652DCE010E94070580914502843038
:100B700078F4F6014081518162817381762F652F6F
:100B8000542F4427452940835183628373831AC0BD
:100B9000843029F430924502509242027DCF409138
:100BA000420243FF13C0893088F44C855D856E8511
:100BB0007F85762F652F542F442745294C875D87E5
:100BC0006E877F878F5F8093450266CF8F3F79F076
:100BD00040924502F7015082F0E4F51508F05CCF31
:100BE000D8018C918E7F8C9382E790E03CC08091FD
:100BF0004602FE01E80FF11DE559FF4F508291E0DA
:100C0000980F90934602F7012081921345CF2091CF
:100C1000430230914402232B21F5D8019C919E7F01
:100C20009C93FE01E555FF4F40838150F70180837F
:100C3000CB59DF4F81E0888380E790E0DF91CF914F
:100C40001F910F91FF90EF90DF90CF90BF90AF90EA
:100C50009F908F907F906F905F904F903F900C94FB
:100C6000AF1188E690E00E94AF1116CFDF91CF91CF
:100C70001F910F91FF90EF90DF90CF90BF90AF90BA
:100C80009F908F907F906F905F904F903F900895CE
:100C9000CF92DF92EF92FF920F931F93CF93DF9348
:100CA000EC010E942005FE01EB59FF4F8081882353
:100CB000C9F110828E010A591F4FF801808191817C
:100CC000A281B381359740815181628173818417FC
:100CD0009507A607B70729F08F3F9F4FAF4FBF4F2C
:100CE00009F5CE010E94E90A8823E1F04881598183
:100CF00021E0F80180819181A281B3818F3F9F4FD4
:100D0000AF4FBF4F09F020E0DA015296ED91FC9110
:100D10005397DE01A659BF4F4C91BE0165597F4FD5
:100D2000CE0109950E945911683E734081059105D5
:100D300060F180914702811128C08FEF9FEFDC01A5
:100D4000888B998BAA8BBB8B88EF8C8B80E18D8BEA
:100D500081E48E8B1F8AFE01EA5AFF4F8081888FC3
:100D6000198E3596808191819A8F8B8FBE01645E3A
:100D70007F4FCE010E94A90161E0CE010E944F0B7E
:100D800091E0811190E090934702F12C8A81F8164E
:100D9000A8F49B818C81E92FF82FEF0DF11DEF0D49
:100DA000F11D80819181DC01ED91FC910480F58140
:100DB000E02D4F2DBE010995F394E8CF89858F3F33
:100DC00009F448C10E9459116B017C018B8588236D
:100DD000E1F089858E3008F08E50877080648093B2
:100DE0007C0080917A00806480937A0080917A0000
:100DF00086FDFCCF809178002091790090E0922BC5
:100E000021E08132934044F406C089850E9400119C
:100E100021E0892B09F020E080915002823009F412
:100E200067C028F4882361F08130C1F0BAC08430F3
:100E300009F482C008F460C0853009F49DC0B1C0D7
:100E4000222319F081E080935002C0924C02D0928C
:100E50004D02E0924E02F0924F02A3C080914C02EC
:100E600090914D02A0914E02B0914F02222381F049
:100E700097018601081B190B2A0B3B0BD901C801EE
:100E800089389341A105B1050CF48BC082E071C093
:100E9000A7019601281B390B4A0B5B0B2536310540
:100EA000410551050CF47BC08FEF9FEFDC01888B6F
:100EB000998BAA8BBB8B88EF8C8B80E18D8B81E427
:100EC0008E8B1F8AFE01EA5AFF4F8081888F198E10
:100ED0003596808191819A8F8B8FBE01645E7F4FA2
:100EE000CE010E94A90161E0CE010E944F0B57C0C4
:100EF000211157C083E0A7CF80914C0290914D0201
:100F0000A0914E02B0914F02B701A601481B590BA8
:100F10006A0B7B0BDB01CA01443651056105710583
:100F20000CF43FC0222311F084E08DCF8131974231
:100F3000A105B105A4F535C080914C0290914D02F8
:100F4000A0914E02B0914F02B701A601481B590B68
:100F50006A0B7B0BDB01CA01443651056105710543
:100F600004F12223E1F0893B9B40A105B105CCF0BF
:100F700085E08093500215C0211113C000E010E0FD
:100F800020E04FEFB801CE010E94F5010F5F1F4F27
:100F90000C3F63E01607A1F7CE010E94C102109238
:100FA00050028A858F3F09F455C0909150029530C8
:100FB00048F49230A8F4992341F0913009F04AC0E6
:100FC00061E004C0953001F145C060E0DF91CF9150
:100FD0001F910F91FF90EF90DF90CF900C9429110B
:100FE000409148025091490260914A0270914B022F
:100FF00097018601041B150B260B370B05361105CF
:10100000210531053CF115C040914802509149023B
:1010100060914A0270914B0297018601041B150BE7
:10102000260B370BB901A8014F3E524061057105EF
:101030008CF00E94001161E0892B09F060E08A8544
:101040000E942911C0924802D0924902E0924A02BD
:10105000F0924B02DF91CF911F910F91FF90EF9093
:10106000DF90CF900895FF920F931F93CF93DF935C
:1010700000D0CDB7DEB78C01F62E82E791E0498330
:101080005A830E94350C8F2D0E94180249815A8183
:101090004115510521F06F2DC8010E940705035A23
:1010A0001F4F84E08F0D833070F4D8018D919C9197
:1010B000DC01ED91FC910190F081E02D6CEF099540
:1010C000BF2DBF77FB2EF80180819181DC01ED916E
:1010D000FC910190F081E02D6F2D0F900F90DF912A
:1010E000CF911F910F91FF90099420E001972FEF6E
:1010F0008F3F9207D9F70895089580E090E0089512
:10110000CF92DF92EF92FF921F93CF93DF93EC0188
:1011100039892F898A819B81AC81BD81CD8CDE8C00
:10112000EF8CF8A0E885F985333039F51D89BC01CD
:10113000CD016C197D098E099F0921110EC02381F3
:10114000348140E050E00E946515121B153610F402
:101150001C8B01C01C8A1E8A2EC02581368140E06E
:1011600050E00E946515120F153610F41C8B02C05A
:1011700084E68C8B84E68E8B1EC01E89BC01CD015B
:101180006C197D098E099F0921110BC0218130E066
:1011900040E050E00E946515121B1E8B1536D8F6F4
:1011A0000AC0218130E040E050E00E946515120F36
:1011B0001E8B1536F8F6DF91CF911F91FF90EF90BF
:1011C000DF90CF9008950F931F93CF93DF93EC019F
:1011D0008B018889811105C0CE010E9480088C890D
:1011E00006C08A8D882311F08B8901C08A89880FF7
:1011F000F801808381E0DF91CF911F910F910895D5
:10120000809153028F3F19F484E180935302EAE501
:10121000F2E088EC90E024E1448155814F3F5F4F3C
:1012200011F495838483428153814F3F5F4F11F4C2
:101230009383828330813F3F09F42083379632E0E5
:10124000E239F30749F708954F925F926F927F92C8
:10125000AF92BF92CF92DF92FF920F931F93CF93E3
:10126000DF9300D0CDB7DEB78C018FEF9FEF9A836D
:101270008983F80180899189A289B3898F3F9F4F23
:10128000AF4FBF4FA1F0F801E555FF4F808190E0CF
:1012900095958795837020E2829FC0011124D80123
:1012A00054969C9154979F79892B54968C9380EDFA
:1012B00090E00E94AF116801BFE5CB0ED11C61E048
:1012C000F60180810E9429118DEF0E9418025801B9
:1012D000FDE5AF0EB11CD5018D919C91DC01ED9126
:1012E000FC910190F081E02D6DEF0995AE014F5F0B
:1012F0005F4F6DEFC8010E940705F80140885188D3
:101300006288738854E0F52E672D77278827992700
:10131000AE014F5F5F4FC8010E943308762C652CE9
:10132000542C4424FA94F110EFCFAE014F5F5F4F7D
:10133000D80154966C91C8010E943308F801848941
:1013400083FD0CC0D80155966C916E5FAE014F5F66
:101350005F4FC8010E943308F12C1BC0F801EF5900
:10136000FF4F408051806280738024E0F22E672D11
:10137000772788279927AE014F5F5F4FC8010E94EA
:101380003308762C652C542C4424FA94F110EFCFBA
:10139000D9CFF8018589F81660F4F801EF0DF11D39
:1013A000AE014F5F5F4F6689C8010E943308F39416
:1013B000F0CFAE014F5F5F4F60E0C8010E940705AC
:1013C000AE014F5F5F4F60E0C8010E9407056A8170
:1013D00040E050E0C8010E94330840E050E06981DD
:1013E000C8010E943308D5018D919C91DC01ED91DB
:1013F000FC910680F781E02D099560E0F60180817F
:101400000E942911F801E05AFF4F80818860808393
:101410008EEC90E00E94AF110F900F90DF91CF9172
:101420001F910F91FF90DF90CF90BF90AF907F9072
:101430006F905F904F9008952F923F924F925F92DE
:101440006F927F928F929F92AF92BF92CF92DF92D4
:10145000EF92FF920F931F93CF93DF93CDB7DEB739
:1014600027970FB6F894DEBF0FBECDBF3C015B01DE
:1014700019012A01F02E10E039ECD32EF3018281FC
:10148000181708F08DC027E0129F40011124D301E6
:1014900013964D915C911497480D591D01E024E07D
:1014A00030E0BE016F5F7F4FC5010E9497028981C6
:1014B0009A81AB81BC818F3FEFEF9E07AE07BE07DD
:1014C00009F46CC082159305A405B50509F066C042
:1014D000D30113964D915C9114974C5F5F4F480D6B
:1014E000591D00E021E030E0BE01695F7F4FC5017A
:1014F0000E9497028F818F1151C0F3014381548163
:101500004B5F5F4F480D591D21E030E0BE01695F20
:101510007F4FC5010E9497028F818E113FC0D3017A
:1015200013964D915C9114974A5F5F4F480D591D7A
:1015300021E030E0BE016A5F7F4FC5010E94970243
:101540008E81CC2031F090E023E0959587952A9507
:10155000E1F787708E838E81823079F030F48823B2
:1015600049F0813071F4DD820CC0833041F0843069
:10157000A9F007C0B8ECBD8304C01D8202C0EFEF24
:10158000ED83D501ED91FC910280F381E02D9E0168
:101590002B5F3F4F41E06E2DC50109951F5F6ECF58
:1015A00027960FB6F894DEBF0FBECDBFDF91CF9167
:1015B0001F910F91FF90EF90DF90CF90BF90AF9071
:1015C0009F908F907F906F905F904F903F902F9063
:1015D0000895EF92FF920F931F93CF93DF93EC0147
:1015E0008C01005A1F4FF80180819E0125553F4F05
:1015F000790183FF26C0F901808190E025E095956F
:1016000087952A95E1F7282F23708C8990E095958E
:1016100087958370281315C04C855D856E857F8501
:1016200088899989AA89BB89481759076A077B075E
:1016300041F486EC90E00E94AF11F8018081877F31
:101640008083F701808183708130F9F0FE01E659D3
:10165000FF4F808181111BC0349780819181A281CD
:10166000B3818F3F9F4FAF4FBF4F89F08C859D85D2
:10167000AE85BF85888B998BAA8BBB8B89E18C8BC0
:101680001D8A60E0CE010E944F0B80E001C081E026
:10169000DF91CF911F910F91FF90EF9008954F929E
:1016A0005F926F927F928F929F92AF92BF92CF92F2
:1016B000DF92EF92FF920F931F93CF93DF93EC0192
:1016C000862E662379F10E945911FE01E455FF4FE1
:1016D0000081118122813381AB01BC01401B510B80
:1016E000620B730B8E0100551F4FF80180819181B1
:1016F000A0E0B0E0481759076A077B0710F481E0C3
:1017000085C00E940F1524E630E040E050E00E94C2
:101710003315DC01CB018E529F4FAF4FBF4FF80105
:101720009183808388899989AA89BB898F3F9F4F3C
:10173000AF4FBF4F09F45CC08C898370813009F4CE
:1017400057C083E0982E8E010B591F4F7E0126E66D
:10175000E20EF11C6E0181E6C80ED11C5E01E0E6CE
:10176000AE0EB11CCE010E9424090E9459112B011A
:101770003C010E945911DC01CB0184199509A6098D
:10178000B709883C9105A105B10510F5CE010E946D
:101790002005F8018081882361F3F70140815181A0
:1017A00062817381F60180819181A281B3814817A2
:1017B00059076A077B07E9F6F8011082CE010E94FB
:1017C000E90AF5019081892F887093FDD2CF1EC060
:1017D0008820C1F00E945911DC01CB0184199509C0
:1017E000A609B70986399105A105B10558F487CF37
:1017F000CE010E942409C05ADF4F8881877F8883E9
:1018000080E004C09A949110ADCF82E0DF91CF9137
:101810001F910F91FF90EF90DF90CF90BF90AF900E
:101820009F908F907F906F905F904F9008951F9240
:101830000F920FB60F9211240F900FBE0F901F90B2
:1018400018951F920F920FB60F9211240F900FBE92
:101850000F901F9018951F920F920FB60F921124A0
:101860000F900FBE0F901F901895BC0180915102F0
:1018700090915202009711F00C944A1008954F92E3
:101880005F926F927F929F92AF92BF92CF92DF92C0
:10189000EF92FF920F931F93CF93DF9300D0CDB7BA
:1018A000DEB76C015B01942E0E945911D60112968D
:1018B0006D937D938D939C93159758964C91589763
:1018C0004130B9F091960D911D912D913C919497D5
:1018D000DC01CB01801B910BA20BB30BF601038D36
:1018E000148D20E030E080179107A207B30708F4B9
:1018F00077C1D60150961C91123009F435C130F4ED
:10190000112309F4A5C01130A1F16AC11430D1F03E
:1019100008F456C0153009F063C161E0F601878113
:101920000E942911F60182819381A481B58181A34E
:1019300092A3A3A3B4A3118B81E0808B108E80E2CD
:1019400093E04CC161E0F60186810E942911D60125
:1019500051961C93519712968D919D910D90BC912B
:10196000A02DF60181A392A3A3A3B4A380E29EE4D9
:1019700035C1D60152969C91529754968C915497AA
:10198000891718F457961C9302C0F601178AD601DE
:1019900057966C91579716968C910E94291181E069
:1019A000F601818B82E0808B108E82819381A481ED
:1019B000B58181A392A3A3A3B4A388EC90E00EC148
:1019C00060E0D60117968C910E942911F601828160
:1019D0009381A481B581858F968FA78FB0A381A3B2
:1019E00092A3A3A3B4A32489258B83E0818B108ABF
:1019F0009789828930E00084F185E02D911105C03E
:101A0000281B31096381748108C0482F50E02A01E6
:101A1000421A530A920165817681269FA001279F71
:101A2000500D369F500D1124D6015C965C934E9359
:101A30005B97882311F0843639F4F601838D948DF9
:101A400088519C4F948F838FD60158961C92C8C0A2
:101A5000F601413059F4108EC6010E948008D6016B
:101A600054968C91549752968C9319C08289848B8A
:101A70009789911102C0168A02C094E6968BF601EE
:101A8000918D91110CC0882311F0843641F484E7C4
:101A900091E00E94350C81E0D60159968C93F601B5
:101AA00086859785892B39F50084F185E02D808125
:101AB00080FF21C0D6015A968C915A9781111BC084
:101AC00012968D919D910D90BC91A02DF60182876B
:101AD0009387A487B587F501E85AFF4F0190F081FD
:101AE000E02D8081F4E68F9FC0011124D6011F965E
:101AF0009C938E931E9761E0F60187810E942911C5
:101B0000D60151961C92519784E050968C93509731
:101B100012968D919D910D90BC91A02DF60181A3FF
:101B200092A3A3A3B4A388EC90E0948F838F828DBB
:101B3000882309F455C084EA91E00E94350CD6014F
:101B400053968C91880F8A83D501ED91FC91028088
:101B5000F381E02D9E012E5F3F4F41E0692DC501CD
:101B60000995F601128E3CC060E0D60117968C9163
:101B70000E942911F60182819381A481B581858F0C
:101B8000968FA78FB0A381A392A3A3A3B4A3118B15
:101B900083E0808B97890084F185E02DD6015696ED
:101BA0008C915697911109C09181899FC001112490
:101BB0005C969C938E935B9713C024E630E02901DA
:101BC000481A51084181449D9001459D300D1124D2
:101BD000D6015C963C932E935B9702C0948F838FC3
:101BE000D6011E968D919C911F97009709F447C0CE
:101BF00012964D915D916D917C9115971A960D916C
:101C00001D912D913C911D972A013B01401A510ACB
:101C1000620A730AA0E0B0E0481659066A067B061D
:101C200070F1D6011A964D935D936D937C931D9739
:101C3000ED91FC910280F381E02DBE016F5F7F4F3B
:101C4000C6010995D501ED91FC910084F185E02D47
:101C5000E12CF12C87019E012F5F3F4F41E0692D60
:101C6000C5010995813031F48AEF90E0F60197873C
:101C7000868705C0D6011F961C921E921E970F9054
:101C80000F90DF91CF911F910F91FF90EF90DF9018
:101C9000CF90BF90AF909F907F906F905F904F904C
:101CA0000895CF93DF93EC01F90180818F3F29F5EF
:101CB0008CED91E00E94350C8989823009F4188AF4
:101CC00091E0988F8B7F09F075C08F89811103C0D7
:101CD00084E68A8B01C01A8A81E0888B898D811104
:101CE00069C084EE91E00E94350C8F89811102C099
:101CF0001C8A60C084E68C8B5DC0893C31F486EF21
:101D000091E00E94350C188A4CC08695853608F003
:101D100084E68A8B8CEF91E00E94350C4A89809191
:101D2000510290915202009731F050E060E070E073
:101D30002AE00E945F1080E492E00E94350C898DB9
:101D4000811114C081E192E00E94350C8A898111D1
:101D500003C084E68C8B0AC0843611F41C8A06C04A
:101D600094E69C8B8B8B1A8A81E08A8F89898250BA
:101D70008230C8F4CE010E9480088F89811105C08D
:101D80009A898C89891748F406C0813031F49A8980
:101D90008C89981710F485E003C08989833051F449
:101DA000888B81E006C09A898C89981719F081E0A8
:101DB000888B888FDF91CF910895CF92DF92EF9239
:101DC000FF920F931F93CF93DF936C017A018B01E6
:101DD000C0E0D0E0CE15DF0589F0D8016D918D010E
:101DE000D601ED91FC910190F081E02DC60109959D
:101DF000892B11F47E0102C02196ECCFC701DF913F
:101E0000CF911F910F91FF90EF90DF90CF900895A9
:101E1000FC01538D448D252F30E0842F90E0821BF0
:101E2000930B541710F0CF96089501970895FC0175
:101E3000918D828D981761F0828DDF01A80FB11D01
:101E40005D968C91928D9F5F9F73928F90E0089525
:101E50008FEF9FEF0895FC01918D828D981731F0DF
:101E6000828DE80FF11D858D90E008958FEF9FEF33
:101E70000895FC01918D228D892F90E0805C9F4F09
:101E8000821B91098F73992708958AEA92E00E9434
:101E9000390F21E0892B09F420E0822F0895FC01FD
:101EA000848DDF01A80FB11DA35ABF4F2C91848DE3
:101EB00090E001968F739927848FA689B7892C9318
:101EC000A089B1898C9180648C93938D848D9813B3
:101ED00006C00288F389E02D80818F7D808308957C
:101EE000EF92FF920F931F93CF93DF93EC0181E06A
:101EF000888F9B8D8C8D981305C0E889F989808126
:101F000085FD24C0F62E0B8D10E00F5F1F4F0F7361
:101F10001127E02E8C8DE8120CC00FB607FCFACF0B
:101F2000E889F989808185FFF5CFCE010E944F0FA6
:101F3000F1CF8B8DFE01E80FF11DE35AFF4FF082C8
:101F40000B8FEA89FB898081806207C0EE89FF8957
:101F50006083E889F98980818064808381E090E0F2
:101F6000DF91CF911F910F91FF90EF900895CF9344
:101F7000DF93EC01888D8823C9F0EA89FB89808191
:101F800085FD05C0A889B9898C9186FD0FC00FB663
:101F900007FCF5CF808185FFF2CFA889B9898C91A4
:101FA00085FFEDCFCE010E944F0FE7CFDF91CF919C
:101FB000089580E090E0892B29F00E94450F81115F
:101FC0000C9400000895833081F028F4813099F05A
:101FD0008230A1F008958730A9F08830B9F08430BC
:101FE000D1F4809180008F7D03C0809180008F7735
:101FF00080938000089584B58F7702C084B58F7D6B
:1020000084BD08958091B0008F7703C08091B000A7
:102010008F7D8093B0000895CF93DF9390E0FC0113
:10202000EA5FFE4F2491FC01EE50FF4F849188231C
:1020300061F190E0880F991FFC01EC52FF4FC591B0
:10204000D491FC01E252FF4FA591B491611109C0F6
:102050009FB7F8948881209582238883EC912E2362
:102060000BC0623061F49FB7F8943881822F80955D
:1020700083238883EC912E2B2C939FBF06C08FB7B0
:10208000F894E8812E2B28838FBFDF91CF9108959C
:102090000E949C156115710579F0FB0101900020EB
:1020A000E9F73197AF01461B570BDC01ED91FC912D
:1020B0000280F381E02D099480E090E008954F9232
:1020C0005F926F927F92EF92FF920F931F93CF9345
:1020D000DF93CDB7DEB7A1970FB6F894DEBF0FBE82
:1020E000CDBF7C01FA01CB0119A2223008F42AE00D
:1020F0008E010F5D1F4F422E512C612C712CBF01A0
:10210000A30192010E946515F901CA01015011094C
:102110006A3014F4605D01C0695CD8016C93232BB4
:10212000242B252B61F7B801C7010E944A10A19604
:102130000FB6F894DEBF0FBECDBFDF91CF911F91D8
:102140000F91FF90EF907F906F905F904F90089568
:102150001F920F920FB60F9211242F933F934F931C
:102160005F936F937F938F939F93AF93BF93EF93FF
:10217000FF938AEA92E00E944F0FFF91EF91BF9187
:10218000AF919F918F917F916F915F914F913F910F
:102190002F910F900FBE0F901F9018951F920F92C6
:1021A0000FB60F9211242F938F939F93EF93FF936A
:1021B000E091BA02F091BB028081E091C002F091FF
:1021C000C10282FD12C090818091C3028F5F8F7324
:1021D0002091C402821751F0E091C302F0E0E6556D
:1021E000FD4F958F8093C30201C08081FF91EF91D5
:1021F0009F918F912F910F900FBE0F901F90189568
:10220000CF93DF93282F30E0F901E65EFE4F8491F3
:10221000F901EA5FFE4FD491F901EE50FF4FC491EE
:10222000CC2391F081110E94E30FEC2FF0E0EE0F30
:10223000FF1FE851FF4FA591B491EC91ED2381E090
:1022400090E021F480E002C080E090E0DF91CF9147
:1022500008951F93CF93DF93282F30E0F901E65EB6
:10226000FE4F8491F901EA5FFE4FD491F901EE50DF
:10227000FF4FC491CC23C9F0162F81110E94E30FA8
:10228000EC2FF0E0EE0FFF1FE252FF4FA591B4914B
:102290008FB7F894111105C09C91ED2FE095E923BB
:1022A00002C0EC91ED2BEC938FBFDF91CF911F918A
:1022B00008952FB7F89460919602709197028091DB
:1022C0009802909199022FBF08951F920F920FB616
:1022D0000F9211242F933F938F939F93AF93BF93AC
:1022E0008091960290919702A0919802B0919902E4
:1022F0003091950223E0230F2D3720F40196A11D84
:10230000B11D05C026E8230F0296A11DB11D209323
:1023100095028093960290939702A0939802B093AF
:1023200099028091910290919202A0919302B091B2
:1023300094020196A11DB11D809391029093920287
:10234000A0939302B0939402BF91AF919F918F910C
:102350003F912F910F900FBE0F901F9018950F93E4
:102360001F93CF93DF9300915102109152020115F8
:10237000110581F0EC01FE016491662359F0D8014A
:10238000ED91FC910190F081E02DC8010995219615
:10239000892B89F7DF91CF911F910F910895EAEA78
:1023A000F2E01382128288EE93E0A0E0B0E0848332
:1023B0009583A683B7838EE191E09183808385EC3A
:1023C00090E09587848784EC90E09787868780ECFF
:1023D00090E0918B808B81EC90E0938B828B82ECF0
:1023E00090E0958B848B86EC90E0978B868B118E9A
:1023F000128E138E148E0895CF93DF93CDB7DEB770
:1024000060970FB6F894DEBF0FBECDBF789484B549
:10241000826084BD84B5816084BD85B5826085BDE0
:1024200085B5816085BD80916E00816080936E006E
:102430001092810080918100826080938100809160
:102440008100816080938100809180008160809311
:1024500080008091B10084608093B1008091B000D1
:1024600081608093B00080917A00846080937A00CC
:1024700080917A00826080937A0080917A008160F6
:1024800080937A0080917A00806880937A0010921D
:10249000C100E091BA02F091BB0282E08083E0913A
:1024A000B602F091B7021082E091B802F091B90241
:1024B00087E680831092C202E091BE02F091BF02D3
:1024C00086E28083E091BC02F091BD028081806150
:1024D0008083E091BC02F091BD028081886080839E
:1024E000E091BC02F091BD02808180688083E09120
:1024F000BC02F091BD0280818F7D808388E0EAE09C
:10250000F1E0DE01199601900D928A95E1F788E0DD
:10251000E2E1F1E0DE01119601900D928A95E1F77A
:10252000CE0101967C014E0199E0890E911C8AE949
:10253000A82E82E0B82EC12CD12C90E3692E91E018
:10254000792E24E0522E85E290E00E9494138C01B3
:10255000D7018D917D01F40191914F01D801119620
:102560007C926E9216969C93169717968C9317975B
:102570009601275A3D4F19963C932E9318971F9614
:102580001C921E921E97F8011286138614861586D9
:1025900061E00E940C1061E0D80117968C910E94B6
:1025A000291161E0F80186810E940C1061E0D801D8
:1025B00016968C910E942911F801508A518A108E2A
:1025C000118E148A168A178A128E128AD5010D93DB
:1025D0001D935D01B7E0CB0ED11CE8E3CE16D1040C
:1025E00009F0B1CF85E090E00E9494137C018AE36A
:1025F00091E0D70111969C938E9380E412968C9370
:10260000129786E290E014969C938E93139782EB38
:1026100090E00E9494138C0180E491E0F801918392
:102620008083E95AFF4F8EE38083319683E592E001
:102630009183808388E0D80112968C9312978AE95F
:1026400092E014969C938E93139716961C921E926A
:1026500015971896FC92EE9217973296FF24F394F2
:10266000F082319680E190E09183808332968AEA0D
:1026700092E0918380836801BFE5CB0ED11C82E09C
:10268000F601808361E00E940C1060E0D6018C911D
:102690000E942911F801EB59FF4F1082E95BFF4FAF
:1026A0001082118212821382349682ED90E091831F
:1026B0008083EA55F10982E98083C8010E940E03F4
:1026C00010925202109251028FEFF8018187828797
:1026D0001386C8010E94C10288E591E0D8018D935C
:1026E0009C93C8010E94000910934803009347037C
:1026F00084E1F8018187F38660E00E940C108DE090
:10270000D8011A968C9361E00E940C1080914703C7
:1027100090914803DC01ED91FC910190F081E02D56
:1027200009950E94D90FF2CFCF93DF9382309105A4
:1027300010F482E090E0E0914B03F0914C0320E034
:1027400030E0C0E0D0E0309711F14081518148176E
:102750005907C0F04817590761F482819381209787
:1027600019F09B838A832BC090934C0380934B0377
:1027700026C02115310519F04217530718F49A01A4
:10278000BE01DF01EF010280F381E02DDCCF2115D6
:10279000310509F1281B390B2430310590F41296CC
:1027A0008D919C9113976115710521F0FB01938325
:1027B000828304C090934C0380934B03FD013296B7
:1027C00044C0FD01E20FF31F819391932250310920
:1027D0002D933C933AC02091490330914A03232B17
:1027E00041F4209102013091030130934A03209378
:1027F000490320910001309101012115310541F477
:102800002DB73EB74091040150910501241B350BB3
:10281000E0914903F0914A03E217F307A0F42E1B5D
:102820003F0B2817390778F0AC014E5F5F4F241734
:10283000350748F04E0F5F1F50934A0340934903FA
:102840008193919302C0E0E0F0E0CF01DF91CF915E
:1028500008950F931F93CF93DF93009709F48CC0D3
:10286000FC0132971382128200914B0310914C03AA
:102870000115110581F420813181820F931F209170
:10288000490330914A032817390779F5F0934A0331
:10289000E093490371C0D80140E050E0AE17BF0794
:1028A00050F412962D913C911397AD0121153105ED
:1028B00009F1D901F3CF9D01DA01338322836081CD
:1028C0007181860F971F8217930769F4EC012881A5
:1028D0003981260F371F2E5F3F4F318320838A8136
:1028E0009B8193838283452B29F4F0934C03E093DF
:1028F0004B0342C01396FC93EE931297ED0149915E
:1029000059919E01240F351FE217F30771F480815E
:102910009181840F951F029611969C938E938281CC
:10292000938113969C938E931297E0E0F0E0D80188
:1029300012968D919C911397009719F0F8018C01D4
:10294000F6CF8D919C9198012E5F3F4F820F931F80
:102950002091490330914A032817390769F43097C9
:1029600029F410924C0310924B0302C0138212827E
:1029700010934A0300934903DF91CF911F910F9168
:1029800008958F929F92AF92BF92CF92DF92EF9273
:10299000FF92CF93DF93EC01688179818A819B81DB
:1029A000611571058105910521F464E279ED8BE5EE
:1029B00097E02DE133EF41E050E00E9433154901EB
:1029C0005A019B01AC01A7EAB1E40E9452156B01C8
:1029D0007C01ACEEB4EFA50194010E946015DC010E
:1029E000CB018C0D9D1DAE1DBF1DB7FF03C0019710
:1029F000A109B04888839983AA83BB83BC01CD0118
:102A00009F77DF91CF91FF90EF90DF90CF90BF90B5
:102A1000AF909F908F9008950E94C114089586E012
:102A200091E00E94C114089560930601709307011C
:102A300080930801909309010895F999FECF92BD02
:102A400081BDF89A992780B50895262FF999FECF70
:102A50001FBA92BD81BD20BD0FB6F894FA9AF99ABB
:102A60000FBE01960895052E97FB1EF400940E9458
:102A70004A1557FD07D00E94651507FC03D04EF498
:102A80000C944A1550954095309521953F4F4F4FE6
:102A90005F4F089590958095709561957F4F8F4F0A
:102AA0009F4F08950E948715A59F900DB49F900D8C
:102AB000A49F800D911D11240895B7FF0C94521509
:102AC0000E945215821B930B0895A1E21A2EAA1B95
:102AD000BB1BFD010DC0AA1FBB1FEE1FFF1FA217CE
:102AE000B307E407F50720F0A21BB30BE40BF50BCB
:102AF000661F771F881F991F1A9469F76095709554
:102B0000809590959B01AC01BD01CF010895A29FD6
:102B1000B001B39FC001A39F700D811D1124911DB1
:102B2000B29F700D811D1124911D0895EE0FFF1F9E
:102B30000590F491E02D099481E090E0F8940C94D4
:102B40008918FB01DC0102C001900D9241505040F8
:102B5000D8F70895DC0101C06D9341505040E0F773
:102B60000895AEE0B0E0E7EBF5E10C9460180D8954
:102B70001E8986E08C831A8309838FEF9FE79E83EB
:102B80008D83AE01475E5F4F6F89788DCE010196D0
:102B90000E94D4152F813885F801E20FF31F1082AF
:102BA0002E96E4E00C947C18ACE0B0E0EAEDF5E1A0
:102BB0000C9452187C016B018A01FC011782168269
:102BC000838181FFBDC1CE0101964C01F701938144
:102BD000F60193FD859193FF81916F01882309F49C
:102BE000ABC1853239F493FD859193FF81916F01DB
:102BF000853229F4B70190E00E94BC17E7CF512C31
:102C0000312C20E02032A0F48B3269F030F4803295
:102C100059F0833269F420612CC08D3239F0803351
:102C200039F4216026C02260246023C0286021C0BE
:102C300027FD27C030ED380F3A3078F426FF06C064
:102C4000FAE05F9E300D1124532E13C08AE0389EA7
:102C5000300D1124332E20620CC08E3221F426FD5B
:102C60006BC1206406C08C3611F4206802C088361F
:102C700041F4F60193FD859193FF81916F018111DC
:102C8000C1CF982F9F7D9554933028F40C5F1F4F30
:102C9000FFE3F9830DC0833631F0833771F083355C
:102CA00009F05BC022C0F801808189830E5F1F4F4D
:102CB00044244394512C540115C03801F2E06F0EA6
:102CC000711CF801A080B18026FF03C0652D70E063
:102CD00002C06FEF7FEFC5012C870E94B1172C0156
:102CE00083012C852F77222E17C03801F2E06F0E5A
:102CF000711CF801A080B18026FF03C0652D70E033
:102D000002C06FEF7FEFC5012C870E94A6172C0130
:102D10002C852068222E830123FC1BC0832D90E08C
:102D200048165906B0F4B70180E290E00E94BC1743
:102D30003A94F4CFF50127FC859127FE81915F013C
:102D4000B70190E00E94BC1731103A94F1E04F1A9D
:102D500051084114510471F7E5C0843611F08936E9
:102D600039F5F80127FF07C0608171818281938165
:102D70000C5F1F4F08C060817181072E000C880B0B
:102D8000990B0E5F1F4F2F76722E97FF09C09095FB
:102D90008095709561957F4F8F4F9F4F2068722E61
:102DA0002AE030E0A4010E94F417A82EA81844C01D
:102DB000853729F42F7EB22E2AE030E025C0F22F8D
:102DC000F97FBF2E8F36C1F018F4883579F0B4C082
:102DD000803719F0883721F0AFC02F2F2061B22E35
:102DE000B4FE0DC08B2D8460B82E09C024FF0AC02C
:102DF0009F2F9660B92E06C028E030E005C020E184
:102E000030E002C020E132E0F801B7FE07C0608187
:102E10007181828193810C5F1F4F06C06081718137
:102E200080E090E00E5F1F4FA4010E94F417A82ECF
:102E3000A818FB2DFF777F2E76FE0BC0372D3E7F27
:102E4000A51450F474FE0AC072FC08C0372D3E7EF3
:102E500005C0BA2C372D03C0BA2C01C0B52C34FFE5
:102E60000DC0FE01EA0DF11D8081803311F4397E21
:102E700009C032FF06C0B394B39404C0832F867890
:102E800009F0B39433FD13C030FF06C05A2CB314BD
:102E900018F4530C5B18B32CB31468F4B70180E238
:102EA00090E03C870E94BC17B3943C85F5CFB314E7
:102EB00010F43B1801C0312C34FF12C0B70180E37D
:102EC00090E03C870E94BC173C8532FF17C031FD63
:102ED00003C088E790E002C088E590E0B7010CC02D
:102EE000832F867859F031FF02C08BE201C080E267
:102EF00037FD8DE2B70190E00E94BC17A51438F4AD
:102F0000B70180E390E00E94BC175A94F7CFAA94CF
:102F1000F401EA0DF11D8081B70190E00E94BC1719
:102F2000A110F5CF332009F451CEB70180E290E033
:102F30000E94BC173A94F6CFF7018681978102C0B0
:102F40008FEF9FEF2C96E2E10C946E18FC01059038
:102F5000615070400110D8F7809590958E0F9F1F9B
:102F60000895FC016150704001900110D8F78095E0
:102F700090958E0F9F1F08950F931F93CF93DF930C
:102F8000FB01238121FD03C08FEF9FEF28C022FFAB
:102F900016C046815781248135814217530744F476
:102FA000A081B1819D012F5F3F4F318320838C939E
:102FB000268137812F5F3F4F3783268310C0EB0177
:102FC000092F182F0084F185E02D0995892BE1F652
:102FD0008E819F8101969F838E83812F902FDF9119
:102FE000CF911F910F910895FA01AA27283051F12E
:102FF000203181F1E8946F936E7F6E5F7F4F8F4F2A
:103000009F4FAF4FB1E03ED0B4E03CD0670F781F88
:10301000891F9A1FA11D680F791F8A1F911DA11D6D
:103020006A0F711D811D911DA11D20D009F46894A6
:103030003F912AE0269F11243019305D3193DEF64E
:10304000CF010895462F4770405D4193B3E00FD004
:10305000C9F7F6CF462F4F70405D4A3318F0495DEF
:1030600031FD4052419302D0A9F7EACFB4E0A695D2
:103070009795879577956795BA95C9F700976105F4
:10308000710508959B01AC010A2E0694579547954A
:1030900037952795BA95C9F7620F731F841F951F3F
:1030A000A01D08952F923F924F925F926F927F9250
:1030B0008F929F92AF92BF92CF92DF92EF92FF9248
:1030C0000F931F93CF93DF93CDB7DEB7CA1BDB0BF4
:1030D0000FB6F894DEBF0FBECDBF09942A88398899
:1030E00048885F846E847D848C849B84AA84B984A0
:1030F000C884DF80EE80FD800C811B81AA81B981AC
:10310000CE0FD11D0FB6F894DEBF0FBECDBFED01BF
:063110000895F894FFCFC2
:1031160000004D038000010000000908050312109D
:103126000F0B0A07060413110E0C00000000700FA7
:10313600DD0E080FB70F390F170F2B0F0000000019
:10314600510EE3083F0C000000001C0A00000000BE
:1031560048063D02C300C2007401DD00310155017D
:10316600140161030000000048063D02C300000987
:103176007401DD0031015501140161032530376CFE
:1031860075003A005265666572656E636520706FFC
:10319600736974696F6E20726561636865642E2059
:1031A600506F736974696F6E206973206B6E6F77E9
:1031B6006E2E0A005265666572656E636520706FD5
:1031C600736974696F6E20726561636865642E2029
:1031D6004D6F76696E6720746F20746172676574CF
:1031E60020706F736974696F6E2E0A00546F67677B
:1031F6006C650A00506F736974696F6E20756E6B2B
:103206006E6F776E0A0053746F700A00526571759F
:10321600657374656420506F736974696F6E3A20C4
:1032260000506F736974696F6E20756E6B6E6F7781
:103236006E2E204D6F76696E6720746F20726566FC
:103246006572656E636520706F736974696F6E2E43
:023256000A006C
:107800000C94343C0C94513C0C94513C0C94513CE1
:107810000C94513C0C94513C0C94513C0C94513CB4
:107820000C94513C0C94513C0C94513C0C94513CA4
:107830000C94513C0C94513C0C94513C0C94513C94
:107840000C94513C0C94513C0C94513C0C94513C84
:107850000C94513C0C94513C0C94513C0C94513C74
:107860000C94513C0C94513C11241FBECFEFD8E036
:10787000DEBFCDBF11E0A0E0B1E0ECE9FFE702C060
:1078800005900D92A230B107D9F712E0A2E0B1E065
:1078900001C01D92AD30B107E1F70E942D3D0C945F
:1078A000CC3F0C94003C982F959595959595959582
:1078B000905D8F708A307CF0282F295A8091C0000B
:1078C00085FFFCCF9093C6008091C00085FFFCCF60
:1078D0002093C6000895282F205DF0CF982F809127
:1078E000C00085FFFCCF9093C6000895EF92FF92F1
:1078F0000F931F93EE24FF2487018091C00087FD22
:1079000017C00894E11CF11C011D111D81E4E8164B
:1079100082E4F8068FE0080780E0180770F3E09132
:107920000401F091050109958091C00087FFE9CF1E
:107930008091C6001F910F91FF90EF9008950E94D3
:10794000763C982F8091C00085FFFCCF9093C600B5
:1079500091362CF490330CF09053892F089597555D
:10796000892F08951F930E949F3C182F0E949F3CCF
:107970001295107F810F1F9108951F93182F882350
:1079800021F00E94763C1150E1F71F9108951F935A
:10799000182F0E94763C803249F0809103018F5F5E
:1079A000809303018530C1F01F9108958091C0003C
:1079B00085FFFCCF84E18093C6008091C00085FFE5
:1079C000FCCF1093C6008091C00085FFFCCF80E102
:1079D0008093C6001F910895E0910401F091050184
:1079E00009951F9108950E94763C803241F0809164
:1079F00003018F5F80930301853081F008958091AA
:107A0000C00085FFFCCF84E18093C6008091C00058
:107A100085FFFCCF80E18093C6000895E0910401CA
:107A2000F09105010995089540E951E08823A1F0FE
:107A30002D9A28EE33E0FA013197F1F721503040CA
:107A4000D1F72D9828EE33E0FA013197F1F7215064
:107A50003040D1F7815061F708953F924F925F9285
:107A60006F927F928F929F92AF92BF92CF92DF924E
:107A7000EF92FF920F931F93CF93DF93000080E16B
:107A80008093C4001092C50088E18093C10086E015
:107A90008093C2005098589A259A81E00E94143D24
:107AA00024E1F22E9EE1E92E85E9D82E0FE0C02ECA
:107AB00010E1B12EAA24A394B1E49B2EA6E58A2E50
:107AC000F2E57F2EE0E26E2E79E4572E63E5462E36
:107AD00050E5352E0E94763C8033B1F18133B9F107
:107AE000803409F46FC0813409F476C0823409F41B
:107AF00085C0853409F488C0803531F1823521F1A3
:107B0000813511F1853509F485C0863509F48DC0BC
:107B1000843609F496C0843709F403C1853709F423
:107B200072C1863709F466C0809103018F5F80932C
:107B30000301853079F6E0910401F0910501099582
:107B40000E94763C803351F60E94F33CC3CF0E94E2
:107B5000763C803249F78091C00085FFFCCFF092DF
:107B6000C6008091C00085FFFCCF9092C600809136
:107B7000C00085FFFCCF8092C6008091C00085FFC9
:107B8000FCCF7092C6008091C00085FFFCCF609250
:107B9000C6008091C00085FFFCCF5092C600809146
:107BA000C00085FFFCCF4092C6008091C00085FFD9
:107BB000FCCF3092C6008091C00085FFFCCFB09210
:107BC000C60088CF0E94763C863808F4BDCF0E945C
:107BD000763C0E94F33C7ECF0E94763C803809F4CC
:107BE0009CC0813809F40BC1823809F43CC1883942
:107BF00009F48FC080E00E94C73C6CCF84E10E94F2
:107C0000BD3C0E94F33C66CF85E00E94BD3C0E94D3
:107C1000F33C60CF0E94763C809306010E94763C44
:107C2000809307010E94F33C55CF0E94763C80333D
:107C300009F41DC183E00E94BD3C80E00E94C73C66
:107C400049CF0E94763C809309020E94763C809343
:107C5000080280910C028E7F80930C020E94763C79
:107C6000853409F415C18091080290910902892B8D
:107C700089F000E010E00E94763CF801E85FFE4FDA
:107C800080830F5F1F4F80910802909109020817AF
:107C9000190788F30E94763C803209F045CF809125
:107CA0000C0280FF01C16091060170910701660F0F
:107CB000771F7093070160930601A0910802B091AD
:107CC00009021097C9F0E8E0F1E09B01AD014E0F09
:107CD0005F1FF999FECF32BD21BD819180BDFA9A17
:107CE000F99A2F5F3F4FE417F50799F76A0F7B1F4B
:107CF00070930701609306018091C00085FFFCCF5F
:107D0000F092C6008091C00085FFFCCFB092C60003
:107D1000E1CE83E00E94C73CDDCE82E00E94C73CFA
:107D2000D9CE0E94763C809309020E94763C8093D3
:107D300008028091060190910701880F991F909386
:107D40000701809306010E94763C853409F4A6C0A1
:107D500080910C028E7F80930C020E94763C8032D0
:107D600009F0B8CE8091C00085FFFCCFF092C6002C
:107D7000609108027091090261157105B9F140E046
:107D800050E080910C02A82FA170B82FB27011C0E2
:107D9000BB2309F45CC0E0910601F0910701319624
:107DA000F0930701E09306014F5F5F4F46175707B7
:107DB000E8F4AA2369F3F999FECF209106013091E6
:107DC000070132BD21BDF89A90B58091C00085FFB2
:107DD000FCCF9093C6002F5F3F4F30930701209355
:107DE00006014F5F5F4F4617570718F38091C00099
:107DF00085FDE5CE8091C00085FFF8CFE0CE81E023
:107E00000E94C73C67CE0E94763C803209F08CCE3F
:107E10008091C00085FFFCCFF092C6008091C00029
:107E200085FFFCCFE092C6008091C00085FFFCCFAB
:107E3000D092C6008091C00085FFFCCFC092C600E2
:107E40008091C00085FFFCCFB092C60043CEE09188
:107E50000601F091070194918091C00085FFFCCF4D
:107E60009093C6009CCF80E10E94C73C33CE0E9415
:107E7000763C0E94763C182F0E94763C112309F430
:107E800083C0113009F484C08FE00E94C73C22CE29
:107E900080910C02816080930C02E5CE80910C02EF
:107EA000816080930C0259CF809107018823880F4D
:107EB000880B8A2180930B02809106019091070123
:107EC000880F991F90930701809306018091080203
:107ED00080FF09C080910802909109020196909359
:107EE000090280930802F894F999FECF1127E091D6
:107EF0000601F0910701C8E0D1E08091080290915D
:107F00000902103091F40091570001700130D9F34B
:107F100003E000935700E89500915700017001308D
:107F2000D9F301E100935700E89509901990009169
:107F3000570001700130D9F301E000935700E89534
:107F40001395103498F011270091570001700130FB
:107F5000D9F305E000935700E895009157000170B0
:107F60000130D9F301E100935700E895329602976A
:107F700009F0C7CF103011F00296E5CF112480919F
:107F8000C00085FFB9CEBCCE8EE10E94C73CA2CD19
:0C7F900085E90E94C73C9ECDF894FFCF0D
:027F9C00800063
:040000030000780081
:00000001FF
