:100000000C949E000C94C6000C94C6000C943E0602
:100010000C94BF050C9440050C94C6000C94C600CB
:100020000C94C6000C94C6000C94C6000C94C60038
:100030000C94C6000C94C6000C94C6000C94C60028
:100040000C94E5110C94C6000C94400E0C941A0EFE
:100050000C94C6000C94C6000C94C6000C94C60008
:100060000C94C6000C94C600523A2041434B0A003F
:100070000A00543A2000453A204352430A000A003D
:10008000453A204D7367546F6F4C6F6E670A003AA4
:1000900000523A2000543A2046575665720A0054DE
:1000A0003A2048575665722C5479700A00433A201A
:1000B000577269746520454550524F4D0A00433AC6
:1000C000205265616420454550524F4D0A00200082
:1000D000533A20000A00423A20324120000000003A
:1000E00000250028002B0000000000230026002926
:1000F00000040404040404040402020202020203D1
:1001000003030303030102040810204080010204DA
:10011000081020010204081020000000002400271D
:10012000002A00000000080002010000030407008C
:1001300000000000000000008712541211241FBEAE
:10014000CFEFD8E0DEBFCDBF11E0A0E0B1E0E8E541
:10015000F4E302C005900D92A238B107D9F722E06E
:10016000A2E8B1E001C01D92A43CB207E1F710E0A3
:10017000CDE9D0E004C02197FE010E942C17CC39B4
:10018000D107C9F70E94FB120C941F1A0C940000AF
:10019000AF92BF92CF92DF92EF92FF920F931F9395
:1001A000CF93DF933091E30132FD23C0A22EB42E12
:1001B000D62EEC018D819E81009759F0DC01ED91E6
:1001C000FC910190F081E02D022F242F462FBE01DB
:1001D0000995E881F9810484F585E02DC12CEE2490
:1001E000EA94FE2C87012A2D4B2D6D2DCE01099509
:1001F00001C081E0DF91CF911F910F91FF90EF90AF
:10020000DF90CF90BF90AF900895AF92CF92EF92D2
:100210000F93FC0187819085009771F0AC2CCE2C58
:10022000E02E022F9A01AB01BF01DC01ED91FC91A0
:100230000190F081E02D09950F91EF90CF90AF9054
:1002400008950895089580E008950895FA0128E03A
:1002500040815181CA01880F991F67FD8160918398
:10026000808357FF08C08081918132E0832730E18D
:10027000932791838083660F215051F70895FC01E5
:100280008381882321F088ECFB01808302C0FB017D
:10029000108281E008952091C9013091CA01281788
:1002A000390771F49091C7018091C801981741F006
:1002B000E091C701F0E0EE57FE4F808190E0089595
:1002C0008FEF9FEF08952091C9013091CA0128173F
:1002D000390739F48FB7F8941092C8011092C7010A
:1002E0008FBF08952091C9013091CA01281739079D
:1002F00071F48091C8012091C70190E0805C9F4F0C
:10030000821B910960E470E00E940417089580E068
:1003100090E008952091C9013091CA01281739074A
:10032000B9F49091C7018091C801981789F0E091C4
:10033000C701F0E0EE57FE4F80812091C70130E009
:100340002F5F3F4F2F7333272093C70190E008950D
:100350008FEF9FEF0895089580E090E008958091D9
:10036000CD018F3F19F484E18093CD010895EF9280
:10037000FF920F931F93CF938C01C62F7A01809128
:10038000CB019091CC01009721F068E771E00E94C9
:10039000BC0D8C2F0E942F12E114F10429F0A7014B
:1003A0006C2FC8010E942601025A1F4F84E08C0F57
:1003B000833060F4D8018D919C91DC01ED91FC912A
:1003C0000190F081E02D6CEF0995CF77F8018081E5
:1003D0009181DC01ED91FC910190F081E02D6C2F79
:1003E000CF911F910F91FF90EF900994AF92BF9220
:1003F000CF92DF92EF92FF920F93CF93DF936B0137
:100400005A01E90121977B01C7018C199D09CF3F52
:10041000FFEFDF0759F00111CE018A0D9B1D0E94ED
:100420008B16F70181937F012197EECFDF91CF915A
:100430000F91FF90EF90DF90CF90BF90AF90089515
:100440002F923F924F925F926F927F928F929F92E4
:10045000AF92BF92CF92DF92EF92FF920F931F93D2
:10046000CF93DF93CDB7DEB727970FB6F894DEBFF3
:100470000FBECDBF3C016B0119012A01F02E10E027
:1004800038ECB32EF3018281181708F084C027E0FE
:10049000129F40011124D30113964D915C91149742
:1004A000480D591D01E024E030E0BE016F5F7F4F31
:1004B000C6010E94F60189819A81AB81BC818F3F80
:1004C000EFEF9E07AE07BE0709F463C082159305E0
:1004D000A405B50509F05DC0D30113964D915C915B
:1004E00014974C5F5F4F480D591D00E021E030E04C
:1004F000BE01695F7F4FC6010E94F6018F818F1197
:1005000048C0F301438154814B5F5F4F480D591D33
:1005100021E030E0BE01695F7F4FC6010E94F60115
:100520008F818E1136C0D30113964D915C91149733
:100530004A5F5F4F480D591D21E030E0BE016A5F00
:100540007F4FC6010E94F601AA2039F08E8190E00B
:1005500095958795959587958E838E8183708E83EB
:100560008230B9F0833031F0813011F0BD8204C0A7
:100570001D8202C0BFEFBD83D601ED91FC910280C8
:10058000F381E02D9E012B5F3F4F41E06E2DC601B0
:1005900009951F5F77CF27960FB6F894DEBF0FBE81
:1005A000CDBFDF91CF911F910F91FF90EF90DF9022
:1005B000CF90BF90AF909F908F907F906F905F9003
:1005C0004F903F902F9008954F925F926F927F923D
:1005D0009F92AF92BF92CF92DF92EF92FF920F93D2
:1005E0001F93CF93DF931F92CDB7DEB7DC011A962E
:1005F0002D913C911B97232B09F448C0942E5B014D
:100600006C010E94B30FF6010681178120853185A8
:100610002B013C01401A510A620A730A93018201BC
:10062000428553852A01612C712C04151505260578
:10063000370560F166837783808791870190F08129
:10064000E02D0280F381E02DBE016F5F7F4FC60178
:100650000995D501ED91FC910084F185E02DE12C07
:10066000F12C87019E012F5F3F4F41E0692DC501AD
:100670000995813031F48AEF90E0F6019387828703
:1006800005C0D6011B961C921E921A970F90DF91FF
:10069000CF911F910F91FF90EF90DF90CF90BF907F
:1006A000AF909F907F906F905F904F9008950F93C1
:1006B0001F93CF93DF93EC018B01EC81FD8180814F
:1006C00081FF26C0F9019081993C80F08A810E94C7
:1006D0001E0F61E0892B09F060E08A810E94470FBC
:1006E00081E09B81992361F080E00AC082FB88272A
:1006F00080F9992339F0682F8A810E94470F81E0A1
:100700008B8306C061E068278A810E94470F1B82A5
:100710008A859B85892BC1F4EC81FD81808180FFD6
:1007200013C00E94B30F6E837F8388879987F80177
:10073000E75AFF4F0190F081E02D8081F4E68F9F12
:10074000C00111249B878A87DF91CF911F910F9160
:100750000895CF93DF93FC018381A481B5818E3FFF
:1007600091F4EF016C9162FB662760F981E06827E4
:1007700082810E94470F61E08A810E94770F1B826D
:10078000DF91CF91089591E0811190E08C9182FBEF
:10079000662760F969278281DF91CF910C94470F1A
:1007A000EF92FF920F93CF93DF9300D000D0CDB79D
:1007B000DEB7FC01E85AFF4F208130E07C0149E5BB
:1007C000E40EF11CD7016D917C9100E041E050E016
:1007D0000E94F601D701ED91FC9181819281A38164
:1007E000B48189839A83AB83BC838C818183D70155
:1007F000ED91FC9111978B818283ED91FC91119782
:100800008A818383ED91FC91898184838091E301C6
:1008100081608093E3010F900F900F900F90DF9114
:10082000CF910F91FF90EF900895EF92FF920F9369
:100830001F93CF93DF93CDB7DEB764970FB6F894CD
:10084000DEBF0FBECDBF8B01FC01EE59FF4F6081B3
:1008500071818281938120E836E948E950E00E9465
:10086000D3169F938F937F936F938AE791E09F9323
:100870008F93CE0101967C019F938F930E9447171F
:1008800088E4F801808382E4818387E58283D8014C
:10089000139687E0F70101900D928A95E1F70FB664
:1008A000F894DEBF0FBECDBF64960FB6F894DEBFDE
:1008B0000FBECDBFDF91CF911F910F91FF90EF90B1
:1008C0000895CF92DF92EF92FF920F931F93CF93F1
:1008D000DF93EC010CEF13E060E070E0CB01CC247F
:1008E000D62EE72EF82EC8010E948B16A70196017E
:1008F000282BCA01B9010F5F1F4F011534E0130700
:1009000071F76F3F4FEF74078407940721F46FEF7F
:100910007FEF8FEF92E4FE01EE59FF4F608371830A
:1009200082839383611571058105910511F00E9401
:1009300082160E947D16CF54DF4F24E630E040E05F
:1009400050E00E94A116DC01CB018E529F4FAF4FA9
:10095000BF4F99838883DF91CF911F910F91FF90B3
:10096000EF90DF90CF9008950F931F93CF93DF9375
:100970001F92CDB7DEB7FB01211103C06C3F73405E
:1009800084F48F01CF0149830E948B166981681717
:1009900041F0C8010F90DF91CF911F910F910C94FE
:1009A00093160F90DF91CF911F910F91089520E042
:1009B00001972FEF8F3F9207D9F70895CF92DF92DB
:1009C000EF92FF920F931F93CF93DF93EC01C62E0C
:1009D0000FB7F894E989FA899081888980958923ED
:1009E000808387E790E00E94D70488E090E020E8C9
:1009F00010E0322F3C2109F01F5F26950197C9F7BF
:100A000088E0E82EF12CDD24D394E989FA898889DD
:100A10009D2D9C2119F09081892B03C09081809598
:100A20008923808382E790E00E94D704DD0C81E077
:100A3000E81AF10851F7E989FA898889908110FF4D
:100A400002C0892B02C080958923808382E790E0D1
:100A50000E94D704E989FA8990818889892B80834B
:100A60000FBF82E790E00E94D70481E090E0DF9121
:100A7000CF911F910F91FF90EF90DF90CF9008954D
:100A80001F920F920FB60F921124EF92FF920F93C5
:100A90001F932F933F934F935F936F937F938F9306
:100AA0009F93AF93BF93CF93DF93EF93FF93C09147
:100AB000C901D091CA01209709F44AC0EE85FF858B
:100AC00090818D85892309F043C086E390E00E94E0
:100AD000D70488E0E82EF12C10E001E085E790E0F3
:100AE0000E94D704EE85FF8590818D85892311F0C2
:100AF000102B03C0802F80951823000F81E0E81A87
:100B0000F10861F785E790E00E94D70485E790E05F
:100B10000E94D7048091C8012091C70190E00196FE
:100B20008F73992730E08217930779F0E091C8011D
:100B3000F0E0EE57FE4F10838091C80190E00196DF
:100B40008F7399278093C80103C08E8981608E8B33
:100B5000FF91EF91DF91CF91BF91AF919F918F91D5
:100B60007F916F915F914F913F912F911F910F91C5
:100B7000FF90EF900F900FBE0F901F9018951F924F
:100B80000F920FB60F921124EF92FF920F931F93C3
:100B90002F933F934F935F936F937F938F939F9385
:100BA000AF93BF93CF93DF93EF93FF93C091C901AE
:100BB000D091CA01209709F44AC0EE85FF85908143
:100BC0008D85892309F043C086E390E00E94D70415
:100BD00088E0E82EF12C10E001E085E790E00E942B
:100BE000D704EE85FF8590818D85892311F0102B28
:100BF00003C0802F80951823000F81E0E81AF108C8
:100C000061F785E790E00E94D70485E790E00E94B5
:100C1000D7048091C8012091C70190E001968F739D
:100C2000992730E08217930779F0E091C801F0E04E
:100C3000EE57FE4F10838091C80190E001968F73AC
:100C400099278093C80103C08E8981608E8BFF91A4
:100C5000EF91DF91CF91BF91AF919F918F917F9154
:100C60006F915F914F913F912F911F910F91FF9045
:100C7000EF900F900FBE0F901F9018951F920F923C
:100C80000FB60F921124EF92FF920F931F932F93A1
:100C90003F934F935F936F937F938F939F93AF9304
:100CA000BF93CF93DF93EF93FF93C091C901D0918E
:100CB000CA01209709F44AC0EE85FF8590818D8591
:100CC000892309F043C086E390E00E94D70488E0BE
:100CD000E82EF12C10E001E085E790E00E94D704B7
:100CE000EE85FF8590818D85892311F0102B03C03F
:100CF000802F80951823000F81E0E81AF10861F732
:100D000085E790E00E94D70485E790E00E94D70431
:100D10008091C8012091C70190E001968F739927B7
:100D200030E08217930779F0E091C801F0E0EE57C8
:100D3000FE4F10838091C80190E001968F73992730
:100D40008093C80103C08E8981608E8BFF91EF91E3
:100D5000DF91CF91BF91AF919F918F917F916F91D3
:100D60005F914F913F912F911F910F91FF90EF90C5
:100D70000F900FBE0F901F9018950F931F93CF9356
:100D8000DF930091CB011091CC010115110581F089
:100D9000EC01FE016491662359F0D801ED91FC91BC
:100DA0000190F081E02DC80109952196892B89F7E2
:100DB000DF91CF911F910F910895BF92CF92DF9253
:100DC000EF92FF920F931F93CF93DF938C01F62E38
:100DD000D42EE22EC32E8091CB019091CC01892B91
:100DE00001F180ED90E00E94BD068F2D0E942F1230
:100DF0008EEC90E00E94BD06BE2CCE2DDC2D8C2FFB
:100E00008B198D1520F489910E942F12F8CF8091B3
:100E1000CB019091CC01009721F060E871E00E9435
:100E2000BC0DF8018281F816F0F493818481E92FDA
:100E3000F82FEF0DF11DEF0DF11D80819181DC0187
:100E4000ED91FC910190F081E02D2E2D3C2D4D2D4A
:100E5000B801DF91CF911F910F91FF90EF90DF903C
:100E6000CF90BF900994DF91CF911F910F91FF9088
:100E7000EF90DF90CF90BF9008953F924F925F9296
:100E80006F927F928F929F92AF92BF92CF92DF929A
:100E9000EF92FF920F931F93CF93DF93EC015C01CE
:100EA0008EE5A80EB11C3E019DEA690E711C8E01F3
:100EB0000F591F4FDE01A559BF4F7D0144244A94AD
:100EC00035E0332E6E01B7E6CB0ED11C88248A9410
:100ED000982CD5018D919C91DC01ED91FC910084C1
:100EE000F185E02D0995892B09F4DDC00E94B30F2F
:100EF000F3016083718382839383D5018D919C91EB
:100F0000DC01ED91FC910284F385E02D0995582ECA
:100F1000BDEF8B1303C081E990E002C08FE890E041
:100F20000E94BD06852D0E942F12ECEF5E1207C0B5
:100F3000D8018C9181FD24C082608C93CACFBDEF13
:100F40005B121EC0F80180818D7F816080831092CA
:100F5000C6011092C5011D861E861F86188AD601FD
:100F60001D921D921D921C9213979092C401809223
:100F7000C30143EC51E06DEFCE010E942601A9CFE1
:100F8000F801808180FFA5CF81FF06C0F52DF068B4
:100F90005F2E8D7FD8018C9343EC51E0652DCE01FF
:100FA0000E9426018091C501843078F4F6014081C9
:100FB000518162817381762F652F542F44274529F3
:100FC00040835183628373831AC0843029F4309242
:100FD000C5015092C2017DCF4091C20143FF13C0B1
:100FE000893088F44D855E856F857889762F652FE9
:100FF000542F442745294D875E876F87788B8F5FF5
:101000008093C50166CF8F3F79F04092C501F7010B
:101010005082F0E4F51508F05CCFD8018C918E7FFA
:101020008C9380E890E03CC08091C601FE01E80FFF
:10103000F11DE459FF4F508291E0980F9093C60143
:10104000F7012081921345CF2091C3013091C40153
:10105000232B21F5D8019C919E7F9C93FE01E455A2
:10106000FF4F40838150F7018083CA59DF4F81E0F1
:1010700088838EE790E0DF91CF911F910F91FF90D1
:10108000EF90DF90CF90BF90AF909F908F907F9028
:101090006F905F904F903F900C94BD0686E790E074
:1010A0000E94BD0616CFDF91CF911F910F91FF9047
:1010B000EF90DF90CF90BF90AF909F908F907F90F8
:1010C0006F905F904F903F9008954F925F926F9214
:1010D0007F92AF92BF92CF92DF92FF920F931F93B6
:1010E000CF93DF9300D0CDB7DEB78C018FEF9FEFAA
:1010F0009A838983F80181899289A389B4898F3F72
:101100009F4FAF4FBF4FA1F0F801E455FF4F8081D3
:1011100090E095958795837020E2829FC00111240D
:10112000D80155969C9155979F79892B55968C930C
:1011300082E790E00E94BD066801B0E6CB0ED11CAC
:1011400061E0F60180810E94470F8DEF0E942F120F
:101150005801FEE5AF0EB11CD5018D919C91DC01CB
:10116000ED91FC910190F081E02D6DEF0995AE01BC
:101170004F5F5F4F6DEFC8010E942601F801418863
:1011800052886388748854E0F52E672D7727882766
:101190009927AE014F5F5F4FC8010E94B701762CBF
:1011A000652C542C4424FA94F110EFCFAE014F5F1C
:1011B0005F4FD80155966C91C8010E94B701F801A4
:1011C000858983FD0CC0D80156966C916E5FAE0187
:1011D0004F5F5F4FC8010E94B701F12C1BC0F8019F
:1011E000EE59FF4F408051806280738024E0F22EE0
:1011F000672D772788279927AE014F5F5F4FC8017A
:101200000E94B701762C652C542C4424FA94F110DA
:10121000EFCFD9CFF8018689F81660F4F801EF0D09
:10122000F11DAE014F5F5F4F6789C8010E94B70192
:10123000F394F0CFAE014F5F5F4F60E0C8010E94B2
:101240002601AE014F5F5F4F60E0C8010E9426019A
:101250006A8140E050E0C8010E94B70140E050E0E0
:101260006981C8010E94B701D5018D919C91DC0173
:10127000ED91FC910680F781E02D099560E0F60183
:1012800080810E94470FF801EF59FF4F80818860ED
:10129000808380E790E00E94BD060F900F90DF9161
:1012A000CF911F910F91FF90DF90CF90BF90AF90A3
:1012B0007F906F905F904F900895EF92FF920F9301
:1012C0001F93CF93DF93EC01FC01EB54FF4F81E0C0
:1012D00080838E010F591F4FF80180819E01245594
:1012E0003F4F790183FF26C0F901808190E025E01E
:1012F000959587952A95E1F7282F23708D8990E0A1
:10130000959587958370281315C04D855E856F85EB
:10131000788989899A89AB89BC89481759076A07EE
:101320007B0741F488E690E00E94BD06F8018081C9
:10133000877F8083F701808183708130F9F0FE011F
:10134000E559FF4F808181111BC0349780819181C5
:10135000A281B3818F3F9F4FAF4FBF4F89F08D85E3
:101360009E85AF85B889898B9A8BAB8BBC8B89E1C5
:101370008D8B1E8A60E0CE010E94C80980E001C00A
:1013800081E0DF91CF911F910F91FF90EF90089531
:101390004F925F926F927F928F929F92AF92BF9285
:1013A000CF92DF92EF92FF920F931F93CF93DF9331
:1013B000EC01862E662379F10E94B30FFE01E355FE
:1013C000FF4F0081118122813381AB01BC01401BA1
:1013D000510B620B730B8E010F541F4FF80180816C
:1013E0009181A0E0B0E0481759076A077B0710F425
:1013F00081E08AC00E947D1624E630E040E050E0A3
:101400000E94A116DC01CB018E529F4FAF4FBF4F00
:10141000F8019183808381E0FE01EC54FF4F8083CB
:1014200089899A89AB89BC898F3F9F4FAF4FBF4F46
:1014300009F45CC08D898370813009F457C083E062
:10144000982E8E010A591F4F7E0127E6E20EF11CED
:101450006E0182E6C80ED11C5E01E1E6AE0EB11C43
:10146000CE010E9465080E94B30F2B013C010E942F
:10147000B30FDC01CB0184199509A609B709883C93
:101480009105A105B10510F5CE010E943D07F801B7
:101490008081882361F3F7014081518162817381EA
:1014A000F60180819181A281B381481759076A07AB
:1014B0007B07E9F6F8011082CE010E945D09F50173
:1014C0009081892F887093FDD2CF1EC08820C1F0F3
:1014D0000E94B30FDC01CB0184199509A609B70955
:1014E00086399105A105B10558F482CFCE010E943D
:1014F0006508CF59DF4F8881877F888380E004C0EB
:101500009A949110ADCF82E0DF91CF911F910F910E
:10151000FF90EF90DF90CF90BF90AF909F908F9013
:101520007F906F905F904F900895CF93DF9350918D
:10153000E30152FD1DC0EC018FEF9FEFDC01898BB1
:101540009A8BAB8BBC8B88EF8D8B83E0840F8E8B5B
:101550008BE48F8B688F198E50E0B901CE014A96CB
:101560000E94371761E0CE01DF91CF910C94C8093A
:1015700081E0DF91CF910895CF92EF92FF920F9388
:101580001F93FC018091E30182FD1EC0E18AF28A73
:10159000038B148B88EF858B84E0868B8BE4878BA1
:1015A000608FC18E211102C082E001C083E0440F30
:1015B000440F480F428F61E0CF011F910F91FF90C0
:1015C000EF90CF900C94C80981E01F910F91FF908C
:1015D000EF90CF900895EF92FF920F931F93CF93C8
:1015E000DF93EC018091E30182FD2EC0E98AFA8A43
:1015F0000B8B1C8BEF28E02AE12A71F4FE01E75ADD
:10160000FF4F0190F081E02D81819281A381B4810F
:10161000898B9A8BAB8BBC8B88EF8D8B82E0840F90
:101620008E8B89E68F8B688F50E0B901CE01499689
:101630000E94371761E0CE01DF91CF911F910F918A
:10164000FF90EF900C94C80981E0DF91CF911F913A
:101650000F91FF90EF9008954F925F926F927F925B
:101660008F929F92AF92BF92CF92DF92EF92FF92B2
:101670000F931F93CF93DF93222389F0DB018C918B
:101680008A3539F08A3709F094C18091E30184608A
:1016900003C08091E3018B7F8093E3018AC1209195
:1016A000E30122FD86C1F42E5B01EC014D855E85D0
:1016B0006F857889498B5A8B6B8B7C8B88E78D8BF8
:1016C000F5018081833509F44AC1B0F4833409F40B
:1016D00053C040F4803491F1813409F053C189E65C
:1016E0008F8B53C18B3409F4ADC0823509F4C4C06B
:1016F000853409F047C144C0833709F421C150F44F
:10170000883609F405C18E3609F40EC1873509F013
:1017100039C1D4C0883709F413C18B3C09F492C095
:10172000863709F02FC185E990E00E94BD06FE01D1
:10173000E45AFF4F808191819F8BFEC08181813669
:1017400021F0CE010E9461041DC1B6E0FB12F9CF69
:10175000E2E0AE0EB11C0CEF13E0D5014D915D013E
:1017600021E0B801CE010E94B4040F5F1F4F0115A4
:10177000B4E01B0791F7E5CFCE010E94D00302C170
:10178000F501C380E4808E2D8695869586959E2DE5
:10179000977011F48C5F01C08B5F8E8B4E8950E087
:1017A00060E070E0CE0147960E94401785E68F8B7F
:1017B000D50111968C911197888F12968C91129762
:1017C000898F13968C918A8FD12C812C912C00E0DB
:1017D00010E0F12C412C512C32014394E016F1061B
:1017E0000CF4D3C0A12CB12CAC14BD0434F5C5014C
:1017F000880D991D0E948B168F3FD9F0F80133E0B8
:10180000F595E7953A95E1F73496EC0FFD1FC80181
:1018100087709927A301920104C0220F331F441F30
:10182000551F8A95D2F7DA01C9012789822B878B48
:1018300004C03FEFA31AB30AD7CF0F5F1F4F8C0C22
:101840009D1CCCCFD50113968C91E881F981B82FDE
:10185000B170CB2EE82EF12CF594E794F594E79433
:101860000088F189E02DD50112960C9112971196FE
:101870002C91CE01099586C0B4E0FB1283C08EEB9B
:1018800090E00E94BD06F501018110E0102F0027B5
:101890008281082BF12CD50113968C91F81608F053
:1018A0004DC0CF2CD12CC601800F911F0E948B16EA
:1018B000FE01EC0DFD1D878BF394EDCF2F2D30E055
:1018C000838190E004962817390709F05BC08DEA00
:1018D00090E00E94BD06F501018110E0102F002765
:1018E0008281F4E0AF0EB11C082B84E0E82EE01AF0
:1018F0008E2D800F8F1508F045C0D5014D915D01EB
:1019000020E0B801CE010E94B4040F5F1F4FF0CF5A
:101910008FE990E00E94BD06FE01E95AFF4F8081E9
:101920008F8B3496808108C0BE01695E7F4FCE01E7
:101930000E9415048AE002C0888F82E08E8B25C049
:10194000E881F98195012E5F3F4F4EEF4F0D0280E8
:10195000F381E02DD50111966C91CE010995F50129
:10196000618119E61F8B688FE881F9810480F58118
:10197000E02DAE01475E5F4FCE0109958E5F8E8BE5
:101980001F8B03C089E18D8B1E8A60E0CE01DF9141
:10199000CF911F910F91FF90EF90DF90CF90BF906C
:1019A000AF909F908F907F906F905F904F900C942E
:1019B000C809DF91CF911F910F91FF90EF90DF90B9
:1019C000CF90BF90AF909F908F907F906F905F90DF
:1019D0004F900895CF92DF92EF92FF920F931F9353
:1019E000CF93DF936C017A018B01C0E0D0E0CE157C
:1019F000DF0589F0D8016D918D01D601ED91FC9143
:101A00000190F081E02DC6010995892B11F47E012A
:101A100002C02196ECCFC701DF91CF911F910F91AA
:101A2000FF90EF90DF90CF9008958DE092E00E94BC
:101A3000A30E21E0892B09F420E0822F08950E9453
:101A40003217EF92FF920F931F93CF93DF93EC0126
:101A500081E0888F9B8D8C8D981305C0E889F9896A
:101A6000808185FD24C0F62E0B8D10E00F5F1F4F87
:101A70000F731127E02E8C8DE8120CC00FB607FCF7
:101A8000FACFE889F989808185FFF5CFCE010E94E0
:101A9000FD0EF1CF8B8DFE01E80FF11DE35AFF4FD4
:101AA000F0820B8FEA89FB898081806207C0EE8912
:101AB000FF896083E889F98980818064808381E07F
:101AC00090E0DF91CF911F910F91FF90EF900895DB
:101AD000CF93DF93EC01888D8823C9F0EA89FB89D5
:101AE000808185FD05C0A889B9898C9186FD0FC0CC
:101AF0000FB607FCF5CF808185FFF2CFA889B989A1
:101B00008C9185FFEDCFCE010E94FD0EE7CFDF91D6
:101B1000CF910895CF93DF93EC018FEF9FEFDC011E
:101B2000898B9A8BAB8BBC8B88EF8D8B80E18E8BF6
:101B300081E48F8B188EFE01E95AFF4F8081898FD7
:101B4000349680818A8F3196808191819B8F8C8F92
:101B5000BE01635E7F4FCE010E9415048091E301B8
:101B600082FD06C061E0CE01DF91CF910C94C809DF
:101B700081E0DF91CF9108956115710579F0FB0146
:101B800001900020E9F73197AF01461B570BDC01AC
:101B9000ED91FC910280F381E02D099480E090E0CA
:101BA00008954F925F926F927F92EF92FF920F9300
:101BB0001F93CF93DF93CDB7DEB7A1970FB6F894FD
:101BC000DEBF0FBECDBF7C01FA01CB0119A22230CE
:101BD00008F42AE08E010F5D1F4F422E512C612C1C
:101BE000712CBF01A30192010E94D316F901CA0111
:101BF000015011096A3014F4605D01C0695CD801BC
:101C00006C93232B242B252B61F7B801C7010E946D
:101C1000BC0DA1960FB6F894DEBF0FBECDBFDF910D
:101C2000CF911F910F91FF90EF907F906F905F90F9
:101C30004F9008951F920F920FB60F9211242F9379
:101C40003F934F935F936F937F938F939F93AF9344
:101C5000BF93EF93FF938DE092E00E94FD0EFF9102
:101C6000EF91BF91AF919F918F917F916F915F9114
:101C70004F913F912F910F900FBE0F901F9018958D
:101C80001F920F920FB60F9211242F938F939F9351
:101C9000EF93FF93E0911D02F0911E028081E0918D
:101CA0002302F091240282FD12C0908180912602CD
:101CB0008F5F8F7320912702821751F0E0912602E7
:101CC000F0E0E35FFD4F958F8093260201C0808195
:101CD000FF91EF919F918F912F910F900FBE0F90D9
:101CE0001F901895FC01538D448D252F30E0842FD3
:101CF00090E0821B930B541710F0CF960895019734
:101D00000895FC01918D828D981761F0828DDF011D
:101D1000A80FB11D5D968C91928D9F5F9F73928FDE
:101D200090E008958FEF9FEF0895FC01918D828DD3
:101D3000981731F0828DE80FF11D858D90E00895A0
:101D40008FEF9FEF0895FC01918D228D892F90E0F8
:101D5000805C9F4F821B91098F739927089580E0C3
:101D600090E0892B29F00E94150D81110C94000040
:101D70000895833081F028F4813099F08230A1F009
:101D800008958730A9F08830B9F08430D1F480917B
:101D900080008F7D03C0809180008F7780938000CA
:101DA000089584B58F7702C084B58F7D84BD089572
:101DB0008091B0008F7703C08091B0008F7D8093B9
:101DC000B00008950895FC018281681790F4238182
:101DD0008481E22FF82FE60FF11DE60FF11D8081BF
:101DE0009181DC01ED91FC910280F381E02DBA013B
:101DF0000994DA011C9281E00895FC01848DDF01D1
:101E0000A80FB11DA35ABF4F2C91848D90E001966D
:101E10008F739927848FA689B7892C93A089B1895C
:101E20008C9180648C93938D848D981306C0028866
:101E3000F389E02D80818F7D80830895CF93DF9398
:101E4000282F30E0F901ED5DFE4F8491F901EB5F41
:101E5000FE4FD491F901EF50FF4FC491CC2391F084
:101E600081110E94B90EEC2FF0E0EE0FFF1FE95137
:101E7000FF4FA591B491EC91ED2381E090E021F426
:101E800080E002C080E090E0DF91CF9108951F9341
:101E9000CF93DF93282F30E0F901ED5DFE4F849161
:101EA000F901EB5FFE4FD491F901EF50FF4FC49160
:101EB000CC23C9F0162F81110E94B90EEC2FF0E04F
:101EC000EE0FFF1FE352FF4FA591B4918FB7F89427
:101ED000111105C09C91ED2FE095E92302C0EC9112
:101EE000ED2BEC938FBFDF91CF911F910895CF938E
:101EF000DF9390E0FC01EB5FFE4F2491FC01EF507B
:101F0000FF4F8491882361F190E0880F991FFC01B5
:101F1000E75EFE4FC591D491FC01E352FF4FA591BE
:101F2000B491611109C09FB7F894888120958223EC
:101F30008883EC912E230BC0623061F49FB7F89434
:101F40003881822F809583238883EC912E2B2C93CC
:101F50009FBF06C08FB7F894E8812E2B28838FBFD0
:101F6000DF91CF9108952FB7F8946091BC027091E2
:101F7000BD028091BE029091BF022FBF08958F9243
:101F80009F92AF92BF92CF92DF92EF92FF920F9308
:101F90001F93CF93DF93EC018091E30180FF23C077
:101FA000E881F9810680F781E02DCE01099510E0E6
:101FB0008A81181798F49B818C81E92FF82FE10F03
:101FC000F11DE10FF11D80819181DC01ED91FC910A
:101FD0000680F781E02D09951F5FEACF8091E3012C
:101FE0008E7F8093E301CE010E943D07FE01EA59F6
:101FF000FF4F80818823C9F110828E0109591F4F3C
:10200000F80180819181A281B3813597408151810E
:102010006281738184179507A607B70729F08F3F60
:102020009F4FAF4FBF4F09F5CE010E945D09882336
:10203000E1F04881598121E0F80180819181A281FC
:10204000B3818F3F9F4FAF4FBF4F09F020E0DA01C0
:102050005296ED91FC915397DE01A559BF4F4C91DB
:10206000BE0164597F4FCE0109950E94B30F683EAF
:1020700073408105910580F08091E30181FD0CC0E2
:10208000CE010E948A0D91E0811190E08091E301E0
:1020900090FB81F98093E3014091B6029B818C8192
:1020A000E92FF82FE40FF11DE40FF11D80819181DC
:1020B000DC01ED91FC910480F581E02DBE010995D4
:1020C0008091B6028F5F8093B6029A81891710F0D3
:1020D0001092B6028985882309F412C10E94B30FB9
:1020E0006B017C0189859CEE980F9230C0F48E5074
:1020F000806480937C0080917A00806480937A0071
:1021000080917A0086FDFCCF809178002091790043
:1021100090E0922B21E08A3F91053CF005C00E949F
:102120001E0F21E0892B09F020E08E010D541F4F76
:10213000F80180818230C1F128F4882359F0813080
:1021400069F09DC0843009F461C0E0F1853009F484
:102150007FC095C0222369F181E04DC08091AE021D
:102160009091AF02A091B002B091B1024601570127
:10217000881A990AAA0ABB0AD501C401222351F080
:1021800029E8821623E19206A104B1040CF477C079
:1021900082E05BC085369105A105B1050CF46DC0E8
:1021A000CE010E948A0D69C0211169C083E0F80147
:1021B0008083C092AE02D092AF02E092B002F09261
:1021C000B1025DC08091AE029091AF02A091B002C9
:1021D000B091B10246015701881A990AAA0ABB0AAE
:1021E000D501C40184369105A105B1050CF447C0A1
:1021F000222321F084E0D8018C93DBCFE1E18E161D
:10220000E7E29E06A104B104C4F539C08091AE0294
:102210009091AF02A091B002B091B1024601570176
:10222000881A990AAA0ABB0AD501C4018436910505
:10223000A105B10524F1222301F129EB82162BE03F
:102240009206A104B104DCF085E0D8018C9317C09C
:10225000211115C0A12CB12C20E04FEFB501CE010A
:102260000E94B404BFEFAB1ABB0AECEFAE16E3E07A
:10227000BE0691F7CE010E94D003D8011C928A8538
:102280008823F1F14091AA025091AB026091AC0217
:102290007091AD0246015701841A950AA60AB70A41
:1022A000B501A40145365105610571054CF1D80110
:1022B0009C91953040F4923090F4992339F091300C
:1022C000F9F461E013C0953019F01AC060E00EC057
:1022D000BFEE8B16B2E09B06A104B1048CF00E9405
:1022E0001E0F61E0892B09F060E08A850E94470F8C
:1022F000C092AA02D092AB02E092AC02F092AD0280
:102300000E94B30F0091B2021091B3022091B40267
:102310003091B502DC01CB01801B910BA20BB30BFA
:10232000CD97A105B10508F443C08B85882309F139
:102330009C8589130CC0DE01AB54BF4F9C9199233F
:1023400031F091E0FE01EC54FF4F90831C92FE01AE
:10235000ED54FF4F9081992319F09A85891749F020
:102360008E010C541F4FF80160810E94470FD80165
:102370001C928C85882391F09B85981779F0FE013B
:10238000ED54FF4F9081992319F09A85891731F008
:10239000CB54DF4F68810E94470F18820E94B30F11
:1023A0006093B2027093B3028093B4029093B5022B
:1023B000DF91CF911F910F91FF90EF90DF90CF9021
:1023C000BF90AF909F908F9008951F920F920FB67D
:1023D0000F9211242F933F938F939F93AF93BF93AB
:1023E0008091BC029091BD02A091BE02B091BF024B
:1023F0003091BB0223E0230F2D3720F40196A11D5D
:10240000B11D05C026E8230F0296A11DB11D209322
:10241000BB028093BC029093BD02A093BE02B09316
:10242000BF028091B7029091B802A091B902B09119
:10243000BA020196A11DB11D8093B7029093B80214
:10244000A093B902B093BA02BF91AF919F918F91BF
:102450003F912F910F900FBE0F901F901895CF9323
:10246000C82F8091CB019091CC010097D9F04C2FCF
:1024700050E024E0559547952A95E1F7052E000C8C
:10248000660B770B20E10E94D10D4C2F4F7050E06E
:1024900060E070E020E18091CB019091CC01CF9180
:1024A0000C94D10DCF9108958AE691E09093E501C7
:1024B0008093E4012091F001263140F5283028F086
:1024C0002E3030F0ECE6F0E005C0EDE6F0E002C0C2
:1024D000EBE6F0E03081283038F481E090E001C094
:1024E000880F2A95EAF70FC0422F50E02E3018F4DB
:1024F0004850510902C04E50510981E090E001C09E
:10250000880F4A95EAF78095832380830895CF93B7
:10251000DF93EDE0F2E01382128288EE93E0A0E018
:10252000B0E084839583A683B78328E531E03183C7
:10253000208325EC30E03587248724EC30E0378792
:10254000268720EC30E0318B208B21EC30E0338B80
:10255000228B22EC30E0358B248B26EC30E0378B5D
:10256000268B118E128E138E148EC4EED1E01B8238
:102570001A828C839D83AE83BF838AE691E0998320
:102580008883EAEFF1E080818E7F808361E082E0E2
:102590000E94770F61E082E00E94470FE7E0F1E0E0
:1025A000E491E88BE3EFF0E0E491F0E0EE0FFF1F41
:1025B000E352FF4F859194919A8B898B60E084E080
:1025C0000E94770F61E084E00E94470F84E08C87CF
:1025D000E9E0F1E0E491ED87E5EFF0E0E491F0E08F
:1025E000EE0FFF1FE951FF4F859194919F878E87D2
:1025F000DF91CF910895CF93DF93CDB7DEB72A97C0
:102600000FB6F894DEBF0FBECDBF789484B582605C
:1026100084BD84B5816084BD85B5826085BD85B586
:10262000816085BD80916E00816080936E00109204
:10263000810080918100826080938100809181007F
:102640008160809381008091800081608093800010
:102650008091B10084608093B1008091B00081606E
:102660008093B00080917A00846080937A0080919A
:102670007A00826080937A0080917A0081608093F2
:102680007A0080917A00806880937A001092C1006D
:10269000E0911D02F0911E0282E08083E091190218
:1026A000F0911A021082E0911B02F0911C0287E661
:1026B000808310922502E0912102F091220286E0AF
:1026C0008083E0911F02F0912002808180618083ED
:1026D000E0911F02F0912002808188608083E09168
:1026E0001F02F0912002808180688083E0911F02A8
:1026F000F091200280818F7D80839091F00196314E
:10270000E0F520916800983050F031E09E3008F4F8
:1027100030E081E001C0880F3A95EAF701C084E01B
:10272000822B80936800983038F09E3040F09631CC
:1027300048F0E0E0F0E008C0EDE6F0E005C0EBE6D0
:10274000F0E002C0ECE6F0E04081983030F481E047
:1027500001C0880F9A95EAF70EC0292F30E09E300D
:1027600018F42850310902C02E50310981E001C00F
:10277000880F2A95EAF7842B808382E790E00E94F5
:10278000D7048091C9019091CA01845E914091F073
:102790008091FA018E7F8093FA018FB7F89410929E
:1027A000C8011092C70124EE31E03093CA01209392
:1027B000C9018FBF88E0EAE0F1E0DE0111960190E7
:1027C0000D928A95E1F78E010F5F1F4F9BEFC92E87
:1027D00091E0D92EE12CF12C26E1822E21E0922EDF
:1027E0003EEFB32E8CE090E00E940215FC01D80170
:1027F0008D918D01918280828283C7018D529E4F7F
:10280000958384831386128616821782108611861A
:10281000B382D601ED93FD936D01B2E0EB0EF11C96
:10282000E0E1EE16F104F1F685E090E00E94021579
:102830007C0182E291E0D70111969C938E9384E211
:1028400012968C93129780E490E014969C938E934A
:10285000139788EB90E00E9402158C0188E291E0CA
:10286000F80191838083EA54FF4F80E098E39183DD
:102870008083EE55F10986E1808331968DEC91E0FD
:102880009183808388E0D82ED8011296DC9212972B
:102890008BEF91E014969C938E93139716961C924F
:1028A0001E9215971896FC92EE9217973296108208
:1028B000319686E690E091838083329684EE91E0B3
:1028C000918380837801B0E6EB0EF11C83E0F70181
:1028D000808361E00E94770F60E0D7018C910E94B5
:1028E000470FF801EA59FF4F1082E95BFF4F108252
:1028F000118212821382349682ED90E0918380835C
:10290000EA55F10983E88083C8010E9461048DE0E3
:1029100092E09093CC018093CB01F8011186ED54A5
:10292000FF4F1082D8011A961C921A971C961C927F
:102930001C971B961C92C8010E94D0038091E30152
:102940008D7F8B7F8093E30180E491E0F801918398
:10295000808310930C0200930B02D18662E088E022
:102960000E94770F8DE0D8011A968C9361E00E9447
:10297000770F86ED90E00E94BD066E01B9E0CB0EA8
:10298000D11C8091C0029091C102009711F484EC97
:1029900092E0C81AD90A0091CB011091CC0101151F
:1029A0001105F1F00D2C000CEE08FF08F7FE12C027
:1029B000D801ED91FC910190F081E02D6DE2C8010C
:1029C000099544275527BA014C195D096E097F09FD
:1029D0002AE003C02AE0B701A601C8010E94D10D78
:1029E00084ED90E00E94BD0680910B0290910C0254
:1029F000DC01ED91FC910190F081E02D09950E94A0
:102A0000AF0EF2CFCF93DF938230910510F482E0C6
:102A100090E0E091C202F091C30220E030E0C0E01B
:102A2000D0E0309711F14081518148175907C0F02B
:102A30004817590761F482819381209719F09B838D
:102A40008A832BC09093C3028093C20226C02115B3
:102A5000310519F04217530718F49A01BE01DF013E
:102A6000EF010280F381E02DDCCF2115310509F162
:102A7000281B390B2430310590F412968D919C91CE
:102A800013976115710521F0FB019383828304C0C4
:102A90009093C3028093C202FD01329644C0FD01AF
:102AA000E20FF31F81939193225031092D933C93B0
:102AB0003AC02091C0023091C102232B41F42091F1
:102AC0000201309103013093C1022093C002209192
:102AD0000001309101012115310541F42DB73EB7B8
:102AE0004091040150910501241B350BE091C00277
:102AF000F091C102E217F307A0F42E1B3F0B281739
:102B0000390778F0AC014E5F5F4F2417350748F066
:102B10004E0F5F1F5093C1024093C0028193919367
:102B200002C0E0E0F0E0CF01DF91CF9108950F9374
:102B30001F93CF93DF93009709F48CC0FC01329769
:102B4000138212820091C2021091C3020115110575
:102B500081F420813181820F931F2091C002309136
:102B6000C1022817390779F5F093C102E093C0023A
:102B700071C0D80140E050E0AE17BF0750F4129684
:102B80002D913C911397AD012115310509F1D90122
:102B9000F3CF9D01DA013383228360817181860F37
:102BA000971F8217930769F4EC0128813981260F5A
:102BB000371F2E5F3F4F318320838A819B81938310
:102BC0008283452B29F4F093C302E093C20242C0F2
:102BD0001396FC93EE931297ED01499159919E0142
:102BE000240F351FE217F30771F480819181840F60
:102BF000951F029611969C938E93828193811396D2
:102C00009C938E931297E0E0F0E0D80112968D919C
:102C10009C911397009719F0F8018C01F6CF8D91D4
:102C20009C9198012E5F3F4F820F931F2091C0020D
:102C30003091C1022817390769F4309729F41092AE
:102C4000C3021092C20202C0138212821093C10208
:102C50000093C002DF91CF911F910F9108958F9241
:102C60009F92AF92BF92CF92DF92EF92FF92CF935B
:102C7000DF93EC01688179818A819B8161157105FF
:102C80008105910521F464E279ED8BE597E02DE172
:102C900033EF41E050E00E94A11649015A019B0127
:102CA000AC01A7EAB1E40E94C0166B017C01ACEE56
:102CB000B4EFA50194010E94CE16DC01CB018C0D6E
:102CC0009D1DAE1DBF1DB7FF03C00197A109B048F0
:102CD00088839983AA83BB83BC01CD019F77DF9151
:102CE000CF91FF90EF90DF90CF90BF90AF909F90EB
:102CF0008F9008950E942F16089586E091E00E941B
:102D00002F160895609306017093070180930801C0
:102D1000909309010895F999FECF92BD81BDF89A6B
:102D2000992780B50895262FF999FECF1FBA92BD35
:102D300081BD20BD0FB6F894FA9AF99A0FBE01969C
:102D40000895052E97FB1EF400940E94B81657FDB7
:102D500007D00E94D31607FC03D04EF40C94B8168B
:102D600050954095309521953F4F4F4F5F4F0895B7
:102D700090958095709561957F4F8F4F9F4F0895E7
:102D80000E94F516A59F900DB49F900DA49F800DF5
:102D9000911D11240895B7FF0C94C0160E94C0160F
:102DA000821B930B0895A1E21A2EAA1BBB1BFD01E7
:102DB0000DC0AA1FBB1FEE1FFF1FA217B307E4071A
:102DC000F50720F0A21BB30BE40BF50B661F771F72
:102DD000881F991F1A9469F7609570958095909552
:102DE0009B01AC01BD01CF010895A29FB001B39F2B
:102DF000C001A39F700D811D1124911DB29F700D04
:102E0000811D1124911D089597FB072E16F400943F
:102E100007D077FD09D00E94181707FC05D03EF4B3
:102E2000909581959F4F0895709561957F4F089576
:102E3000AA1BBB1B51E107C0AA1FBB1FA617B707E0
:102E400010F0A61BB70B881F991F5A95A9F78095FC
:102E50009095BC01CD010895EE0FFF1F0590F491F0
:102E6000E02D099481E090E0F8940C941F1AFB0186
:102E7000DC0102C001900D9241505040D8F70895F6
:102E8000DC0101C06D9341505040E0F70895AEE081
:102E9000B0E0EDE4F7E10C94F6190D891E8986E0A7
:102EA0008C831A8309838FEF9FE79E838D83AE0106
:102EB000475E5F4F6F89788DCE0101960E946A1739
:102EC0002F813885F801E20FF31F10822E96E4E07F
:102ED0000C94121AACE0B0E0E0E7F7E10C94E819CA
:102EE0007C016B018A01FC0117821682838181FFBC
:102EF000BDC1CE0101964C01F7019381F60193FD0E
:102F0000859193FF81916F01882309F4ABC18532CC
:102F100039F493FD859193FF81916F01853229F4F6
:102F2000B70190E00E945219E7CF512C312C20E0DC
:102F30002032A0F48B3269F030F4803259F08332C1
:102F400069F420612CC08D3239F0803339F421606E
:102F500026C02260246023C0286021C027FD27C02E
:102F600030ED380F3A3078F426FF06C0FAE05F9E65
:102F7000300D1124532E13C08AE0389E300D1124D9
:102F8000332E20620CC08E3221F426FD6BC12064EA
:102F900006C08C3611F4206802C0883641F4F60170
:102FA00093FD859193FF81916F018111C1CF982F7E
:102FB0009F7D9554933028F40C5F1F4FFFE3F983F6
:102FC0000DC0833631F0833771F0833509F05BC073
:102FD00022C0F801808189830E5F1F4F44244394EF
:102FE000512C540115C03801F2E06F0E711CF8012C
:102FF000A080B18026FF03C0652D70E002C06FEF96
:103000007FEFC5012C870E9447192C0183012C8575
:103010002F77222E17C03801F2E06F0E711CF801D5
:10302000A080B18026FF03C0652D70E002C06FEF65
:103030007FEFC5012C870E943C192C012C8520684C
:10304000222E830123FC1BC0832D90E048165906D5
:10305000B0F4B70180E290E00E9452193A94F4CFA4
:10306000F50127FC859127FE81915F01B70190E072
:103070000E94521931103A94F1E04F1A510841144C
:10308000510471F7E5C0843611F0893639F5F8013D
:1030900027FF07C060817181828193810C5F1F4F80
:1030A00008C060817181072E000C880B990B0E5FA0
:1030B0001F4F2F76722E97FF09C0909580957095BF
:1030C00061957F4F8F4F9F4F2068722E2AE030E02E
:1030D000A4010E948A19A82EA81844C0853729F493
:1030E0002F7EB22E2AE030E025C0F22FF97FBF2ECE
:1030F0008F36C1F018F4883579F0B4C0803719F0F4
:10310000883721F0AFC02F2F2061B22EB4FE0DC042
:103110008B2D8460B82E09C024FF0AC09F2F9660B3
:10312000B92E06C028E030E005C020E130E002C042
:1031300020E132E0F801B7FE07C060817181828131
:1031400093810C5F1F4F06C06081718180E090E029
:103150000E5F1F4FA4010E948A19A82EA818FB2DEC
:10316000FF777F2E76FE0BC0372D3E7FA51450F4DF
:1031700074FE0AC072FC08C0372D3E7E05C0BA2C12
:10318000372D03C0BA2C01C0B52C34FF0DC0FE0191
:10319000EA0DF11D8081803311F4397E09C032FFC0
:1031A00006C0B394B39404C0832F867809F0B39417
:1031B00033FD13C030FF06C05A2CB31418F4530C5F
:1031C0005B18B32CB31468F4B70180E290E03C873D
:1031D0000E945219B3943C85F5CFB31410F43B18F8
:1031E00001C0312C34FF12C0B70180E390E03C876E
:1031F0000E9452193C8532FF17C031FD03C088E799
:1032000090E002C088E590E0B7010CC0832F86787B
:1032100059F031FF02C08BE201C080E237FD8DE240
:10322000B70190E00E945219A51438F4B70180E369
:1032300090E00E9452195A94F7CFAA94F401EA0D33
:10324000F11D8081B70190E00E945219A110F5CFC5
:10325000332009F451CEB70180E290E00E94521968
:103260003A94F6CFF7018681978102C08FEF9FEFE6
:103270002C96E2E10C94041AFC0105906150704018
:103280000110D8F7809590958E0F9F1F0895FC012F
:103290006150704001900110D8F7809590958E0F85
:1032A0009F1F08950F931F93CF93DF93FB012381FB
:1032B00021FD03C08FEF9FEF28C022FF16C046817B
:1032C0005781248135814217530744F4A081B1818D
:1032D0009D012F5F3F4F318320838C93268137815F
:1032E0002F5F3F4F3783268310C0EB01092F182F24
:1032F0000084F185E02D0995892BE1F68E819F816F
:1033000001969F838E83812F902FDF91CF911F9104
:103310000F910895FA01AA27283051F1203181F147
:10332000E8946F936E7F6E5F7F4F8F4F9F4FAF4FCD
:10333000B1E03ED0B4E03CD0670F781F891F9A1FE0
:10334000A11D680F791F8A1F911DA11D6A0F711D94
:10335000811D911DA11D20D009F468943F912AE0A0
:10336000269F11243019305D3193DEF6CF01089588
:10337000462F4770405D4193B3E00FD0C9F7F6CFB9
:10338000462F4F70405D4A3318F0495D31FD405281
:10339000419302D0A9F7EACFB4E0A6959795879517
:1033A00077956795BA95C9F70097610571050895F6
:1033B0009B01AC010A2E06945795479537952795A2
:1033C000BA95C9F7620F731F841F951FA01D08953A
:1033D0002F923F924F925F926F927F928F929F9225
:1033E000AF92BF92CF92DF92EF92FF920F931F9313
:1033F000CF93DF93CDB7DEB7CA1BDB0B0FB6F894C4
:10340000DEBF0FBECDBF09942A88398848885F8403
:103410006E847D848C849B84AA84B984C884DF8074
:10342000EE80FD800C811B81AA81B981CE0FD11D58
:103430000FB6F894DEBF0FBECDBFED01089510E0CA
:10344000CDE9D0E004C0FE010E942C172196CE39B0
:08345000D107C9F7F894FFCF82
:103458000000C4028000010000000E0F10111213BA
:103468000A0B0000000057033F01E402A903000013
:103478000000200200000000BF0FDD06E30EE20E90
:10348800EB0AC800BC0A950A05012C0B00000000D5
:10349800BF0FDD06E30EAF01EB0AC800BC0A950AB0
:1034A80005012C0B00000000210DEA0C720E680DBE
:1034B800A30E810E950E00000000DE04EA0CAC019C
:1034C800630172018A014B013A002530376C75009F
:0234D8000A00E8
:00000001FF
