:100000000C949E000C94C6000C94C6000C94B7048B
:100010000C9438040C94B9030C94C6000C94C600DC
:100020000C94C6000C94C6000C94C6000C94C60038
:100030000C94C6000C94C6000C94C6000C94C60028
:100040000C94500C0C94C6000C9457110C94311164
:100050000C94C6000C94C6000C94C6000C94C60008
:100060000C94C6000C94C600523A2041434B0A003F
:100070000A00543A2000453A204352430A000A003D
:10008000453A204D7367546F6F4C6F6E670A003AA4
:1000900000523A2000543A2046575665720A0054DE
:1000A0003A2048575665722C5479700A00433A201A
:1000B000577269746520454550524F4D0A00433AC6
:1000C000205265616420454550524F4D0A00200082
:1000D000533A200000000000240027002A000000FE
:1000E00000080002010000030407000000000000F7
:1000F00000000A00423A20324120000000000025A2
:100100000028002B00000000002300260029000426
:1001100004040404040404020202020202030303AE
:1001200003030301020408102040800102040810A8
:100130002001020408102000BC11891111241FBEE7
:10014000CFEFD8E0DEBFCDBF11E0A0E0B1E0EAEA3A
:10015000F2E302C005900D92A038B107D9F722E072
:10016000A0E8B1E001C01D92AE3BB207E1F710E09C
:10017000CDE9D0E004C02197FE010E945516CC398C
:10018000D107C9F70E9430120C9448190C94000052
:10019000089580E008950895FA0128E04081518192
:1001A000CA01880F991F67FD81609183808357FF83
:1001B00008C08081918132E0832730E193279183C9
:1001C0008083660F215051F708952091DA01309114
:1001D000DB012817390771F49091D8018091D9017A
:1001E000981741F0E091D801F0E0E058FE4F80818F
:1001F00090E008958FEF9FEF08952091DA013091FC
:10020000DB012817390739F48FB7F8941092D90118
:100210001092D8018FBF08952091DA013091DB014F
:100220002817390771F48091D9012091D80190E005
:10023000805C9F4F821B910960E470E00E942D1644
:10024000089580E090E008952091DA013091DB017B
:1002500028173907B9F49091D8018091D9019817DE
:1002600089F0E091D801F0E0E058FE4F80812091C4
:10027000D80130E02F5F3F4F2F7333272093D801F1
:1002800090E008958FEF9FEF0895089580E090E04B
:1002900008954F925F926F927F929F92AF92BF921A
:1002A000CF92DF92EF92FF920F931F93CF93DF9342
:1002B0001F92CDB7DEB7DC0119962D913C911A97AC
:1002C000232B09F448C0942E5B016C010E94440C5E
:1002D000F60105811681278130852B013C01401AEA
:1002E000510A620A730A93018201418552852A01EB
:1002F000612C712C041515052605370560F1658301
:100300007683878390870190F081E02D0280F381CE
:10031000E02DBE016F5F7F4FC6010995D501ED91BC
:10032000FC910084F185E02DE12CF12C87019E01E8
:100330002F5F3F4F41E0692DC5010995813031F4B0
:100340008AEF90E0F6019287818705C0D6011A9660
:100350001C921E9219970F90DF91CF911F910F91D0
:10036000FF90EF90DF90CF90BF90AF909F907F90E5
:100370006F905F904F900895EF92FF920F931F93AD
:10038000CF938C01C62F7A018091DC019091DD0121
:10039000009721F066E771E00E94D3108C2F0E9435
:1003A0009A0CE114F10429F0A7016C2FC8010E94F6
:1003B000CC00045A1F4F84E08C0F833060F4D801C6
:1003C0008D919C91DC01ED91FC910190F081E02DEB
:1003D0006CEF0995CF77F80180819181DC01ED9177
:1003E000FC910190F081E02D6C2FCF911F910F9126
:1003F000FF90EF9009942F923F924F925F926F92ED
:100400007F928F929F92AF92BF92CF92DF92EF92A4
:10041000FF920F931F93CF93DF93CDB7DEB727974C
:100420000FB6F894DEBF0FBECDBF3C015B011901D2
:100430002A01F02E10E0DD24DA94F30182811817EE
:1004400008F081C027E0129F40011124D3011396C8
:100450004D915C911497480D591D01E024E030E066
:10046000BE016F5F7F4FC5010E941F0D89819A8178
:10047000AB81BC818F3FEFEF9E07AE07BE0709F44B
:1004800060C082159305A405B50509F05AC0D301D3
:1004900013964D915C9114974C5F5F4F480D591D19
:1004A00000E021E030E0BE01695F7F4FC5010E949E
:1004B0001F0D8F818F1145C0F301438154814B5F24
:1004C0005F4F480D591D21E030E0BE01695F7F4F4D
:1004D000C5010E941F0D8F818E1133C0D301139669
:1004E0004D915C9114974A5F5F4F480D591D21E073
:1004F00030E0BE016A5F7F4FC5010E941F0D8E81F3
:10050000C11002C093E001C09CE089238E8381303A
:1005100051F030F08230A9F0833031F4DD8204C034
:10052000B8ECBD8301C01D82D501ED91FC91028024
:10053000F381E02D9E012B5F3F4F41E06E2DC50101
:1005400009951F5F7ACF27960FB6F894DEBF0FBECE
:10055000CDBFDF91CF911F910F91FF90EF90DF9072
:10056000CF90BF90AF909F908F907F906F905F9053
:100570004F903F902F900895EF92FF920F931F930B
:10058000CF93DF937C01EB01DC0112968C910E94EA
:10059000AF0BD7011396ED91FC911497208122FBAC
:1005A000002700F910E08017910719F088EC888384
:1005B00001C0188281E0DF91CF911F910F91FF90D0
:1005C000EF9008950F931F93CF93DF93EC018B016E
:1005D000EB81FC81808181FF18C0F9019081993CF9
:1005E00040F08A810E94AF0B61E0892B59F060E0F6
:1005F00009C082FB882780F9992319F061E06827F8
:1006000001C0682F8A810E94D80B89859A85892B21
:10061000C1F4EB81FC81808180FF13C00E94440CF7
:100620006D837E838F839887F801E95AFF4F01908D
:10063000F081E02D8081F4E68F9FC00111249A871C
:100640008987DF91CF911F910F9108950F931F9389
:10065000CF93DF938091EE018F3F19F484E1809373
:10066000EE01CEEDD1E009911991D8011396ED91EB
:10067000FC911497608162FB662760F912968C9159
:100680000E94D80B61E0F80182810E94080CF1E021
:10069000CE3EDF0741F7DF91CF911F910F91089573
:1006A00020E001972FEF8F3F9207D9F70895CF925F
:1006B000DF92EF92FF920F931F93CF93DF93EC01A2
:1006C000C62E0FB7F894E989FA89908188898095B8
:1006D0008923808387E790E00E94500388E090E0C0
:1006E00020E810E0322F3C2109F01F5F269501978A
:1006F000C9F788E0E82EF12CDD24D394E989FA8942
:1007000088899D2D9C2119F09081892B03C09081AF
:1007100080958923808382E790E00E945003DD0C5E
:1007200081E0E81AF10851F7E989FA89888990810E
:1007300010FF02C0892B02C080958923808382E745
:1007400090E00E945003E989FA8990818889892B79
:1007500080830FBF82E790E00E94500381E090E029
:10076000DF91CF911F910F91FF90EF90DF90CF908D
:1007700008951F920F920FB60F921124EF92FF92DD
:100780000F931F932F933F934F935F936F937F9399
:100790008F939F93AF93BF93CF93DF93EF93FF9389
:1007A000C091DA01D091DB01209709F44AC0EE85AF
:1007B000FF8590818D85892309F043C086E390E011
:1007C0000E94500388E0E82EF12C10E001E085E75C
:1007D00090E00E945003EE85FF8590818D858923EE
:1007E00011F0102B03C0802F80951823000F81E09B
:1007F000E81AF10861F785E790E00E94500385E769
:1008000090E00E9450038091D9012091D80190E09E
:1008100001968F73992730E08217930779F0E09162
:10082000D901F0E0E058FE4F10838091D90190E0AB
:1008300001968F7399278093D90103C08E898160B7
:100840008E8BFF91EF91DF91CF91BF91AF919F91EF
:100850008F917F916F915F914F913F912F911F9158
:100860000F91FF90EF900F900FBE0F901F90189573
:100870001F920F920FB60F921124EF92FF920F93D7
:100880001F932F933F934F935F936F937F938F9318
:100890009F93AF93BF93CF93DF93EF93FF93C09159
:1008A000DA01D091DB01209709F44AC0EE85FF857B
:1008B00090818D85892309F043C086E390E00E94F2
:1008C000500388E0E82EF12C10E001E085E790E08D
:1008D0000E945003EE85FF8590818D85892311F05C
:1008E000102B03C0802F80951823000F81E0E81A99
:1008F000F10861F785E790E00E94500385E790E0FA
:100900000E9450038091D9012091D80190E0019676
:100910008F73992730E08217930779F0E091D9011E
:10092000F0E0E058FE4F10838091D90190E00196ED
:100930008F7399278093D90103C08E8981608E8B34
:10094000FF91EF91DF91CF91BF91AF919F918F91E7
:100950007F916F915F914F913F912F911F910F91D7
:10096000FF90EF900F900FBE0F901F9018951F9261
:100970000F920FB60F921124EF92FF920F931F93D5
:100980002F933F934F935F936F937F938F939F9397
:10099000AF93BF93CF93DF93EF93FF93C091DA01AF
:1009A000D091DB01209709F44AC0EE85FF85908144
:1009B0008D85892309F043C086E390E00E945003AF
:1009C00088E0E82EF12C10E001E085E790E00E943D
:1009D0005003EE85FF8590818D85892311F0102BC2
:1009E00003C0802F80951823000F81E0E81AF108DA
:1009F00061F785E790E00E94500385E790E00E9450
:100A000050038091D9012091D80190E001968F7315
:100A1000992730E08217930779F0E091D901F0E04F
:100A2000E058FE4F10838091D90190E001968F73BA
:100A300099278093D90103C08E8981608E8BFF91A5
:100A4000EF91DF91CF91BF91AF919F918F917F9166
:100A50006F915F914F913F912F911F910F91FF9057
:100A6000EF900F900FBE0F901F9018950F931F934C
:100A7000CF93DF930091DC011091DD010115110589
:100A800081F0EC01FE016491662359F0D801ED91EB
:100A9000FC910190F081E02DC80109952196892BE8
:100AA00089F7DF91CF911F910F9108953F924F9257
:100AB0005F926F927F928F929F92AF92BF92CF92EE
:100AC000DF92EF92FF920F931F93CF93DF93EC018E
:100AD0005C018CE5A80EB11C3E019BEA690E711CFD
:100AE0008E01015A1F4FDE01A759BF4F7D014424DB
:100AF0004A9435E0332E6E01B5E6CB0ED11C882426
:100B00008A94982CD5018D919C91DC01ED91FC91FA
:100B10000084F185E02D0995892B09F4DDC00E9440
:100B2000440CF3016083718382839383D5018D919B
:100B30009C91DC01ED91FC910284F385E02D0995F7
:100B4000582EBDEF8B1303C081E990E002C08FE8FF
:100B500090E00E943605852D0E949A0CECEF5E1203
:100B600007C0D8018C9181FD24C082608C93CACFCC
:100B7000BDEF5B121EC0F80180818D7F8160808394
:100B80001092C4011092C3011B861C861D861E860E
:100B9000D6011D921D921D921C9213979092C20134
:100BA0008092C10141EC51E06DEFCE010E94CC007A
:100BB000A9CFF801808180FFA5CF81FF06C0F52D68
:100BC000F0685F2E8D7FD8018C9341EC51E0652D4C
:100BD000CE010E94CC008091C301843078F4F601EC
:100BE0004081518162817381762F652F542F442774
:100BF000452940835183628373831AC0843029F46A
:100C00003092C3015092C0017DCF4091C00143FF9B
:100C100013C0893088F44B855C856D857E85762F81
:100C2000652F542F442745294B875C876D877E8726
:100C30008F5F8093C30166CF8F3F79F04092C301ED
:100C4000F7015082F0E4F51508F05CCFD8018C91E3
:100C50008E7F8C9380E890E03CC08091C401FE01BF
:100C6000E80FF11DE659FF4F508291E0980F9093E5
:100C7000C401F7012081921345CF2091C101309129
:100C8000C201232B21F5D8019C919E7F9C93FE01EC
:100C9000E655FF4F40838150F7018083CC59DF4FE9
:100CA00081E088838EE790E0DF91CF911F910F91D3
:100CB000FF90EF90DF90CF90BF90AF909F908F907C
:100CC0007F906F905F904F903F900C94360586E731
:100CD00090E00E94360516CFDF91CF911F910F91C2
:100CE000FF90EF90DF90CF90BF90AF909F908F904C
:100CF0007F906F905F904F903F9008954F925F92DA
:100D00006F927F92AF92BF92CF92DF92FF920F933A
:100D10001F93CF93DF9300D0CDB7DEB78C018FEF59
:100D20009FEF9A838983F80187859089A189B28989
:100D30008F3F9F4FAF4FBF4FA1F0F801E655FF4FD8
:100D4000808190E095958795837020E2829FC00115
:100D50001124D80153969C9153979F79892B5396D0
:100D60008C9382E790E00E9436056801BEE5CB0EC9
:100D7000D11C61E0F60180810E94D80B8DEF0E94AA
:100D80009A0C5801FCE5AF0EB11CD5018D919C91D8
:100D9000DC01ED91FC910190F081E02D6DEF099562
:100DA000AE014F5F5F4F6DEFC8010E94CC00F801AC
:100DB000478450886188728854E0F52E672D772724
:100DC00088279927AE014F5F5F4FC8010E94BC0181
:100DD000762C652C542C4424FA94F110EFCFAE01FC
:100DE0004F5F5F4FD80153966C91C8010E94BC01C0
:100DF000F801838983FD0CC0D80154966C916E5F15
:100E0000AE014F5F5F4FC8010E94BC01F12C1BC0B7
:100E1000F801E05AFF4F408051806280738024E0E7
:100E2000F22E672D772788279927AE014F5F5F4FF6
:100E3000C8010E94BC01762C652C542C4424FA94E1
:100E4000F110EFCFD9CFF8018489F81660F4F801DA
:100E5000EF0DF11DAE014F5F5F4F6589C8010E9424
:100E6000BC01F394F0CFAE014F5F5F4F60E0C8016B
:100E70000E94CC00AE014F5F5F4F60E0C8010E944E
:100E8000CC006A8140E050E0C8010E94BC0140E013
:100E900050E06981C8010E94BC01D5018D919C91EF
:100EA000DC01ED91FC910680F781E02D099560E071
:100EB000F60180810E94D80BF801E15AFF4F808132
:100EC0008860808380E790E00E9436050F900F9045
:100ED000DF91CF911F910F91FF90DF90CF90BF9046
:100EE000AF907F906F905F904F900895EF92FF9238
:100EF0000F931F93CF93DF93EC018C01015A1F4F87
:100F0000F80180819E0126553F4F790183FF26C05D
:100F1000F901808190E025E0959587952A95E1F784
:100F2000282F23708B8990E09595879583702813DF
:100F300015C04B855C856D857E858F859889A989CF
:100F4000BA89481759076A077B0741F488E690E099
:100F50000E943605F8018081877F8083F7018081B8
:100F600083708130F9F0FE01E759FF4F80818111D4
:100F70001BC0349780819181A281B3818F3F9F4FA5
:100F8000AF4FBF4F89F08B859C85AD85BE858F8720
:100F9000988BA98BBA8B89E18B8B1C8A60E0CE0180
:100FA0000E94DC0780E001C081E0DF91CF911F91BA
:100FB0000F91FF90EF9008954F925F926F927F9202
:100FC0008F929F92AF92BF92CF92DF92EF92FF9259
:100FD0000F931F93CF93DF93EC01862E662379F155
:100FE0000E94440CFE01E555FF4F008111812281D2
:100FF0003381AB01BC01401B510B620B730B8E01A3
:1010000001551F4FF80180819181A0E0B0E04817A1
:1010100059076A077B0710F481E085C00E94A61576
:1010200024E630E040E050E00E94CA15DC01CB012C
:101030008E529F4FAF4FBF4FF801918380838F85B2
:101040009889A989BA898F3F9F4FAF4FBF4F09F445
:101050005CC08B898370813009F457C083E0982E7F
:101060008E010C591F4F7E0125E6E20EF11C6E0128
:1010700080E6C80ED11C5E01EFE5AE0EB11CCE01BC
:101080000E947E060E94440C2B013C010E94440CED
:10109000DC01CB0184199509A609B709883C9105A3
:1010A000A105B10510F5CE010E945605F801808119
:1010B000882361F3F7014081518162817381F601D8
:1010C00080819181A281B381481759076A077B0704
:1010D000E9F6F8011082CE010E947607F5019081B1
:1010E000892F887093FDD2CF1EC08820C1F00E9446
:1010F000440CDC01CB0184199509A609B70986398E
:101100009105A105B10558F487CFCE010E947E0656
:10111000C15ADF4F8881877F888380E004C09A941A
:101120009110ADCF82E0DF91CF911F910F91FF9091
:10113000EF90DF90CF90BF90AF909F908F907F9077
:101140006F905F904F9008954F925F926F927F9251
:101150008F929F92AF92BF92CF92DF92EF92FF92C7
:101160000F931F93CF93DF93211183C1F42E6B0153
:10117000EC014B855C856D857E854F87588B698B2F
:101180007A8B88E78B8BD6018C91833509F447C124
:10119000B0F4833409F454C040F4803491F18134C4
:1011A00009F050C189E68D8B50C18B3409F4AFC072
:1011B000823509F4BFC0853409F044C145C0833786
:1011C00009F41EC150F4883609F402C18E3609F4C0
:1011D0000BC1873509F036C1CFC0883709F410C17B
:1011E0008B3C09F494C0863709F02CC185E990E066
:1011F0000E943605FE01E65AFF4F808191819D8B4A
:10120000FBC0F6018181813621F0CE010E94E20D02
:1012100019C1F6E0FF12F9CF22E0C20ED11C0CEF8B
:1012200013E0D6014D916D0121E0B801CE010E947D
:10123000350E0F5F1F4F0115B4E01B0791F7E5CF87
:10124000CE010E94490DFEC0F601A380F4808F2DCF
:101250008695869586959F2D977011F48C5F01C0B9
:101260008B5F8C8B4C8950E060E070E0CE0145963E
:101270000E94691685E68D8BD60111968C91119787
:101280008E8B12968C9112978F8B13968C91888FE0
:10129000B12C812C912C00E010E0CF2CD12C412CD2
:1012A000512C32014394C016D1060CF4CEC0E12C6F
:1012B000F12CEA14FB0434F5C701880D991D0E9436
:1012C000B4158F3FD9F0F80123E0F595E7952A95FD
:1012D000E1F73496EC0FFD1FC80187709927A30131
:1012E000920104C0220F331F441F551F8A95D2F765
:1012F000DA01C9012589822B858B04C03FEFE31AEF
:10130000F30AD7CF0F5F1F4F8A0C9B1CCCCFE8810D
:10131000F981D60113968C9113978170E82E00887D
:10132000F189E02D12960C91129711962C91CE0115
:10133000099588C0B4E0FB1285C08EEB90E00E9456
:101340003605F601018110E0102F00278281082B5D
:10135000F12CD60113968C91F81608F04FC0AF2CE3
:10136000B12CC501800F911F0E94B415FE01EA0D3A
:10137000FB1D858BF394EDCF2F2D30E0D601139616
:101380008C9190E004962817390709F05BC08DEA2C
:1013900090E00E943605F601018110E0102F002731
:1013A0008281F4E0CF0ED11C082B84E0E82EE01AF5
:1013B0008E2D800F8F1508F045C0D6014D916D011F
:1013C00020E0B801CE010E94350E0F5F1F4FF0CF15
:1013D0008FE990E00E943605FE01EB5AFF4F8081B5
:1013E0008D8B3496808108C0BE016B5E7F4FCE012D
:1013F0000E94960D8AE002C08E8B82E08C8B25C005
:10140000E881F98196012E5F3F4F4EEF4F0D02802C
:10141000F381E02DD60111966C91CE010995F6016C
:10142000618119E61D8B6E8BE881F9810480F5815D
:10143000E02DAE01495E5F4FCE0109958E5F8C8B2A
:101440001D8B03C089E18B8B1C8A60E0CE01DF918C
:10145000CF911F910F91FF90EF90DF90CF90BF90B1
:10146000AF909F908F907F906F905F904F900C9473
:10147000DC07DF91CF911F910F91FF90EF90DF90EC
:10148000CF90BF90AF909F908F907F906F905F9024
:101490004F900895FC01918D828D981761F0828D97
:1014A000DF01A80FB11D5D968C91928D9F5F9F7398
:1014B000928F90E008958FEF9FEF0895FC01918D3A
:1014C000828D981731F0828DE80FF11D858D90E0A7
:1014D00008958FEF9FEF0895FC01918D228D892F44
:1014E00090E0805C9F4F821B91098F73992708952C
:1014F00080E090E0892B29F00E945E1081110C940D
:1015000000000895833081F028F4813099F0823012
:10151000A1F008958730A9F08830B9F08430D1F473
:10152000809180008F7D03C0809180008F778093B1
:101530008000089584B58F7702C084B58F7D84BD07
:1015400008958091B0008F7703C08091B0008F7DA7
:101550008093B00008950895FC018281681790F48B
:1015600023818481E22FF82FE60FF11DE60FF11D94
:1015700080819181DC01ED91FC910280F381E02D6D
:10158000BA010994DA011C9281E00895AF92BF92EA
:10159000CF92DF92EF92FF920F931F93CF93DF933F
:1015A000EC01D62EB42EA22E8D819E81009759F08B
:1015B000DC01ED91FC910190F081E02D022F242FB0
:1015C000462FBE010995E881F9810484F585E02D57
:1015D000C12CEE24EA94FE2C87012A2D4B2D6D2D73
:1015E000CE010995DF91CF911F910F91FF90EF9060
:1015F000DF90CF90BF90AF900895CF92EF920F936E
:10160000FC0187819085009769F0CE2CE02E022F97
:101610009A01AB01BF01DC01ED91FC910190F081D9
:10162000E02D09950F91EF90CF900895CF92EF9212
:10163000FF920F931F93FC01E786F08A018B128BB8
:1016400088EF838B84E0848B8BE4858B668BC78AE1
:10165000211102C082E001C083E0440F440F480F13
:10166000408F61E0CF011F910F91FF90EF90CF90DD
:101670000C94DC07CF93DF93EC018FEF9FEFDC013D
:101680008F87988BA98BBA8B88EF8B8B83E0840F25
:101690008C8B8BE48D8B6E8B1F8A50E0B901CE0151
:1016A00048960E94601661E0CE01DF91CF910C94C4
:1016B000DC07EF92FF920F931F93CF93DF93EC0120
:1016C000EF86F88A098B1A8BEF28E02AE12A71F459
:1016D000FC01E95AFF4F0190F081E02D8181928158
:1016E000A381B4818F87988BA98BBA8B88EF8B8B62
:1016F00082E0840F8C8B89E68D8B6E8B50E0B90174
:10170000CE0147960E94601661E0CE01DF91CF9135
:101710001F910F91FF90EF900C94DC07FC01848DDA
:10172000DF01A80FB11DA35ABF4F2C91848D90E00B
:1017300001968F739927848FA689B7892C93A089E6
:10174000B1898C9180648C93938D848D981306C09D
:101750000288F389E02D80818F7D80830895CF9367
:10176000DF93282F30E0F901E252FF4F8491F90115
:10177000ED5DFE4FD491F901E15FFE4FC491CC23A2
:1017800091F081110E94820AEC2FF0E0EE0FFF1F12
:10179000EB5FFE4FA591B491EC91ED2381E090E0D9
:1017A00021F480E002C080E090E0DF91CF910895C5
:1017B0001F93CF93DF93282F30E0F901E252FF4FC0
:1017C0008491F901ED5DFE4FD491F901E15FFE4F87
:1017D000C491CC23C9F0162F81110E94820AEC2FEC
:1017E000F0E0EE0FFF1FE550FF4FA591B4918FB7CA
:1017F000F894111105C09C91ED2FE095E92302C0EA
:10180000EC91ED2BEC938FBFDF91CF911F91089559
:10181000CF93DF9390E0FC01ED5DFE4F2491FC013E
:10182000E15FFE4F8491882361F190E0880F991F5A
:10183000FC01EC52FF4FC591D491FC01E550FF4FE4
:10184000A591B491611109C09FB7F8948881209542
:1018500082238883EC912E230BC0623061F49FB702
:10186000F8943881822F809583238883EC912E2BE6
:101870002C939FBF06C08FB7F894E8812E2B288346
:101880008FBFDF91CF9108952FB7F8946091D40165
:101890007091D5018091D6019091D7012FBF089505
:1018A0001F920F920FB60F9211242F933F938F9395
:1018B0009F93AF93BF938091D4019091D501A09154
:1018C000D601B091D7013091D30123E0230F2D37FA
:1018D00020F40196A11DB11D05C026E8230F029634
:1018E000A11DB11D2093D3018093D4019093D50104
:1018F000A093D601B093D7018091CF019091D001F0
:10190000A091D101B091D2010196A11DB11D80938A
:10191000CF019093D001A093D101B093D201BF9198
:10192000AF919F918F913F912F910F900FBE0F908C
:101930001F901895CF93C82F8091DC019091DD0105
:101940000097D9F04C2F50E024E0559547952A9503
:10195000E1F7052E000C660B770B20E10E94E810E2
:101960004C2F4F7050E060E070E020E18091DC018E
:101970009091DD01CF910C94E810CF910895BF9222
:10198000CF92DF92EF92FF920F931F93CF93DF934B
:101990008C01F62ED42EE22EC32E8091DC01909184
:1019A000DD01892B01F180ED90E00E9436058F2D3D
:1019B0000E949A0C8EEC90E00E943605BE2CCE2D33
:1019C000DC2D8C2F8B198D1520F489910E949A0C97
:1019D000F8CF8091DC019091DD01009721F068E75C
:1019E00071E00E94D310F8018281F816F0F493811F
:1019F0008481E92FF82FEF0DF11DEF0DF11D80818E
:101A00009181DC01ED91FC910190F081E02D2E2D72
:101A10003C2D4D2DB801DF91CF911F910F91FF907B
:101A2000EF90DF90CF90BF900994DF91CF911F91FD
:101A30000F91FF90EF90DF90CF90BF900895AF92FD
:101A4000BF92CF92DF92EF92FF920F93CF93DF93EB
:101A50006B015A01E90121977B01C7018C199D098E
:101A6000CF3FFFEFDF0759F00111CE018A0D9B1D1B
:101A70000E94B415F70181937F012197EECFDF918A
:101A8000CF910F91FF90EF90DF90CF90BF90AF90EC
:101A90000895CF92DF92EF92FF920F93CF93DF934F
:101AA00000D000D0CDB7DEB77C01FC01EA5AFF4F71
:101AB000208130E06C0187E5C80ED11CD6016D9104
:101AC0007C9100E041E050E0C7010E941F0DD6016B
:101AD000ED91FC9181819281A381B48189839A8364
:101AE000AB83BC838C818183D601ED91FC911197EE
:101AF0008B818283ED91FC9111978A818383ED9193
:101B0000FC9189818483D701ED91FC910680F78156
:101B1000E02DC7010F900F900F900F90DF91CF91A4
:101B20000F91FF90EF90DF90CF900994EF92FF928A
:101B30000F931F93CF93DF93CDB7DEB764970FB6A4
:101B4000F894DEBF0FBECDBF8B01FC01E05AFF4F02
:101B5000608171818281938120E836E948E950E013
:101B60000E94FC159F938F937F936F938AE791E078
:101B70009F938F93CE0101967C019F938F930E9438
:101B8000701688E4F801808382E4818387E582838C
:101B9000D801139687E0F70101900D928A95E1F73D
:101BA0000FB6F894DEBF0FBECDBF64960FB6F894A3
:101BB000DEBF0FBECDBFDF91CF911F910F91FF9080
:101BC000EF900895CF92DF92EF92FF920F931F93C1
:101BD000CF93DF93EC010CEF13E060E070E0CB01FA
:101BE000CC24D62EE72EF82EC8010E94B415A701EA
:101BF0009601282BCA01B9010F5F1F4F011534E070
:101C0000130771F76F3F4FEF74078407940721F4B0
:101C10006FEF7FEF8FEF92E4FE01E05AFF4F60839A
:101C2000718382839383611571058105910511F09C
:101C30000E94AB150E94A615C155DF4F24E630E087
:101C400040E050E00E94CA15DC01CB018E529F4F4C
:101C5000AF4FBF4F99838883DF91CF911F910F9131
:101C6000FF90EF90DF90CF9008950F931F93CF9345
:101C7000DF931F92CDB7DEB7FB01211103C06C3F8C
:101C8000734084F48F01CF0149830E94B4156981A8
:101C9000681741F0C8010F90DF91CF911F910F910C
:101CA0000C94BC150F90DF91CF911F910F91089567
:101CB000CF92DF92EF92FF920F931F93CF93DF9318
:101CC000EC010E945605FE01EC59FF4F80818823EC
:101CD000C9F110828E010B591F4FF801808191814B
:101CE000A281B381359740815181628173818417CC
:101CF0009507A607B70729F08F3F9F4FAF4FBF4FFC
:101D000009F5CE010E9476078823E1F048815981C8
:101D100021E0F80180819181A281B3818F3F9F4FA3
:101D2000AF4FBF4F09F020E0DA015296ED91FC91E0
:101D30005397DE01A759BF4F4C91BE0166597F4FA3
:101D4000CE0109950E94440C683E734081059105BF
:101D500060F18091C501811128C08FEF9FEFDC01F8
:101D60008F87988BA98BBA8B88EF8B8B80E18C8BBC
:101D700081E48D8B1E8AFE01EB5AFF4F80818F8B91
:101D8000188E359680819181998F8A8FBE01655E0C
:101D90007F4FCE010E94960D61E0CE010E94DC07CC
:101DA00091E0811190E09093C501F12C8A81F816A1
:101DB000A8F49B818C81E92FF82FEF0DF11DEF0D19
:101DC000F11D80819181DC01ED91FC910480F58110
:101DD000E02D4F2DBE010995F394E8CF89858F3F03
:101DE00009F429C10E94440C6B017C0189850E9481
:101DF000AF0B21E0892B09F020E08091CE018230E9
:101E000009F467C028F4882361F08130C1F0BAC0BA
:101E1000843009F482C008F460C0853009F49DC0A4
:101E2000B1C0222319F081E08093CE01C092CA0193
:101E3000D092CB01E092CC01F092CD01A3C0809171
:101E4000CA019091CB01A091CC01B091CD01222388
:101E500081F097018601081B190B2A0B3B0BD90156
:101E6000C80189389341A105B1050CF48BC082E00B
:101E700071C0A7019601281B390B4A0B5B0B253655
:101E80003105410551050CF47BC08FEF9FEFDC015C
:101E90008F87988BA98BBA8B88EF8B8B80E18C8B8B
:101EA00081E48D8B1E8AFE01EB5AFF4F80818F8B60
:101EB000188E359680819181998F8A8FBE01655EDB
:101EC0007F4FCE010E94960D61E0CE010E94DC079B
:101ED00057C0211157C083E0A7CF8091CA019091CC
:101EE000CB01A091CC01B091CD01B701A601481B57
:101EF000590B6A0B7B0BDB01CA01443651056105A6
:101F000071050CF43FC0222311F084E08DCF8131A4
:101F10009742A105B105A4F535C08091CA01909101
:101F2000CB01A091CC01B091CD01B701A601481B16
:101F3000590B6A0B7B0BDB01CA0144365105610565
:101F4000710504F12223E1F0893B9B40A105B10515
:101F5000CCF085E08093CE0115C0211113C000E0C4
:101F600010E020E04FEFB801CE010E94350E0F5F68
:101F70001F4F0C3F63E01607A1F7CE010E94490DE9
:101F80001092CE018A858F3F09F455C09091CE0101
:101F9000953048F49230A8F4992341F0913009F03B
:101FA0004AC061E004C0953001F145C060E0DF91B6
:101FB000CF911F910F91FF90EF90DF90CF900C94F5
:101FC000D80B4091C6015091C7016091C801709132
:101FD000C90197018601041B150B260B370B05362B
:101FE0001105210531053CF115C04091C601509104
:101FF000C7016091C8017091C90197018601041B56
:10200000150B260B370BB901A8014F3E5240610555
:1020100071058CF00E94AF0B61E0892B09F060E044
:102020008A850E94D80BC092C601D092C701E09267
:10203000C801F092C901DF91CF911F910F91FF90DC
:10204000EF90DF90CF900895CF92DF92EF92FF92C2
:102050000F931F93CF93DF936C017A018B01C0E044
:10206000D0E0CE15DF0589F0D8016D918D01D60144
:10207000ED91FC910190F081E02DC6010995892B2D
:1020800011F47E0102C02196ECCFC701DF91CF9100
:102090001F910F91FF90EF90DF90CF900895FC017A
:1020A000538D448D252F30E0842F90E0821B930BBD
:1020B000541710F0CF960895019708958DE192E09E
:1020C0000E946C0A21E0892B09F420E0822F0895F8
:1020D0000E945B16EF92FF920F931F93CF93DF93B3
:1020E000EC0181E0888F9B8D8C8D981305C0E88969
:1020F000F989808185FD24C0F62E0B8D10E00F5FDD
:102100001F4F0F731127E02E8C8DE8120CC00FB6F5
:1021100007FCFACFE889F989808185FFF5CFCE01E8
:102120000E948E0BF1CF8B8DFE01E80FF11DE35A5B
:10213000FF4FF0820B8FEA89FB898081806207C0A4
:10214000EE89FF896083E889F989808180648083D2
:1021500081E090E0DF91CF911F910F91FF90EF9080
:102160000895CF93DF93EC01888D8823C9F0EA8925
:10217000FB89808185FD05C0A889B9898C9186FD80
:102180000FC00FB607FCF5CF808185FFF2CFA8897D
:10219000B9898C9185FFEDCFCE010E948E0BE7CFE0
:1021A000DF91CF9108956115710579F0FB010190E0
:1021B0000020E9F73197AF01461B570BDC01ED9189
:1021C000FC910280F381E02D099480E090E0089575
:1021D0004F925F926F927F92EF92FF920F931F93B5
:1021E000CF93DF93CDB7DEB7A1970FB6F894DEBFDC
:1021F0000FBECDBF7C01FA01CB0119A2223008F439
:102200002AE08E010F5D1F4F422E512C612C712C44
:10221000BF01A30192010E94FC15F901CA010150FE
:1022200011096A3014F4605D01C0695CD8016C93D7
:10223000232B242B252B61F7B801C7010E94D31053
:10224000A1960FB6F894DEBF0FBECDBFDF91CF9140
:102250001F910F91FF90EF907F906F905F904F9044
:1022600008951F920F920FB60F9211242F933F9350
:102270004F935F936F937F938F939F93AF93BF938E
:10228000EF93FF938DE192E00E948E0BFF91EF910F
:10229000BF91AF919F918F917F916F915F914F917E
:1022A0003F912F910F900FBE0F901F9018951F9286
:1022B0000F920FB60F9211242F938F939F93EF934A
:1022C000FF93E0912D02F0912E028081E091330284
:1022D000F091340282FD12C09081809136028F5FAE
:1022E0008F7320913702821751F0E0913602F0E0AF
:1022F000E35EFD4F958F8093360201C08081FF9190
:10230000EF919F918F912F910F900FBE0F901F9083
:10231000189588E691E0909305028093040220913D
:102320001002263140F5283028F02E3030F0ECE64F
:10233000F0E005C0EDE6F0E002C0EBE6F0E0308151
:10234000283038F481E090E001C0880F2A95EAF740
:102350000FC0422F50E02E3018F44850510902C0EF
:102360004E50510981E090E001C0880F4A95EAF78C
:102370008095832380830895CF93DF93EDE1F2E08E
:102380001382128288EE93E0A0E0B0E0848395830C
:10239000A683B78326E531E03183208325EC30E046
:1023A0003587248724EC30E03787268720EC30E01F
:1023B000318B208B21EC30E0338B228B22EC30E010
:1023C000358B248B26EC30E0378B268B118E128ECA
:1023D000138E148EC4E0D2E01B821A828C839D83FC
:1023E000AE83BF8388E691E099838883EAE1F2E0D7
:1023F00080818E7F808361E082E00E94080C61E032
:1024000082E00E94D80BE5E2F1E0E491E88BE1E1A3
:10241000F1E0E491F0E0EE0FFF1FE550FF4F8591F2
:1024200094919A8B898B60E084E00E94080C61E0B3
:1024300084E00E94D80B84E08C87E7E2F1E0E4912D
:10244000ED87E3E1F1E0E491F0E0EE0FFF1FEB5FD9
:10245000FE4F859194919F878E87DF91CF9108954C
:10246000CF93DF93CDB7DEB72A970FB6F894DEBFD0
:102470000FBECDBF789484B5826084BD84B5816081
:1024800084BD85B5826085BD85B5816085BD80913F
:102490006E00816080936E001092810080918100B7
:1024A00082608093810080918100816080938100AF
:1024B000809180008160809380008091B100846071
:1024C0008093B1008091B00081608093B0008091D2
:1024D0007A00846080937A0080917A008260809391
:1024E0007A0080917A00816080937A0080917A00EE
:1024F000806880937A001092C10062E088E00E94B8
:10250000080C61E08DE00E94080CE0912D02F09132
:102510002E0282E08083E0912902F0912A0210824B
:10252000E0912B02F0912C0287E680831092350215
:10253000E0913102F091320286E08083E0912F0237
:10254000F0913002808180618083E0912F02F091D0
:102550003002808188608083E0912F02F091300208
:10256000808180688083E0912F02F0913002808129
:102570008F7D8083909110029631E0F52091680064
:10258000983050F031E09E3008F430E081E001C036
:10259000880F3A95EAF701C084E0822B80936800A7
:1025A000983038F09E3040F0963148F0E0E0F0E0AE
:1025B00008C0EDE6F0E005C0EBE6F0E002C0ECE6B6
:1025C000F0E04081983030F481E001C0880F9A95A6
:1025D000EAF70EC0292F30E09E3018F42850310958
:1025E00002C02E50310981E001C0880F2A95EAF718
:1025F000842B808382E790E00E9450038091DA016F
:102600009091DB018450924091F080911A028E7F6C
:1026100080931A028FB7F8941092D9011092D801C2
:1026200024E032E03093DB012093DA018FBF88E0B1
:10263000EAE0F1E0DE01119601900D928A95E1F752
:102640008E010F5F1F4F9EEDC92E91E0D92EE12C18
:10265000F12C2CE4A22E21E0B22E8BE090E00E941F
:102660002B14FC01D8018D918D01B182A08282834F
:10267000C7018C509E4F94838383128611861582E6
:10268000168217821086D601ED93FD936D01B2E09C
:10269000EB0EF11CE0E1EE16F104F9F685E090E0B6
:1026A0000E942B147C0186E191E0D70111969C9346
:1026B0008E9384E212968C93129780E490E01496A5
:1026C0009C938E93139781EB90E00E942B148C01C6
:1026D0008CE191E0F80191838083EA5AFF4F86E113
:1026E000808331968EEE91E09183808388E0D82EAE
:1026F000D8011296DC9212978EED91E014969C937D
:102700008E93139716961C921E9215971896FC920C
:10271000EE921797329681E08083319680E091E0C7
:1027200091838083329684E092E091838083780164
:10273000BEE5EB0EF11C83E0F701808361E00E94AF
:10274000080C60E0D7018C910E94D80BF801EC597D
:10275000FF4F1082E95BFF4F1082118212821382B9
:10276000349682ED90E091838083EA55F10983E805
:102770008083C8010E94E20D8DE192E09093DD011B
:102780008093DC018FEFF80181878287C8010E9466
:10279000490D84E391E0D8018D939C93C8010E9478
:1027A000260310931C0200931B02F801D18662E0FD
:1027B00088E00E94080C8DE0D8011A968C9361E0A5
:1027C0000E94080C84EF90E00E9436056E01B9E08B
:1027D000CB0ED11C8091BA029091BB02009711F4EC
:1027E0008EEB92E0C81AD90A0091DC011091DD014C
:1027F00001151105F1F00D2C000CEE08FF08F7FE95
:1028000012C0D801ED91FC910190F081E02D6DE2B4
:10281000C801099544275527BA014C195D096E096D
:102820007F092AE003C02AE0B701A601C8010E947F
:10283000E81082EF90E00E94360580911B02909193
:102840001C02DC01ED91FC910190F081E02D0995D5
:102850000E94780AF2CFCF93DF938230910510F473
:1028600082E090E0E091BC02F091BD0220E030E017
:10287000C0E0D0E0309711F14081518148175907ED
:10288000C0F04817590761F482819381209719F0AD
:102890009B838A832BC09093BD028093BC0226C089
:1028A0002115310519F04217530718F49A01BE019A
:1028B000DF01EF010280F381E02DDCCF211531052E
:1028C00009F1281B390B2430310590F412968D91B3
:1028D0009C9113976115710521F0FB01938382830D
:1028E00004C09093BD028093BC02FD01329644C0A7
:1028F000FD01E20FF31F81939193225031092D9333
:102900003C933AC02091BA023091BB02232B41F490
:1029100020910201309103013093BB022093BA024F
:1029200020910001309101012115310541F42DB7AD
:102930003EB74091040150910501241B350BE091F5
:10294000BA02F091BB02E217F307A0F42E1B3F0B73
:102950002817390778F0AC014E5F5F4F2417350711
:1029600048F04E0F5F1F5093BB024093BA02819311
:10297000919302C0E0E0F0E0CF01DF91CF910895A4
:102980000F931F93CF93DF93009709F48CC0FC0142
:102990003297138212820091BC021091BD02011580
:1029A000110581F420813181820F931F2091BA0299
:1029B0003091BB022817390779F5F093BB02E093F9
:1029C000BA0271C0D80140E050E0AE17BF0750F422
:1029D00012962D913C911397AD012115310509F106
:1029E000D901F3CF9D01DA013383228360817181A4
:1029F000860F971F8217930769F4EC0128813981AC
:102A0000260F371F2E5F3F4F318320838A819B81A2
:102A100093838283452B29F4F093BD02E093BC029B
:102A200042C01396FC93EE931297ED014991599190
:102A30009E01240F351FE217F30771F48081918105
:102A4000840F951F029611969C938E938281938199
:102A500013969C938E931297E0E0F0E0D8011296C3
:102A60008D919C911397009719F0F8018C01F6CF86
:102A70008D919C9198012E5F3F4F820F931F209163
:102A8000BA023091BB022817390769F4309729F44C
:102A90001092BD021092BC0202C0138212821093E7
:102AA000BB020093BA02DF91CF911F910F9108955D
:102AB0008F929F92AF92BF92CF92DF92EF92FF924E
:102AC000CF93DF93EC01688179818A819B816115C5
:102AD00071058105910521F464E279ED8BE597E0BC
:102AE0002DE133EF41E050E00E94CA1549015A013F
:102AF0009B01AC01A7EAB1E40E94E9156B017C01DE
:102B0000ACEEB4EFA50194010E94F715DC01CB01F6
:102B10008C0D9D1DAE1DBF1DB7FF03C00197A10900
:102B2000B04888839983AA83BB83BC01CD019F777A
:102B3000DF91CF91FF90EF90DF90CF90BF90AF905B
:102B40009F908F9008950E945815089586E091E017
:102B50000E945815089560930601709307018093B1
:102B60000801909309010895F999FECF92BD81BDA6
:102B7000F89A992780B50895262FF999FECF1FBAA4
:102B800092BD81BD20BD0FB6F894FA9AF99A0FBE96
:102B900001960895052E97FB1EF400940E94E115FE
:102BA00057FD07D00E94FC1507FC03D04EF40C948F
:102BB000E11550954095309521953F4F4F4F5F4F10
:102BC000089590958095709561957F4F8F4F9F4F99
:102BD00008950E941E16A59F900DB49F900DA49F6E
:102BE000800D911D11240895B7FF0C94E9150E94E2
:102BF000E915821B930B0895A1E21A2EAA1BBB1B99
:102C0000FD010DC0AA1FBB1FEE1FFF1FA217B307B8
:102C1000E407F50720F0A21BB30BE40BF50B661FCE
:102C2000771F881F991F1A9469F760957095809592
:102C300090959B01AC01BD01CF010895A29FB00109
:102C4000B39FC001A39F700D811D1124911DB29FE0
:102C5000700D811D1124911D089597FB072E16F408
:102C6000009407D077FD09D00E94411607FC05D0DB
:102C70003EF4909581959F4F0895709561957F4F93
:102C80000895AA1BBB1B51E107C0AA1FBB1FA617B3
:102C9000B70710F0A61BB70B881F991F5A95A9F705
:102CA00080959095BC01CD010895EE0FFF1F059012
:102CB000F491E02D099481E090E0F8940C94481987
:102CC000FB01DC0102C001900D9241505040D8F749
:102CD0000895DC0101C06D9341505040E0F7089524
:102CE000AEE0B0E0E6E7F6E10C941F190D891E890D
:102CF00086E08C831A8309838FEF9FE79E838D8301
:102D0000AE01475E5F4F6F89788DCE0101960E94BC
:102D100093162F813885F801E20FF31F10822E964B
:102D2000E4E00C943B19ACE0B0E0E9E9F6E10C9486
:102D300011197C016B018A01FC01178216828381C3
:102D400081FFBDC1CE0101964C01F7019381F601CF
:102D500093FD859193FF81916F01882309F4ABC1A5
:102D6000853239F493FD859193FF81916F0185320E
:102D700029F4B70190E00E947B18E7CF512C312C49
:102D800020E02032A0F48B3269F030F4803259F028
:102D9000833269F420612CC08D3239F0803339F4EC
:102DA000216026C02260246023C0286021C027FD46
:102DB00027C030ED380F3A3078F426FF06C0FAE02D
:102DC0005F9E300D1124532E13C08AE0389E300DC3
:102DD0001124332E20620CC08E3221F426FD6BC1EB
:102DE000206406C08C3611F4206802C0883641F495
:102DF000F60193FD859193FF81916F018111C1CF00
:102E0000982F9F7D9554933028F40C5F1F4FFFE35C
:102E1000F9830DC0833631F0833771F0833509F0C3
:102E20005BC022C0F801808189830E5F1F4F44245C
:102E30004394512C540115C03801F2E06F0E711CFF
:102E4000F801A080B18026FF03C0652D70E002C0AC
:102E50006FEF7FEFC5012C870E9470182C01830152
:102E60002C852F77222E17C03801F2E06F0E711CCF
:102E7000F801A080B18026FF03C0652D70E002C07C
:102E80006FEF7FEFC5012C870E9465182C012C8500
:102E90002068222E830123FC1BC0832D90E048165E
:102EA0005906B0F4B70180E290E00E947B183A9492
:102EB000F4CFF50127FC859127FE81915F01B701D1
:102EC00090E00E947B1831103A94F1E04F1A5108BB
:102ED0004114510471F7E5C0843611F0893639F593
:102EE000F80127FF07C060817181828193810C5FA7
:102EF0001F4F08C060817181072E000C880B990B51
:102F00000E5F1F4F2F76722E97FF09C09095809508
:102F1000709561957F4F8F4F9F4F2068722E2AE0EA
:102F200030E0A4010E94B318A82EA81844C0853729
:102F300029F42F7EB22E2AE030E025C0F22FF97F4F
:102F4000BF2E8F36C1F018F4883579F0B4C08037C1
:102F500019F0883721F0AFC02F2F2061B22EB4FEB8
:102F60000DC08B2D8460B82E09C024FF0AC09F2F8E
:102F70009660B92E06C028E030E005C020E130E0C0
:102F800002C020E132E0F801B7FE07C06081718124
:102F9000828193810C5F1F4F06C06081718180E048
:102FA00090E00E5F1F4FA4010E94B318A82EA8182E
:102FB000FB2DFF777F2E76FE0BC0372D3E7FA514AD
:102FC00050F474FE0AC072FC08C0372D3E7E05C066
:102FD000BA2C372D03C0BA2C01C0B52C34FF0DC05C
:102FE000FE01EA0DF11D8081803311F4397E09C0A4
:102FF00032FF06C0B394B39404C0832F867809F0DF
:10300000B39433FD13C030FF06C05A2CB31418F428
:10301000530C5B18B32CB31468F4B70180E290E052
:103020003C870E947B18B3943C85F5CFB31410F411
:103030003B1801C0312C34FF12C0B70180E390E08F
:103040003C870E947B183C8532FF17C031FD03C0CE
:1030500088E790E002C088E590E0B7010CC0832FBC
:10306000867859F031FF02C08BE201C080E237FD63
:103070008DE2B70190E00E947B18A51438F4B701E7
:1030800080E390E00E947B185A94F7CFAA94F40151
:10309000EA0DF11D8081B70190E00E947B18A1101C
:1030A000F5CF332009F451CEB70180E290E00E94C1
:1030B0007B183A94F6CFF7018681978102C08FEF93
:1030C0009FEF2C96E2E10C942D19FC0105906150C4
:1030D00070400110D8F7809590958E0F9F1F08952E
:1030E000FC016150704001900110D8F780959095D7
:1030F0008E0F9F1F08950F931F93CF93DF93FB01B4
:10310000238121FD03C08FEF9FEF28C022FF16C04F
:1031100046815781248135814217530744F4A081A9
:10312000B1819D012F5F3F4F318320838C93268196
:1031300037812F5F3F4F3783268310C0EB01092F64
:10314000182F0084F185E02D0995892BE1F68E81F9
:103150009F8101969F838E83812F902FDF91CF9146
:103160001F910F910895FA01AA27283051F12031BB
:1031700081F1E8946F936E7F6E5F7F4F8F4F9F4F0B
:10318000AF4FB1E03ED0B4E03CD0670F781F891F4D
:103190009A1FA11D680F791F8A1F911DA11D6A0F1B
:1031A000711D811D911DA11D20D009F468943F91CE
:1031B0002AE0269F11243019305D3193DEF6CF01CD
:1031C0000895462F4770405D4193B3E00FD0C9F793
:1031D000F6CF462F4F70405D4A3318F0495D31FD00
:1031E0004052419302D0A9F7EACFB4E0A695979553
:1031F000879577956795BA95C9F700976105710529
:1032000008959B01AC010A2E069457954795379572
:103210002795BA95C9F7620F731F841F951FA01DCC
:1032200008952F923F924F925F926F927F928F926A
:103230009F92AF92BF92CF92DF92EF92FF920F9345
:103240001F93CF93DF93CDB7DEB7CA1BDB0B0FB64F
:10325000F894DEBF0FBECDBF09942A88398848880C
:103260005F846E847D848C849B84AA84B984C884A2
:10327000DF80EE80FD800C811B81AA81B981CE0F99
:10328000D11D0FB6F894DEBF0FBECDBFED0108957E
:1032900010E0CDE9D0E004C0FE010E945516219651
:0A32A000CE39D107C9F7F894FFCF2B
:1032AA000000BE028000010000000E0F1011121370
:1032BA000A0B00000000FB0100000000580EBF0CC2
:1032CA00AC0AAB0A590BC60A160B3A0BFD0AA4083C
:1032DA0000000000580EBF0CAC0A2603590BC60AA0
:1032EA00160B3A0BFD0AA40800000000E202BC0219
:1032FA004901000000006A1024104F10B1106C0A36
:10330A004A0A5E0A00000000570324104601FD0025
:10331A000C012401E5003A000A002530376C7500DB
:00000001FF
