:100000000C9499000C94C1000C94C1000C94560CF3
:100010000C94D70B0C94580B0C94C1000C94C10099
:100020000C94C1000C94C1000C94C1000C94C1004C
:100030000C94C1000C94C1000C94C1000C94C1003C
:100040000C944F100C94C1000C94C1000C94C1008E
:100050000C94C1000C94C1000C94C1000C94C1001C
:100060000C94C1000C94C100453A204352430A004D
:100070000A00453A204D7367546F6F4C6F6E670AE4
:10008000003A00523A2000543A2046575665720A08
:1000900000543A2048575665722C5479700A004330
:1000A0003A20577269746520454550524F4D0A00F9
:1000B000433A205265616420454550524F4D0A0035
:1000C0002000533A2000523A2041434B0A000A00D4
:1000D000543A200000000000240027002A000000FD
:1000E0000000250028002B0000000000230026004F
:1000F00029000404040404040404020202020202AB
:1001000003030303030301020408102040800102DB
:10011000040810200102040810200000000800025A
:1001200001000003040700000000000000004F1160
:100130001C1111241FBECFEFD8E0DEBFCDBF11E0F0
:10014000A0E0B1E0EEEBF0E302C005900D92A03725
:10015000B107D9F722E0A0E7B1E001C01D92A531B7
:10016000B207E1F710E0C8E9D0E004C02197FE0132
:100170000E945F15C739D107C9F70E949B110C94E3
:1001800052180C940000FC018281681790F42381BE
:100190008481E22FF82FE60FF11DE60FF11D80811B
:1001A0009181DC01ED91FC910280F381E02DBA0197
:1001B0000994DA011C9281E00895AF92BF92CF9228
:1001C000DF92EF92FF920F931F93CF93DF933091C3
:1001D000F50132FD23C0A22EB42ED62EEC018D8166
:1001E0009E81009759F0DC01ED91FC910190F08126
:1001F000E02D022F242F462FBE010995E881F981B9
:100200000484F585E02DC12CEE24EA94FE2C8701B0
:100210002A2D4B2D6D2DCE01099501C081E0DF9176
:10022000CF911F910F91FF90EF90DF90CF90BF90F3
:10023000AF900895AF92CF92EF920F93FC01878118
:100240009085009771F0AC2CCE2CE02E022F9A01F5
:10025000AB01BF01DC01ED91FC910190F081E02D3B
:1002600009950F91EF90CF90AF900895089508955C
:1002700080E008950895BF92CF92DF92EF92FF92AF
:100280000F931F93CF93DF938C01F62ED42EE22E83
:10029000C32E8091C6019091C701892B01F182EC98
:1002A00090E00E94D50C8F2D0E94F71080EC90E01A
:1002B0000E94D50CBE2CCE2DDC2D8C2F8B198D15CC
:1002C00020F489910E94F710F8CF8091C601909197
:1002D000C701009721F066E671E00E949910F801CD
:1002E0008281F816F0F493818481E92FF82FEF0DC5
:1002F000F11DEF0DF11D80819181DC01ED91FC91EB
:100300000190F081E02D2E2D3C2D4D2DB801DF9177
:10031000CF911F910F91FF90EF90DF90CF90BF9002
:100320000994DF91CF911F910F91FF90EF90DF9093
:10033000CF90BF9008950F931F93CF93DF931F9299
:10034000CDB7DEB7FB01211103C06C3F734084F4CD
:100350008F01CF0149830E94BE146981681741F063
:10036000C8010F90DF91CF911F910F910C94C6148B
:100370000F90DF91CF911F910F910895CF93DF934D
:100380005091F50152FD1DC0EC018FEF9FEFDC0194
:10039000898B9A8BAB8BBC8B88EF8D8B83E0840F22
:1003A0008E8B8BE48F8B688F198E50E0B901CE0154
:1003B0004A960E946A1561E0CE01DF91CF910C94BC
:1003C000580E81E0DF91CF910895CF92EF92FF9286
:1003D0000F931F93FC018091F50182FD1EC0E18AFD
:1003E000F28A038B148B88EF858B84E0868B8BE4F9
:1003F000878B608FC18E211102C082E001C083E033
:10040000440F440F480F428F61E0CF011F910F91BD
:10041000FF90EF90CF900C94580E81E01F910F91B8
:10042000FF90EF90CF900895EF92FF920F931F935C
:10043000CF93DF93EC018091F50182FD2EC0E98A14
:10044000FA8A0B8B1C8BEF28E02AE12A71F4FE015B
:10045000E75AFF4F0190F081E02D81819281A381C5
:10046000B481898B9A8BAB8BBC8B88EF8D8B82E0B0
:10047000840F8E8B89E68F8B688F50E0B901CE0197
:1004800049960E946A1561E0CE01DF91CF911F91DC
:100490000F91FF90EF900C94580E81E0DF91CF9177
:1004A0001F910F91FF90EF900895AF92BF92CF925E
:1004B000DF92EF92FF920F93CF93DF936B015A017C
:1004C000E90121977B01C7018C199D09CF3FFFEFFF
:1004D000DF0759F00111CE018A0D9B1D0E94BE1449
:1004E000F70181937F012197EECFDF91CF910F919B
:1004F000FF90EF90DF90CF90BF90AF900895EF9274
:10050000FF920F93CF93DF9300D000D0CDB7DEB72B
:10051000FC01E85AFF4F208130E07C0149E5E40E00
:10052000F11CD7016D917C9100E041E050E00E9408
:100530005502D701ED91FC9181819281A381B48113
:1005400089839A83AB83BC838C818183D701ED91AE
:10055000FC9111978B818283ED91FC9111978A8197
:100560008383ED91FC91898184838091F501816081
:100570008093F5010F900F900F900F90DF91CF9126
:100580000F91FF90EF900895EF92FF920F931F93BA
:10059000CF93DF93CDB7DEB764970FB6F894DEBF85
:1005A0000FBECDBF8B01FC01EE59FF4F6081718101
:1005B0008281938120E836E948E950E00E940615DF
:1005C0009F938F937F936F9388E691E09F938F9390
:1005D000CE0101967C019F938F930E947A1588E447
:1005E000F801808382E4818387E58283D8011396B2
:1005F00087E0F70101900D928A95E1F70FB6F89424
:10060000DEBF0FBECDBF64960FB6F894DEBF0FBE3F
:10061000CDBFDF91CF911F910F91FF90EF90089583
:10062000CF92DF92EF92FF920F931F93CF93DF93BE
:10063000EC010CEF13E060E070E0CB01CC24D62E8F
:10064000E72EF82EC8010E94BE14A7019601282BA0
:10065000CA01B9010F5F1F4F011534E0130771F78D
:100660006F3F4FEF74078407940721F46FEF7FEF1C
:100670008FEF92E4FE01EE59FF4F60837183828316
:100680009383611571058105910511F00E94B514E0
:100690000E94B014CF54DF4F24E630E040E050E039
:1006A0000E94D414DC01CB018E529F4FAF4FBF4F3D
:1006B00099838883DF91CF911F910F91FF90EF90E5
:1006C000DF90CF9008954F925F926F927F928F92BA
:1006D0009F92AF92BF92CF92DF92EF92FF920F93D1
:1006E0001F93CF93DF93222389F0DB018C918A350E
:1006F00039F08A3709F094C18091F501846003C014
:100700008091F5018B7F8093F5018AC12091F501DD
:1007100022FD86C1F42E5B01EC014D855E856F855F
:100720007889498B5A8B6B8B7C8B88E78D8BF50195
:100730008081833509F44AC1B0F4833409F453C08D
:1007400040F4803491F1813409F053C189E68F8BF4
:1007500053C18B3409F4ADC0823509F4C4C085346B
:1007600009F047C144C0833709F421C150F48836E9
:1007700009F405C18E3609F40EC1873509F039C177
:10078000D4C0883709F413C18B3C09F492C0863772
:1007900009F02FC187E890E00E94D50CFE01E45AD1
:1007A000FF4F808191819F8BFEC08181813621F036
:1007B000CE010E9410031DC1B6E0FB12F9CFE2E0AA
:1007C000AE0EB11C0CEF13E0D5014D915D0121E09F
:1007D000B801CE010E949B010F5F1F4F0115B4E0CD
:1007E0001B0791F7E5CFCE010E947F0202C1F50100
:1007F000C380E4808E2D8695869586959E2D977074
:1008000011F48C5F01C08B5F8E8B4E8950E060E0ED
:1008100070E0CE0147960E94731585E68F8BD50157
:1008200011968C911197888F12968C911297898FBF
:1008300013968C918A8FD12C812C912C00E010E0A2
:10084000F12C412C512C32014394E016F1060CF4AA
:10085000D3C0A12CB12CAC14BD0434F5C501880D56
:10086000991D0E94BE148F3FD9F0F80133E0F59531
:10087000E7953A95E1F73496EC0FFD1FC8018770B4
:100880009927A301920104C0220F331F441F551F53
:100890008A95D2F7DA01C9012789822B878B04C098
:1008A0003FEFA31AB30AD7CF0F5F1F4F8C0C9D1CCD
:1008B000CCCFD50113968C91E881F981B82FB17016
:1008C000CB2EE82EF12CF594E794F594E79400886C
:1008D000F189E02DD50112960C91129711962C9169
:1008E000CE01099586C0B4E0FB1283C080EB90E096
:1008F0000E94D50CF501018110E0102F00278281A4
:10090000082BF12CD50113968C91F81608F04DC0E8
:10091000CF2CD12CC601800F911F0E94BE14FE0166
:10092000EC0DFD1D878BF394EDCF2F2D30E08381EF
:1009300090E004962817390709F05BC08FE990E032
:100940000E94D50CF501018110E0102F0027828153
:10095000F4E0AF0EB11C082B84E0E82EE01A8E2DD7
:10096000800F8F1508F045C0D5014D915D0120E045
:10097000B801CE010E949B010F5F1F4FF0CF81E9AC
:1009800090E00E94D50CFE01E95AFF4F80818F8BC9
:100990003496808108C0BE01695E7F4FCE010E94FF
:1009A000C4028AE002C0888F82E08E8B25C0E88175
:1009B000F98195012E5F3F4F4EEF4F0D0280F3817D
:1009C000E02DD50111966C91CE010995F50161815B
:1009D00019E61F8B688FE881F9810480F581E02D8D
:1009E000AE01475E5F4FCE0109958E5F8E8B1F8BE8
:1009F00003C089E18D8B1E8A60E0CE01DF91CF912B
:100A00001F910F91FF90EF90DF90CF90BF90AF902C
:100A10009F908F907F906F905F904F900C94580EA6
:100A2000DF91CF911F910F91FF90EF90DF90CF90CA
:100A3000BF90AF909F908F907F906F905F904F90FE
:100A400008953F924F925F926F927F928F929F9202
:100A5000AF92BF92CF92DF92EF92FF920F931F93CC
:100A6000CF93DF93EC015C018EE5A80EB11C3E0133
:100A70009DEA690E711C8E010F591F4FDE01A559A9
:100A8000BF4F7D0144244A9435E0332E6E01B7E612
:100A9000CB0ED11C88248A94982CD5018D919C91E1
:100AA000DC01ED91FC910084F185E02D0995892B05
:100AB00009F4DDC00E944310F301608371838283D7
:100AC0009383D5018D919C91DC01ED91FC91028481
:100AD000F385E02D0995582EBDEF8B1303C083E8F5
:100AE00090E002C081E890E00E94D50C852D0E9424
:100AF000F710ECEF5E1207C0D8018C9181FD24C085
:100B000082608C93CACFBDEF5B121EC0F80180815A
:100B10008D7F8160808310927401109273011D8615
:100B20001E861F86188AD6011D921D921D921C9248
:100B30001397909272018092710141E751E06DEF3D
:100B4000CE010E94970AA9CFF801808180FFA5CF2E
:100B500081FF06C0F52DF0685F2E8D7FD8018C9344
:100B600041E751E0652DCE010E94970A8091730103
:100B7000843078F4F6014081518162817381762F4F
:100B8000652F542F44274529408351836283738303
:100B90001AC0843029F430927301509270017DCFD5
:100BA0004091700143FF13C0893088F44D855E8504
:100BB0006F857889762F652F542F442745294D87D7
:100BC0005E876F87788B8F5F8093730166CF8F3FCF
:100BD00079F040927301F7015082F0E4F51508F0C6
:100BE0005CCFD8018C918E7F8C9382E790E03CC0E3
:100BF00080917401FE01E80FF11DE459FF4F50820E
:100C000091E0980F90937401F7012081921345CFE2
:100C10002091710130917201232B21F5D8019C9113
:100C20009E7F9C93FE01E455FF4F40838150F70166
:100C30008083CA59DF4F81E0888380E790E0DF91AD
:100C4000CF911F910F91FF90EF90DF90CF90BF90C9
:100C5000AF909F908F907F906F905F904F903F905C
:100C60000C94D50C88E690E00E94D50C16CFDF914D
:100C7000CF911F910F91FF90EF90DF90CF90BF9099
:100C8000AF909F908F907F906F905F904F903F902C
:100C900008958F929F92AF92BF92CF92DF92EF9280
:100CA000FF920F931F93CF93DF93EC018091F50197
:100CB00080FF23C0E881F9810680F781E02DCE0115
:100CC000099510E08A81181798F49B818C81E92F8F
:100CD000F82FE10FF11DE10FF11D80819181DC0101
:100CE000ED91FC910680F781E02D09951F5FEACF19
:100CF0008091F5018E7F8093F501CE010E94210540
:100D0000FE01EA59FF4F80818823C9F110828E01CC
:100D100009591F4FF80180819181A281B3813597D4
:100D2000408151816281738184179507A607B707B7
:100D300029F08F3F9F4FAF4FBF4F09F5CE010E9463
:100D4000ED0D8823E1F04881598121E0F80180818F
:100D50009181A281B3818F3F9F4FAF4FBF4F09F069
:100D600020E0DA015296ED91FC915397DE01A559EE
:100D7000BF4F4C91BE0164597F4FCE0109950E942F
:100D80004310683E73408105910580F08091F50124
:100D900081FD0CC0CE010E947C0F91E0811190E09A
:100DA0008091F50190FB81F98093F50140918101DB
:100DB0009B818C81E92FF82FE40FF11DE40FF11DC9
:100DC00080819181DC01ED91FC910480F581E02D21
:100DD000BE010995809181018F5F809381019A8185
:100DE000891710F0109281018985882309F412C1B6
:100DF0000E9443106B017C0189859CEE980F923014
:100E0000C0F48E50806480937C0080917A0080646E
:100E100080937A0080917A0086FDFCCF80917800E3
:100E20002091790090E0922B21E08A3F91053CF0DF
:100E300005C00E94AE0F21E0892B09F020E08E0151
:100E40000D541F4FF80180818230C1F128F48823AE
:100E500059F0813069F09DC0843009F461C0E0F13F
:100E6000853009F47FC095C0222369F181E04DC02F
:100E70008091790190917A01A0917B01B0917C01E0
:100E800046015701881A990AAA0ABB0AD501C4016A
:100E9000222351F029E8821623E19206A104B1042D
:100EA0000CF477C082E05BC085369105A105B105E1
:100EB0000CF46DC0CE010E947C0F69C0211169C085
:100EC00083E0F8018083C0927901D0927A01E092A8
:100ED0007B01F0927C015DC08091790190917A0153
:100EE000A0917B01B0917C0146015701881A990AB3
:100EF000AA0ABB0AD501C40184369105A105B10532
:100F00000CF447C0222321F084E0D8018C93DBCF7E
:100F1000E1E18E16E7E29E06A104B104C4F539C0F2
:100F20008091790190917A01A0917B01B0917C012F
:100F300046015701881A990AAA0ABB0AD501C401B9
:100F400084369105A105B10524F1222301F129EB95
:100F500082162BE09206A104B104DCF085E0D801F2
:100F60008C9317C0211115C0A12CB12C20E04FEF9C
:100F7000B501CE010E949B01BFEFAB1ABB0AECEF9B
:100F8000AE16E3E0BE0691F7CE010E947F02D801C3
:100F90001C928A858823F1F1409175015091760168
:100FA000609177017091780146015701841A950A82
:100FB000A60AB70AB501A4014536510561057105B8
:100FC0004CF1D8019C91953040F4923090F49923E3
:100FD00039F09130F9F461E013C0953019F01AC07E
:100FE00060E00EC0BFEE8B16B2E09B06A104B10418
:100FF0008CF00E94AE0F61E0892B09F060E08A85D9
:101000000E94D70FC0927501D0927601E0927701CD
:10101000F09278010E94431000917D0110917E01B1
:1010200020917F0130918001DC01CB01801B910B6D
:10103000A20BB30BCD97A105B10508F443C08B8576
:10104000882309F19C8589130CC0DE01AB54BF4F86
:101050009C91992331F091E0FE01EC54FF4F908375
:101060001C92FE01ED54FF4F9081992319F09A854F
:10107000891749F08E010C541F4FF80160810E94BE
:10108000D70FD8011C928C85882391F09B859817E7
:1010900079F0FE01ED54FF4F9081992319F09A8564
:1010A000891731F0CB54DF4F68810E94D70F188227
:1010B0000E94431060937D0170937E0180937F01B5
:1010C00090938001DF91CF911F910F91FF90EF904E
:1010D000DF90CF90BF90AF909F908F900895FC01CC
:1010E0008381882321F088ECFB01808302C0FB010F
:1010F000108281E008952091C4013091C501281724
:10110000390771F49091C2018091C301981741F0A1
:10111000E091C201F0E0EE57FE4F808190E008952B
:101120008FEF9FEF08952091C4013091C5012817DA
:10113000390739F48FB7F8941092C3011092C201A5
:101140008FBF08952091C4013091C5012817390738
:1011500071F48091C3012091C20190E0805C9F4FA7
:10116000821B910960E470E00E943715089580E0C9
:1011700090E008952091C4013091C50128173907E6
:10118000B9F49091C2018091C301981789F0E09160
:10119000C201F0E0EE57FE4F80812091C20130E0A5
:1011A0002F5F3F4F2F7333272093C20190E00895A4
:1011B0008FEF9FEF0895089580E090E0089580916B
:1011C000C8018F3F19F484E18093C80108954F92BC
:1011D0005F926F927F929F92AF92BF92CF92DF9277
:1011E000EF92FF920F931F93CF93DF931F92CDB790
:1011F000DEB7DC011A962D913C911B97232B09F445
:1012000048C0942E5B016C010E944310F6010681D8
:101210001781208531852B013C01401A510A620A51
:10122000730A93018201428553852A01612C712C36
:10123000041515052605370560F1668377838087D9
:1012400091870190F081E02D0280F381E02DBE01B5
:101250006F5F7F4FC6010995D501ED91FC91008428
:10126000F185E02DE12CF12C87019E012F5F3F4F8E
:1012700041E0692DC5010995813031F48AEF90E094
:10128000F6019387828705C0D6011B961C921E9299
:101290001A970F90DF91CF911F910F91FF90EF90D0
:1012A000DF90CF90BF90AF909F907F906F905F90B6
:1012B0004F9008950F931F93CF93DF93EC018B0111
:1012C000EC81FD81808181FF26C0F9019081993CEC
:1012D00080F08A810E94AE0F61E0892B09F060E006
:1012E0008A810E94D70F81E09B81992361F080E081
:1012F0000AC082FB882780F9992339F0682F8A81F8
:101300000E94D70F81E08B8306C061E068278A8145
:101310000E94D70F1B828A859B85892BC1F4EC81A3
:10132000FD81808180FF13C00E9443106E837F8304
:1013300088879987F801E75AFF4F0190F081E02DE7
:101340008081F4E68F9FC00111249B878A87DF91FB
:10135000CF911F910F910895CF93DF93FC0183816B
:10136000A481B5818E3F91F4EF016C9162FB6627F9
:1013700060F981E0682782810E94D70F61E08A814D
:101380000E9407101B82DF91CF91089591E0811197
:1013900090E08C9182FB662760F969278281DF915A
:1013A000CF910C94D70F2F923F924F925F926F92F2
:1013B0007F928F929F92AF92BF92CF92DF92EF92E5
:1013C000FF920F931F93CF93DF93CDB7DEB727978D
:1013D0000FB6F894DEBF0FBECDBF3C016B01190103
:1013E0002A01F02E10E038ECB32EF3018281181799
:1013F00008F084C027E0129F40011124D301139606
:101400004D915C911497480D591D01E024E030E0A6
:10141000BE016F5F7F4FC6010E94550289819A818C
:10142000AB81BC818F3FEFEF9E07AE07BE0709F48B
:1014300063C082159305A405B50509F05DC0D3010D
:1014400013964D915C9114974C5F5F4F480D591D59
:1014500000E021E030E0BE01695F7F4FC6010E94DD
:1014600055028F818F1148C0F301438154814B5F36
:101470005F4F480D591D21E030E0BE01695F7F4F8D
:10148000C6010E9455028F818E1136C0D30113967A
:101490004D915C9114974A5F5F4F480D591D21E0B3
:1014A00030E0BE016A5F7F4FC6010E945502AA204C
:1014B00039F08E8190E095958795959587958E83E7
:1014C0008E8183708E838230B9F0833031F0813029
:1014D00011F0BD8204C01D8202C0BFEFBD83D601E2
:1014E000ED91FC910280F381E02D9E012B5F3F4F37
:1014F00041E06E2DC60109951F5F77CF27960FB685
:10150000F894DEBF0FBECDBFDF91CF911F910F9139
:10151000FF90EF90DF90CF90BF90AF909F908F9013
:101520007F906F905F904F903F902F900895FA01B9
:1015300028E040815181CA01880F991F67FD8160B1
:101540009183808357FF08C08081918132E0832797
:1015500030E1932791838083660F215051F70895DE
:10156000EF92FF920F931F93CF938C01C62F7A01B6
:101570008091C6019091C701009721F06EE671E05D
:101580000E9499108C2F0E94F710E114F10429F0A9
:10159000A7016C2FC8010E94970A025A1F4F84E0CE
:1015A0008C0F833060F4D8018D919C91DC01ED911A
:1015B000FC910190F081E02D6CEF0995CF77F80157
:1015C00080819181DC01ED91FC910190F081E02D11
:1015D0006C2FCF911F910F91FF90EF90099420E015
:1015E00001972FEF8F3F9207D9F70895CF92DF929F
:1015F000EF92FF920F931F93CF93DF93EC01C62ED0
:101600000FB7F894E989FA899081888980958923B0
:10161000808387E790E00E94EF0A88E090E020E86E
:1016200010E0322F3C2109F01F5F26950197C9F782
:1016300088E0E82EF12CDD24D394E989FA898889A1
:101640009D2D9C2119F09081892B03C0908180955C
:101650008923808382E790E00E94EF0ADD0C81E01D
:10166000E81AF10851F7E989FA898889908110FF11
:1016700002C0892B02C080958923808382E790E095
:101680000E94EF0AE989FA8990818889892B8083F1
:101690000FBF82E790E00E94EF0A81E090E0DF91C7
:1016A000CF911F910F91FF90EF90DF90CF90089511
:1016B0001F920F920FB60F921124EF92FF920F9389
:1016C0001F932F933F934F935F936F937F938F93CA
:1016D0009F93AF93BF93CF93DF93EF93FF93C0910B
:1016E000C401D091C501209709F44AC0EE85FF8559
:1016F00090818D85892309F043C086E390E00E94A4
:10170000EF0A88E0E82EF12C10E001E085E790E098
:101710000E94EF0AEE85FF8590818D85892311F067
:10172000102B03C0802F80951823000F81E0E81A4A
:10173000F10861F785E790E00E94EF0A85E790E005
:101740000E94EF0A8091C3012091C20190E00196AE
:101750008F73992730E08217930779F0E091C301E6
:10176000F0E0EE57FE4F10838091C30190E00196A8
:101770008F7399278093C30103C08E8981608E8BFC
:10178000FF91EF91DF91CF91BF91AF919F918F9199
:101790007F916F915F914F913F912F911F910F9189
:1017A000FF90EF900F900FBE0F901F9018951F9213
:1017B0000F920FB60F921124EF92FF920F931F9387
:1017C0002F933F934F935F936F937F938F939F9349
:1017D000AF93BF93CF93DF93EF93FF93C091C40177
:1017E000D091C501209709F44AC0EE85FF8590810C
:1017F0008D85892309F043C086E390E00E94EF0ABB
:1018000088E0E82EF12C10E001E085E790E00E94EE
:10181000EF0AEE85FF8590818D85892311F0102BCD
:1018200003C0802F80951823000F81E0E81AF1088B
:1018300061F785E790E00E94EF0A85E790E00E945B
:10184000EF0A8091C3012091C20190E001968F734D
:10185000992730E08217930779F0E091C301F0E017
:10186000EE57FE4F10838091C30190E001968F7375
:1018700099278093C30103C08E8981608E8BFF916D
:10188000EF91DF91CF91BF91AF919F918F917F9118
:101890006F915F914F913F912F911F910F91FF9009
:1018A000EF900F900FBE0F901F9018951F920F9200
:1018B0000FB60F921124EF92FF920F931F932F9365
:1018C0003F934F935F936F937F938F939F93AF93C8
:1018D000BF93CF93DF93EF93FF93C091C401D09157
:1018E000C501209709F44AC0EE85FF8590818D855A
:1018F000892309F043C086E390E00E94EF0A88E064
:10190000E82EF12C10E001E085E790E00E94EF0A5C
:10191000EE85FF8590818D85892311F0102B03C002
:10192000802F80951823000F81E0E81AF10861F7F5
:1019300085E790E00E94EF0A85E790E00E94EF0AB9
:101940008091C3012091C20190E001968F73992785
:1019500030E08217930779F0E091C301F0E0EE5791
:10196000FE4F10838091C30190E001968F739927F9
:101970008093C30103C08E8981608E8BFF91EF91AC
:10198000DF91CF91BF91AF919F918F917F916F9197
:101990005F914F913F912F911F910F91FF90EF9089
:1019A0000F900FBE0F901F9018950F931F93CF931A
:1019B000DF930091C6011091C7010115110581F057
:1019C000EC01FE016491662359F0D801ED91FC9180
:1019D0000190F081E02DC80109952196892B89F7A6
:1019E000DF91CF911F910F9108954F925F926F9267
:1019F0007F92AF92BF92CF92DF92FF920F931F938D
:101A0000CF93DF9300D0CDB7DEB78C018FEF9FEF80
:101A10009A838983F80181899289A389B4898F3F48
:101A20009F4FAF4FBF4FA1F0F801E455FF4F8081AA
:101A300090E095958795837020E2829FC0011124E4
:101A4000D80155969C9155979F79892B55968C93E3
:101A500080ED90E00E94D50C6801B0E6CB0ED11C61
:101A600061E0F60180810E94D70F8DEF0E94F71090
:101A70005801FEE5AF0EB11CD5018D919C91DC01A2
:101A8000ED91FC910190F081E02D6DEF0995AE0193
:101A90004F5F5F4F6DEFC8010E94970AF8014188C0
:101AA00052886388748854E0F52E672D772788273D
:101AB0009927AE014F5F5F4FC8010E94B00A762C94
:101AC000652C542C4424FA94F110EFCFAE014F5FF3
:101AD0005F4FD80155966C91C8010E94B00AF80179
:101AE000858983FD0CC0D80156966C916E5FAE015E
:101AF0004F5F5F4FC8010E94B00AF12C1BC0F80174
:101B0000EE59FF4F408051806280738024E0F22EB6
:101B1000672D772788279927AE014F5F5F4FC80150
:101B20000E94B00A762C652C542C4424FA94F110AF
:101B3000EFCFD9CFF8018689F81660F4F801EF0DE0
:101B4000F11DAE014F5F5F4F6789C8010E94B00A67
:101B5000F394F0CFAE014F5F5F4F60E0C8010E9489
:101B6000970AAE014F5F5F4F60E0C8010E94970A7D
:101B70006A8140E050E0C8010E94B00A40E050E0B5
:101B80006981C8010E94B00AD5018D919C91DC0148
:101B9000ED91FC910680F781E02D099560E0F6015A
:101BA00080810E94D70FF801EF59FF4F8081886034
:101BB00080838EEC90E00E94D50C0F900F90DF9107
:101BC000CF911F910F91FF90DF90CF90BF90AF907A
:101BD0007F906F905F904F900895EF92FF920F93D8
:101BE0001F93CF93DF93EC01FC01EB54FF4F81E097
:101BF00080838E010F591F4FF80180819E0124556B
:101C00003F4F790183FF26C0F901808190E025E0F4
:101C1000959587952A95E1F7282F23708D8990E077
:101C2000959587958370281315C04D855E856F85C2
:101C3000788989899A89AB89BC89481759076A07C5
:101C40007B0741F486EC90E00E94D50CF80180817E
:101C5000877F8083F701808183708130F9F0FE01F6
:101C6000E559FF4F808181111BC03497808191819C
:101C7000A281B3818F3F9F4FAF4FBF4F89F08D85BA
:101C80009E85AF85B889898B9A8BAB8BBC8B89E19C
:101C90008D8B1E8A60E0CE010E94580E80E001C04C
:101CA00081E0DF91CF911F910F91FF90EF90089508
:101CB0004F925F926F927F928F929F92AF92BF925C
:101CC000CF92DF92EF92FF920F931F93CF93DF9308
:101CD000EC01862E662379F10E944310FE01E35544
:101CE000FF4F0081118122813381AB01BC01401B78
:101CF000510B620B730B8E010F541F4FF801808143
:101D00009181A0E0B0E0481759076A077B0710F4FB
:101D100081E08AC00E94B01424E630E040E050E048
:101D20000E94D414DC01CB018E529F4FAF4FBF4FA6
:101D3000F8019183808381E0FE01EC54FF4F8083A2
:101D400089899A89AB89BC898F3F9F4FAF4FBF4F1D
:101D500009F45CC08D898370813009F457C083E039
:101D6000982E8E010A591F4F7E0127E6E20EF11CC4
:101D70006E0182E6C80ED11C5E01E1E6AE0EB11C1A
:101D8000CE010E94F50C0E9443102B013C010E94E1
:101D90004310DC01CB0184199509A609B709883CD9
:101DA0009105A105B10510F5CE010E942105F801AC
:101DB0008081882361F3F7014081518162817381C1
:101DC000F60180819181A281B381481759076A0782
:101DD0007B07E9F6F8011082CE010E94ED0DF501B6
:101DE0009081892F887093FDD2CF1EC08820C1F0CA
:101DF0000E944310DC01CB0184199509A609B7099B
:101E000086399105A105B10558F482CFCE010E9413
:101E1000F50CCF59DF4F8881877F888380E004C02D
:101E20009A949110ADCF82E0DF91CF911F910F91E5
:101E3000FF90EF90DF90CF90BF90AF909F908F90EA
:101E40007F906F905F904F900895833081F028F4D9
:101E5000813099F08230A1F008958730A9F0883060
:101E6000B9F08430D1F4809180008F7D03C08091DF
:101E700080008F7780938000089584B58F7702C0AB
:101E800084B58F7D84BD08958091B0008F7703C0A5
:101E90008091B0008F7D8093B0000895CF92DF9243
:101EA000EF92FF920F931F93CF93DF936C017A0110
:101EB0008B01C0E0D0E0CE15DF0589F0D8016D912F
:101EC0008D01D601ED91FC910190F081E02DC601CC
:101ED0000995892B11F47E0102C02196ECCFC70130
:101EE000DF91CF911F910F91FF90EF90DF90CF90F6
:101EF000089508950E946515CF93DF93EC018FEF4D
:101F00009FEFDC01898B9A8BAB8BBC8B88EF8D8B21
:101F100080E18E8B81E48F8B188EFE01E95AFF4F92
:101F20008081898F349680818A8F319680819181DA
:101F30009B8F8C8FBE01635E7F4FCE010E94C402D7
:101F40008091F50182FD06C061E0CE01DF91CF9165
:101F50000C94580E81E0DF91CF910895CF93DF93D9
:101F6000282F30E0F901E65EFE4F8491F901EA5F27
:101F7000FE4FD491F901EE50FF4FC491CC2391F064
:101F800081110E94250FEC2FF0E0EE0FFF1FE851AA
:101F9000FF4FA591B491EC91ED2381E090E021F405
:101FA00080E002C080E090E0DF91CF9108951F9320
:101FB000CF93DF93282F30E0F901E65EFE4F849146
:101FC000F901EA5FFE4FD491F901EE50FF4FC49141
:101FD000CC23C9F0162F81110E94250FEC2FF0E0C1
:101FE000EE0FFF1FE252FF4FA591B4918FB7F89407
:101FF000111105C09C91ED2FE095E92302C0EC91F1
:10200000ED2BEC938FBFDF91CF911F910895CF936C
:10201000DF9390E0FC01EA5FFE4F2491FC01EE505B
:10202000FF4F8491882361F190E0880F991FFC0194
:10203000EC52FF4FC591D491FC01E252FF4FA591A4
:10204000B491611109C09FB7F894888120958223CB
:102050008883EC912E230BC0623061F49FB7F89413
:102060003881822F809583238883EC912E2B2C93AB
:102070009FBF06C08FB7F894E8812E2B28838FBFAF
:10208000DF91CF9108952FB7F89460910D02709170
:102090000E0280910F02909110022FBF08951F929F
:1020A0000F920FB60F9211242F933F938F939F930C
:1020B000AF93BF9380910D0290910E02A0910F02F9
:1020C000B091100230910C0223E0230F2D3720F441
:1020D0000196A11DB11D05C026E8230F0296A11D82
:1020E000B11D20930C0280930D0290930E02A093D9
:1020F0000F02B09310028091080290910902A09102
:102100000A02B0910B020196A11DB11D8093080235
:1021100090930902A0930A02B0930B02BF91AF9172
:102120009F918F913F912F910F900FBE0F901F9015
:1021300018956115710579F0FB0101900020E9F710
:102140003197AF01461B570BDC01ED91FC910280EA
:10215000F381E02D099480E090E008954F925F9222
:102160006F927F92EF92FF920F931F93CF93DF9323
:10217000CDB7DEB7A1970FB6F894DEBF0FBECDBFC7
:102180007C01FA01CB0119A2223008F42AE08E0169
:102190000F5D1F4F422E512C612C712CBF01A301EA
:1021A00092010E940615F901CA01015011096A3015
:1021B00014F4605D01C0695CD8016C93232B242B5F
:1021C000252B61F7B801C7010E949910A1960FB69F
:1021D000F894DEBF0FBECDBFDF91CF911F910F915D
:1021E000FF90EF907F906F905F904F900895CF9306
:1021F000C82F8091C6019091C7010097D9F04C2F4C
:1022000050E024E0559547952A95E1F7052E000CFE
:10221000660B770B20E10E94AE104C2F4F7050E000
:1022200060E070E020E18091C6019091C701CF91FC
:102230000C94AE10CF9108958EE091E09093DF0161
:102240008093DE012091EA01263140F5283028F004
:102250002E3030F0ECE6F0E005C0EDE6F0E002C034
:10226000EBE6F0E03081283038F481E090E001C006
:10227000880F2A95EAF70FC0422F50E02E3018F44D
:102280004850510902C04E50510981E090E001C010
:10229000880F4A95EAF78095832380830895CF932A
:1022A000DF93CEEDD1E01B821A8288EE93E0A0E0AE
:1022B000B0E08C839D83AE83BF838EE091E09983F1
:1022C0008883E4EFF1E080818E7F808361E082E0AB
:1022D0000E94071061E082E00E94D70FE8E0F1E081
:1022E000E491E88BE4EFF0E0E491F0E0EE0FFF1F03
:1022F000E252FF4F859194919A8B898B60E084E044
:102300000E94071061E084E00E94D70F84E08C8770
:10231000EAE0F1E0E491ED87E6EFF0E0E491F0E04F
:10232000EE0FFF1FE851FF4F859194919F878E8795
:10233000DF91CF910895CF93DF93CDB7DEB7289784
:102340000FB6F894DEBF0FBECDBF789484B582601F
:1023500084BD84B5816084BD85B5826085BD85B549
:10236000816085BD80916E00816080936E001092C7
:102370008100809181008260809381008091810042
:1023800081608093810080918000816080938000D3
:102390008091B10084608093B1008091B000816031
:1023A0008093B00080917A00846080937A0080915D
:1023B0007A00826080937A0080917A0081608093B5
:1023C0007A0080917A00806880937A001092C10030
:1023D0009091EA019631E0F520916800983050F034
:1023E00031E09E3008F430E081E001C0880F3A957A
:1023F000EAF701C084E0822B80936800983038F0BF
:102400009E3040F0963148F0E0E0F0E008C0EDE6A4
:10241000F0E005C0EBE6F0E002C0ECE6F0E0408161
:10242000983030F481E001C0880F9A95EAF70EC029
:10243000292F30E09E3018F42850310902C02E5068
:10244000310981E001C0880F2A95EAF7842B808347
:1024500082E790E00E94EF0A8091C4019091C5014B
:102460008E5D914091F08091F4018E7F8093F40114
:102470008FB7F8941092C3011092C2012EED31E093
:102480003093C5012093C4018FBF88E0ECE1F1E0F7
:10249000DE01119601900D928A95E1F78E010F5F92
:1024A0001F4F96EFC92E91E0D92EE12CF12C28E296
:1024B000822E21E0922E3EEFB32E8CE090E00E941F
:1024C0003513FC01D8018D918D0191828082828328
:1024D000C70182539E4F958384831386128616828A
:1024E000178210861186B382D601ED93FD936D019C
:1024F000B2E0EB0EF11CE0E1EE16F104F1F685E03E
:1025000090E00E9435137C0184E391E0D70111969D
:102510009C938E9384E212968C93129780E490E0C1
:1025200014969C938E93139788EB90E00E9435133A
:102530008C018AE391E0F80191838083EA54FF4F94
:1025400080E098E391838083EE55F10986E18083F2
:10255000319688EC91E09183808388E0D82ED80171
:102560001296DC92129786EF91E014969C938E93CC
:10257000139716961C921E9215971896FC92EE923F
:10258000179732961082319686E690E09183808389
:1025900032968EED91E0918380837801B0E6EB0E68
:1025A000F11C83E0F701808361E00E94071060E086
:1025B000D7018C910E94D70FF801EA59FF4F108282
:1025C000E95BFF4F1082118212821382349682EDF2
:1025D00090E091838083EA55F10983E88083C80104
:1025E0000E9410031092C7011092C601F8011186D3
:1025F000ED54FF4F1082D8011A961C921A971C9620
:102600001C921C971B961C92C8010E947F0280910D
:10261000F5018D7F8B7F8093F50182E591E0F801D4
:10262000918380831093070200930602D18662E0B3
:1026300088E00E9407108DE0D8011A968C9361E023
:102640000E94071000E010E08091060290910702BE
:10265000DC01ED91FC910190F081E02D09950115CF
:10266000110591F30E940000EFCFCF93DF938230EA
:10267000910510F482E090E0E0911302F0911402D1
:1026800020E030E0C0E0D0E0309711F1408151818E
:1026900048175907C0F04817590761F482819381A0
:1026A000209719F09B838A832BC090931402809308
:1026B000130226C02115310519F04217530718F4EB
:1026C0009A01BE01DF01EF010280F381E02DDCCF32
:1026D0002115310509F1281B390B2430310590F4FF
:1026E00012968D919C9113976115710521F0FB0154
:1026F0009383828304C09093140280931302FD019C
:10270000329644C0FD01E20FF31F81939193225052
:1027100031092D933C933AC020911102309112025D
:10272000232B41F4209102013091030130931202D6
:1027300020931102209100013091010121153105F2
:1027400041F42DB73EB74091040150910501241B7F
:10275000350BE0911102F0911202E217F307A0F499
:102760002E1B3F0B2817390778F0AC014E5F5F4FE7
:102770002417350748F04E0F5F1F50931202409305
:1027800011028193919302C0E0E0F0E0CF01DF916C
:10279000CF9108950F931F93CF93DF93009709F480
:1027A0008CC0FC01329713821282009113021091A7
:1027B00014020115110581F420813181820F931FCC
:1027C00020911102309112022817390779F5F09300
:1027D0001202E093110271C0D80140E050E0AE1740
:1027E000BF0750F412962D913C911397AD0121151E
:1027F000310509F1D901F3CF9D01DA013383228339
:1028000060817181860F971F8217930769F4EC012D
:1028100028813981260F371F2E5F3F4F3183208358
:102820008A819B8193838283452B29F4F093140240
:10283000E093130242C01396FC93EE931297ED01BE
:10284000499159919E01240F351FE217F30771F446
:1028500080819181840F951F029611969C938E938F
:102860008281938113969C938E931297E0E0F0E01F
:10287000D80112968D919C911397009719F0F80149
:102880008C01F6CF8D919C9198012E5F3F4F820F66
:10289000931F20911102309112022817390769F411
:1028A000309729F4109214021092130202C013827E
:1028B00012821093120200931102DF91CF911F91A7
:1028C0000F9108958F929F92AF92BF92CF92DF9215
:1028D000EF92FF92CF93DF93EC01688179818A8137
:1028E0009B81611571058105910521F464E279ED03
:1028F0008BE597E02DE133EF41E050E00E94D414E6
:1029000049015A019B01AC01A7EAB1E40E94F3140A
:102910006B017C01ACEEB4EFA50194010E9401159E
:10292000DC01CB018C0D9D1DAE1DBF1DB7FF03C08B
:102930000197A109B04888839983AA83BB83BC010E
:10294000CD019F77DF91CF91FF90EF90DF90CF90F7
:10295000BF90AF909F908F9008950E946214089549
:1029600086E091E00E9462140895609306017093DE
:10297000070180930801909309010895F999FECF0A
:1029800092BD81BDF89A992780B50895262FF999AF
:10299000FECF1FBA92BD81BD20BD0FB6F894FA9A42
:1029A000F99A0FBE01960895052E97FB1EF4009428
:1029B0000E94EB1457FD07D00E94061507FC03D0B8
:1029C0004EF40C94EB1450954095309521953F4F63
:1029D0004F4F5F4F089590958095709561957F4F0B
:1029E0008F4F9F4F08950E942815A59F900DB49F6B
:1029F000900DA49F800D911D11240895B7FF0C9494
:102A0000F3140E94F314821B930B0895A1E21A2E73
:102A1000AA1BBB1BFD010DC0AA1FBB1FEE1FFF1F82
:102A2000A217B307E407F50720F0A21BB30BE40BD2
:102A3000F50B661F771F881F991F1A9469F7609519
:102A40007095809590959B01AC01BD01CF010895D3
:102A5000A29FB001B39FC001A39F700D811D1124DF
:102A6000911DB29F700D811D1124911D089597FB3A
:102A7000072E16F4009407D077FD09D00E944B155D
:102A800007FC05D03EF4909581959F4F0895709571
:102A900061957F4F0895AA1BBB1B51E107C0AA1F78
:102AA000BB1FA617B70710F0A61BB70B881F991FEF
:102AB0005A95A9F780959095BC01CD010895EE0F28
:102AC000FF1F0590F491E02D099481E090E0F894C7
:102AD0000C945218FB01DC0102C001900D92415090
:102AE0005040D8F70895DC0101C06D93415050402B
:102AF000E0F70895AEE0B0E0E0E8F5E10C942918C5
:102B00000D891E8986E08C831A8309838FEF9FE7E6
:102B10009E838D83AE01475E5F4F6F89788DCE01B6
:102B200001960E949D152F813885F801E20FF31F51
:102B300010822E96E4E00C944518ACE0B0E0E3EA95
:102B4000F5E10C941B187C016B018A01FC011782D2
:102B50001682838181FFBDC1CE0101964C01F70130
:102B60009381F60193FD859193FF81916F018823F5
:102B700009F4ABC1853239F493FD859193FF8191BE
:102B80006F01853229F4B70190E00E948517E7CFE5
:102B9000512C312C20E02032A0F48B3269F030F43B
:102BA000803259F0833269F420612CC08D3239F0C3
:102BB000803339F4216026C02260246023C028605D
:102BC00021C027FD27C030ED380F3A3078F426FFBA
:102BD00006C0FAE05F9E300D1124532E13C08AE028
:102BE000389E300D1124332E20620CC08E3221F419
:102BF00026FD6BC1206406C08C3611F4206802C02B
:102C0000883641F4F60193FD859193FF81916F0120
:102C10008111C1CF982F9F7D9554933028F40C5F7C
:102C20001F4FFFE3F9830DC0833631F0833771F016
:102C3000833509F05BC022C0F801808189830E5F73
:102C40001F4F44244394512C540115C03801F2E025
:102C50006F0E711CF801A080B18026FF03C0652DA6
:102C600070E002C06FEF7FEFC5012C870E947A17DA
:102C70002C0183012C852F77222E17C03801F2E01A
:102C80006F0E711CF801A080B18026FF03C0652D76
:102C900070E002C06FEF7FEFC5012C870E946F17B5
:102CA0002C012C852068222E830123FC1BC0832D40
:102CB00090E048165906B0F4B70180E290E00E9417
:102CC00085173A94F4CFF50127FC859127FE819171
:102CD0005F01B70190E00E94851731103A94F1E04E
:102CE0004F1A51084114510471F7E5C0843611F0B0
:102CF000893639F5F80127FF07C06081718182812B
:102D000093810C5F1F4F08C060817181072E000CFA
:102D1000880B990B0E5F1F4F2F76722E97FF09C0FD
:102D200090958095709561957F4F8F4F9F4F20684C
:102D3000722E2AE030E0A4010E94BD17A82EA81828
:102D400044C0853729F42F7EB22E2AE030E025C01A
:102D5000F22FF97FBF2E8F36C1F018F4883579F045
:102D6000B4C0803719F0883721F0AFC02F2F206111
:102D7000B22EB4FE0DC08B2D8460B82E09C024FF86
:102D80000AC09F2F9660B92E06C028E030E005C02B
:102D900020E130E002C020E132E0F801B7FE07C0D8
:102DA00060817181828193810C5F1F4F06C06081B9
:102DB000718180E090E00E5F1F4FA4010E94BD175B
:102DC000A82EA818FB2DFF777F2E76FE0BC0372D7F
:102DD0003E7FA51450F474FE0AC072FC08C0372D63
:102DE0003E7E05C0BA2C372D03C0BA2C01C0B52CCD
:102DF00034FF0DC0FE01EA0DF11D8081803311F416
:102E0000397E09C032FF06C0B394B39404C0832F47
:102E1000867809F0B39433FD13C030FF06C05A2CF6
:102E2000B31418F4530C5B18B32CB31468F4B70143
:102E300080E290E03C870E948517B3943C85F5CFF3
:102E4000B31410F43B1801C0312C34FF12C0B70189
:102E500080E390E03C870E9485173C8532FF17C0D5
:102E600031FD03C088E790E002C088E590E0B7013B
:102E70000CC0832F867859F031FF02C08BE201C06D
:102E800080E237FD8DE2B70190E00E948517A5141E
:102E900038F4B70180E390E00E9485175A94F7CF89
:102EA000AA94F401EA0DF11D8081B70190E00E941F
:102EB0008517A110F5CF332009F451CEB70180E278
:102EC00090E00E9485173A94F6CFF70186819781AA
:102ED00002C08FEF9FEF2C96E2E10C943718FC01B3
:102EE0000590615070400110D8F7809590958E0F35
:102EF0009F1F0895FC016150704001900110D8F7A8
:102F0000809590958E0F9F1F08950F931F93CF93D9
:102F1000DF93FB01238121FD03C08FEF9FEF28C0CA
:102F200022FF16C0468157812481358142175307FD
:102F300044F4A081B1819D012F5F3F4F31832083F5
:102F40008C93268137812F5F3F4F3783268310C0B4
:102F5000EB01092F182F0084F185E02D0995892BAD
:102F6000E1F68E819F8101969F838E83812F902F22
:102F7000DF91CF911F910F910895FA01AA27283070
:102F800051F1203181F1E8946F936E7F6E5F7F4F36
:102F90008F4F9F4FAF4FB1E03ED0B4E03CD0670FB2
:102FA000781F891F9A1FA11D680F791F8A1F911D05
:102FB000A11D6A0F711D811D911DA11D20D009F455
:102FC00068943F912AE0269F11243019305D319397
:102FD000DEF6CF010895462F4770405D4193B3E080
:102FE0000FD0C9F7F6CF462F4F70405D4A3318F027
:102FF000495D31FD4052419302D0A9F7EACFB4E0D8
:10300000A6959795879577956795BA95C9F700978F
:103010006105710508959B01AC010A2E0694579530
:10302000479537952795BA95C9F7620F731F841F87
:10303000951FA01D08952F923F924F925F926F921D
:103040007F928F929F92AF92BF92CF92DF92EF9238
:10305000FF920F931F93CF93DF93CDB7DEB7CA1BB9
:10306000DB0B0FB6F894DEBF0FBECDBF09942A88E4
:10307000398848885F846E847D848C849B84AA848C
:10308000B984C884DF80EE80FD800C811B81AA8119
:10309000B981CE0FD11D0FB6F894DEBF0FBECDBFE4
:1030A000ED01089510E0C8E9D0E004C0FE010E94DF
:0E30B0005F152196C939D107C9F7F894FFCFF3
:1030BE000000150280000100000000000000F60A6A
:1030CE004E0FDC089308A208BA087B080E0F1011E9
:1030DE0012130A0B000000005A096F08E708AC092A
:1030EE0000000000D3090000000049063B01C300A8
:1030FE00790F1402DD00E501BE011A016303000021
:10310E00000049063B01C300DF081402DD00E501A3
:10311E00BE011A0163030A002530376C75003A00B0
:107800000C94343C0C94513C0C94513C0C94513CE1
:107810000C94513C0C94513C0C94513C0C94513CB4
:107820000C94513C0C94513C0C94513C0C94513CA4
:107830000C94513C0C94513C0C94513C0C94513C94
:107840000C94513C0C94513C0C94513C0C94513C84
:107850000C94513C0C94513C0C94513C0C94513C74
:107860000C94513C0C94513C11241FBECFEFD8E036
:10787000DEBFCDBF11E0A0E0B1E0ECE9FFE702C060
:1078800005900D92A230B107D9F712E0A2E0B1E065
:1078900001C01D92AD30B107E1F70E942D3D0C945F
:1078A000CC3F0C94003C982F959595959595959582
:1078B000905D8F708A307CF0282F295A8091C0000B
:1078C00085FFFCCF9093C6008091C00085FFFCCF60
:1078D0002093C6000895282F205DF0CF982F809127
:1078E000C00085FFFCCF9093C6000895EF92FF92F1
:1078F0000F931F93EE24FF2487018091C00087FD22
:1079000017C00894E11CF11C011D111D81E4E8164B
:1079100082E4F8068FE0080780E0180770F3E09132
:107920000401F091050109958091C00087FFE9CF1E
:107930008091C6001F910F91FF90EF9008950E94D3
:10794000763C982F8091C00085FFFCCF9093C600B5
:1079500091362CF490330CF09053892F089597555D
:10796000892F08951F930E949F3C182F0E949F3CCF
:107970001295107F810F1F9108951F93182F882350
:1079800021F00E94763C1150E1F71F9108951F935A
:10799000182F0E94763C803249F0809103018F5F5E
:1079A000809303018530C1F01F9108958091C0003C
:1079B00085FFFCCF84E18093C6008091C00085FFE5
:1079C000FCCF1093C6008091C00085FFFCCF80E102
:1079D0008093C6001F910895E0910401F091050184
:1079E00009951F9108950E94763C803241F0809164
:1079F00003018F5F80930301853081F008958091AA
:107A0000C00085FFFCCF84E18093C6008091C00058
:107A100085FFFCCF80E18093C6000895E0910401CA
:107A2000F09105010995089540E951E08823A1F0FE
:107A30002D9A28EE33E0FA013197F1F721503040CA
:107A4000D1F72D9828EE33E0FA013197F1F7215064
:107A50003040D1F7815061F708953F924F925F9285
:107A60006F927F928F929F92AF92BF92CF92DF924E
:107A7000EF92FF920F931F93CF93DF93000080E16B
:107A80008093C4001092C50088E18093C10086E015
:107A90008093C2005098589A259A81E00E94143D24
:107AA00024E1F22E9EE1E92E85E9D82E0FE0C02ECA
:107AB00010E1B12EAA24A394B1E49B2EA6E58A2E50
:107AC000F2E57F2EE0E26E2E79E4572E63E5462E36
:107AD00050E5352E0E94763C8033B1F18133B9F107
:107AE000803409F46FC0813409F476C0823409F41B
:107AF00085C0853409F488C0803531F1823521F1A3
:107B0000813511F1853509F485C0863509F48DC0BC
:107B1000843609F496C0843709F403C1853709F423
:107B200072C1863709F466C0809103018F5F80932C
:107B30000301853079F6E0910401F0910501099582
:107B40000E94763C803351F60E94F33CC3CF0E94E2
:107B5000763C803249F78091C00085FFFCCFF092DF
:107B6000C6008091C00085FFFCCF9092C600809136
:107B7000C00085FFFCCF8092C6008091C00085FFC9
:107B8000FCCF7092C6008091C00085FFFCCF609250
:107B9000C6008091C00085FFFCCF5092C600809146
:107BA000C00085FFFCCF4092C6008091C00085FFD9
:107BB000FCCF3092C6008091C00085FFFCCFB09210
:107BC000C60088CF0E94763C863808F4BDCF0E945C
:107BD000763C0E94F33C7ECF0E94763C803809F4CC
:107BE0009CC0813809F40BC1823809F43CC1883942
:107BF00009F48FC080E00E94C73C6CCF84E10E94F2
:107C0000BD3C0E94F33C66CF85E00E94BD3C0E94D3
:107C1000F33C60CF0E94763C809306010E94763C44
:107C2000809307010E94F33C55CF0E94763C80333D
:107C300009F41DC183E00E94BD3C80E00E94C73C66
:107C400049CF0E94763C809309020E94763C809343
:107C5000080280910C028E7F80930C020E94763C79
:107C6000853409F415C18091080290910902892B8D
:107C700089F000E010E00E94763CF801E85FFE4FDA
:107C800080830F5F1F4F80910802909109020817AF
:107C9000190788F30E94763C803209F045CF809125
:107CA0000C0280FF01C16091060170910701660F0F
:107CB000771F7093070160930601A0910802B091AD
:107CC00009021097C9F0E8E0F1E09B01AD014E0F09
:107CD0005F1FF999FECF32BD21BD819180BDFA9A17
:107CE000F99A2F5F3F4FE417F50799F76A0F7B1F4B
:107CF00070930701609306018091C00085FFFCCF5F
:107D0000F092C6008091C00085FFFCCFB092C60003
:107D1000E1CE83E00E94C73CDDCE82E00E94C73CFA
:107D2000D9CE0E94763C809309020E94763C8093D3
:107D300008028091060190910701880F991F909386
:107D40000701809306010E94763C853409F4A6C0A1
:107D500080910C028E7F80930C020E94763C8032D0
:107D600009F0B8CE8091C00085FFFCCFF092C6002C
:107D7000609108027091090261157105B9F140E046
:107D800050E080910C02A82FA170B82FB27011C0E2
:107D9000BB2309F45CC0E0910601F0910701319624
:107DA000F0930701E09306014F5F5F4F46175707B7
:107DB000E8F4AA2369F3F999FECF209106013091E6
:107DC000070132BD21BDF89A90B58091C00085FFB2
:107DD000FCCF9093C6002F5F3F4F30930701209355
:107DE00006014F5F5F4F4617570718F38091C00099
:107DF00085FDE5CE8091C00085FFF8CFE0CE81E023
:107E00000E94C73C67CE0E94763C803209F08CCE3F
:107E10008091C00085FFFCCFF092C6008091C00029
:107E200085FFFCCFE092C6008091C00085FFFCCFAB
:107E3000D092C6008091C00085FFFCCFC092C600E2
:107E40008091C00085FFFCCFB092C60043CEE09188
:107E50000601F091070194918091C00085FFFCCF4D
:107E60009093C6009CCF80E10E94C73C33CE0E9415
:107E7000763C0E94763C182F0E94763C112309F430
:107E800083C0113009F484C08FE00E94C73C22CE29
:107E900080910C02816080930C02E5CE80910C02EF
:107EA000816080930C0259CF809107018823880F4D
:107EB000880B8A2180930B02809106019091070123
:107EC000880F991F90930701809306018091080203
:107ED00080FF09C080910802909109020196909359
:107EE000090280930802F894F999FECF1127E091D6
:107EF0000601F0910701C8E0D1E08091080290915D
:107F00000902103091F40091570001700130D9F34B
:107F100003E000935700E89500915700017001308D
:107F2000D9F301E100935700E89509901990009169
:107F3000570001700130D9F301E000935700E89534
:107F40001395103498F011270091570001700130FB
:107F5000D9F305E000935700E895009157000170B0
:107F60000130D9F301E100935700E895329602976A
:107F700009F0C7CF103011F00296E5CF112480919F
:107F8000C00085FFB9CEBCCE8EE10E94C73CA2CD19
:0C7F900085E90E94C73C9ECDF894FFCF0D
:027F9C00800063
:040000030000780081
:00000001FF
