:100000000C949E000C94C6000C94C6000C94321004
:100010000C9432100C9432100C94C6000C94C60050
:100020000C94C6000C94C6000C94C6000C94C60038
:100030000C94C6000C94C6000C94C6000C94C60028
:100040000C94E80F0C94C6000C94B60F0C94900F0F
:100050000C94C6000C94C6000C94C6000C94C60008
:100060000C94C6000C94C600523A2041434B0A003F
:100070000A00543A2000453A204352430A000A003D
:10008000453A204D7367546F6F4C6F6E670A003AA4
:1000900000523A2000543A2046575665720A0054DE
:1000A0003A2048575665722C5479700A00433A201A
:1000B000577269746520454550524F4D0A00433AC6
:1000C000205265616420454550524F4D0A00200082
:1000D000533A200000000000240027002A000000FE
:1000E00000080002010000030407000000000000F7
:1000F00000000A00423A20324120000000000023A4
:10010000002600290000000000250028002B000424
:1001100004040404040404020202020202030303AE
:1001200003030301020408102040800102040810A8
:100130002001020408102000A410421311241FBE45
:10014000CFEFD8E0DEBFCDBF11E0A0E0B1E0E6E840
:10015000F1E302C005900D92A238B107D9F722E071
:10016000A2E8B1E001C01D92AD3CB207E1F710E09A
:10017000CDE9D0E004C02197FE010E94C815CC391A
:10018000D107C9F70E9420110C94B6180C940000F6
:10019000FB012081318198E0A901220F331F87FDE7
:1001A000216057FF04C0F2E02F27F0E13F27880FBE
:1001B000915091F7FB01318320830895AF92BF9254
:1001C000CF92DF92EF92FF920F931F93CF93DF9323
:1001D0006C017B018B01040F151FEB015E01AE1852
:1001E000BF08C017D10759F06991D601ED91FC9174
:1001F0000190F081E02DC6010995892B79F7C501A1
:10020000DF91CF911F910F91FF90EF90DF90CF90F2
:10021000BF90AF900895FC01538D448D252F30E0A1
:10022000842F90E0821B930B541710F0CF96089503
:1002300001970895FC01918D828D981761F0A28D30
:10024000AE0FBF2FB11D5D968C91928D9F5F9F73F6
:10025000928F90E008958FEF9FEF0895FC01918DAC
:10026000828D981731F0828DE80FF11D858D90E019
:1002700008958FEF9FEF0895FC01918D228D892FB6
:1002800090E0805C9F4F821B91098F73992708959E
:100290008DE092E00E943C0121E0892B09F420E0EE
:1002A000822F089580E090E0892B29F00E94480178
:1002B00081110C9400000895FC01A48DA80FB92FA2
:1002C000B11DA35ABF4F2C91848D90E001968F737E
:1002D0009927848FA689B7892C93A089B1898C919D
:1002E000837080648C93938D848D981306C00288EC
:1002F000F389E02D80818F7D80830895EF92FF92B6
:100300000F931F93CF93DF93EC0181E0888F9B8D38
:100310008C8D98131AC0E889F989808185FF15C0F2
:100320009FB7F894EE89FF896083E889F989808115
:100330008370806480839FBF81E090E0DF91CF91E4
:100340001F910F91FF90EF900895F62E0B8D10E006
:100350000F5F1F4F0F731127E02E8C8D8E110CC075
:100360000FB607FCFACFE889F989808185FFF5CFC0
:10037000CE010E945C01F1CFEB8DEC0FFD2FF11D42
:10038000E35AFF4FF0829FB7F8940B8FEA89FB89FD
:1003900080818062CFCFCF93DF93EC01888D88235B
:1003A000B9F0AA89BB89E889F9898C9185FD03C0D8
:1003B000808186FD0DC00FB607FCF7CF8C9185FFBD
:1003C000F2CF808185FFEDCFCE010E945C01E9CFA5
:1003D000DF91CF910895833081F028F4813099F036
:1003E0008230A9F008958730A9F08830C9F08430B0
:1003F000B1F4809180008F7D03C0809180008F7761
:1004000080938000089584B58F7784BD089584B566
:100410008F7DFBCF8091B0008F778093B0000895DF
:100420008091B0008F7DF9CFCF93DF93282F30E0FC
:10043000F901E252FF4F8491F901ED5DFE4FD49135
:10044000F901E15FFE4FC491CC23A1F081110E941C
:10045000EB01EC2FF0E0EE0FFF1FE550FF4FA591F1
:10046000B491EC91ED2381E090E009F480E0DF911C
:10047000CF91089580E090E0FACF1F93CF93DF9360
:10048000282F30E0F901E252FF4F8491F901ED5D30
:10049000FE4FD491F901E15FFE4FC491CC23A9F046
:1004A000162F81110E94EB01EC2FF0E0EE0FFF1FE1
:1004B000EB5FFE4FA591B4918FB7F894EC911111B9
:1004C00008C0D095DE23DC938FBFDF91CF911F91C1
:1004D0000895DE2BF8CFCF93DF9390E0FC01ED5D24
:1004E000FE4F2491815F9E4FFC0184918823C9F0C7
:1004F00090E0880F991FFC01EC52FF4FA591B49139
:10050000FC01EB5FFE4FC591D49161110DC09FB707
:10051000F8948C91209582238C93888128232883BA
:100520009FBFDF91CF910895623051F49FB7F89447
:100530003C91822F809583238C93E8812E2BEFCFE3
:100540008FB7F894EC912E2B2C938FBFEACF2FB757
:10055000F8946091D9017091DA018091DB0190915A
:10056000DC012FBF08950895DC0112963C9112978B
:100570006317A0F4262F30E0220F331F13968D91BE
:100580009C91280F391FF90180819181DC01ED9147
:10059000FC910280F381E02DBA010994FA011082E6
:1005A00081E008958F929F92AF92BF92CF92DF9297
:1005B000EF92FF920F931F93CF93DF93EC01D62E10
:1005C000B42E922EE881F9810484F585E02D83E034
:1005D000882EAA24A394C12CEE24EA94FE2C870131
:1005E000CE010995182F8D819E81009769F0111118
:1005F0000BC0DC01ED91FC910190F081E02D092D03
:100600002B2D4D2DBE010995812FDF91CF911F918B
:100610000F91FF90EF90DF90CF90BF90AF909F90A1
:100620008F900895AF92CF92EF920F93FC01878144
:100630009085009771F0AC2CCE2CE02E022F9A0101
:10064000AB01BF01DC01ED91FC910190F081E02D47
:1006500009950F91EF90CF90AF9008954F925F92D0
:100660006F927F929F92AF92BF92CF92DF92EF9262
:10067000FF920F931F93CF93DF931F92CDB7DEB7F7
:10068000DC011A962D913C91232B09F442C0942E43
:100690005B016C010E94A702F6010681178120858B
:1006A00031852B013C01401A510A620A730A9301F9
:1006B0008201428553852A01712C612C0415150590
:1006C0002605370530F1668377838087918701900F
:1006D000F081E02D0280F381E02DBE016F5F7F4F3E
:1006E000C6010995D501ED91FC910084F185E02DBD
:1006F000E12CF12C87019E012F5F3F4F41E0692DD6
:10070000C50109958130B1F48AEF90E0F601938735
:1007100082870F90DF91CF911F910F91FF90EF9003
:10072000DF90CF90BF90AF909F907F906F905F9041
:100730004F900895D6011B961C921E921A97E9CFEE
:10074000FC018381882329F088ECFB01808381E010
:100750000895FB011082FBCF0F931F93CF93DF937C
:10076000EC018B01EC81FD81608161FF13C0D90137
:100770009C918A81993C68F10E94140261E0892B66
:1007800009F060E08A810E943D0281E09B81911125
:1007900080E08B838A859B85892BB1F4EC81FD8178
:1007A000808180FF11C00E94A7026E837F838887AB
:1007B0009987D8011F96ED91FC918081B4E68B9FBB
:1007C000C00111249B878A87DF91CF911F910F91E0
:1007D000089562FB662760F9992321F00E943D028B
:1007E00081E0D7CF91E069270E943D021B82D2CFE2
:1007F000CF93DF93EC013B81AC81BD818A819C91D9
:100800003E3F79F492FB662760F991E069270E94E8
:100810003D0261E08A810E946B021B82DF91CF91D1
:10082000089521E0311120E092FB662760F96227EC
:10083000DF91CF910C943D022091DF013091E001D6
:100840002817390771F49091DD018091DE01981726
:1008500041F0E091DD01F0E0EE57FE4F808190E045
:1008600008958FEF9FEF0895EF92FF921F93CF931C
:10087000DF93EC012C8D3D8D2115310561F481E074
:1008800090E09B838A8390E080E0DF91CF911F917D
:10089000FF90EF900895E989FA898889482F40955B
:1008A0001FB7A8E0B0E050E890E0762F752309F07C
:1008B0009F5F56951197C9F7F89450815423508340
:1008C000D9011197F1F758E0E62EF12C60FF1EC018
:1008D0006081682B6083D9011197F1F7B701759595
:1008E0006795515089F790FF14C09081982B9083A1
:1008F000D9011197F1F79081892B80831FBF8C8DCF
:100900009D8D0197F1F781E090E0BFCF6081642376
:10091000E1CF90819423EBCF2091DF013091E00172
:100920002817390771F48091DE012091DD0190E0F4
:10093000805C9F4F821B910960E470E00E94A015CB
:10094000089590E080E008952091DF013091E0016A
:1009500028173907B9F49091DD018091DE019817CD
:1009600089F0E091DD01F0E0EE57FE4F80812091AB
:10097000DD0130E02F5F3F4F2F7333272093DD01E0
:1009800090E008958FEF9FEF089590E080E0089544
:100990000F931F93CF93DF930091E2011091E30136
:1009A0000115110581F0EC01FE016491662359F0F7
:1009B000D801ED91FC910190F081E02DC8010995DD
:1009C0002196892B89F7DF91CF911F910F9108957F
:1009D0008091F4018F3F19F484E18093F40108952C
:1009E0009F92AF92BF92CF92DF92EF92FF920F93BE
:1009F0001F93CF93DF938C015B017A01922ED0E09D
:100A0000C0E06A0181E0C81AD108CE15DF0579F08F
:100A1000C6018C1B9D0B911001C0CE018A0D9B1D40
:100A20000E942715F80181938F012196EECFDF9167
:100A3000CF911F910F91FF90EF90DF90CF90BF90DB
:100A4000AF909F900895CF93DF93EC014E8550E0D7
:100A500020E061E070E08F8598890E94F004EF85C6
:100A6000F88981819281238134813183EF85F889EE
:100A70002283EF85F8899383EF85F88984838091B9
:100A80000C02816080930C02DF91CF9108954F9208
:100A90005F926F927F928F929F92AF92BF92CF920E
:100AA000DF92EF92FF920F931F93CF93DF9300D0CB
:100AB00000D000D01F92CDB7DEB74B0129013A011B
:100AC00030E4C32ED12CFF24FA9448ECB42E21E05C
:100AD00044E050E0B601CE0101960E94F004898105
:100AE0009A81AB81BC818F3F2FEF9207A207B2079B
:100AF00009F44AC084159505A605B70509F044C058
:100B000020E041E050E0B6016C5F7F4FCE010696D9
:100B10000E94F0048E81801337C020E041E050E055
:100B2000B6016B5F7F4FCE0106960E94F0041E81D6
:100B30001E112AC020E041E050E0B6016A5F7F4FFD
:100B4000CE0107960E94F004AA2039F08F8190E030
:100B500095958795959587958F838F8183708F83E2
:100B6000823091F0833091F1813071F1BD82D401F6
:100B7000ED91FC910280F381E02D9E012B5F3F4FB0
:100B800041E0612FC4010995B7E0CB0ED11C2CE3E5
:100B9000C21621E0D20609F09ACF27960FB6F89434
:100BA000DEBF0FBECDBFDF91CF911F910F91FF90A0
:100BB000EF90DF90CF90BF90AF909F908F907F90FD
:100BC0006F905F904F9008951D82D1CFFD82CFCF5F
:100BD000FB0101900020E9F73197AF01461B570B4D
:100BE000DC01ED91FC910280F381E02D09948F925C
:100BF0009F92AF92BF92EF92FF920F931F93CF936A
:100C0000DF93CDB7DEB7A1970FB6F894DEBF0FBE66
:100C1000CDBF7C01FA01CB0119A2223008F42AE0F1
:100C20008E010F5D1F4F822E912CB12CA12CBF0184
:100C3000A50194010E946F15F901CA016A300CF5F3
:100C4000605DD8016E938D01232B242B252B79F722
:100C500090E080E0109721F0BD01C7010E94E805F7
:100C6000A1960FB6F894DEBF0FBECDBFDF91CF9136
:100C70001F910F91FF90EF90BF90AF909F908F903A
:100C80000895695CDECFCF93C82F8091E2019091E7
:100C9000E3010097D9F04C2F50E024E0559547959B
:100CA0002A95E1F7052E000C660B770B20E10E94D8
:100CB000F705CF704C2F50E070E060E020E18091AC
:100CC000E2019091E301CF910C94F705CF91089543
:100CD0006F927F929F92AF92CF92DF92EF92FF92AC
:100CE0001F93CF93DF93EC017C0187E6E80EF11CA4
:100CF000AA24AA943E01A3E66A0E711C35E0932E45
:100D0000CC24CA94DC2C8C899D89DC01ED91FC916A
:100D10000084F185E02D0995892B09F4BEC00E945D
:100D2000A702F70160837183828393838C899D89F5
:100D3000DC01ED91FC910284F385E02D0995182FDB
:100D400081E990E01D3F11F08FE890E00E94C80417
:100D5000812F0E9443068F891C3F29F481FD1FC00B
:100D600082608F8BD0CF1D3FD1F48D7F81608F8BC0
:100D70001092C6011092C501F301108211821282F5
:100D800013821D8E1E8E1F8E18A2D092C401C09297
:100D9000C30163EC71E08DEF0E94C800B4CF80FF07
:100DA000B2CF81FF03C010688D7F8F8B63EC71E041
:100DB000812F0E94C8008091C501843088F44D8D38
:100DC0005E8D6F8D78A1762F652F542F4427412B90
:100DD0004D8F5E8F6F8F78A38F5F8093C50193CF08
:100DE000843029F49092C5011093C2018CCF2091D8
:100DF000C20123FF12C0893080F4D3014D915D916F
:100E00006D917C91762F652F542F4427412BF30150
:100E10004083518362837383DFCF8F3F71F0A09251
:100E2000C50119A3113408F46ECF8F898E7F8F8B83
:100E300080E890E00E94C80466CF8091C601FE0160
:100E4000E80FF11D12A391E0980F9093C60139A10C
:100E5000931359CF4091C3015091C401452BD1F454
:100E60009F899E7F9F8BFE01EE59FF4F208381500B
:100E700089A381E08C8F8EE790E0DF91CF911F9165
:100E8000FF90EF90DF90CF90AF909F907F906F900A
:100E90000C94C80486E790E0CDCFDF91CF911F91ED
:100EA000FF90EF90DF90CF90AF909F907F906F90EA
:100EB0000895EF92FF920F931F93CF938C01C62F4B
:100EC0007A018091E2019091E301009721F068E7B7
:100ED00071E00E94E8058C2F0E944306E114F104A2
:100EE00021F0B7018C2F0E94C80084E08C0F833062
:100EF00068F4D80154968D919C91DC01ED91FC91A0
:100F00000190F081E02D6CEF0995CF77F80184898D
:100F10009589DC01ED91FC910190F081E02D6C2F21
:100F2000CF911F910F91FF90EF9009948F929F9214
:100F3000AF92BF92CF92DF92EF92FF920F931F93E7
:100F4000CF93DF9300D0CDB7DEB78C018FEF9FEF4B
:100F50009A838983780123E7E20EF11CF7018081EF
:100F60009181A281B3818F3F9F4FAF4FBF4F99F0C7
:100F7000F801E958FF4FD801AE59BF4F8C9190E06E
:100F800095958795837020E2829FC00111249081FE
:100F90009F79892B808382E790E00E94C8048DEFBF
:100FA0000E94430661E0D80156968C910E943D0252
:100FB000F80184899589DC01ED91FC910190F08123
:100FC000E02D6DEF0995BE016F5F7F4F8DEF0E94A1
:100FD000C800F70180809180A280B38054E0F52E94
:100FE0006B2D772788279927AE014F5F5F4FC80188
:100FF0000E945907BA2CA92C982C8824FA94F11035
:10100000EFCFAE014F5F5F4F7801F7E7EF0EF11CB6
:10101000D7016C91C8010E945907F701808183FFB5
:101020001AC0D80158968D909D90AD90BC905B975A
:1010300024E0F22E6B2D772788279927AE014F5F8A
:101040005F4FC8010E945907BA2CA92C982C8824FC
:10105000FA94F110EFCF6801B8E7CB0ED11CF6017E
:1010600060816E5FAE014F5F5F4FC8010E945907FC
:10107000F12CD6018C91F81670F4F801EF0DF11DEA
:10108000E758FF4FAE014F5F5F4F6081C8010E947C
:101090005907F394EECFBE016F5F7F4F80E00E944F
:1010A000C800BE016F5F7F4F80E00E94C8006A8168
:1010B00050E040E0C8010E94590750E040E06981DB
:1010C000C8010E945907F80184899589DC01ED91D6
:1010D000FC910680F781E02D099560E0F801868992
:1010E0000E943D02D80157968C9157978860579679
:1010F0008C9380E790E00E94C8040F900F90DF91DE
:10110000CF911F910F91FF90EF90DF90CF90BF9004
:10111000AF909F908F900895AF92BF92CF92DF9241
:10112000EF92FF920F931F93CF93DF938C01C62F03
:10113000D42F790180ED90E00E94C8048C2F0E948A
:1011400043068EEC90E00E94C80467015701AD0E83
:10115000B11CAC14BD0431F0D6018D916D010E941B
:101160004306F7CF8091E2019091E301009721F0CF
:101170006AE771E00E94E805F8018281C817F8F477
:101180006C2F70E0660F771F83819481680F791F41
:10119000DB018D919C91DC01ED91FC910190F0813E
:1011A000E02D97014D2FB801DF91CF911F910F9145
:1011B000FF90EF90DF90CF90BF90AF900994DF91B8
:1011C000CF911F910F91FF90EF90DF90CF90BF9044
:1011D000AF9008951F93CF93DF93EC01162F0E94D9
:1011E0002715181739F0612FCE01DF91CF911F918C
:1011F0000C942F15DF91CF911F910895EF92FF92DC
:101200000F931F93CF93DF93CDB7DEB764970FB6DD
:10121000F894DEBF0FBECDBF8B01FC01608D718DD8
:10122000828D938D20E836E948E950E00E946F15E1
:101230009F938F937F936F938CE791E09F938F930E
:10124000CE0101967C019F938F930E94DE1588E466
:10125000F801808382E4818387E58283D801139635
:1012600087E0F70101900D928A95E1F70FB6F894A7
:10127000DEBF0FBECDBF64960FB6F894DEBF0FBEC3
:10128000CDBFDF91CF911F910F91FF90EF90089507
:10129000BF92CF92DF92EF92FF920F931F93CF9363
:1012A000DF93EC01062FB42E6623B9F10E94A7024A
:1012B000FE01E959FF4FC080D180E280F380AB018D
:1012C000BC014C195D096E097F097E012BE6E20E17
:1012D000F11CF70180819181B0E0A0E084179507AF
:1012E000A607B70758F081E0DF91CF911F910F91CA
:1012F000FF90EF90DF90CF90BF9008950E94CF14A1
:1013000024E630E040E050E00E943D156E527F4FF1
:101310008F4F9F4FF7017183608381E0FE01E35996
:10132000FF4F8083369680819181A281B3818F3F68
:101330009F4FAF4FBF4F09F44AC0FE01E958FF4F1E
:1013400080818370813009F442C010E0B11609F445
:1013500045C0CE010E9496070E94A7026B017C0146
:101360000E94A7026C197D098E099F09683C7105CE
:1013700081059105E0F4CE010E9468068C8D8823DA
:1013800079F34D8D5E8D6F8D78A1888D998DAA8DA5
:10139000BB8D481759076A077B0711F71C8ECE01D2
:1013A0000E94F30A8F8983FDDBCF80E09DCF01117E
:1013B00002C01F5FCBCF0E94A7026C197D098E0966
:1013C0009F09663971058105910598F78CCFCE018B
:1013D0000E9496078F89877F8F8BE7CF82E084CF2B
:1013E000CF93DF93EC01FC01ED58FF4F8FEF9FEFA0
:1013F000DC0180839183A283B383349688EF80835A
:10140000319680E18083319681E480833196108229
:1014100031968D8580833196898980838A899B89DD
:101420003196908331968083BE0161587F4FCE0103
:101430000E94FE0880910C0282FD07C043E061E03B
:10144000CE01DF91CF910C94480981E0DF91CF91DB
:101450000895CF93DF9350910C0252FD27C0EC0109
:10146000FC01ED58FF4F8FEF9FEFDC0180839183EC
:10147000A283B383349688EF8083319683E0840F10
:10148000808331968BE4808331966083319610821D
:1014900050E0B901CE0184589F4F0E94CE1543E021
:1014A00061E0CE01DF91CF910C94480981E0DF919A
:1014B000CF9108958F92AF92CF92EF92FF920F93B8
:1014C0001F93CF93DF93CDB7DEB7342F482D5091C4
:1014D0000C0252FD2CC0FC01ED58FF4FE082F1825E
:1014E0000283138358EF3496508354E0319650832F
:1014F0005BE431965083319660833196C08221112E
:1015000014C022E0FC01E458FF4F330F330F320FB9
:1015100030836A2DDF91CF911F910F91FF90EF9053
:10152000CF90AF908F900C94480923E0EBCF81E0EF
:10153000DF91CF911F910F91FF90EF90CF90AF90DF
:101540008F900895CF92DF92EF92FF920F931F93A7
:10155000CF93DF9350910C0252FD3BC0FC01ED583C
:10156000FF4FE082F18202831383EF28E02AE12A11
:1015700069F4EC01AF85B8891196CD90DD90ED90BE
:10158000FC901497C082D182E282F382EC01FC01CC
:10159000E958FF4F88EF8083319682E0840F808383
:1015A000319689E680833196608350E0B901CE019F
:1015B00085589F4F0E94CE1543E061E0CE01DF9138
:1015C000CF911F910F91FF90EF90DF90CF900C94EF
:1015D000480981E0DF91CF911F910F91FF90EF902B
:1015E000DF90CF9008950F931F93CF93DF93EC017B
:1015F000FC01E259FF4F81E080838F898E010E59F3
:101600001F4F83FF28C0F801808190E025E0959569
:1016100087952A95E1F7282F23707596808190E0B1
:10162000959587958370281316C0749740815181D2
:1016300062817381709680819181A281B381481704
:1016400059076A077B0739F488E690E00E94C804CE
:101650008F89877F8F8BF80180818370813029F19A
:1016600089A1811128C08D8D9E8DAF8DB8A18F3F2E
:101670009F4FAF4FBF4FF9F0FE01ED58FF4FDE0116
:10168000AD59BF4F8D919D910D90BC91A02D808340
:101690009183A283B383349689E18083319610824B
:1016A00043E060E0CE010E94480980E0DF91CF91E5
:1016B0001F910F91089581E0F9CFCF92DF92EF92C1
:1016C000FF920F931F93CF93DF93EC0180910C0255
:1016D00080FF23C0E881F9810680F781E02DCE01EB
:1016E000099510E08A81181798F4812F90E0880FEF
:1016F000991FEB81FC81E80FF91F80819181DC014A
:10170000ED91FC910680F781E02D09951F5FEACFEE
:1017100080910C028E7F80930C02CE010E9468069D
:101720008C8D882371F11C8E8D8D9E8DAF8DB8A10F
:10173000488D598D6A8D7B8D84179507A607B7074D
:1017400029F08F3F9F4FAF4FBF4FD9F4CE010E947A
:10175000F30A8823B1F021E08D8D9E8DAF8DB8A165
:101760008F3F9F4FAF4FBF4F09F020E0E881F981D5
:101770000288F389E02D49A1BE016E5D7F4FCE0145
:10178000099580910C0281FD13C00E94A702683E5A
:1017900073408105910560F0CE010E94F00991E04F
:1017A000811190E080910C0290FB81F980930C02F2
:1017B0004091D301842F90E0880F991FEB81FC8129
:1017C000E80FF91F80819181DC01ED91FC9104808B
:1017D000F581E02DBE0109958091D3018F5F809343
:1017E000D3019A81891710F01092D301898588233B
:1017F00009F45CC00E94A7026B017C0189859CEE04
:10180000980F9230D0F48E50806480937C00809149
:101810007A00806480937A0080917A0086FDFCCF04
:10182000909178008091790089279827892721E075
:101830008A3F91053CF020E005C00E94140221E09F
:10184000892BC9F78091E101823009F4DAC008F0F0
:1018500089C0882309F4A0C0813009F4ABC08A850F
:10186000882321F14091C7015091C8016091C901BD
:101870007091CA0197018601041B150B260B370BCB
:10188000B901A80145365105610571057CF09091BB
:10189000E101953008F0F9C0923008F0FFC09923BB
:1018A00009F404C161E0913009F401C10E94A7026A
:1018B0000091CF011091D0012091D1013091D2013E
:1018C000601B710B820B930B6D33710581059105C4
:1018D00008F43FC08B858823F9F09C8589130CC0E0
:1018E000DE01A259BF4F9C91992331F091E0FE0196
:1018F000E359FF4F90831C929091E101992319F0D5
:101900009A85891749F08E0103591F4FD8016C91B0
:101910000E943D02F80110828C85882381F09B850E
:10192000891769F09091E101992319F09A85891737
:1019300031F0C259DF4F68810E943D0218820E9437
:10194000A7026093CF017093D0018093D10190934F
:10195000D201DF91CF911F910F91FF90EF90DF9017
:10196000CF900895843009F470C008F44EC08530DB
:1019700009F075CF211173CF10E000E06FEFC801BF
:101980000E94EA080F5F1F4F0C3F63E01607B1F794
:10199000CE010E94230532C0222319F081E08093FA
:1019A000E101C092CB01D092CC01E092CD01F09246
:1019B000CE0155CF8091CB019091CC01A091CD016A
:1019C000B091CE01B701A601481B590B6A0B7B0BE6
:1019D000DB01CA01222351F089389341A105B105E9
:1019E0000CF43DCF82E08093E10139CF853691053B
:1019F000A105B1051CF0CE010E94F0091092E10191
:101A00002ECF83E0222359F22ACF8091CB019091EF
:101A1000CC01A091CD01B091CE01B701A601481B28
:101A2000590B6A0B7B0BDB01CA0184369105A105BA
:101A3000B1050CF414CF222311F084E0B0CF813132
:101A40009742A105B105D4F60ACF8091CB019091C0
:101A5000CC01A091CD01B091CE01B701A601481BE8
:101A6000590B6A0B7B0BDB01CA0184369105A1057A
:101A7000B1050CF4F4CE222309F2893B9B40A10569
:101A8000B1050CF4ECCE85E0AECF953009F00ECF69
:101A90004F3E5240610571050CF408CF0E941402BC
:101AA00061E0892B09F060E08A8501C060E00E9456
:101AB0003D02C092C701D092C801E092C901F092E4
:101AC000CA01F4CECF92DF92EF92FF920F931F9351
:101AD000CF93DF93EC010CEF13E060E070E0CB01FB
:101AE000CC24D62EE72EF82EC8010E942715960189
:101AF000282BC701B9010F5F1F4F011534E01307F1
:101B000079F76F3F4FEF74078407940721F46FEF65
:101B10007FEF8FEF92E4688F798F8A8F9B8F6115AB
:101B200071058105910511F00E941E150E94CF14C8
:101B3000C559DF4F24E630E040E050E00E943D15FB
:101B40006E527F4F8F4F9F4F79836883DF91CF9184
:101B50001F910F91FF90EF90DF90CF9008954F92DB
:101B60005F926F927F928F929F92AF92BF92CF922D
:101B7000DF92EF92FF920F931F93CF93DF93222375
:101B800009F1DB018C918A3599F08A37B9F0DF9140
:101B9000CF911F910F91FF90EF90DF90CF90BF906A
:101BA000AF909F908F907F906F905F904F9008952F
:101BB00080910C028B7F80930C02E9CF80910C0204
:101BC0008460F9CF20910C0222FDE1CF142F5B013C
:101BD000EC01FC01ED59FF4F40815181628173811D
:101BE000709640835183628373834C01B7E78B0EF9
:101BF000911C88E7F4018083D5018C91833509F429
:101C000070C108F094C0833409F4FCC070F48034CF
:101C100009F4D7C0813409F4EFC089E1D4018C9371
:101C2000FE01E858FF4F10826DC08B3409F4F4C0F8
:101C3000823509F40BC1853481F7F5016380948105
:101C4000892F869586958695492E512C9770FE0191
:101C5000E858FF4F9111DAC08C5F8083408150E0DB
:101C600070E060E08E0107581F4FC8010E94D71531
:101C700085E6D8018C93F5018181FE01E658FF4F7E
:101C80008083D50112968C9112973196808313969A
:101C90008C9131968083712CD12CC12C10E000E006
:101CA000812C912C54018394F12CE12CE614F7043F
:101CB00014F5C7018C0D9D1D0E9427158F3F09F457
:101CC000A7C0F80123E0F595E7952A95E1F7EC0F19
:101CD000FD1FE358FF4FC80187709927A5019401A4
:101CE00004C0220F331F441F551F8A95D2F7C90124
:101CF0002081822B80830F5F1F4FC60CD71C40169C
:101D0000510694F643E060E0CE01DF91CF911F9140
:101D10000F91FF90EF90DF90CF90BF90AF909F908A
:101D20008F907F906F905F904F900C94480983370D
:101D300009F4C8C098F5883609F4AAC08E3609F4AB
:101D4000B6C0873509F069CF13968C9190E0049660
:101D50001817190609F061CF8DEA90E00E94C804B7
:101D6000F501C180D280DC24CD24DC24760104E09E
:101D7000011708F052CFFCEFEF16F3E0FF064CF42A
:101D8000F701EC19FD09EA0DFB1D6481C7010E94F2
:101D9000EA080F5F2FEFE21AF20AEACF883709F458
:101DA00091C08B3CC9F1863709F037CF85E990E0C7
:101DB0000E94C8048A899B89FE01E758FF4F9083DF
:101DC00071C0F5018181813699F4163089F4F2E011
:101DD000AF0EB11C0CEF13E0D5016D915D01C80190
:101DE0000E94EA080F5F1F4F0115B4E01B07A1F71F
:101DF000CE010E94620D11CF89E6FE01E758FF4F28
:101E0000808380CFCE010E94230507CF8B5F25CF33
:101E10003FEFE31AF30A4ACFD50113968C91B82FFE
:101E2000B170CB2EE82EF12CF594E794F594E7945D
:101E3000E881F9810088F189E02DD50112960C9195
:101E4000129711962C91CE010995E7CE143009F026
:101E5000E4CE8EEB90E00E94C804F501E180F280B0
:101E6000FE24EF24FE24D12CD50113968C91D81694
:101E700028F50D2D10E0C8018E0D9F1D0E9427151D
:101E80000C0F1D1FF801E758FF4F8083D394ECCF50
:101E90008FE990E00E94C8048D85FE01E758FF4F4E
:101EA000808389893196808382E03297A9CFBE01F1
:101EB00067587F4FCE010E94FE088AE0FE01E85875
:101EC000FF4F9ECF95012E5F3F4F4EEF410FE881B0
:101ED000F9810280F381E02DD50111966C91CE013C
:101EE0000995F501618189E6F82E8E0107581F4F8B
:101EF000D801FC92FE01E658FF4F6083E881F9812A
:101F00000480F581E02DAE0145585F4FCE01099563
:101F1000FE01E858FF4F8E5F8083F801F082F2CE19
:101F20001F920F920FB60F9211242F933F934F934E
:101F30005F936F937F938F939F93AF93BF93EF9331
:101F4000FF938DE092E00E945C01FF91EF91BF91C1
:101F5000AF919F918F917F916F915F914F913F9141
:101F60002F910F900FBE0F901F9018951F920F92F8
:101F70000FB60F9211242F938F939F93EF93FF939C
:101F8000E0911D02F0911E028081E0912302F09108
:101F9000240282FD1BC09081809126028F5F8F7387
:101FA00020912702821741F0E0912602F0E0E35FE2
:101FB000FD4F958F80932602FF91EF919F918F9116
:101FC0002F910F900FBE0F901F9018958081F4CF26
:101FD0001F920F920FB60F9211242F933F938F935E
:101FE0009F93AF93BF938091D9019091DA01A09113
:101FF000DB01B091DC013091D80123E0230F2D37B4
:1020000058F50196A11DB11D2093D8018093D901E7
:102010009093DA01A093DB01B093DC018091D401AD
:102020009091D501A091D601B091D7010196A11D43
:10203000B11D8093D4019093D501A093D601B093A4
:10204000D701BF91AF919F918F913F912F910F90A9
:102050000FBE0F901F90189526E8230F0296A11D22
:10206000B11DD2CF1F920F920FB60F9211242F9352
:102070003F934F935F936F937F938F939F93AF9310
:10208000BF93EF93FF93E091DF01F091E001309770
:1020900009F445C0A685B7852C918585282309F0CC
:1020A0003EC0A389B4899C918589809589238C93AE
:1020B000868997890197F1F7608D718DA685B7851F
:1020C000558538E0CB010197F1F7822F90E0959587
:1020D0008795282F4C91452309F02068315091F7BE
:1020E0008091DE0190E001968F7399273091DD0198
:1020F000381731F1A091DE01B0E0AE57BE4F2C93FE
:102100008093DE01828D938DDC011197F1F70197A9
:10211000F1F7A389B4898C919589892B8C93FF91D0
:10212000EF91BF91AF919F918F917F916F915F914F
:102130004F913F912F910F900FBE0F901F901895C8
:10214000868D8160868FDECFCF93DF93EDE0F2E066
:102150001382128288EE93E0A0E0B0E0848395833E
:10216000A683B78328E531E03183208325EC30E076
:102170003587248724EC30E03787268720EC30E051
:10218000318B208B21EC30E0338B228B22EC30E042
:10219000358B248B26EC30E0378B268B118E128EFC
:1021A000138E148ECAEAD2E01B821A828C839D831E
:1021B000AE83BF838AE691E0998388831F8A1E8A53
:1021C000198E188E1B8E1A8E1D8E1C8EE8ECF2E076
:1021D00080818E7F808361E082E00E943D0261E029
:1021E00082E00E946B02E5E2F1E0E491E88BE1E13C
:1021F000F1E0E491F0E0EE0FFF1FEB5FFE4F859101
:1022000094919A8B898B60E084E00E946B0261E07C
:1022100084E00E943D0284E08C87E7E2F1E0E491F3
:10222000ED87E3E1F1E0E491F0E0EE0FFF1FE55010
:10223000FF4F859194919F878E87DF91CF9108956D
:10224000CF93DF9300D0CDB7DEB7789484B58260AA
:1022500084BD84B5816084BD85B5826085BD85B54A
:10226000816085BD80916E00816080936E001092C8
:102270008100809181008260809381008091810043
:1022800081608093810080918000816080938000D4
:102290008091B10084608093B1008091B000816032
:1022A0008093B00080917A00846080937A0080915E
:1022B0007A00826080937A0080917A0081608093B6
:1022C0007A0080917A00806880937A001092C10031
:1022D000E0911D02F0911E0282E08083E0911902DC
:1022E000F0911A021082E0911B02F0911C0280E131
:1022F000808310922502E0912102F091220286E073
:102300008083E0911F02F0912002808180618083B0
:10231000E0911F02F0912002808188608083E0912B
:102320001F02F0912002808180688083E0911F026B
:10233000F091200280818F7D80831092C5021092DF
:10234000C4021092C3021092C2021092C1021092F3
:10235000C0028DEC90E09093C7028093C6029091EA
:10236000B602963108F047C025E530E03093C1024F
:102370002093C0022BEC30E03093C3022093C202C2
:1023800020E930E03093C5022093C4022091680018
:1023900084E0983048F031E09E3008F430E081E08D
:1023A00001C0880F3A95EAF7822B809368002DE6EA
:1023B00030E0983050F02BE630E09E3030F02CE6E4
:1023C00030E0963110F030E020E03093BE022093F0
:1023D000BD02292F30E0983008F047C181E001C0EC
:1023E000880F9A95EAF78093BF028091C602909178
:1023F000C7020197F1F78091C4029091C502892B21
:1024000049F1E091DF01F091E00122E0EA3AF207C0
:1024100009F1309739F0A389B4899C918589809519
:1024200089238C938091C8028E7F8093C80210927A
:10243000DE011092DD018AEA92E09093E001809340
:10244000DF01E091BD02F091BE0280819091BF0258
:10245000892B80839CE4C92E91E0D92E24EEE22EB4
:1024600021E0F22E10E000E03EE0A32E31E0B32E9A
:102470004EEF942E8CE090E00E945E13FC01D6019A
:102480008D916D01B182A0828283C80186509E4FDA
:10249000958384831386128616821782108611868E
:1024A0009382D701ED93FD937D010E5F1F4F0031A5
:1024B000110501F782E090E00E945E136C018AE44E
:1024C00091E0F6019183808389EB90E00E945E1396
:1024D0008C018AE191E0D8018D939C93F801E15938
:1024E000FF4F80E098E391838083329611821082BF
:1024F00086E1F801868784EF91E0908B878788E0FA
:10250000F82EF28284EE91E0948383831682158202
:10251000D086C782118A86E690E0938B828B8AEA06
:1025200092E0958B848B83E0868B61E00E946B0246
:1025300060E0D80156968C910E943D02F801148EFD
:10254000E959FF4F1082118212821382349682ED74
:1025500090E091838083D8011A961C921A971B965B
:102560001C921B971C961C921C9783E81D968C93BB
:10257000C8010E94620D8DE092E09093E301809388
:10258000E201F80111861092E101C8010E942305C1
:1025900080910C028D7F8B7F80930C0282E391E00F
:1025A000D80111969C938E9310930B0200930A020C
:1025B0001996FC9262E088E00E946B028DE0F801BF
:1025C000828761E00E946B0284EF90E00E94C80461
:1025D0008091C9029091CA02009711F48DEC92E0AB
:1025E0009E012F5F3F4F6901C81AD90A0091E2018D
:1025F0001091E30101151105E9F00D2C000CEE0816
:10260000FF082AE0B701A601F7FE11C0D801ED913D
:10261000FC910190F081E02D6DE2C80109954427FD
:102620005527BA014C195D096E097F092AE0C801D6
:102630000E94F70582EF90E00E94C80400E010E0DD
:1026400080910A0290910B02DC01ED91FC910190C6
:10265000F081E02D09950115110591F30E944801C3
:10266000882371F30E940000EBCF9E3040F4285085
:10267000310981E001C0880F2A95EAF7B4CE2E50C7
:102680003109F7CF8AE691E09093AB028093AA02DA
:102690008091DF019091E0018A5A924071F4E091BB
:1026A000BD02F091BE0290818091BF028095892386
:1026B00080831092E0011092DF0108950F931F9321
:1026C000CF93DF938230910510F482E090E0E091A7
:1026D000CB02F091CC0230E020E0B0E0A0E03097F7
:1026E00099F42115310509F44AC0281B390B24300F
:1026F0003105D8F58A819B816115710589F1FB014E
:1027000093838283FE0111C0408151810281138134
:1027100048175907E0F04817590799F4109761F0E6
:1027200012960C93129713961C933296CF01DF9159
:10273000CF911F910F9108950093CB021093CC027B
:10274000F4CF2115310551F04217530738F0A90194
:10275000DB019A01BD01DF01F801C1CFEF01F9CF23
:102760009093CC028093CB02CDCFFE01E20FF31FFA
:10277000819391932250310939832883D7CF2091B7
:10278000C9023091CA02232B41F4209102013091F9
:1027900003013093CA022093C902209100013091B5
:1027A00001012115310541F42DB73EB740910401D7
:1027B00050910501241B350BE091C902F091CA022A
:1027C000E217F307A0F42E1B3F0B2817390778F008
:1027D000AC014E5F5F4F2417350748F04E0F5F1F67
:1027E0005093CA024093C902819391939FCFF0E026
:1027F000E0E09CCFCF93DF930097E9F0FC013297A4
:1028000013821282A091CB02B091CC02ED0130E094
:1028100020E01097A1F420813181820F931F209135
:10282000C9023091CA022817390709F061C0F09334
:10283000CA02E093C902DF91CF910895EA01CE1751
:10284000DF07E8F54A815B819E0141155105B1F72B
:10285000E901FB83EA8349915991C40FD51FEC1715
:10286000FD0761F4808191810296840F951FE90133
:1028700099838883828193819B838A83F0E0E0E05F
:1028800012968D919C9113970097B9F52D913C91DB
:102890001197CD010296820F931F2091C9023091AA
:1028A000CA022817390739F6309751F51092CC0231
:1028B0001092CB02B093CA02A093C902BCCFD383BB
:1028C000C28340815181840F951FC817D90761F4D5
:1028D0004E5F5F4F88819981480F591F5183408314
:1028E0008A819B81938382832115310509F0B0CFC2
:1028F000F093CC02E093CB029ECFFD01DC01C0CF70
:1029000013821282D7CF8F929F92AF92BF92CF92B3
:10291000DF92EF92FF92CF93DF93EC016881798190
:102920008A819B81611571058105910521F464E21D
:1029300079ED8BE597E02DE133EF41E050E00E9427
:102940003D1549015A019B01AC01A7EAB1E40E947F
:102950005C156B017C01ACEEB4EFA50194010E9403
:102960006A15C60ED71EE81EF91EF7FE06C081E0E6
:10297000C81AD108E10880E8F80AC882D982EA8238
:10298000FB82C701B6019F77DF91CF91FF90EF9057
:10299000DF90CF90BF90AF909F908F9008958F92CF
:1029A0009F92AF92BF92CF92DF92EF92FF9260918F
:1029B000060170910701809108019091090161154C
:1029C00071058105910521F464E279ED8BE597E0CD
:1029D0002DE133EF41E050E00E943D1549015A01DD
:1029E0009B01AC01A7EAB1E40E945C156B017C017C
:1029F000ACEEB4EFA50194010E946A15C60ED71E75
:102A0000E81EF91EF7FE06C081E0C81AD108E108E9
:102A100080E8F80AC0920601D0920701E09208010E
:102A2000F0920901C701B6019F77FF90EF90DF9008
:102A3000CF90BF90AF909F908F90089560930601C4
:102A40007093070180930801909309010895F99903
:102A5000FECF92BD81BDF89A992780B50895262FA3
:102A6000F999FECF1FBA92BD81BD20BD0FB6F89473
:102A7000FA9AF99A0FBE01960895052E97FB1EF457
:102A800000940E94541557FD07D00E946F1507FC53
:102A900003D04EF40C9454155095409530952195E3
:102AA0003F4F4F4F5F4F089590958095709561957A
:102AB0007F4F8F4F9F4F08950E949115A59F900DB6
:102AC000B49F900DA49F800D911D11240895B7FF10
:102AD0000C945C150E945C15821B930B0895A1E277
:102AE0001A2EAA1BBB1BFD010DC0AA1FBB1FEE1F88
:102AF000FF1FA217B307E407F50720F0A21BB30BD3
:102B0000E40BF50B661F771F881F991F1A9469F74E
:102B100060957095809590959B01AC01BD01CF01AA
:102B20000895A29FB001B39FC001A39F700D811DA6
:102B30001124911DB29F700D811D1124911D0895C6
:102B400097FB072E16F4009407D077FD09D00E945A
:102B5000B41507FC05D03EF4909581959F4F0895DC
:102B6000709561957F4F0895AA1BBB1B51E107C06B
:102B7000AA1FBB1FA617B70710F0A61BB70B881F0D
:102B8000991F5A95A9F780959095BC01CD0108959C
:102B9000EE0FFF1F0590F491E02D0994FB01DC017D
:102BA00002C001900D9241505040D8F70895DC01C9
:102BB00001C06D9341505040E0F70895AEE0B0E0A1
:102BC000E4EEF5E10C948D180D891E8986E08C8366
:102BD0001A8309838FEF9FE79E838D83AE01475E43
:102BE0005F4F6F89788DCE0101960E9401162F816B
:102BF0003885020F131FF80110822E96E4E00C9422
:102C0000A918ABE0B0E0E7E0F6E10C947F187C0196
:102C10003B018A01FC0117821682838181FFC8C1B2
:102C2000CE0101965C01F7019381F30193FD85913B
:102C300093FF81913F01882309F453C1853239F410
:102C400093FD859193FF81913F01853229F4B7016E
:102C500090E00E94F117E7CF912C212C312CFFE15D
:102C6000F31538F08B3211F190F4803209F1833290
:102C700029F137FC3CC020ED280F2A3050F536FEF4
:102C800020C08AE0989E200D1124922E06C08D321D
:102C900091F0803371F7689430F8F30193FD8591DA
:102CA00093FF81913F018111DACF21C0689431F8FF
:102CB000689432F8F2CF689433F8EFCF689434F820
:102CC000ECCFEAE02E9E200D1124222E689435F8D8
:102CD000E4CF8E3229F436FC04C1689436F8DDCF97
:102CE0008C3619F4689437F8D8CF8836B1F2982F1B
:102CF0009F7D95549330E0F08336A1F18337C1F185
:102D0000833509F063C02801F2E04F0E511CF80131
:102D1000C080D180692D70E036FC02C06FEF7FEF7C
:102D2000C6010E94DB174C01689437F882010AC083
:102D30000C5F1F4FFFE3F98388248394912C650176
:102D4000E89437F833FE2DC0522C8114910471F5AC
:102D5000552009F468CFB70180E290E00E94F11796
:102D60005A94F6CFF801808189830E5F1F4FE4CF1C
:102D70002801F2E04F0E511CF801C080D180692D6E
:102D800070E036FC02C06FEF7FEFC6010E94E617CD
:102D90004C018201D5CFB70180E290E00E94F1178B
:102DA0002A942814190409F0B0F7CECFF60137FCA5
:102DB000859137FE81916F01B70190E00E94F11774
:102DC00051105A94F1E08F1A9108BFCF843619F050
:102DD000893609F077C0F80137FE6BC060817181D8
:102DE000828193810C5F1F4FF32DFF763F2E97FF5B
:102DF00009C090958095709561957F4F8F4F9F4F3B
:102E0000689437F82AE030E0A5010E942118C82E06
:102E1000CA188C2C432C36FE0CC0E89440F8C91418
:102E200040F434FE05C032FC03C0F32DFE7E4F2E6D
:102E3000892C44FE95C0FE01EC0DF11D808180338C
:102E400009F087C0242D297E422E842D8870582EAB
:102E500043FC95C040FE8FC09C2C821418F42C0CAF
:102E6000922C981844FE91C0B70180E390E00E9434
:102E7000F11742FE09C088E790E041FE02C088E5F4
:102E800090E0B7010E94F117C91408F48AC0CA94EF
:102E9000D12C9FEFC91AD90ACA0CDB1CF60182910A
:102EA0006F01B70190E00E94F117AC14BD04B1F7B7
:102EB0004FCF60817181072E000C880B990B0E5F3C
:102EC0001F4F92CFD32CE894D4F82AE030E0853716
:102ED00039F1232D297FD22E8F3601F148F4883520
:102EE000A9F0F701868197812B96E2E10C949B185B
:102EF000803749F08837A9F7D4FE02C06894D2F829
:102F000020E130E00DC06894D4F8F6CF34FE03C061
:102F1000822F8660D82E20E132E002C028E030E027
:102F2000F801D7FE0FC060817181828193810C5FAF
:102F30001F4FA5010E942118C82ECA183D2CE894E5
:102F400037F867CF6081718190E080E00E5F1F4F9E
:102F5000F0CF42FC02C0839478CF8394839475CFE2
:102F6000842D867809F471CFF6CFB70180E290E026
:102F70000E94F11783948214C0F3512C73CF522C0A
:102F80005818821408F46ECFF8CF842D867809F48F
:102F90007BCF8BE241FE80E247FC8DE2B70190E0FF
:102FA00071CFB70180E390E00E94F1179A946CCF43
:102FB0008FEF9FEF99CFFC01059061507040011099
:102FC000D8F7809590958E0F9F1F0895FC01615052
:102FD000704001900110D8F7809590958E0F9F1F3B
:102FE00008950F931F93CF93DF93182F092FEB01B1
:102FF0008B8181FD09C01FEF0FEF812F902FDF9193
:10300000CF911F910F91089582FF14C02E813F81AF
:103010008C819D81281739073CF4E881F981CF0123
:1030200001969983888310838E819F8101969F8367
:103030008E83E3CFE885F985812F0995892BA1F34C
:10304000DACFFA01AA27283051F1203181F1E89432
:103050006F936E7F6E5F7F4F8F4F9F4FAF4FB1E08B
:103060003ED0B4E03CD0670F781F891F9A1FA11D86
:10307000680F791F8A1F911DA11D6A0F711D811D87
:10308000911DA11D20D009F468943F912AE0269F4C
:1030900011243019305D3193DEF6CF010895462FAB
:1030A0004770405D4193B3E00FD0C9F7F6CF462F8C
:1030B0004F70405D4A3318F0495D31FD40524193F5
:1030C00002D0A9F7EACFB4E0A695979587957795B2
:1030D0006795BA95C9F700976105710508959B0139
:1030E000AC010A2E06945795479537952795BA95C2
:1030F000C9F7620F731F841F951FA01D08952F929B
:103100003F924F925F926F927F928F929F92AF9277
:10311000BF92CF92DF92EF92FF920F931F93CF93C4
:10312000DF93CDB7DEB7CA1BDB0B0FB6F894DEBF5B
:103130000FBECDBF09942A88398848885F846E8481
:103140007D848C849B84AA84B984C884DF80EE80CB
:10315000FD800C811B81AA81B981CE0FD11D0FB6D4
:10316000F894DEBF0FBECDBFED01089510E0CDE9AC
:10317000D0E004C0FE010E94C8152196CE39D107C7
:06318000C9F7F894FFCF2F
:103186000000CD0280000100000000000000AC033A
:10319600A0032E03F803000000005D0B8C08B402A8
:1031A600B302A20AD2025A0A290A1203AF0D00007C
:1031B60000005D0B8C08B402E804A20AD2025A0A87
:1031C600290A1203AF0D0000000047050E0F10116B
:1031D60012130A0B000000007E01DE000B01CB017A
:1031E6003C011A012E01000000003404DE00C50473
:1031F600B3028C04A4041C043A000A002530376C80
:02320600750051
:107800000C94343C0C94513C0C94513C0C94513CE1
:107810000C94513C0C94513C0C94513C0C94513CB4
:107820000C94513C0C94513C0C94513C0C94513CA4
:107830000C94513C0C94513C0C94513C0C94513C94
:107840000C94513C0C94513C0C94513C0C94513C84
:107850000C94513C0C94513C0C94513C0C94513C74
:107860000C94513C0C94513C11241FBECFEFD8E036
:10787000DEBFCDBF11E0A0E0B1E0ECE9FFE702C060
:1078800005900D92A230B107D9F712E0A2E0B1E065
:1078900001C01D92AD30B107E1F70E942D3D0C945F
:1078A000CC3F0C94003C982F959595959595959582
:1078B000905D8F708A307CF0282F295A8091C0000B
:1078C00085FFFCCF9093C6008091C00085FFFCCF60
:1078D0002093C6000895282F205DF0CF982F809127
:1078E000C00085FFFCCF9093C6000895EF92FF92F1
:1078F0000F931F93EE24FF2487018091C00087FD22
:1079000017C00894E11CF11C011D111D81E4E8164B
:1079100082E4F8068FE0080780E0180770F3E09132
:107920000401F091050109958091C00087FFE9CF1E
:107930008091C6001F910F91FF90EF9008950E94D3
:10794000763C982F8091C00085FFFCCF9093C600B5
:1079500091362CF490330CF09053892F089597555D
:10796000892F08951F930E949F3C182F0E949F3CCF
:107970001295107F810F1F9108951F93182F882350
:1079800021F00E94763C1150E1F71F9108951F935A
:10799000182F0E94763C803249F0809103018F5F5E
:1079A000809303018530C1F01F9108958091C0003C
:1079B00085FFFCCF84E18093C6008091C00085FFE5
:1079C000FCCF1093C6008091C00085FFFCCF80E102
:1079D0008093C6001F910895E0910401F091050184
:1079E00009951F9108950E94763C803241F0809164
:1079F00003018F5F80930301853081F008958091AA
:107A0000C00085FFFCCF84E18093C6008091C00058
:107A100085FFFCCF80E18093C6000895E0910401CA
:107A2000F09105010995089540E951E08823A1F0FE
:107A30002D9A28EE33E0FA013197F1F721503040CA
:107A4000D1F72D9828EE33E0FA013197F1F7215064
:107A50003040D1F7815061F708953F924F925F9285
:107A60006F927F928F929F92AF92BF92CF92DF924E
:107A7000EF92FF920F931F93CF93DF93000080E16B
:107A80008093C4001092C50088E18093C10086E015
:107A90008093C2005098589A259A81E00E94143D24
:107AA00024E1F22E9EE1E92E85E9D82E0FE0C02ECA
:107AB00010E1B12EAA24A394B1E49B2EA6E58A2E50
:107AC000F2E57F2EE0E26E2E79E4572E63E5462E36
:107AD00050E5352E0E94763C8033B1F18133B9F107
:107AE000803409F46FC0813409F476C0823409F41B
:107AF00085C0853409F488C0803531F1823521F1A3
:107B0000813511F1853509F485C0863509F48DC0BC
:107B1000843609F496C0843709F403C1853709F423
:107B200072C1863709F466C0809103018F5F80932C
:107B30000301853079F6E0910401F0910501099582
:107B40000E94763C803351F60E94F33CC3CF0E94E2
:107B5000763C803249F78091C00085FFFCCFF092DF
:107B6000C6008091C00085FFFCCF9092C600809136
:107B7000C00085FFFCCF8092C6008091C00085FFC9
:107B8000FCCF7092C6008091C00085FFFCCF609250
:107B9000C6008091C00085FFFCCF5092C600809146
:107BA000C00085FFFCCF4092C6008091C00085FFD9
:107BB000FCCF3092C6008091C00085FFFCCFB09210
:107BC000C60088CF0E94763C863808F4BDCF0E945C
:107BD000763C0E94F33C7ECF0E94763C803809F4CC
:107BE0009CC0813809F40BC1823809F43CC1883942
:107BF00009F48FC080E00E94C73C6CCF84E10E94F2
:107C0000BD3C0E94F33C66CF85E00E94BD3C0E94D3
:107C1000F33C60CF0E94763C809306010E94763C44
:107C2000809307010E94F33C55CF0E94763C80333D
:107C300009F41DC183E00E94BD3C80E00E94C73C66
:107C400049CF0E94763C809309020E94763C809343
:107C5000080280910C028E7F80930C020E94763C79
:107C6000853409F415C18091080290910902892B8D
:107C700089F000E010E00E94763CF801E85FFE4FDA
:107C800080830F5F1F4F80910802909109020817AF
:107C9000190788F30E94763C803209F045CF809125
:107CA0000C0280FF01C16091060170910701660F0F
:107CB000771F7093070160930601A0910802B091AD
:107CC00009021097C9F0E8E0F1E09B01AD014E0F09
:107CD0005F1FF999FECF32BD21BD819180BDFA9A17
:107CE000F99A2F5F3F4FE417F50799F76A0F7B1F4B
:107CF00070930701609306018091C00085FFFCCF5F
:107D0000F092C6008091C00085FFFCCFB092C60003
:107D1000E1CE83E00E94C73CDDCE82E00E94C73CFA
:107D2000D9CE0E94763C809309020E94763C8093D3
:107D300008028091060190910701880F991F909386
:107D40000701809306010E94763C853409F4A6C0A1
:107D500080910C028E7F80930C020E94763C8032D0
:107D600009F0B8CE8091C00085FFFCCFF092C6002C
:107D7000609108027091090261157105B9F140E046
:107D800050E080910C02A82FA170B82FB27011C0E2
:107D9000BB2309F45CC0E0910601F0910701319624
:107DA000F0930701E09306014F5F5F4F46175707B7
:107DB000E8F4AA2369F3F999FECF209106013091E6
:107DC000070132BD21BDF89A90B58091C00085FFB2
:107DD000FCCF9093C6002F5F3F4F30930701209355
:107DE00006014F5F5F4F4617570718F38091C00099
:107DF00085FDE5CE8091C00085FFF8CFE0CE81E023
:107E00000E94C73C67CE0E94763C803209F08CCE3F
:107E10008091C00085FFFCCFF092C6008091C00029
:107E200085FFFCCFE092C6008091C00085FFFCCFAB
:107E3000D092C6008091C00085FFFCCFC092C600E2
:107E40008091C00085FFFCCFB092C60043CEE09188
:107E50000601F091070194918091C00085FFFCCF4D
:107E60009093C6009CCF80E10E94C73C33CE0E9415
:107E7000763C0E94763C182F0E94763C112309F430
:107E800083C0113009F484C08FE00E94C73C22CE29
:107E900080910C02816080930C02E5CE80910C02EF
:107EA000816080930C0259CF809107018823880F4D
:107EB000880B8A2180930B02809106019091070123
:107EC000880F991F90930701809306018091080203
:107ED00080FF09C080910802909109020196909359
:107EE000090280930802F894F999FECF1127E091D6
:107EF0000601F0910701C8E0D1E08091080290915D
:107F00000902103091F40091570001700130D9F34B
:107F100003E000935700E89500915700017001308D
:107F2000D9F301E100935700E89509901990009169
:107F3000570001700130D9F301E000935700E89534
:107F40001395103498F011270091570001700130FB
:107F5000D9F305E000935700E895009157000170B0
:107F60000130D9F301E100935700E895329602976A
:107F700009F0C7CF103011F00296E5CF112480919F
:107F8000C00085FFB9CEBCCE8EE10E94C73CA2CD19
:0C7F900085E90E94C73C9ECDF894FFCF0D
:027F9C00800063
:040000030000780081
:00000001FF
