:020000040000FA
:100000000C9463000C948B000C948B000C94EE0EFB
:100010000C94EE0E0C94EE0E0C948B000C948B0052
:100020000C948B000C948B000C948B000C948B0024
:100030000C948B000C948B000C948B000C948B0014
:100040000C94A40E0C948B000C94720E0C944C0E19
:100050000C948B000C948B000C948B000C948B00F4
:100060000C948B000C948B000000000024002700EF
:100070002A0000000008000201000003040700003D
:1000800000000000000000000000230026002900FE
:1000900000000000250028002B00040404040404D0
:1000A0000404020202020202030303030303010227
:1000B00004081020408001020408102001020408F6
:1000C0001020600FA91111241FBECFEFD8E0DEBFB2
:1000D000CDBF11E0A0E0B1E0E4EAF8E202C0059093
:1000E0000D92A837B107D9F722E0A8E7B1E001C027
:1000F0001D92A13CB207E1F710E0C2E6D0E004C0D7
:100100002197FE010E942F14C136D107C9F70E9422
:10011000DC0F0C9445140C940000FB01208131810C
:1001200098E0A901220F331F87FD216057FF04C00B
:10013000F2E02F27F0E13F27880F915091F7FB0164
:10014000318320830895AF92BF92CF92DF92EF92D6
:10015000FF920F931F93CF93DF936C017B018B0171
:10016000040F151FEB015E01AE18BF08C017D107C1
:1001700059F06991D601ED91FC910190F081E02D4B
:10018000C6010995892B79F7C501DF91CF911F91A0
:100190000F91FF90EF90DF90CF90BF90AF900895B8
:1001A000FC01538D448D252F30E0842F90E0821B7D
:1001B000930B541710F0CF96089501970895FC0102
:1001C000918D828D981761F0A28DAE0FBF2FB11D5A
:1001D0005D968C91928D9F5F9F73928F90E00895B2
:1001E0008FEF9FEF0895FC01918D828D981731F06C
:1001F000828DE80FF11D858D90E008958FEF9FEFC0
:100200000895FC01918D228D892F90E0805C9F4F95
:10021000821B91098F739927089581E092E00E94D3
:10022000010121E0892B09F420E0822F089580E06C
:1002300090E0892B29F00E940D0181110C9400009F
:100240000895FC01A48DA80FB92FB11DA35ABF4F6B
:100250002C91848D90E001968F739927848FA689C5
:10026000B7892C93A089B1898C91837080648C9319
:10027000938D848D981306C00288F389E02D8081C8
:100280008F7D80830895EF92FF920F931F93CF93FA
:10029000DF93EC0181E0888F9B8D8C8D98131AC0C1
:1002A000E889F989808185FF15C09FB7F894EE89A8
:1002B000FF896083E889F989808183708064808305
:1002C0009FBF81E090E0DF91CF911F910F91FF9050
:1002D000EF900895F62E0B8D10E00F5F1F4F0F73F8
:1002E0001127E02E8C8D8E110CC00FB607FCFACFB3
:1002F000E889F989808185FFF5CFCE010E9421012F
:10030000F1CFEB8DEC0FFD2FF11DE35AFF4FF08283
:100310009FB7F8940B8FEA89FB8980818062CFCFE9
:10032000CF93DF93EC01888D8823B9F0AA89BB892C
:10033000E889F9898C9185FD03C0808186FD0DC017
:100340000FB607FCF7CF8C9185FFF2CF808185FF38
:10035000EDCFCE010E942101E9CFDF91CF91089529
:10036000833081F028F4813099F08230A9F008952B
:100370008730A9F08830C9F08430B1F480918000D2
:100380008F7D03C0809180008F77809380000895D7
:1003900084B58F7784BD089584B58F7DFBCF809120
:1003A000B0008F778093B00008958091B0008F7D6A
:1003B000F9CFCF93DF93282F30E0F901EE58FF4FAC
:1003C0008491F901E255FF4FD491F901E656FF4FB0
:1003D000C491CC23A1F081110E94B001EC2FF0E078
:1003E000EE0FFF1FEA57FF4FA591B491EC91ED235B
:1003F00081E090E009F480E0DF91CF91089580E002
:1004000090E0FACF1F93CF93DF93282F30E0F901CC
:10041000EE58FF4F8491F901E255FF4FD491F90155
:10042000E656FF4FC491CC23A9F0162F81110E94EC
:10043000B001EC2FF0E0EE0FFF1FE057FF4FA5914A
:10044000B4918FB7F894EC91111108C0D095DE23C8
:10045000DC938FBFDF91CF911F910895DE2BF8CFF2
:10046000CF93DF9390E0FC01E255FF4F2491865635
:100470009F4FFC0184918823C9F090E0880F991F59
:10048000FC01E859FF4FA591B491FC01E057FF4FE3
:10049000C591D49161110DC09FB7F8948C912095AE
:1004A00082238C938881282328839FBFDF91CF915B
:1004B0000895623051F49FB7F8943C91822F809553
:1004C00083238C93E8812E2BEFCF8FB7F894EC9198
:1004D0002E2B2C938FBFEACF2FB7F8946091CF01CA
:1004E0007091D0018091D1019091D2012FBF0895D8
:1004F0000895DC0112963C9112976317A0F4262F01
:1005000030E0220F331F13968D919C91280F391FD5
:10051000F90180819181DC01ED91FC910280F381F0
:10052000E02DBA010994FA01108281E00895CF9379
:10053000DF93DC0112968C9112976817B0F470E08B
:10054000660F771F13968D919C911497680F791FF2
:10055000EB0188819981EC01E881F9810190F081BA
:10056000E02DBD01DF91CF910994DF91CF910895E6
:100570008F929F92AF92BF92CF92DF92EF92FF92B3
:100580000F931F93CF93DF93EC01D62EB42E922EB0
:10059000E881F9810484F585E02D83E0882EAA2482
:1005A000A394C12CEE24EA94FE2C8701CE01099578
:1005B000182F8D819E81009769F011110BC0DC010D
:1005C000ED91FC910190F081E02D092D2B2D4D2D09
:1005D000BE010995812FDF91CF911F910F91FF905F
:1005E000EF90DF90CF90BF90AF909F908F90089545
:1005F000AF92CF92EF920F93FC018281081708F51A
:10060000802F90E0880F991FA381B481A80FB91F94
:100610000D90BC91A02D12968C91811112C08781F2
:100620009085009771F0AC2CCE2CE02E022F9A0111
:10063000AB01BF01DC01ED91FC910190F081E02D57
:1006400009950F91EF90CF90AF9008959F92AF9240
:10065000BF92CF92DF92EF92FF920F931F93CF93AF
:10066000DF93EC017C0187E6E80EF11CAA24AA9432
:100670008E010D591F4F35E0932ECC24CA94DC2CEB
:100680008C899D89DC01ED91FC910084F185E02D40
:100690000995892B09F4A0C00E946C02F7016083C0
:1006A0007183828393838C899D89DC01ED91FC9118
:1006B0000284F385E02D0995B82E9F898C3F29F49B
:1006C00091FD1EC092609F8BDBCF8D3FC9F49D7F53
:1006D00091609F8B1092BC011092BB01F8011082B7
:1006E0001182128213821D8E1E8E1F8E18A2D0922E
:1006F000BA01C092B90169EB71E00E948D00C0CFD0
:1007000090FFBECF91FF05C0B82E6894B7F89D7FCB
:100710009F8B69EB71E08B2D0E948D008091BB0156
:10072000843088F44D8D5E8D6F8D78A1762F652F86
:10073000542F44274B294D8F5E8F6F8F78A38F5F87
:100740008093BB019DCF843029F49092BB01B0927D
:10075000B80196CF2091B80123FF12C0893080F4F0
:10076000D8014D915D916D917C91762F652F542F1D
:1007700044274B29F8014083518362837383DFCF81
:100780008F3F59F0A092BB01B9A2F0E4FB1508F02D
:1007900077CF8F898E7F8F8B73CF8091BC01FE01C5
:1007A000E80FF11DB2A291E0980F9093BC0139A11E
:1007B000931366CF4091B9015091BA01452B09F0CE
:1007C0005FCF9F899E7F9F8BFE01EE59FF4F208355
:1007D000815089A381E08C8FDF91CF911F910F9180
:1007E000FF90EF90DF90CF90BF90AF909F900895D3
:1007F0000F931F93CF938C01C62F4115510521F004
:10080000BA018C2F0E948D0084E08C0F833068F435
:10081000D80154968D919C91DC01ED91FC91019051
:10082000F081E02D6CEF0995CF77F80184899589E7
:10083000DC01ED91FC910190F081E02D6C2FCF91C6
:100840001F910F9109948F929F92AF92BF92CF9276
:10085000DF92EF92FF920F931F93CF93DF9300D01D
:10086000CDB7DEB78C018FEF9FEF9A838983780134
:1008700023E7E20EF11CF70180819181A281B3810F
:100880008F3F9F4FAF4FBF4F99F0F801E958FF4F8F
:10089000D801AE59BF4F8C9190E0959587958370A4
:1008A00020E2829FC001112490819F79892B80834F
:1008B00061E0D80156968C910E940202F801848969
:1008C0009589DC01ED91FC910190F081E02D6DEFB7
:1008D0000995BE016F5F7F4F8DEF0E948D00F7017C
:1008E00080809180A280B38054E0F52E6B2D772715
:1008F00088279927AE014F5F5F4FC8010E94F80318
:10090000BA2CA92C982C8824FA94F110EFCFAE01C0
:100910004F5F5F4F7801F7E7EF0EF11CD7016C9145
:10092000C8010E94F803F701808183FF1AC0D80133
:1009300058968D909D90AD90BC905B9724E0F22EE0
:100940006B2D772788279927AE014F5F5F4FC8012E
:100950000E94F803BA2CA92C982C8824FA94F11040
:10096000EFCF6801B8E7CB0ED11CF60160816E5F56
:10097000AE014F5F5F4FC8010E94F803F12CD60112
:100980008C91F81670F4F801EF0DF11DE758FF4F48
:10099000AE014F5F5F4F6081C8010E94F803F3947E
:1009A000EECFBE016F5F7F4F80E00E948D00BE01E1
:1009B0006F5F7F4F80E00E948D006A8150E040E0D1
:1009C000C8010E94F80350E040E06981C8010E941C
:1009D000F803F80184899589DC01ED91FC9106808A
:1009E000F781E02D099560E0F80186890E940202F6
:1009F000D80157968C915797886057968C930F9093
:100A00000F90DF91CF911F910F91FF90EF90DF90AA
:100A1000CF90BF90AF909F908F9008959F92AF928C
:100A2000BF92CF92DF92EF92FF920F931F93CF93DB
:100A3000DF9300D000D000D01F92CDB7DEB7DC012D
:100A400017962D913C91232B09F443C0942E5B0102
:100A50006C010E946C02F6010381148125813681AC
:100A6000AB01BC01401B510B620B730B878190855E
:100A7000B0E0A0E0481759076A077B0750F10E94D1
:100A80006C02D60113966D937D938D939C9316976C
:100A9000ED91FC910280F381E02DBE016F5F7F4FED
:100AA000C6010995D501ED91FC910084F185E02DF9
:100AB000E12CF12C87019E012F5F3F4F482F692DBC
:100AC000C50109958130B9F48AEF90E0F60190876D
:100AD000878327960FB6F894DEBF0FBECDBFDF9198
:100AE000CF911F910F91FF90EF90DF90CF90BF902B
:100AF000AF909F900895D60118961C921E9217975A
:100B0000E8CFFC018285882329F088ECFB018083F3
:100B100081E00895FB011082FBCF0F931F93CF93C9
:100B2000DF93EC018B01EB85FC85608161FF13C0D5
:100B3000D9019C918985993C68F10E94D90161E0B5
:100B4000892B09F060E089850E94020281E09A8584
:100B5000911180E08A878F819885892BB1F4EB858C
:100B6000FC85808180FF11C00E946C026B837C83B6
:100B70008D839E83D8011F96ED91FC918081B4E610
:100B80008B9FC001112498878F83DF91CF911F9194
:100B90000F91089562FB662760F9992321F00E9466
:100BA000020281E0D7CF91E069270E9402021A86F3
:100BB000D2CFCF93DF93EC013A85AB85BC85898595
:100BC0009C913E3F79F492FB662760F991E069279A
:100BD0000E94020261E089850E9430021A86DF913C
:100BE000CF91089521E0311120E092FB662760F952
:100BF0006227DF91CF910C9402022091D5013091B0
:100C0000D6012817390771F49091D3018091D4014E
:100C1000981741F0E091D301F0E0E858FE4F808151
:100C200090E008958FEF9FEF0895EF92FF921F934A
:100C3000CF93DF93EC012C8D3D8D2115310561F4AF
:100C400081E090E09B838A8390E080E0DF91CF9108
:100C50001F91FF90EF900895E989FA898889482FBC
:100C600040951FB7A8E0B0E050E890E0762F7523DC
:100C700009F09F5F56951197C9F7F8945081542356
:100C80005083D9011197F1F758E0E62EF12C60FF5F
:100C90001EC06081682B6083D9011197F1F7B701FD
:100CA00075956795515089F790FF14C09081982BE6
:100CB0009083D9011197F1F79081892B80831FBF11
:100CC0008C8D9D8D0197F1F781E090E0BFCF608121
:100CD0006423E1CF90819423EBCF2091D501309113
:100CE000D6012817390771F48091D4012091D301DE
:100CF00090E0805C9F4F821B910960E470E00E944D
:100D00000714089590E080E008952091D501309176
:100D1000D60128173907B9F49091D3018091D401F5
:100D2000981789F0E091D301F0E0E858FE4F8081F8
:100D30002091D30130E02F5F3F4F2F733327209353
:100D4000D30190E008958FEF9FEF089590E080E049
:100D500008958091E9018F3F19F482E38093E901BE
:100D600008959F92AF92BF92CF92DF92EF92FF923F
:100D70000F931F93CF93DF938C015B017A01922E27
:100D8000D0E0C0E06A0181E0C81AD108CE15DF05C5
:100D900079F0C6018C1B9D0B911001C0CE018A0D0C
:100DA0009B1D0E948E13F80181938F012196EECF37
:100DB000DF91CF911F910F91FF90EF90DF90CF9037
:100DC000BF90AF909F900895CF93DF93EC014E8535
:100DD00050E020E061E070E08F8598890E94B106C4
:100DE000EF85F88981819281238134813183EF8578
:100DF000F8892283EF85F8899383EF85F8898483C6
:100E00008091D70181608093D701DF91CF910895C0
:100E10004F925F926F927F928F929F92AF92BF920A
:100E2000CF92DF92EF92FF920F931F93CF93DF93B6
:100E300000D000D000D01F92CDB7DEB74B01290102
:100E40003A0130E4C32ED12CFF24FA9448ECB42E9E
:100E500021E044E050E0B601CE0101960E94B106C7
:100E600089819A81AB81BC818F3F2FEF9207A207C6
:100E7000B20709F44AC084159505A605B70509F01F
:100E800044C020E041E050E0B6016C5F7F4FCE01EE
:100E900006960E94B1068E81801337C020E041E0A3
:100EA00050E0B6016B5F7F4FCE0106960E94B106FF
:100EB0001E811E112AC020E041E050E0B6016A5FA9
:100EC0007F4FCE0107960E94B106AA2039F08F818C
:100ED00090E095958795959587958F838F81837001
:100EE0008F83823091F0833091F1813071F1BD8236
:100EF000D401ED91FC910280F381E02D9E012B5FE6
:100F00003F4F41E0612FC4010995B7E0CB0ED11CE2
:100F10002CE3C21621E0D20609F09ACF27960FB62D
:100F2000F894DEBF0FBECDBFDF91CF911F910F911F
:100F3000FF90EF90DF90CF90BF90AF909F908F90F9
:100F40007F906F905F904F9008951D82D1CFFD826A
:100F5000CFCF1F93CF93DF93EC01162F0E948E13F8
:100F6000181739F0612FCE01DF91CF911F910C94AA
:100F70009613DF91CF911F910895BF92CF92DF9288
:100F8000EF92FF920F931F93CF93DF93EC01062F05
:100F9000B42E6623B9F10E946C02FE01E959FF4F9D
:100FA000C080D180E280F380AB01BC014C195D09A7
:100FB0006E097F097E012BE6E20EF11CF7018081AC
:100FC0009181B0E0A0E084179507A607B70758F015
:100FD00081E0DF91CF911F910F91FF90EF90DF9013
:100FE000CF90BF9008950E94361324E630E040E091
:100FF00050E00E94A4136E527F4F8F4F9F4FF70116
:101000007183608381E0FE01E359FF4F8083369650
:1010100080819181A281B3818F3F9F4FAF4FBF4F9E
:1010200009F44AC0FE01E958FF4F80818370813086
:1010300009F442C010E0B11609F445C0CE010E9487
:1010400023040E946C026B017C010E946C026C19EB
:101050007D098E099F09683C710581059105E0F4C1
:10106000CE010E9426038C8D882379F34D8D5E8DF1
:101070006F8D78A1888D998DAA8DBB8D48175907E2
:101080006A077B0711F71C8ECE010E94AD088F897D
:1010900083FDDBCF80E09DCF011102C01F5FCBCF6E
:1010A0000E946C026C197D098E099F0966397105D1
:1010B0008105910598F78CCFCE010E9423048F897A
:1010C000877F8F8BE7CF82E084CF8F92AF92CF92D2
:1010D000EF92FF920F931F93CF93DF93CDB7DEB7BD
:1010E000342F482D5091D70153FD2CC0FC01ED58F1
:1010F000FF4FE082F1820283138358EF34965083CE
:1011000054E0319650835BE431965083319660838E
:101110003196C082211114C022E0FC01E458FF4F37
:10112000330F330F320F30836A2DDF91CF911F9130
:101130000F91FF90EF90CF90AF908F900C94BD07E0
:1011400023E0EBCF81E0DF91CF911F910F91FF90D2
:10115000EF90CF90AF908F900895CF92DF92EF9263
:10116000FF92FC01DC01A259BF4F81E08C934789BB
:101170001C973C9143FF24C0832F90E025E0959578
:1011800087952A95E1F7282F237055968C9190E04A
:10119000959587958370281313C05497CD90DD9053
:1011A000ED90FC90139750968D919D910D90BC9170
:1011B000A02DC816D906EA06FB0611F4477F478B17
:1011C0003370313019F181A1811126C0858D968D42
:1011D000A78DB0A18F3F9F4FAF4FBF4FE9F0CF0119
:1011E000ED58FF4FDC01AD59BF4F4D915D916D91B1
:1011F0007C914083518362837383349629E12083F9
:101200003196108243E060E00E94BD0780E0FF90CD
:10121000EF90DF90CF90089581E0F9CF8F929F9269
:10122000AF92BF92CF92DF92EF92FF920F931F93F4
:10123000CF93DF93EC018091D70180FF23C0E88139
:10124000F9810680F781E02DCE01099510E08A81B1
:10125000181798F4812F90E0880F991FEB81FC817B
:10126000E80FF91F80819181DC01ED91FC910680EE
:10127000F781E02D09951F5FEACF8091D7018E7F1E
:101280008093D701CE010E9426038C8D882371F1B3
:101290001C8E8D8D9E8DAF8DB8A1488D598D6A8D18
:1012A0007B8D84179507A607B70729F08F3F9F4FBF
:1012B000AF4FBF4FD9F4CE010E94AD088823B1F0E3
:1012C00021E08D8D9E8DAF8DB8A18F3F9F4FAF4F89
:1012D000BF4F09F020E0E881F9810288F389E02D11
:1012E00049A1BE016E5D7F4FCE010995D090D70117
:1012F000D1FC62C00E946C02683E7340810591057A
:1013000008F45AC08FEF9FEFDC01FE01ED58FF4F4C
:1013100080839183A283B38388EF3496808380E1B6
:101320003196808381E431968083319610828D8559
:10133000319680838989319680838A899B89319609
:10134000908331968083688D798D8A8D9B8D28E47A
:101350003196208322E4319620837E0111E8E10E4C
:10136000F11C27E5D7012C938E0108571F4F3AE057
:10137000832E912CA12CB12C0E151F0561F001506C
:101380001109A50194010E94D613605DF8016183E3
:10139000B901CA01F1CF81E0D3FC05C043E061E0AF
:1013A000CE010E94BD0791E0811190E08091D701AC
:1013B00090FB81F98093D7014091C901842F90E07F
:1013C000880F991FEB81FC81E80FF91F80819181C3
:1013D000DC01ED91FC910480F581E02DBE010995C1
:1013E0008091C9018F5F8093C9019A81891710F09C
:1013F0001092C9018985882309F45CC00E946C029F
:101400006B017C0189859CEE980F9230D0F48E5050
:10141000806480937C0080917A00806480937A005D
:1014200080917A0086FDFCCF9091780080917900C0
:1014300089279827892721E08A3F91053CF020E001
:1014400005C00E94D90121E0892BC9F78091D801FC
:10145000823009F4E1C008F08EC0882309F4A5C0E9
:10146000813009F4B0C08A85882321F14091BD0103
:101470005091BE016091BF017091C001970186013A
:10148000041B150B260B370BB901A8014536510576
:101490006105710578F09091D801953008F000C190
:1014A000923008F006C1992309F40BC161E0913034
:1014B00009F408C10E946C020091C5011091C60197
:1014C0002091C7013091C801601B710B820B930BF7
:1014D0006D3371058105910508F43FC08B85882324
:1014E000F9F09C8589130CC0DE01A259BF4F9C9175
:1014F000992331F091E0FE01E359FF4F90831C9254
:101500009091D801992319F09A85891749F08E0195
:1015100003591F4FD8016C910E940202F8011082FA
:101520008C85882381F09B85891769F09091D8017B
:10153000992319F09A85891731F0C259DF4F6881D4
:101540000E94020218820E946C026093C50170938F
:10155000C6018093C7019093C801A895DF91CF91F0
:101560001F910F91FF90EF90DF90CF90BF90AF90C1
:101570009F908F900895843009F472C008F450C091
:10158000853009F070CF21116ECF10E000E06FEFD1
:10159000C8010E94A9070F5F1F4F0C3F63E01607A9
:1015A000B1F7CE010E94E40634C0222319F081E095
:1015B0008093D801C092C101D092C201E092C301D0
:1015C000F092C40150CF8091C1019091C201A091CD
:1015D000C301B091C401B701A601481B590B6A0BA6
:1015E0007B0BDB01CA01222351F089389341A1050D
:1015F000B10508F438CF82E08093D80134CF853626
:101600009105A105B10528F08091D7018D7F8093C8
:10161000D7011092D80127CF83E0222349F223CFAC
:101620008091C1019091C201A091C301B091C40108
:10163000B701A601481B590B6A0B7B0BDB01CA01E2
:1016400084369105A105B10508F40DCF222311F0D0
:1016500084E0AECF81319742A105B105D0F603CF2A
:101660008091C1019091C201A091C301B091C401C8
:10167000B701A601481B590B6A0B7B0BDB01CA01A2
:1016800084369105A105B10508F4EDCE222309F2B7
:10169000893B9B40A105B10508F4E5CE85E0ACCFC0
:1016A000953009F007CF4F3E52406105710508F4AF
:1016B00001CF0E94D90161E0892B09F060E08A85A1
:1016C00001C060E00E940202C092BD01D092BE0142
:1016D000E092BF01F092C001EDCECF92DF92EF9287
:1016E000FF920F931F93CF93DF93EC010CEF13E066
:1016F00060E070E0CB01CC24D62EE72EF82EC80196
:101700000E948E139601282BC701B9010F5F1F4F4E
:10171000011534E0130779F76F3F4FEF7407840723
:10172000940721F46FEF7FEF8FEF92E4688F798F4A
:101730008A8F9B8F611571058105910511F00E94BB
:1017400085130E943613C559DF4F24E630E040E090
:1017500050E00E94A4136E527F4F8F4F9F4F7983AA
:1017600068838091D7018D7F8093D701DF91CF91DE
:101770001F910F91FF90EF90DF90CF900895CF933E
:10178000DF935091D70153FD27C0EC01FC01ED58C8
:10179000FF4F8FEF9FEFDC0180839183A283B383A0
:1017A000349688EF8083319683E0840F808331966E
:1017B0008BE48083319660833196108250E0B901CA
:1017C000CE0184589F4F0E94351443E061E0CE0162
:1017D000DF91CF910C94BD0781E0DF91CF91089507
:1017E000EF92FF920F931F93CF93DF93EC018091C1
:1017F000D70183FD30C0E114F1040105110531F476
:10180000EF85F889E180F28003811481FE01ED58B3
:10181000FF4FE082F18202831383349688EF808346
:10182000319682E0840F8083319689E680833196F9
:10183000608350E0B901CE0185589F4F0E94351456
:1018400043E061E0CE01DF91CF911F910F91FF90B6
:10185000EF900C94BD0781E0DF91CF911F910F9124
:10186000FF90EF9008954F925F926F927F928F92C8
:101870009F92AF92BF92CF92DF92EF92FF920F931F
:101880001F93CF93DF93222309F1DB018C918A35DB
:1018900099F08A37B9F0DF91CF911F910F91FF90A6
:1018A000EF90DF90CF90BF90AF909F908F907F9000
:1018B0006F905F904F9008958091D701877F8093BC
:1018C000D701E9CF8091D7018860F9CF2091D70166
:1018D00023FDE1CF142F5B01EC01FC01ED59FF4F1B
:1018E000408151816281738170964083518362830C
:1018F00073834C01B7E78B0E911C88E7F40180835A
:10190000D5018C91873509F425C108F054C0853480
:1019100009F482C070F5813409F474C0833409F489
:1019200077C0803409F066C0F50181818136E9F421
:101930001630D9F48281811107C08381811104C0DE
:101940008481882309F456C0F2E0AF0EB11C0CEF7D
:1019500013E0D5016D915D01C8010E94A9070F5FD9
:101960001F4F0115B4E01B07A1F7CE010E946D0BBC
:1019700041C0823509F4CFC0833509F46EC18B3480
:10198000C9F5D50113968C91B82FB170CB2EE82EE6
:10199000F12CF594E794F594E794E881F9810088B7
:1019A000F189E02DD50112960C91129711962C9188
:1019B000CE0109951FC0833709F440C198F48C36D5
:1019C00009F4EFC08E3609F402C1883699F48D858A
:1019D000FE01E758FF4F808389893196808382E03A
:1019E000329714C0883709F429C18B3C51F28637ED
:1019F00009F41DC189E1D4018C93FE01E858FF4F21
:101A000010826EC089E6FE01E758FF4F808368C0F0
:101A1000CE010E94E406EECFF50163809481892F08
:101A2000869586958695492E512C9770FE01E8582B
:101A3000FF4F91116AC08C5F8083408150E070E05D
:101A400060E08E0107581F4FC8010E943E1485E6D2
:101A5000D8018C93F5018181FE01E658FF4F808308
:101A6000D50112968C9112973196808313968C91A2
:101A700031968083712CD12CC12C10E000E0812C98
:101A8000912C54018394F12CE12CE614F7040CF50D
:101A9000C7018C0D9D1D0E948E138F3FC1F1F8016F
:101AA000A3E0F595E795AA95E1F7EC0FFD1FE35844
:101AB000FF4FC80187709927A501940104C0220F28
:101AC000331F441F551F8A95D2F7C9012081822BED
:101AD00080830F5F1F4FC60CD71C401651069CF623
:101AE00043E060E0CE01DF91CF911F910F91FF9015
:101AF000EF90DF90CF90BF90AF909F908F907F90AE
:101B00006F905F904F900C94BD078B5F95CF3FEF28
:101B1000E31AF30ABACF143009F06CCFF501E18073
:101B2000F280FE24EF24FE24D12CD50113968C9153
:101B3000D81608F078C00D2D10E0C8018E0D9F1D3D
:101B40000E948E130C0F1D1FF801E758FF4F808372
:101B5000D394EBCF13968C91139790E004961817BB
:101B6000190609F047CF1196CD90DC90DC24CD24E6
:101B7000DC24760104E0011708F03CCFBCEFEB1643
:101B8000B3E0FB064CF4F701EC19FD09EA0DFB1D6F
:101B90006481C7010E94A9070F5FEFEFEE1AFE0AEA
:101BA000EACF12968C919A81891708F023CF90E0A2
:101BB000880F991F2B813C81820F931FDC01ED91CF
:101BC000FC91D50113968C918170828313CF688D1F
:101BD000798D8A8D9B8D28E4FE01E758FF4F208385
:101BE00022E4319620837E01BBE7EB0EF11C27E552
:101BF000F70120838E010E571F4F2AE0822E912C71
:101C0000A12CB12C0E151F0569F001501109A50179
:101C100094010E94D613605DD80111966C93B901AE
:101C2000CA01F0CF8AE0FE01E858FF4FEFCE8A8963
:101C30009B89FE01E758FF4F9083CFCE95012E5F21
:101C40003F4F4EEF410FE881F9810280F381E02D93
:101C5000D50111966C91CE010995F501618189E656
:101C6000F82E8E0107581F4FD801FC92FE01E6584E
:101C7000FF4F6083E881F9810480F581E02DAE019A
:101C800045585F4FCE010995FE01E858FF4F8E5F22
:101C90008083F801F08224CF1F920F920FB60F922B
:101CA00011242F933F934F935F936F937F938F9361
:101CB0009F93AF93BF93EF93FF9381E092E00E94D5
:101CC0002101FF91EF91BF91AF919F918F917F91F2
:101CD0006F915F914F913F912F910F900FBE0F9099
:101CE0001F9018951F920F920FB60F9211242F93E9
:101CF0008F939F93EF93FF93E0911102F091120263
:101D00008081E0911702F091180282FD1BC0908142
:101D100080911A028F5F8F7320911B02821741F00E
:101D2000E0911A02F0E0EF5FFD4F958F80931A0269
:101D3000FF91EF919F918F912F910F900FBE0F9078
:101D40001F9018958081F4CF1F920F920FB60F92BB
:101D500011242F933F938F939F93AF93BF938091C1
:101D6000CF019091D001A091D101B091D2013091D9
:101D7000CE0123E0230F2D3758F50196A11DB11D8B
:101D80002093CE018093CF019093D001A093D101F5
:101D9000B093D2018091CA019091CB01A091CC0166
:101DA000B091CD010196A11DB11D8093CA01909300
:101DB000CB01A093CC01B093CD01BF91AF919F9186
:101DC0008F913F912F910F900FBE0F901F901895FC
:101DD00026E8230F0296A11DB11DD2CF1F920F92AC
:101DE0000FB60F9211242F933F934F935F936F93EE
:101DF0007F938F939F93AF93BF93EF93FF93E09164
:101E0000D501F091D601309709F445C0A685B78574
:101E10002C918585282309F03EC0A389B4899C9123
:101E20008589809589238C93868997890197F1F715
:101E3000608D718DA685B785558538E0CB010197FA
:101E4000F1F7822F90E095958795282F4C914523A7
:101E500009F02068315091F78091D40190E001960B
:101E60008F7399273091D301381731F1A091D401A4
:101E7000B0E0A858BE4F2C938093D401828D938DEF
:101E8000DC011197F1F70197F1F7A389B4898C91DF
:101E90009589892B8C93FF91EF91BF91AF919F9181
:101EA0008F917F916F915F914F913F912F910F9003
:101EB0000FBE0F901F901895868D8160868FDECFA4
:101EC000CF93DF93E1E0F2E01382128288EE93E099
:101ED000A0E0B0E084839583A683B78328E531E052
:101EE0003183208325EC30E03587248724EC30E0F3
:101EF0003787268720EC30E0318B208B21EC30E0D7
:101F0000338B228B22EC30E0358B248B26EC30E0B7
:101F1000378B268B118E128E138E148ECEE9D2E063
:101F20001B821A828C839D83AE83BF838AE691E0F5
:101F3000998388831F8A1E8A198E188E1B8E1A8E8B
:101F40001D8E1C8EECEBF2E080818E7F808361E041
:101F500082E00E94020261E082E00E943002E0EB37
:101F6000F0E0E491E88BECE9F0E0E491F0E0EE0FD2
:101F7000FF1FE057FF4F859194919A8B898B60E00A
:101F800084E00E94300261E084E00E94020284E06A
:101F90008C87E2EBF0E0E491ED87EEE9F0E0E4918C
:101FA000F0E0EE0FFF1FEA57FF4F859194919F8756
:101FB0008E87DF91CF910895789484B5826084BD37
:101FC00084B5816084BD85B5826085BD85B581603D
:101FD00085BD80916E00816080936E0010928100BB
:101FE0008091810082608093810080918100816076
:101FF0008093810080918000816080938000809137
:10200000B10084608093B1008091B00081608093C2
:10201000B00080917A00846080937A0080917A0089
:10202000826080937A0080917A00816080937A0048
:1020300080917A00806880937A001092C100E091CC
:102040001102F091120282E08083E0910D02F09182
:102050000E021082E0910F02F091100280E1808365
:1020600010921902E0911502F091160286E0808329
:10207000E0911302F0911402808180618083E091ED
:102080001302F0911402808188608083E091130232
:10209000F0911402808180688083E0911302F091B6
:1020A000140280818F7D80831092B9021092B80251
:1020B0001092B7021092B6021092B5021092B402BA
:1020C0008DEC90E09093BB028093BA029091AA02AB
:1020D000963108F047C025E530E03093B5022093F3
:1020E000B4022BEC30E03093B7022093B60220E923
:1020F00030E03093B9022093B8022091680084E068
:10210000983048F031E09E3008F430E081E001C0C2
:10211000880F3A95EAF7822B809368002DE630E02D
:10212000983050F02BE630E09E3030F02CE630E076
:10213000963110F030E020E03093B2022093B102EB
:10214000292F30E0983008F0F7C081E001C0880FF7
:102150009A95EAF78093B3028091BA029091BB02FC
:102160000197F1F78091B8029091B902892B49F15A
:10217000E091D501F091D60182E0EE39F80709F13E
:10218000309739F0A389B4899C91858980958923FA
:102190008C938091BC028E7F8093BC021092D401FC
:1021A0001092D3018EE992E09093D6018093D501ED
:1021B000E091B102F091B20280819091B302892B3B
:1021C00080838CE4E82E81E0F82E09ED11E0D0E068
:1021D000C0E09EE0A92E91E0B92E2EEFD22E8DE028
:1021E00090E00E94C511FC01D7018D917D01128202
:1021F000B182A0828187CE0181519E4F94878387CF
:1022000010861782D286D801ED93FD938D01229618
:10221000C031D10521F782E090E00E94C5117C0118
:102220008AE491E0F7019183808389EB90E00E943A
:10223000C511EC018AE191E099838883FE01E1599F
:10224000FF4F80E098E39183808332961182108261
:1022500086E18E8789EE91E0988B8F8718E01A834C
:1022600089ED91E09C838B831E821D82F886EF822C
:10227000198A86E690E09B8B8A8B8EE992E09D8B93
:102280008C8B83E08E8B61E00E94300260E08E894F
:102290000E9402021C8EFE01E959FF4F108211823A
:1022A00012821382349682ED90E0918380831A86A5
:1022B0001B861C8683E88D87CE010E946D0B1986D4
:1022C0001092D801CE010E94E4068091D701877F49
:1022D0008093D70188E19EE00FB6F894A89580938B
:1022E00060000FBE9093600082E391E09983888341
:1022F000D0930002C093FF01198762E088E00E943A
:1023000030028DE08A8761E00E943002C0E0D0E0B8
:102310008091FF0190910002DC01ED91FC91019010
:10232000F081E02D0995209799F30E940D018823F3
:1023300079F30E940000ECCF9E3040F42850310920
:1023400081E001C0880F2A95EAF704CF2E503109A9
:10235000F7CF8AE691E090939F0280939E0280914E
:10236000D5019091D6018E59924071F4E091B1025D
:10237000F091B20290818091B3028095892380838D
:102380001092D6011092D50108950F931F93CF9309
:10239000DF938230910510F482E090E0E091BF027B
:1023A000F091C00230E020E0B0E0A0E0309799F476
:1023B0002115310509F44AC0281B390B2430310599
:1023C000D8F58A819B816115710589F1FB019383A1
:1023D0008283FE0111C0408151810281138148171F
:1023E0005907E0F04817590799F4109761F01296D1
:1023F0000C93129713961C933296CF01DF91CF91D5
:102400001F910F9108950093BF021093C002F4CF63
:102410002115310551F04217530738F0A901DB01AE
:102420009A01BD01DF01F801C1CFEF01F9CF90930F
:10243000C0028093BF02CDCFFE01E20FF31F819354
:1024400091932250310939832883D7CF2091BD023F
:102450003091BE02232B41F42091020130910301FF
:102460003093BE022093BD02209100013091010102
:102470002115310541F42DB73EB74091040150912B
:102480000501241B350BE091BD02F091BE02E2175D
:10249000F307A0F42E1B3F0B2817390778F0AC0187
:1024A0004E5F5F4F2417350748F04E0F5F1F509364
:1024B000BE024093BD02819391939FCFF0E0E0E094
:1024C0009CCFCF93DF930097E9F0FC013297138202
:1024D0001282A091BF02B091C002ED0130E020E075
:1024E0001097A1F420813181820F931F2091BD02AA
:1024F0003091BE022817390709F061C0F093BE027F
:10250000E093BD02DF91CF910895EA01CE17DF0776
:10251000E8F54A815B819E0141155105B1F7E9015A
:10252000FB83EA8349915991C40FD51FEC17FD072E
:1025300061F4808191810296840F951FE90199834E
:102540008883828193819B838A83F0E0E0E0129606
:102550008D919C9113970097B9F52D913C9111970E
:10256000CD010296820F931F2091BD023091BE02D1
:102570002817390739F6309751F51092C00210929A
:10258000BF02B093BE02A093BD02BCCFD383C2836F
:1025900040815181840F951FC817D90761F44E5FA0
:1025A0005F4F88819981480F591F518340838A81E9
:1025B0009B81938382832115310509F0B0CFF0937D
:1025C000C002E093BF029ECFFD01DC01C0CF1382A9
:1025D0001282D7CF8F929F92AF92BF92CF92DF920B
:1025E000EF92FF92CF93DF93EC01688179818A812A
:1025F0009B81611571058105910521F464E279EDF6
:102600008BE597E02DE133EF41E050E00E94A41309
:1026100049015A019B01AC01A7EAB1E40E94C3132E
:102620006B017C01ACEEB4EFA50194010E94D113C3
:10263000C60ED71EE81EF91EF7FE06C081E0C81AB6
:10264000D108E10880E8F80AC882D982EA82FB82D0
:10265000C701B6019F77DF91CF91FF90EF90DF9098
:10266000CF90BF90AF909F908F9008958F929F9240
:10267000AF92BF92CF92DF92EF92FF9260910601EC
:102680007091070180910801909109016115710510
:102690008105910521F464E279ED8BE597E02DE168
:1026A00033EF41E050E00E94A41349015A019B011D
:1026B000AC01A7EAB1E40E94C3136B017C01ACEE4C
:1026C000B4EFA50194010E94D113C60ED71EE81ED7
:1026D000F91EF7FE06C081E0C81AD108E10880E8BB
:1026E000F80AC0920601D0920701E0920801F09228
:1026F0000901C701B6019F77FF90EF90DF90CF905F
:10270000BF90AF909F908F90089560930601709353
:10271000070180930801909309010895F999FECF6C
:1027200092BD81BDF89A992780B50895262FF99911
:10273000FECF1FBA92BD81BD20BD0FB6F894FA9AA4
:10274000F99A0FBE01960895052E97FB1EF400948A
:102750000E94BB1357FD07D00E94D61307FC03D07D
:102760004EF40C94BB1350954095309521953F4FF6
:102770004F4F5F4F089590958095709561957F4F6D
:102780008F4F9F4F08950E94F813A59F900DB49FFF
:10279000900DA49F800D911D11240895B7FF0C94F6
:1027A000C3130E94C313821B930B0895A1E21A2E38
:1027B000AA1BBB1BFD010DC0AA1FBB1FEE1FFF1FE5
:1027C000A217B307E407F50720F0A21BB30BE40B35
:1027D000F50B661F771F881F991F1A9469F760957C
:1027E0007095809590959B01AC01BD01CF01089536
:1027F000A29FB001B39FC001A39F700D811D112442
:10280000911DB29F700D811D1124911D089597FB9C
:10281000072E16F4009407D077FD09D00E941B14F0
:1028200007FC05D03EF4909581959F4F08957095D3
:1028300061957F4F0895AA1BBB1B51E107C0AA1FDA
:10284000BB1FA617B70710F0A61BB70B881F991F51
:102850005A95A9F780959095BC01CD010895EE0F8A
:10286000FF1F0590F491E02D0994FB01DC0102C0EB
:1028700001900D9241505040D8F70895DC0101C0FD
:102880006D9341505040E0F7089510E0C2E6D0E06B
:1028900004C0FE010E942F142196C336D107C9F748
:1028A000F894FFCF0000C10280000100000000008A
:1028B00000008D0581050E05D905000000000E09F8
:1028C000970279027802F00BB8026508BF0BF80294
:1028D000330C000000000E0997027902A906F00BE4
:1028E000B8026508BF0BF802330C000000000807AF
:1028F0000E0F101112130A0B000000004301A30079
:10290000D00090010101DF00F30000000000150677
:0C291000A300A60678026D068506FD05F2
:107E0000112484B714BE81FFF0D085E080938100F7
:107E100082E08093C00088E18093C10086E0809377
:107E2000C20080E18093C4008EE0C9D0259A86E02C
:107E300020E33CEF91E0309385002093840096BBD3
:107E4000B09BFECF1D9AA8958150A9F7CC24DD24C4
:107E500088248394B5E0AB2EA1E19A2EF3E0BF2EE7
:107E6000A2D0813461F49FD0082FAFD0023811F036
:107E7000013811F484E001C083E08DD089C08234E0
:107E800011F484E103C0853419F485E0A6D080C0E4
:107E9000853579F488D0E82EFF2485D0082F10E0AE
:107EA000102F00270E291F29000F111F8ED06801E7
:107EB0006FC0863521F484E090D080E0DECF843638
:107EC00009F040C070D06FD0082F6DD080E0C81688
:107ED00080E7D80618F4F601B7BEE895C0E0D1E017
:107EE00062D089930C17E1F7F0E0CF16F0E7DF06D8
:107EF00018F0F601B7BEE89568D007B600FCFDCFD4
:107F0000A601A0E0B1E02C9130E011968C91119780
:107F100090E0982F8827822B932B1296FA010C0160
:107F200087BEE89511244E5F5F4FF1E0A038BF0790
:107F300051F7F601A7BEE89507B600FCFDCF97BE46
:107F4000E89526C08437B1F42ED02DD0F82E2BD052
:107F50003CD0F601EF2C8F010F5F1F4F84911BD097
:107F6000EA94F801C1F70894C11CD11CFA94CF0C13
:107F7000D11C0EC0853739F428D08EE10CD085E9AC
:107F80000AD08FE07ACF813511F488E018D01DD067
:107F900080E101D065CF982F8091C00085FFFCCF94
:107FA0009093C60008958091C00087FFFCCF809118
:107FB000C00084FD01C0A8958091C6000895E0E648
:107FC000F0E098E1908380830895EDDF803219F02E
:107FD00088E0F5DFFFCF84E1DECF1F93182FE3DFCA
:107FE0001150E9F7F2DF1F91089580E0E8DFEE27F6
:047FF000FF270994CA
:027FFE00040479
:00000001FF
